:020000040800F2
:1000000000500020590200085D0100084901000865
:1000100045010008310100081D0100080000000032
:1000200000000000000000000000000019010008AE
:10003000150100080000000011010008910C0008E3
:100040000D0100080D0100080D0100080D01000858
:100050000D0100080D0100080D0100080D01000848
:100060000D0100080D0100080D0100080D01000838
:100070000D0100086D1E0008F9330008291E000854
:100080000D010008E51D0008052C00080D01000801
:100090000D0100080D0100080D0100080D01000808
:1000A0000D0100080D0100080D0100080D010008F8
:1000B0000D0100080D0100080D0100080D010008E8
:1000C0000D0100080D0100080D0100080D010008D8
:1000D0000D0100088D3000080D0100080D01000819
:1000E0000D0100080D0100080D01000800000000CE
:1000F0000000000000000000000000000000000000
:1001000000000000000000005FF808F100BEFEE7FC
:1001100000BEFEE700BEFEE700BEFEE71EF0040FD5
:100120000CBFEFF30880EFF3098071464C4A10478B
:100130001EF0040F0CBFEFF30880EFF30980714647
:10014000484A104700BEFEE71EF0040F0CBFEFF355
:100150000880EFF309807146434A104700BEFEE76E
:1001600000BEFEE700BEFEE700BEFEE700B583B0BE
:1001700000F072FE284B294A1360294A1360294B6C
:10018000294A03E052F8041B43F8041B27498B4219
:10019000F8D3224B1A68264B9A4200D0FEE7204B38
:1001A0001A68244B9A42F9D11B4B234A1360234A05
:1001B0001360234B02E0002243F8042B214A9342B0
:1001C000F9D31D4B1B6813B91C4B1B6803B1FEE729
:1001D00000F03EFE694601A800F04AFE1A4C1B4B97
:1001E000E41AA410002504E0184B53F82530984772
:1001F0000135AC42F8DC164C164BE41AA41000256D
:1002000004E0144B53F8253098470135AC42F8DC34
:100210000099019804F0F2FFBABADECA000000208B
:10022000AC00002000000020C4570008B0000020EF
:100230007856341232547698B0000020F01E002018
:10024000B0000020F41E0020940200089402000870
:10025000940200089402000808B5FFF787FF000029
:0C02600061010008650100086901000848
:10026C00C457000800000020B0000020C45700084C
:10027C000000000000000000B0000020F41E002070
:08028C0000000000000000006A
:100294000438C0B2032801D80120704700207047F9
:1002A400D0B110B404460023012001E00133DBB2D5
:1002B4000B4A12789A4211D9C3EBC3021101094ABD
:1002C4000A4492F82920A242F0D1064A0A44D27C78
:1002D400022AEBD10020E9E70120704710BC7047E7
:1002E400E40000203C11002068B3F0B4054600236C
:1002F400FF26012703E01E4611E00133DBB2134A57
:1003040012789A4215D91C46C3EBC3021001104A55
:10031400024492F82920AA42EFD1FF2EEBD0C4EB7D
:10032400C40420010A4A0244D27C022AE5D00027F0
:10033400E3E71FB18E4204D0002000E00020F0BCAF
:1003440070470120FBE70120704700BFE400002054
:100354003C11002003882BB1013B9BB223B10380E5
:10036400002070470020704701207047036823B1C4
:10037400013B04D003600020704700207047012037
:1003840070470000034B1B78834201D8002070475C
:1003940001207047E400002070B504460D46FFF7C5
:1003A400F1FF024668B175B10949E000061B33014B
:1003B4001E460B449B88314449885B1A01339D4295
:1003C40003DC104670BD0022FBE70022F9E700BF02
:1003D4003C110020054B1B78834203D8FF2803D02F
:1003E400002070470120704701207047E40000207E
:1003F400F8B504460F461646FFF7ECFF05460028FD
:100404003ED0FF2C3ED0F7B1C4EBC4031A012C4BF1
:10041400134493F92230012B41D0E200121B110145
:10042400274B0B441A7E1A725A7E5A729A7E9A721B
:10043400FF229A73E200121B1101214B0B4400228C
:10044400DA745A6ADA62DEB1E200121B11011C4B43
:100454000B44002283F8492093F9582083F83C2068
:10046400B3F85620DA8793F84C00FFF711FF0546DE
:1004740018B3C4EBC4042201114B13440022DA87DD
:100484002846F8BD00240F4B1B78A342F8D9324606
:1004940039462046FFF7ACFF0134E4B2F3E7E2004B
:1004A400121B1101064B0B445A7D1A729A7D5A7223
:1004B400DA7D9A7201229A73BCE73546E0E700BF01
:1004C4003C110020E400002038B50446FFF782FF09
:1004D400054658B1FF2C0BD0C4EBC40422010B4BCE
:1004E4001344DD7C012D14BF00250125284638BDA9
:1004F4000024074B1B78A342F8D92046FFF7E4FFFA
:1005040010B10134E4B2F4E70546EFE73C110020F2
:10051400E400002070B504460D46FFF75BFF064675
:1005240038B1FF2C07D0C4EBC4042201084B134498
:100534009D74304670BD0024064B1B78A342F8D945
:1005440029462046FFF7E6FF0134E4B2F4E700BF92
:100554003C110020E400002070B504460D46FFF76E
:1005640039FF064640B1FF2C08D0C4EBC404220175
:10057400084B134483F84850304670BD0024064BA2
:100584001B78A342F8D929462046FFF7E5FF01343A
:10059400E4B2F4E73C110020E40000200138C0B2CA
:1005A4000023022B24D8F0B403E00133DBB2022B86
:1005B4001BD800EB40041C440E4D35F834408C42EB
:1005C400F3D800EB4004E5180A4C04EBC504648836
:1005D4008C42EAD3074B03EBC50633791370737966
:1005E4005370B3799370012000E00020F0BC704791
:1005F4000020704768570008FF2805D00138C0B2B2
:10060400012803D80120704701207047002070475B
:1006140038B504460D46FFF7EFFF034630B1013C01
:10062400054A32F81420AA4202D31DB1184638BD37
:100634000023FBE70023F9E7E0000020F8B50446B7
:100644000D4616461F46FFF7E3FFE0B10146013CA5
:10065400E4B24FF4FB7303FB04520C4B03EB820331
:10066400DB78B34210D1094B03EB82039B78BB4286
:100674000AD1064D05EB820462789DF818309A423F
:1006840002D1002100E001210846F8BD2801002024
:10069400FF280BD010B50446FFF7AEFF024618B191
:1006A400601E094B1A5CD2B2104610BD0023012B08
:1006B40007D8054AD15C01F0FF0219B90133DBB256
:1006C400F5E7002210467047BC0000202DE9F043F6
:1006D40085B004460E46914698469DF830709DF8C4
:1006E40034509DF838302BB900974346FFF7A6FFE6
:1006F40000283FD103AA31462046FFF74FFFC8B177
:100704009DF80C3003FB09F9B9F1000F35DBC9F38F
:10071400C7199DF80D3003FB08F8B8F1000F2FDB63
:10072400C8F3C7189DF80E3003FB07F7002F2ADB28
:10073400C7F3C717013CE4B24FF4FB7303FB046235
:10074400124B03EB820383F8039083F802805F70FB
:100754006B1EDBB21E2B01D90D4B1D784FF4FB73BE
:1007640003FB046665F01F05084B03F82650094B8C
:1007740001221A5505B0BDE8F08309F17F09C6E7E7
:1007840008F17F08CCE77F37D2E700BF28010020BB
:1007940036000020100100202DE9F04184B0074606
:1007A400884615461E46FFF7F7FD044618B920464D
:1007B40004B0BDE8F081DFF838C0F800C21B1301B3
:1007C4001A4663445988414489B2013917460123C2
:1007D40002939DF82C3001939DF828300093334602
:1007E4002A4689B21CF80700FFF770FFDFE700BF55
:1007F4003C1100201F2800D91F2060F01F00014B6E
:1008040018707047360000202DE9F04184B004468A
:10081400884617461E469DF828509DF82C3023B96B
:1008240000953346FFF70AFF80BB03AA41462046E2
:10083400FFF7B4FEB8B19DF80C3003FB07F7002FA7
:1008440027DBC7F3C7179DF80D3003FB06F6002E10
:1008540021DBC6F3C7169DF80E3003FB05F5002D0A
:100864001BDBC5F3C715013CE4B20D4A4FF4FB7121
:1008740001FB048102EB8103DF709E705D70094B04
:100884001B7802F82130084B01221A5504B0BDE848
:10089400F0817F37D5E77F36DBE77F35E1E700BFBF
:1008A4002801002036000020100100202DE9F0412D
:1008B40082B00746884615461E46FFF76DFD04467E
:1008C40018B9204602B0BDE8F081DFF830C0F80066
:1008D400C21B13011A4663445988414489B2013941
:1008E4001746012301939DF82030009333462A468E
:1008F40089B21CF80700FFF787FFE2E73C110020EC
:100904002DE9F04784B082460C46174698469DF878
:1009140030909DF834609DF83850FFF779FE20B18F
:1009240039465046FFF774FE80B904B0BDE8F0873D
:1009340001230293019500964B46424621465046B8
:10094400FFF7C4FE0134A4B2A742EED36B1EDBB2A0
:100954001E2BEDD90123019300964B4642462146B6
:100964005046FFF751FFEDE72DE9F04184B0914285
:100974002BD81E4617460C460546FFF70DFD80464C
:1009840028B339462846FFF707FD8046F8B11248D8
:10099400EB00591B0A0102445288111989B23A44E6
:1009A40092B2013A01395D1B2C019DF8303002935B
:1009B4009DF82C3001939DF828300093334692B271
:1009C40089B2005DFFF79CFF01E04FF0000840464C
:1009D40004B0BDE8F08100BF3C110020014B187049
:1009E400704700BFDC10002002FB00F0B0FBF1F008
:1009F4007047F0B583B003460D4600785F78C4199C
:100A04009E7834440A462146FFF7EEFF8DF8000035
:100A14002A4621463846FFF7E7FF8DF801002A46AB
:100A240021463046FFF7E0FF8DF80200009B0020CE
:100A3400DAB262F30700C3F3072262F30F20C3F3B1
:100A4400074363F3174003B0F0BD000000B583B063
:100A540000EB4000164B184402888378ADF8002060
:100A64008DF80230A9B9009BADF804301B0C8DF849
:100A7400063000209DF8043063F307009DF805302C
:100A840063F30F209DF8063063F3174003B05DF85D
:100A940004FB6846FFF7ADFF8DF80400C0F307239D
:100AA4008DF80530C0F307408DF80600E1E700BF7C
:100AB4009857000870B582B004460D46164690F863
:100AC4005D3093B3B0F84A30B0F848201344B0F81E
:100AD4004C201344384A82FB03239BB203B90123FD
:100AE4006A1E92FBF3F3344880FB0320A0EBE3700F
:100AF40000EB40004200981AFF21C0B2FFF7A6FFA6
:100B04008DF80400C0F307238DF80530C0F30740C7
:100B14008DF80600B4F84A10A94213D2B4F848304C
:100B24000B449D4220DC01220DE090F845308DF805
:100B3400043090F846308DF8053090F847308DF841
:100B44000630E7E70022022E14D0032E16D0012E21
:100B54000CD000231846012A04D056B296B1022ABA
:100B640019D0002002B070BD0222ECE79DF8040009
:100B74002378F0E79DF805006378ECE79DF806001C
:100B8400A378E8E7C01A00FB05F090FBF1F0C0B2CF
:100B94001844C0B2E6E76D1AB4F84820AD1A013D16
:100BA400C31A03FB05F3B4F84C2093FBF2F3DBB256
:100BB400C01AC0B2D6E700BFABAAAA2A002801DB3C
:100BC400012070474FF0FF3070470130884200D950
:100BD400002070472DE9F04180460C4616461D461C
:100BE400069F0846FFF7EAFF444407E0AC4203DDF2
:100BF400C4EB45044FF0FF30B44208DBAC42F5DCF3
:100C0400B442F3DB07B138702046BDE8F081C4EB91
:100C140046040120F2E710B49C1A0844904203DA17
:100C240020440130FAE7001B5A1C8242FBDB10BC53
:100C34007047904202D2B1F1FF3F07D002FB01009E
:100C4400009A904204D8984204D370470020704719
:100C5400009870471846704710B472B6084B9C68E9
:100C6400084B186862B64FF47A72074B196802FB96
:100C740001F31B1BB3FBF1F302FB003010BC704704
:100C840010E000E0841E002044000020024A1368A3
:100C940001331360704700BF841E002082B000231C
:100CA400019300932C4A136843F4803313602A4B56
:100CB4001B6803F400330093019B01330193009BF1
:100CC4001BB9019BB3F5A06FF1D1234B1B6813F43F
:100CD400003F06D001230093009B012B04D002B0F7
:100CE400704700230093F7E71C4B1A6842F0100288
:100CF4001A601A6822F003021A601A6842F00202AB
:100D04001A60A3F580535A685A605A685A605A6840
:100D140042F480625A605A6822F47C125A605A681B
:100D240042F4E8125A601A6842F080721A600A4B60
:100D34001B6813F0007FFAD0074B5A6822F00302B5
:100D44005A605A6842F002025A60034B5B6803F02F
:100D54000C03082BF9D1C2E7001002400020024026
:100D640008B5FFF79BFF08BD1F4B5B6803F00C033E
:100D7400042B15D0082B17D01BB11C4B1C4A1A602E
:100D840002E01A4B1A4A1A60174B5B68C3F3031349
:100D9400184AD35CDAB215490B68D3400B6070472C
:100DA400124B134A1A60EFE70F4A53685268C3F3B1
:100DB4008343023312F4803F05D10F4A02FB03F34D
:100DC4000A4A1360E0E7084A526812F4003F05D06B
:100DD400094A02FB03F3054A1360D5E7044A02FB00
:100DE40003F3024A1360CFE70010024028000020FA
:100DF40000127A000800002000093D0008B5104BDD
:100E04001A6842F001021A6059680E4A0A405A6090
:100E14001A6822F0847222F480321A601A6822F46A
:100E240080221A605A6822F4FE025A604FF41F02AC
:100E34009A60FFF795FF044B4FF000629A6008BD7B
:100E4400001002400000FFF800ED00E008B5FFF7D5
:100E54008BFF08BD08B5FFF7D1FF024A024B9A6029
:100E640008BD00BF0000000800ED00E0012303609E
:100E7400014B0B60704700BF2C000020FEE708B553
:100E84000120FFF7FBFF08B5FFF7F9FF38B505466A
:100E94000C46274B984214D0A3F57443984210D0C3
:100EA40003F5806398420CD003F58063984208D020
:100EB40003F58063984204D040F286311D48FFF761
:100EC400E2FF012C13D0802C11D0402C0FD0202C09
:100ED4000DD0102C0BD0B4F5807F08D0B4F5007F72
:100EE40005D0082C03D0042C01D0022C07D1B4F572
:100EF400007F0AD02B881C4218D0012038BD40F254
:100F040087310C48FFF7BFFFF1E7094B9D42F1D051
:100F1400A3F574439D42EDD003F580639D42E9D06F
:100F240040F28B310348FFF7AEFFE3E70020E5E72B
:100F3400003801401457000838B505460C46124BDA
:100F4400984214D0A3F57443984210D003F58063FB
:100F540098420CD003F58063984208D003F580636F
:100F6400984204D040F25F210848FFF78CFFB4F5A3
:100F7400007F03D2C4F30804AC8038BD4FF4187169
:100F84000248FFF780FFF5E70038014014570008D6
:100F940038B504460D46124B98420CD0A3F578435D
:100FA400984208D003F58063984204D04FF41D7131
:100FB4000C48FFF768FF012D05D855B1A38843F00D
:100FC4000403A38038BD40F275210648FFF75BFF98
:100FD400F3E7A3889BB223F004039BB2A380F1E759
:100FE40000300140B056000870B504460D46164660
:100FF400154B98420CD0A3F57843984208D003F5DA
:101004008063984204D04FF408711048FFF73BFF07
:10101400012E0ED825F003039BB203B925B940F283
:1010240022210A48FFF72FFF4EB1A3881D43A58054
:1010340070BD40F221210548FFF725FFEAE7A388A8
:1010440023EA0505A580F3E700300140B056000807
:1010540038B504460D46124B98420CD0A3F578439C
:10106400984208D003F58063984204D040F2B71147
:101074000C48FFF708FF012D05D855B1238843F02C
:101084004003238038BD4FF4DC710648FFF7FBFEB4
:10109400F3E723889BB223F040039BB22380F1E75C
:1010A40000300140B056000838B505460C464A4B9E
:1010B40098420BD0A3F57843984207D003F5806398
:1010C400984203D0A3214548FFF7DDFE238843B1AE
:1010D400B3F5806F05D0B3F5004F02D0B3F5404FA0
:1010E4004CD16388B3F5827F01D0002B4BD1A38808
:1010F400B3F5006F01D0002B4AD1E3880BB1022B6A
:101104004BD12389012B4DD86389B3F5007F01D0DE
:10111400002B4CD1A3896BB1082B0BD0102B09D019
:10112400182B07D0202B05D0282B03D0302B01D02F
:10113400382B41D1E3890BB1802B42D1238A002B78
:1011440044D02B8803F44152238861880B43A1883F
:101154000B43E1880B4321890B4361890B43A1892C
:101164000B43E1890B4313432B80AB8B9BB223F4DA
:1011740000639BB2AB83238A2B8238BDA621174818
:10118400FFF781FEADE7A7211448FFF77CFEAEE729
:10119400A8211248FFF777FEAFE7A9210F48FFF710
:1011A40072FEAEE7AA210D48FFF76DFEACE7AB2156
:1011B4000A48FFF768FEADE7AC210848FFF763FE75
:1011C400B8E7AD210548FFF75EFEB7E7AE21034857
:1011D400FFF759FEB5E700BF00300140B0560008E4
:1011E40038B504460D460E4B184200D120B940F2E2
:1011F40069410C48FFF747FE012D05D855B10A4A4D
:10120400D3691C43D46138BD40F26A410548FFF7F5
:101214003AFEF3E7044AD36923EA0404D461F2E70B
:1012240000360181685600080010024038B50446B3
:101234000D460E4B034003B920B940F24A410C4815
:10124400FFF721FE012D05D855B10A4A93691C43C5
:10125400946138BD40F24B410548FFF714FEF3E7B3
:10126400044A936923EA04049461F2E70200C0FF8C
:10127400685600080010024008B501460120FFF737
:10128400D5FF08BD38B504460D460D4B984206D02F
:101294000C4B9C4208D00C4B9C420BD038BD4FF4F5
:1012A4000070FFF7C3FFF3E729464FF48060FFF7B0
:1012B400BDFFF0E729464FF40040FFF7B7FFEDE725
:1012C4000024014000280140003C014038B5044698
:1012D4000D46164B98420CD0154B9C420ED0154B24
:1012E4009C4211D0144B9C4214D0144B9C4217D0F6
:1012F40038BD4FF48040FFF799FFEDE729464FF4DE
:101304000030FFF76DFFEAE729464FF48020FFF72E
:1013140067FFE7E729464FF40020FFF761FFE4E7A2
:1013240029464FF48010FFF75BFFE1E700380140E6
:101334000044004000480040004C00400050004081
:1013440038B504460D460D4B984206D00C4B9C42D2
:1013540008D00C4B9C420BD038BD4FF48050FFF7A3
:1013640065FFF3E729464FF48040FFF739FFF0E7C4
:1013740029464FF40040FFF733FFEDE7003001400A
:1013840000380040003C004038B504460D46184B78
:1013940098420FD0174B9C4210D0174B9C4212D04E
:1013A400164B9C4214D0164B9C4216D0154B9C42B3
:1013B40018D038BD0420FFF739FFEBE72946082091
:1013C400FFF734FFE9E729461020FFF72FFFE7E78F
:1013D40029462020FFF72AFFE5E729464020FFF7AA
:1013E40025FFE3E729468020FFF720FFE1E700BF60
:1013F40000080140000C01400010014000140140AD
:1014040000180140001C014038B504460D4620F484
:10141400AA6323F0070303B920B940F22B410B4818
:10142400FFF731FD012D05D855B1094A53691C4315
:10143400546138BD40F22C410448FFF724FDF3E722
:10144400034A536923EA04045461F2E76856000826
:101454000010024038B504460D46164B984211D090
:10146400143398420ED0143398420BD0143398425C
:1014740008D01433984205D01433984202D0143360
:10148400984203D129460120FFF7BEFF0A4B9C4234
:101494000BD014339C4208D014339C4205D014332F
:1014A4009C4202D014339C4203D129460220FFF708
:1014B400ABFF38BD080002400804024010B4294BB9
:1014C4005B6803F00C03042B2BD0082B2CD013B136
:1014D400254B036001E0244B036022494B68C3F3AE
:1014E4000313224CE35CDAB20368D34043604A68D6
:1014F400C2F30222A25CD2B223FA02F282604A68E8
:10150400C2F3C222A25CD2B2D340C3604A68C2F31F
:10151400813217498A5CD2B2B3FBF2F3036110BC87
:101524007047114B0360D8E70E4A53685268C3F3FF
:101534008343023312F4803F04D10E4A02FB03F3C7
:101544000360CAE7074A526812F4003F04D0094A0C
:1015540002FB03F30360C0E7034A02FB03F30360E7
:10156400BBE700BF0010024000127A001800002000
:101574000400002000093D0000B587B0FFF7F4FB2C
:1015840001A8FFF79BFF019B0F4AA2FB03239B09C2
:10159400013BB3F1807F15D20C4A53600C4BF02110
:1015A40083F82310002191600720106083F8231032
:1015B400084B1B68084AB3FBF2F3084A136007B0F0
:1015C4005DF804FBFEE700BFD34D621010E000E0BD
:1015D40000ED00E02800002040420F0044000020FD
:1015E40010B5044640B1B0F5804F05D0B0F5004FBA
:1015F40002D0B0F5404F06D1064A536823F4404365
:101604001C43546010BD40F202310348FFF73BFC19
:10161400F2E700BF001002406856000838B50446DF
:101624000D46431E012B40F28980042800F0868079
:10163400082800F08380644B98427FD0203398427E
:101644007CD0624B984279D08033984276D0604BFC
:10165400984273D003F5807398426FD003F580737A
:1016640098426BD05B4B984268D003F580639842F4
:1016740064D0B0F5805F61D0B0F5EA1F5ED0B0F5FC
:10168400EB1F5BD0B0F5004F58D0534B984255D068
:101694000133984252D0023398424FD004339842D7
:1016A4004CD00833984249D0B0F1201F46D0303393
:1016B400984243D0494B984240D003F580739842F6
:1016C4003CD003F50073984238D0454B984235D04E
:1016D40003F57063984231D0B0F5011F2ED0414B11
:1016E40098422BD00133984228D00233984225D017
:1016F4000433984222D0083398421FD010339842C2
:101704001CD02033984219D04033984216D08033ED
:10171400984213D003F5807398420FD003F50073F9
:1017240098420BD003F58063984207D003F5006319
:10173400984203D003F58053984218D1012D1CD848
:10174400002C20DB284B5B68C4F30340A2B204F4F2
:101754004011B1F5401F19D014F4801F27D0032184
:1017640001FA00F023EA000343F0706315E040F24D
:101774002A211E48FFF787FBE0E740F22B211B4894
:10178400FFF781FBDCE7184BDB69DDE723F07063CF
:101794001548416821F0706141601DB1610D090176
:1017A4008A401343002C0BDB0F4A536038BD610D94
:1017B400090102FA01F123EA010343F07063ECE743
:1017C400094AD361F2E700BF10001400400016007C
:1017D4000001180000081A00010020000001300078
:1017E400001120000100008000000140E0550008C5
:1017F40070B504460D4616462D4B98421CD003F591
:101804008063984218D003F58063984214D003F59E
:101814008063984210D003F5806398420CD003F59E
:101824008063984208D003F58063984204D040F264
:101834008D112048FFF727FB6B1E9BB2012B23D988
:10184400042D21D0082D1FD0102D1DD0202D1BD0EC
:10185400402D19D0802D17D0B5F5807F14D0B5F563
:10186400007F11D0B5F5806F0ED0B5F5006F0BD0A9
:10187400B5F5805F08D0B5F5005F05D0B5F5804FAC
:1018840002D0B5F5004F04D1012E08D86EB1256100
:1018940070BD4FF4C7710748FFF7F5FAF4E740F25B
:1018A4008F110448FFF7EFFAF0E76561F0E700BF36
:1018B40000080140E055000838B504460D462A4B9F
:1018C40098421CD003F58063984218D003F58063D6
:1018D400984214D003F58063984210D003F58063D6
:1018E40098420CD003F58063984208D003F58063D6
:1018F400984204D04FF4A2711C48FFF7C4FA6B1E3F
:101904009BB2012B23D9042D21D0082D1FD0102DDB
:101914001DD0202D1BD0402D19D0802D17D0B5F50A
:10192400807F14D0B5F5007F11D0B5F5806F0ED04F
:10193400B5F5006F0BD0B5F5805F08D0B5F5005F45
:1019440005D0B5F5804F02D0B5F5004F04D1E3685A
:101954001D4207D0012038BD40F245110348FFF76E
:1019640092FAF4E70020F6E700080140E055000889
:10197400F8B505460C46494B98421BD003F58063E5
:10198400984217D003F58063984213D003F580631F
:1019940098420FD003F5806398420BD003F580631F
:1019A400984207D003F58063984203D0B2213C48A3
:1019B400FFF769FAE3786BB1042B0BD0282B09D01D
:1019C400482B07D0142B05D0102B03D01C2B01D08F
:1019D400182B14D12388BBB1E37803F00F063046EB
:1019E40013F0100F06D0A378013BDBB2022B10D802
:1019F400A078304323785BB32E68002310E0B32132
:101A04002748FFF740FAE5E7B4212548FFF73BFAFA
:101A1400E2E7BB212248FFF736FAE9E76A610133BE
:101A2400072B14D801229A40218832EA0101F6D109
:101A340099000F278F4026EA070600FA01F10E43AA
:101A4400E1782829EAD04829E9D12A61E7E72E601C
:101A54002388FF2B20D96E68002302E06A6115E019
:101A64000133072B17D803F1080101228A4021888A
:101A740032EA0101F4D199000F278F4026EA0706C4
:101A840000FA01F10E43E1782829E7D0E1784829EA
:101A9400E6D12A61E4E76E60F8BD00BF00080140AA
:101AA400E055000810B5044610F0704F02D0094B01
:101AB400034003B924B940F20E210748FFF7E3F9C4
:101AC40014F0805F02D0054B5C6010BD044B5C6079
:101AD400FBE700BF0000F0EF985500080004024047
:101AE4000000024010B50446431E012B40F29480CE
:101AF400042800F09180082800F08E80102800F05F
:101B04008B80202800F08880402800F08580802881
:101B140000F08280B0F5807F7ED0B0F5007F7BD06E
:101B2400B0F5806F78D0B0F5006F75D0B0F5805FF8
:101B340072D0B0F5005F6FD0B0F5804F6CD0B0F5C7
:101B4400004F69D0B0F5803F66D0B0F5003F63D058
:101B5400B0F5802F60D0B0F5002F5DD0B0F5801FB8
:101B64005AD0B0F5001F57D0B0F5800F54D0B0F55F
:101B7400000F51D0B0F1807F4ED0B0F1007F4BD038
:101B8400B0F1806F48D0B0F1006F45D02C4B984233
:101B940042D0013398423FD0023398423CD00433C0
:101BA400984239D00833984236D01033984233D013
:101BB4002033984230D0403398422DD0803398421D
:101BC4002AD003F58073984226D003F50073984217
:101BD40022D003F5806398421ED0B0F1102F1BD0A1
:101BE40003F5C053984217D003F50053984213D01D
:101BF40003F5804398420FD003F5004398420BD07D
:101C040003F58033984207D003F50033984203D09C
:101C140003F58023984208D114F0805F0BD0094B60
:101C24001B6823420AD0012010BD40F2B7110648B8
:101C3400FFF729F9F0E7054B1B68F2E70020F3E70B
:101C44000100001000040240985500080000024002
:101C540038B504460D46164B984226D014339842A4
:101C640023D01433984220D0143398421DD0143317
:101C740098421AD01433984217D01433984214D08F
:101C840003F56273984210D0143398420DD0143384
:101C940098420AD01433984207D01433984204D09F
:101CA4004FF4B2710348FFF7EEF8656038BD00BF2A
:101CB400080002409855000870B504460D461646C3
:101CC400224B984226D01433984223D0143398429E
:101CD40020D0143398421DD0143398421AD01433B0
:101CE400984217D01433984214D003F56273984283
:101CF40010D0143398420DD0143398420AD01433C0
:101D0400984207D01433984204D040F24911104845
:101D1400FFF7B9F835F00E0300D125B94FF4A571DA
:101D24000B48FFF7B0F8012E04D84EB123681D43C9
:101D3400256070BD40F24B110548FFF7A4F8F4E7A5
:101D4400236823EA05052560F3E700BF0800024085
:101D54009855000838B504460D461F4B984226D0C6
:101D64001433984223D01433984220D01433984229
:101D74001DD0143398421AD01433984217D0143318
:101D8400984214D003F56273984210D014339842E9
:101D94000DD0143398420AD01433984207D0143328
:101DA400984204D040F229110C48FFF76CF8012D39
:101DB40005D855B1236843F00103236038BD4FF4BF
:101DC40095710648FFF75FF8F3E7236823F00103F2
:101DD4001B041B0C2360F1E708000240985500081F
:101DE40008B54FF00060FFF77DFE40B14FF0006092
:101DF400FFF758FE00210948FFF7ACFF08BD4FF07C
:101E04000070FFF76FFE0028F4D04FF00070FFF76A
:101E140049FE034B00229A70ECE700BF80000240A9
:101E2400BC00002008B54FF40020FFF75BFE40B172
:101E34004FF40020FFF736FE00210948FFF78AFF20
:101E440008BD4FF40030FFF74DFE0028F4D04FF4E6
:101E54000030FFF727FE034B00225A70ECE700BF67
:101E640058000240BC00002008B54FF40060FFF7A2
:101E740039FE40B14FF40060FFF714FE0021094819
:101E8400FFF768FF08BD4FF40070FFF72BFE002832
:101E9400F4D04FF40070FFF705FE034B00221A70D4
:101EA400ECE700BF30000240BC00002070B50546DE
:101EB400FF2814D02846FEF79FFB044628B16E1E67
:101EC400F6B21C4B9C5D64B90024204670BD2046CC
:101ED400FFF7ECFF0134E4B2022CF8D9EAE701245D
:101EE400FAE72846FEF7D4FB0028EDD12EB1012EE7
:101EF4001CD0022E1CD1104D00E0104D00212846AC
:101F0400FFF728FF0E4B33F816100231890089B20F
:101F14002846FFF79DFE01212846FFF71BFF094BCA
:101F240001229A55034B00229A55CEE7064DE5E768
:101F34000446CAE71001002080000240300002403D
:101F4400E0000020BC0000205800024038B50546DF
:101F54000C46574B984225D01433984222D0143360
:101F640098421FD0143398421CD01433984219D08D
:101F74001433984216D01433984213D003F5627385
:101F840098420FD0143398420CD01433984209D09D
:101F94001433984206D01433984203D0CF214548D5
:101FA400FEF771FFA368102B01D0002B53D1E36817
:101FB400013B4FF6FE72934252D82369402B01D065
:101FC400002B52D16369802B01D0002B52D1A3691D
:101FD4002BB1B3F5807F02D0B3F5007F4FD1E36915
:101FE4002BB1B3F5806F02D0B3F5006F4CD1236AE7
:101FF400202B01D0002B4CD1636AB3F5405F07D08E
:10200400B3F5005F04D0B3F5805F01D0002B45D158
:10201400A36AB3F5804F01D0002B44D12A6822F47F
:10202400FF4222F07002A368216A0B4321690B432B
:1020340061690B43A1690B43E1690B43616A0B437B
:10204400A16A0B4313432B60E3686B602368AB60A6
:102054006368EB6038BDD0211648FEF714FFA6E78D
:10206400D1211448FEF70FFFA7E7D2211148FEF74C
:102074000AFFA7E7D3210F48FEF705FFA7E7D421FE
:102084000C48FEF700FFAAE7D5210A48FEF7FBFE3D
:10209400ADE7D6210748FEF7F6FEADE7D7210548A0
:1020A400FEF7F1FEB4E7D8210248FEF7ECFEB5E7EF
:1020B400080002409855000810B504464F4B98425A
:1020C40025D01433984222D0143398421FD01433AD
:1020D40098421CD01433984219D01433984216D025
:1020E4001433984213D003F5627398420FD014331B
:1020F40098420CD01433984209D01433984206D035
:102104001433984203D06F213D48FEF7BCFE236888
:1021140023F001031B041B0C236000232360636072
:10212400A360E360354B9C4226D0364B9C4229D0B9
:10213400354B9C422CD0354B9C422FD0344B9C4287
:1021440032D0344B9C4235D0334B9C4238D0334B45
:102154009C423BD0324B9C423ED0324B9C4241D0BD
:10216400314B9C4244D0314B9C420AD1304A536893
:1021740043F47023536004E02E4A536843F00F0382
:10218400536010BD2B4A536843F0F0035360F8E7E3
:10219400284A536843F470635360F2E7254A53684E
:1021A40043F470435360ECE7224A536843F47023CA
:1021B4005360E6E71F4A536843F470035360E0E753
:1021C4001C4A536843F070635360DAE7184A536853
:1021D40043F00F035360D4E7154A536843F0F00308
:1021E4005360CEE7124A536843F470635360C8E700
:1021F4000F4A536843F470435360C2E70800024037
:10220400985500081C00024030000240440002407F
:10221400580002406C000240800002400804024062
:102224001C040240300402404404024058040240AA
:10223400000402400000024038B505460C460F4B2E
:1022440098420CD003F58063984208D003F5A0535C
:10225400984204D040F20D510948FEF714FE24F4CC
:10226400FC639BB203B924B940F20E510448FEF753
:102274000AFE6FEA14242C6038BD00BF002401401C
:1022840050550008F8B505460E4614461F46374B10
:1022940098420CD003F58063984208D003F5A0530C
:1022A400984204D04FF416713148FEF7ECFD112E1C
:1022B40022D8631EDBB20F2B24D8072F28D8092E6F
:1022C4002CD9EA68A6F10A0303EB430307219940DA
:1022D40022EA01029F401743EF60062C29D8696B5C
:1022E400013C04EB84041F23A34021EA030106FA02
:1022F40004F40C436C63F8BD40F259211C48FEF70A
:10230400C2FDD6E740F25A211948FEF7BCFDD4E7D6
:1023140040F25B211648FEF7B6FDD0E72B6906EBC9
:10232400460107228A4023EA02038F401F432F619C
:10233400D3E70C2C0CD8296B073C04EB84041F2333
:10234400A34021EA030106FA04F40C432C63D2E708
:10235400EB6AA4F10D0101EB81011F228A4023EAFB
:10236400020306FA01F11943E962C4E700240140BB
:102374005055000838B504460D46114B98420CD010
:1023840003F58063984208D003F5A053984204D023
:102394004FF4E9710B48FEF776FD012D05D855B1D0
:1023A400A36843F4A003A36038BD40F2D3110548E9
:1023B400FEF769FDF3E7A36823F4A003A360F3E742
:1023C400002401405055000810B504460B4B9842B8
:1023D4000CD003F58063984208D003F5A0539842CB
:1023E40004D04FF4DC710648FEF74DFDA36813F0EA
:1023F400040F01D0012010BD0020FCE7002401409F
:102404005055000810B504460A4B98420CD003F509
:102414008063984208D003F5A053984204D04FF447
:10242400D5710548FEF72FFDA36843F00403A360AC
:1024340010BD00BF002401405055000810B50446EB
:102444000B4B98420CD003F58063984208D003F5F7
:10245400A053984204D04FF4C9710648FEF713FD07
:10246400A36813F0080F01D0012010BD0020FCE781
:10247400002401405055000810B504460A4B984208
:102484000CD003F58063984208D003F5A05398421A
:1024940004D04FF4C2710548FEF7F5FCA36843F07D
:1024A4000803A36010BD00BF00240140505500087C
:1024B40070B505460C461646164B98420CD003F5EB
:1024C4008063984208D003F5A053984204D040F2A8
:1024D4006B111148FEF7D7FC012E0FD824F4FC63CE
:1024E4009BB203B924B940F26D110B48FEF7CBFC43
:1024F400E4B24EB16B681C436C6070BD4FF4B671AE
:102504000548FEF7C0FCE9E76B6823EA04046C6045
:10251400F3E700BF002401405055000838B50446D5
:102524000D460F4B984208D003F5C053984204D08F
:1025340040F24D110B48FEF7A6FC012D05D855B10C
:10254400A36843F48073A36038BD4FF4A7710548B2
:10255400FEF799FCF3E7A36823F48073A360F3E721
:10256400002401405055000838B504460D46114B6F
:1025740098420CD003F58063984208D003F5A05329
:10258400984204D04FF49A710B48FEF77CFC012D5D
:1025940005D855B1A36843F00103A36038BD40F2E8
:1025A40035110548FEF76FFCF3E7A36823F0010338
:1025B400A360F3E7002401405055000838B50546F0
:1025C4000C46484B98420BD003F58063984207D0E1
:1025D40003F5A053984203D0E5214348FEF753FC8A
:1025E4002368D3B1B3F5803F17D0B3F5003F14D0BF
:1025F400B3F5403F11D0B3F5802F0ED0B3F5A02F23
:102604000BD0B3F5C02F08D0B3F5E02F05D0B3F548
:10261400002F02D0B3F5102F46D12379012B48D8CF
:102624006379012B4AD8A368A3B1B3F5003F11D055
:10263400B3F5802F0ED0B3F5C02F0BD0B3F5002F18
:1026440008D0B3F5202F05D0B3F5402F02D0B3F551
:10265400602F38D1E36813B1B3F5006F38D1237C10
:10266400013BDBB20F2B38D86A6822F4702222F4C3
:1026740080722368217943EA012313436B60AB68BA
:102684001A4A1A40E368A1680B43617943EA41039B
:102694001343AB60EB6A23F47003227C013AD2B299
:1026A40043EA0253EB6238BDE6210F48FEF7EBFB29
:1026B400B3E7E7210C48FEF7E6FBB1E7E8210A4857
:1026C400FEF7E1FBAFE7E9210748FEF7DCFBC1E7D2
:1026D400EA210548FEF7D7FBC1E7EB210248FEF7E4
:1026E400D2FBC1E70024014050550008FDF7F1FF7B
:1026F40010B50446C378012B26D863780F2B28D84D
:10270400A3780F2B2AD8E3786BB31C4BDA68D24337
:10271400C2F30222C2F104000F2323FA02F2617809
:102724008140A37813400B431B012278DBB2144988
:102734000A4482F80033237803F01F005B09012266
:10274400824041F8232010BD75210E48FEF79BFB03
:10275400D3E776210B48FEF796FBD1E777210948AA
:10276400FEF791FBCFE7237803F01F015B090122F9
:102774008A402033024941F82320E4E700ED00E0D9
:1027840000E100E02856000808B501460448FEF7B9
:10279400D3FB40210248FEF779FB0028F9D008BD9D
:1027A4000038014010B5044694F9000020B101340A
:1027B400C0B2FFF7E9FFF7E710BD00000130C0B277
:1027C4000138072845D8DFE800F0040C141C242C39
:1027D400343C214B9868400A80F0010000F001006D
:1027E40070471D4B9868000A80F0010000F001005A
:1027F4007047194B9868C00980F0010000F001008F
:102804007047154B9868800980F0010000F00100C2
:102814007047124B9868400B80F0010000F00100F3
:1028240070470E4B9868800B80F0010000F00100A7
:1028340070470A4B9868C00B80F0010000F001005B
:102844007047054B9868800A80F0010000F0010091
:1028540070470020704700BF000C01400010014089
:102864000138034B03EBC003987800229A70704739
:10287400641E00200138034B03EBC003D878002208
:10288400DA707047641E0020042805D80138034B11
:1028940003EBC0004078704700207047641E00209E
:1028A40038B504460D46FFF7EFFF0346A8B10D4ABD
:1028B4001268AA4210D30B4A1268551B013C0A4AFB
:1028C40002EBC4025268954209D9064A1168064AC5
:1028D40002EBC404616000E00023184638BD002305
:1028E400FBE700BF841E0020641E00202E4B1A68E4
:1028F4002E4B1B689A4256D910B52B4B1B682133BB
:102904002A4A136000240FE0294B13F83430DBB15A
:10291400013B274A02F8343016E0254B03EBC20290
:10292400012353700134E4B2032C3BD82046FFF753
:1029340045FF0028E8D01E4B13F83430022B03D88F
:1029440001331B4A02F834302246194B13F8343051
:10295400022B10D9164B03EBC4035B78002BDCD19C
:10296400134B03EBC4030121D9700F490968596063
:1029740000219970D1E7002BD4D10D4B03EBC40394
:102984005B784BB10A4B03EBC4030021D9700121DE
:1029940099704FF0FF315960054B03EBC2020023DD
:1029A4005370BFE710BD7047841E0020140100203F
:1029B400641E002030B583B0164C01212046FEF77A
:1029C400E3FC154D01212846FEF7DEFC01212046DB
:1029D400FEF7DAFC48238DF8073002238DF8063021
:1029E4004FF47073ADF8043001A92046FEF7C0FF20
:1029F4004FF40043ADF8043001A92846FEF7B8FFB0
:102A04004FF48063ADF8043001A92046FEF7B0FF0F
:102A140003B030BD000C01400010014010B50C465D
:102A240002280FD0FF2815D0012800D010BD0A4677
:102A34004FF400510B48FEF7DBFE0B482146FEF72E
:102A440007FBF3E70A464FF480410648FEF7D0FE41
:102A54000648F3E70120FFF7E1FF21460220FFF7D4
:102A6400DDFFE3E700100140003001400038004082
:102A740008B502280ED0FF2815D0012801D0002067
:102A840008BD4FF400510E48FEF716FF003018BF82
:102A94000120F5E74FF400510948FEF70DFF00301F
:102AA40018BF0120ECE70120FFF7E2FF08B1012085
:102AB400E6E70220FFF7DCFF0028E1D00120DFE792
:102AC4000010014008B502210348FEF7F5FE00306E
:102AD40018BF012008BD00BF000C014008B5024624
:102AE40002210248FEF784FE08BD00BF000C01402D
:102AF40008B5FFF7E7FF80F00100C0B2FFF7EEFF73
:102B040008BD000070B582B00120FEF7B5FB174E7A
:102B140001213046FEF738FC154D01212846FEF709
:102B240033FC10238DF8073002248DF80640ADF8ED
:102B3400044001A93046FEF71BFF14238DF807302B
:102B44004FF4C043ADF8043001A92846FEF710FF46
:102B54000120FFF7C3FF01210846FFF75FFF0121B2
:102B64002046FFF75BFF02B070BD00BF000C0140C0
:102B7400001001400138094B33F8103040F6E440AE
:102B840000FB03F0031344F6206000FB03F0044B46
:102B9400A3FB0030C0F34F30704700BFC8000020D3
:102BA4005917B7D170B584B00E4615460024ADF858
:102BB4000E40FFF7DFFFADF80E0009E029190023EE
:102BC4000093C82289B23046FDF770FE0134E4B2A6
:102BD400042C10D8094B33F81420BDF80E309BB2E6
:102BE4009A42EBD2291900220092C82389B23046B6
:102BF400FDF75CFEEAE704B070BD00BF5C57000857
:102C040008B50023022B0BD8154A32F813001549D6
:102C140051F82320024441F823200133DBB2F1E7C9
:102C2400114A13780133DBB21370072B11D9002337
:102C340013700CE00B4951F82320C2F3CF020B4868
:102C440020F81320002241F823200133DBB2022BA9
:102C5400F0D94FF408710648FFF7EEFA08BD00BF3B
:102C6400C8000020D000002014110020C000002063
:102C7400002401402DE9F04393B04FF48040FEF767
:102C8400AFFC494F01213846FEF7E4FBDFF82891F9
:102C940001214846FEF778FB444D01212846FEF702
:102CA400F1FA0124ADF844404FF002088DF8468053
:102CB40000268DF8476011A94846FEF759FE3846AC
:102CC400FFF7FAF93A4B00933A4B019302964FF00F
:102CD4000309CDF80C900496802305934FF4806388
:102CE40007934FF480730693202308934FF4005303
:102CF40009930A9669463846FFF728F9214638466B
:102D0400FFF728F80B968DF830408DF831404FF4DA
:102D140060230D930E968DF83C900BA92846FFF77F
:102D24004DFC21462846FFF7F9FB0723224631468E
:102D34002846FFF7A7FA0723424621462846FFF70D
:102D4400A1FA07234A4605212846FFF79BFA1223D6
:102D54008DF840308DF841808DF842408DF8434025
:102D640010A8FFF7C5FC22464FF408712846FFF768
:102D74009FFB21462846FFF7F7FB2846FFF77CFB1D
:102D84000A48FFF75BFB0028FAD10848FFF73AFB33
:102D94000648FFF719FB0028FAD101210348FFF781
:102DA400E9FA13B0BDE8F0830800024000240140B2
:102DB4004C240140C8000020000801402DE9F04FD8
:102DC40097B00138C6B2012E00F2E9800D46B1F584
:102DD400FA7F01D94FF4FA7537467F4B23F8165022
:102DE4004FF000087D4B03F806807D4B03F8068006
:102DF400DFF8F4914FF4FB6404FB06944FF4FA6299
:102E04004146204602F070FA04224146204602F070
:102E14006BFAAA46681C4FF4FB7303FB06000422FA
:102E2400FF2109EB800002F05FFA01239D420BD3DE
:102E34004FF4FB7202FB07326A4908786A4901F8C9
:102E4400220001339BB2F1E7CEB1012E00F0AA803B
:102E5400022E40F0A480654E0027DFF8B0813D4685
:102E64004FF01109624B039303F5DE337C33029375
:102E74004FF0140BA3F57843803B019310E0182620
:102E840001274FF000085B4D4FF00D095A4B039397
:102E940003F55043243302934FF0280B574B01930F
:102EA40001210846FEF7C2F901210198FEF76CFAE8
:102EB40001210298FEF7CEFA1DB101212846FEF742
:102EC4003FFAB8F1000F03D001214046FEF7FEF9A6
:102ED400002F78D118238DF8573003238DF85630FE
:102EE400ADF854B015A90198FEF742FD029F38468B
:102EF400FFF7E2F8039B0A930B9410230C930AF157
:102F040002039B000D9300240E9480230F931094CE
:102F1400119412944FF44053139314940AA9BA468B
:102F24003846FFF713F88DF824904FF002088DF817
:102F3400258001278DF826708DF8277009A8FFF7E2
:102F4400D7FB3A460A215046FEF7B6FEADF81040CC
:102F54004FF48273ADF81230ADF81440ADF816801A
:102F6400ADF818704FF40073ADF81A30ADF81C606A
:102F7400ADF81E404FF6FF73ADF8203004A9284683
:102F8400FEF792F839462846FEF702F83A464146DB
:102F94002846FEF729F839462846FEF759F817B0AF
:102FA400BDE8F08F18260027B846154D4FF00F09DD
:102FB400144B039303F5E4334C3302934FF4204B47
:102FC4000E4B01936CE701213846FEF727FB0121E4
:102FD4000D48FEF723FB7DE7E000002010010020F0
:102FE400BC0000203600002028010020882A11009F
:102FF40004440040003001400C300140000C01400A
:10300400003800400C38004000023000004400400A
:1030140070B50546194B187868BB0C4616469DB129
:1030240000211748FEF796FE7CB121461448FEF7AE
:103034000FFE96B9124BDD600124104B1C70214623
:103044000F48FEF787FE204670BD2B4613F9012B6F
:10305400002AEAD00134A4B2F8E70121204602F0A4
:1030640017F9084E30602246294602F02FF93268DB
:10307400034BDA60E0E70020E6E700BFB800002079
:1030840044000240B400002008B56E4B1B8813F0C6
:10309400200F66D06B4B9B88DBB26B4A13706B4B73
:1030A4001B78002B58D11378443B202B59D8DFE8E8
:1030B40003F03358583D582A5858495858582158FD
:1030C40058581B5858585858585858585858581100
:1030D400585815005E48FFF765FB42E00022114690
:1030E4005C48FFF795FF3CE00323584A13705A4AA3
:1030F400137036E00023584A1370544A01211170AA
:10310400564A13702DE00123534A13704F4A13702B
:10311400524B00221A7024E04F4B02221A704B4B80
:1031240001221A704D4B00221A701AE04A4B0422F5
:103134001A70464B03221A70002211464848FFF7C2
:1031440067FF0EE0444B05221A70404B01221A70AF
:10315400424B00221A7004E03C4B1B78DBB2012B7B
:1031640000D008BD3C4B1B78DBB2052BF9D801A27B
:1031740052F823F091310008BF310008ED31000806
:1031840067310008673100081B320008334B1B7895
:103194002D490A78D2B23348C2540A78D2B20A2AE4
:1031A40001D00A782AB92F4A0021D154274A032191
:1031B40011700133294A1370D3E7284B1B78224935
:1031C4000A78D2B22748C2540A78D2B20A2A01D065
:1031D4000A782AB9234A0021D1541C4A03211170C8
:1031E40001331E4A1370BCE71C4B1B7816490A783E
:1031F400D2B21C48C2540A78D2B20A2A01D00A7840
:103204002AB9184A0021D154104A032111700133FC
:10321400124A1370A5E7114B1B780B490A78D2B2F6
:103224001048C2540A78D2B20A2A01D00A7822B9C4
:1032340000220C49CA5405490A700133074A137025
:103244008FE700BF003801408B1E0020A01E002025
:10325400F856000800570008891E0020EC000020E2
:10326400A41E00208C1E00202DE9F04104460D46CA
:10327400FDF7B0F8064600285FD0002D00F0B180BD
:10328400FF2C5DD0584F4FEAC408A8EB0403180183
:10329400483038441C222946043002F017F8A8EBC1
:1032A40004084FEA08131F44012387F8483097F8AD
:1032B4004C00FCF7EDFF00284ED1C4EBC4031A0107
:1032C400494B13449B79002B70D0E200121B11016F
:1032D400454B0B449A88B3F85610521A92B20132F5
:1032E400A3F8562093F85820524283F85820E2005D
:1032F400121B11013C4B0B44B3F856209B889A4295
:1033040062D9394A0A44A2F85630E200121B11016C
:10331400354B0B44B3F85620DA87B3F85C20A3F896
:1033240040203149E300181B02010A4492F9580075
:1033340082F83C00002382F849303046BDE8F08131
:1033440000242A4B1B78A342F7D929462046FFF7CD
:103354008BFF0134E4B2F4E7F86E01F0AFFFB7F885
:103364005000B7F85A300221184401F091FFF86672
:103374000023FB87B7F85C301D4AA2FB03231B091B
:10338400B7F85A2003FB02F3B7F85020B3FBF2F06E
:10339400934200D20120E200121B1101124B0B4494
:1033A400A3F85C000122A3F84020BAE7E3001B1B4A
:1033B40019010D4A0A445388B2F856100B449BB2C3
:1033C400013BA2F8563092E7C4EBC4031901064B43
:1033D4000B445B889A4298D2034A0A44A2F85630B6
:1033E40093E70026A9E700BF3C110020E400002079
:1033F400CDCCCCCC10B5114B1B6813F4004F0BD0C3
:103404000E4B4FF400425A600D4B01221A700021FA
:103414000C48FEF79FFC10BD084B1B6813F4005FBB
:10342400F5D0064B4FF400525A60074C206801F067
:1034340045FF00232360054A1370E8E700000240BB
:103444008A1E002044000240B4000020B80000207E
:103454002DE9F04F83B082460C46FCF7BBFF019088
:10346400002800F0D280002C00F0E580BAF1FF0FB4
:1034740019D05646CAEBCA03180110306F4B1844D2
:1034840018222146043001F021FF4FF0010842E0E8
:1034940021462846FFF7DCFF0135EDB2684B1B7867
:1034A400AB42F5D8B1E00025F8E70022FFB2B7FB44
:1034B400F5FCC6EBC6034FEA031E604B734483F866
:1034C4000CC0BBF1000F0DD0BCF1000F09D005FBFF
:1034D4001C77322F06D9019A04E0019AE6E7019A93
:1034E400E4E7019AC0B2B0FBF5FCC6EBC6031F01CA
:1034F400524B3B4483F80DC031B1BCF1000F3BD0BB
:1035040005FB1C00322839D81AB108F101081FFA4A
:1035140088F8002A34D0A56808EB88029300B5FB2C
:10352400F3F520796378C01A01F0AEFE5FFA80F9F2
:103534006079A378C01A01F0A7FE07465FFA80FB02
:10354400A079E378C01A01F09FFEC1B2B9FBF5FC83
:10355400C6EBC6031A01394B134483F80BC0B9F107
:10356400000FA2D0BCF1000FB7D005FB1C99B9F134
:10357400320FB4D8002299E7019AC6E7019AC4E74A
:103584004FEACA02A2EB0A0211012C4B0B44A3F826
:103594002080A3F8108094F90E30B3F1FF3F38D0A7
:1035A40060784FEACA02A2EB0A021101234B0B44D2
:1035B4001872A2785A72E2789A7294F90E10CAEBD1
:1035C400CA031A011D4B13449973236923B10022C2
:1035D400A3FB051535BB3AB3CAEBCA031A01174B53
:1035E400134400225A6215494FEACA02A2EB0A00A8
:1035F40003010B44586AD86201209874A2EB0A0AAA
:103604004FEA0A1319440023CB74019803B0BDE8B0
:10361400F08F2079094B0B44187262795A72A2799F
:103624009A72CAE70122D6E7CAEBCA021101034A19
:103634000A445362D7E700230193E6E73C110020D4
:10364400E40000202DE9F04784B004468DF80F0013
:10365400FCF7C0FE002800F0C681B54BE100081B52
:103664000201104610321A44151D034493F81AC07F
:10367400DF7D9E7C002E00F0B681AD4A0244537D6E
:10368400107E834200F28A804FF00009E100091B9A
:103694004FEA011EA64A7244917D527E91427FD820
:1036A4004FF00008BC457DD30027B9F1000F7BD053
:1036B400E200121B11019E4A02EB010A9AF80E1055
:1036C4004942009303469AF80B2049B29AF808003D
:1036D400FDF7AFFA8AF80800B8F1000F76D0E300DE
:1036E4001B1B1A01924B03EB020A9AF80E10494273
:1036F4009AF8163000939AF819309AF80C2049B2C7
:103704009AF80900FDF795FA8AF80900002F73D09A
:10371400E3001B1B1A01864B03EB020A9AF80E10F6
:1037240049429AF8173000939AF81A309AF80D2003
:1037340049B29AF80A00FDF77CFA8AF80A0047B100
:10374400E200121B11017A4B0B449A7A9B7E9A4237
:1037540068D94FB9E200121B1101754B0B449A7AD8
:103764009B7E9A4280F091804FB1E200121B1101BE
:103774006F4B0B449A7ADB7D9A4280F08980002F4C
:1037840040F08980E200121B1101694B0B449A7AC4
:10379400DB7D9A4240F28280394644E0B14675E7C7
:1037A400B0467FE7374680E7E200121B1101604A0A
:1037B40002EB010A00909AF80B209AF90E109AF87D
:1037C4000800FDF736FA8AF8080085E7E3001B1BBA
:1037D4004FEA031A564B9A449AF8193000939AF810
:1037E40016309AF80C209AF90E109AF80900FDF791
:1037F40020FA8AF8090089E7E3001B1B4FEA031A41
:103804004B4B9A449AF81A3000939AF817309AF866
:103814000D209AF90E109AF80A00FDF70AFA8AF8B0
:103824000A008CE70021B8F1000F08D0E200121B57
:1038340010013F4B03445A7A5B7E9A4231D9B8F166
:10384400000F08D1E200121B1001394B03445A7ACD
:103854005B7E9A425DD2B8F1000F08D0E200121BE1
:103864001001334B03445A7A9B7D9A4254D2B8F1E7
:10387400000F55D1E200121B10012D4B03445A7A5C
:103884009B7D9A4250D940460CE039463746CAE7F8
:1038940031460027C7E700273946C4E731460027E9
:1038A400C1E70020B9F1000F09D0E200121B4FEA72
:1038B400021C1F4B63441A7A1B7E9A423AD9B9F10F
:1038C400000F0AD1E200121B4FEA021C184B63449A
:1038D4001A7A1B7E9A4280F08980B9F1000F09D0D0
:1038E400E200121B4FEA021C114B63441A7A5B7DFF
:1038F4009A427FD2B9F1000F7FD1E200121B4FEA46
:10390400021C0B4B63441A7A5B7D9A4279D94E466A
:1039140011E04046B046C5E730464FF00008C1E725
:103924004FF000084046BDE730464FF00008B9E7C5
:103934003C110020002609B9002F54D010B9B8F169
:10394400000F50D016B9B9F1000F4CD000238DF8F8
:103954000E30C4EBC4031A01754B134493F8296069
:103964007EB1734B1344DB7C1BB9714B13440222AD
:10397400DA7421463046FCF7B7FC10B16D4B0122D6
:103984009A5516B16B4B9B5D6BB3C4EBC4031A0120
:10399400674B1344DB6A002B36D1C4EBC4031A0112
:1039A400634B13441B7D012B40F29680022B07D1FD
:1039B400E200121B11015E4B0B449A7B52429A7334
:1039C400C4EBC4031A015A4B13440022DA74C4EB47
:1039D400C4042201564B134493F82940554B1B5DF4
:1039E400002B40F09B8004B0BDE8F08733464E4680
:1039F4009946A0E74FF000099DE74FF000094E46B5
:103A040099E74FF0000996E7C4EBC4021301283389
:103A1400474818440430FCF7A9FC0028BDD0C4EB87
:103A2400C4031A01424B134493F83030002B4BD09B
:103A34003F4B1344002283F8302093F92230012BAA
:103A440021D0E3001B1B1A01394B134493F8312096
:103A54001A7693F832205A7693F833209A76C4EB88
:103A6400C4031A01324B13441B7D012B1AD9022BB8
:103A74001ED1E3001B1B1A012D4B13449A7B5242A7
:103A840083F8222014E0E3001B1B1A01284B134483
:103A940093F831205A7593F832209A7593F83320AD
:103AA400DA75DCE7224B134493F9342083F822209F
:103AB400E3001B1B1A011E4B13449A6B5A622946DE
:103AC4002046FFF7C5FC82E7C4EBC4031A01184B78
:103AD40013440122DA747AE7C4EBC4031A01144BC9
:103AE400134493F90E30B3F1FF3F0ED0012B7FF452
:103AF40067AFE3001B1B1A010D4B13445A7D1A7266
:103B04009A7D5A72DA7D9A725AE7094B13441A7EE7
:103B14001A725A7E5A729A7E9A7251E72046FCF7BC
:103B2400BFFB00283FF45FAF024B00221A555AE74F
:103B34003C1100201811002070B586B005460C46D3
:103B440016460846FCF746FC002838D0FF2C38D02F
:103B540018222946684601F0B9FB2969E200121BC4
:103B640010012D4B03449963012283F8302095F909
:103B74000E2083F834208EB36E782749E200101BA0
:103B840003010B4483F83160A87883F83200E878A5
:103B940083F83300187A8DF801005B7A8DF80230CF
:103BA400131B1A0111448B7A8DF8033001238DF80D
:103BB4000E300123049369462046FFF749FC06B002
:103BC40070BD0024154B1B78A342F8D93246214618
:103BD4002846FFF7B1FF0134E4B2F3E72E790E492A
:103BE400E200101B03010B4483F83160687983F809
:103BF4003200A87983F83300187A8DF804005B7AD0
:103C04008DF80530131B1A0111448B7A8DF8063098
:103C1400FF238DF80E30CCE73C110020E400002097
:103C24002DE9F041254D2D781D2D3ED891423ED8E9
:103C3400984616460D460446FCF7EAFC002839D09F
:103C440031462046FCF7E4FC002835D01B490F78A8
:103C54001B48FB00DB1B1A01831884545D809E8083
:103C640083F806807B1C0B7007993846FFF7F0FB3E
:103C740030B9C7EBC7031A01114B134400229A74DD
:103C84000E4B187801380699C0B2FFF7EDFA38B92F
:103C9400C7EBC70002010A4B1344002283F84820F3
:103CA400064B18780138C0B202E01F2000E01F2044
:103CB400BDE8F0811F20FBE71F20F9E7E4000020A6
:103CC4003C11002008B501F0CBFB08BD10B504463B
:103CD40001F0EAFB013401386FF00043B3FBF4F365
:103CE400B0FBF3F010BD00002DE9F04F8DB082461B
:103CF40001238DF82F30FCF76DFB10B90DB0BDE832
:103D0400F08F5446C6484FEACA03A3EB0A021201D5
:103D1400083282180592A3EB0A0109014218B2F88D
:103D24000280B2F80490415C0691B2F85470B2F883
:103D340052100F44BFB2B2F850100F44BFB2B2F8E1
:103D44005A2011441FFA81FBA3EB0A031B014033E1
:103D54001844FCF7FFFA0790002851D0CAEBCA03B5
:103D6400AF4A02EB031393F84C00022812D058B365
:103D740001286DD0FCF78CFA07900028BED0CAEB5E
:103D8400CA03A74A02EB03139B7C002B40F08680F6
:103D9400002581E0CAEBCA0502EB0515B5F85A10F7
:103DA40095F93C000DF12F0300934B46424600FB6E
:103DB40001F1E88FFCF70EFFE8879DF82F3085F8B6
:103DC4003C300023079312E0CAEBCA05944B03EB83
:103DD4000515B5F85A1095F93C004B46424600FBD0
:103DE40001F1E88FFCF717FFE88700230793CAEB7C
:103DF400CA038B4A02EB0313B3F85C20A3F84020F8
:103E0400CAEBCA03864A02EB031393F84C00FCF78F
:103E14003FFA002800F0F182CAEBCA03804A02EBA1
:103E24000313DD8F93F86530002B00F0F580A9EBC8
:103E340008087C4B83FB0823A3EBE8781FFA88F37C
:103E44000993AB4500F2B5810026DDF82480F2E148
:103E5400CAEBCA03724A02EB0313D88FB3F85A2091
:103E640093F93C1089B201FB0202DA87002307931D
:103E7400BDE7C4EBC4036A4A02EB0313DA6E32F8FB
:103E8400151093F8643001930022009213465046B3
:103E9400FCF782FC0135ADB25D45EAD3CAEBCA0337
:103EA4005F4A02EB0313DB8F5B4509D3CAEBCA03FA
:103EB40002EB031393F84C30042B0DD0052B18D0D0
:103EC400CAEBCA03564A02EB0313DB8F5B45C0F00F
:103ED400A180002307938AE7CAEBCA0302EB031508
:103EE4004FEA4B020021E86E01F0FEF90023EB8754
:103EF400E6E7CAEBCA024A4B03EB0213A3F83EB04F
:103F0400012283F84920DBE7A9EB0800FFF7DEFE76
:103F140080B2C4EBC403424A02EB0313DA6EDB8FB4
:103F2400013022F8130045E0C4EBC40302EB031391
:103F34000122DA8748E0072B07D0CAEBCA02384BC4
:103F440003EB0213A3F83EB051E70BF1FF32CAEBC7
:103F5400CA01334B03EB0113DA87FF2283F83C20B9
:103F640045E743B9C4EBC4032D4A02EB031393F8AA
:103F74004C30072B46D00135ADB2C4EBC403284AFC
:103F840002EB0313B3F85A30AB427FF630AFC4EB05
:103F9400C403234A02EB031393F93C30B3F1FF3F0C
:103FA400B2D1C4EBC40302EB0313DA6EDB8F00213E
:103FB40022F81310C4EBC403194A02EB0313DB6B9E
:103FC40023F47F43FF2BAFD0C4EBC402144B03EBA9
:103FD4000212D38F92F93C1089B20B449BB2D3875F
:103FE4005B45BED3C4EBC4030D4A02EB031393F841
:103FF4004C30062B9FD1C4EBC40302EB0313002205
:10400400DA87B8E7C4EBC40302EB0313012283F895
:104014003C20B0E70025B0E70023099311E700BF77
:104024003C110020ABAAAA2A0BF1FF35ADB27AE00D
:104034000AF1FF33099A93FBF2F3C94880FB03208A
:10404400A0EBE37000EB4000A3EB4000FF21C0B203
:10405400FCF7FCFC8DF82C00C0F307238DF82D3001
:10406400C0F307408DF82E007BE0C4EBC403BD4AC7
:1040740002EB03131A7A83F868205A7A83F86920CA
:104084009A7A83F86A20C4EBC406B64B03EB06168F
:1040940096F93C809DF82C20B6F85C900092337A17
:1040A40092FBF9F2414696F86800FCF7C2FD8DF8E0
:1040B400140086F868009DF82D200092737A92FB14
:1040C400F9F2414696F86900FCF7B3FD8DF8180043
:1040D40086F869009DF82E200092B37A92FBF9F2DB
:1040E400414696F86A00FCF7A4FDC0B286F86A005F
:1040F40096F86430019300909DF818309DF81420D0
:1041040051460898FCF748FB0137BFB2C4EBC4031F
:10411400944A02EB0313B3F85A30BB424DD9002D35
:1041240082D0013DADB2C4EBC4038E4A02EB03134B
:10413400DA6E32F815A093F86530002B7FF478AF6F
:10414400C4EBC403874A02EB031393F84D208DF8A4
:104154002C2093F84E208DF82D2093F84F308DF8B5
:104164002E30079B002B8ED0C4EBC4037D4A02EB98
:10417400031393F84C30072B7FF477AFC4EBC403DD
:1041840002EB031393F93C30B3F1FF3F7FF46DAFBF
:104194009DF82C10C4EBC40302EB031383F86810DE
:1041A4009DF82D2083F869209DF82E2083F86A203D
:1041B40069E70027CDF820A0A8E7DDF820A043E6B2
:1041C4000BF1FF35ADB2C4EBC403664A02EB031333
:1041D400DB6E33F81570002F3FF490ADC4EBC403CD
:1041E40002EB031393F86530A3BBC4EBC4035D4A2D
:1041F40002EB031393F84D208DF82C2093F84E20F6
:104204008DF82D2093F84F308DF82E30C4EBC40375
:10421400544A02EB031393F8643001939DF82E3053
:1042240000939DF82D309DF82C2039465046FCF71C
:10423400B3FA0136B6B2C4EBC4034A4A02EB031321
:10424400B3F85030B3427FF659AD002DB8D0013DDC
:10425400ADB2B8E77B1E93FBF8F3414880FB032023
:10426400A0EBE37000EB4000A3EB4000FF21C0B2E1
:10427400FCF7ECFB8DF82C00C0F307238DF82D30F0
:10428400C0F307408DF82E00C0E7C4EBC40002EB76
:10429400001090F93C1001FB05F1002300934B46FC
:1042A40042464942C08FFCF795FC06B20FE0C4EBCE
:1042B400C4002C4B03EB001090F93C1001FB05F1FA
:1042C4004B4642464942C08FFCF7A5FC06B2464520
:1042D40001DB4E4566DD0135ADB2BD42BFF40EAD26
:1042E400C4EBC4031F4A02EB031393F84C30022BB4
:1042F400CBD0002BDBD0012B7FF400ADC4EBC40387
:10430400184A02EB0313DE8F93F93C3003FB156666
:1043140036B27A1E9542DADB012B25D0B3F1FF3F8A
:10432400D5D14645D3DA0F4AE300191B02EB01113C
:10433400A1F83E90181B0001403010440430FCF7F3
:1043440015F80028C3D0C4EBC403064A02EB0313D8
:10435400012283F84920002283F84820B7E700BFF0
:10436400ABAAAA2A3C1100204E45D7DD244AE3001B
:10437400191B02EB0111A1F83E80181B000140300B
:1043840010440430FBF7F2FF0028A0D0C4EBC403B0
:104394001B4A02EB0313012283F84920002283F80D
:1043A400482094E705F1010A1FFA8AFA01225146CE
:1043B400DDF814B05846FCF77DFB07900222514605
:1043C400CDF814B05846FCF775FB834603225146DA
:1043D4000598FCF76FFB01230293C4EBC403084A5E
:1043E40002EB031393F86430019300905B46079A41
:1043F400B1B20698FCF76AF96DE700256DE700BFD6
:104404003C1100202DE9F04186B00023059304936C
:10441400414B1A68414B1B689A4202D806B0BDE86A
:10442400F081FF20FCF734F90028F7D13C4A1378D7
:1044340001331370384B1B680533384A1360394B0A
:104444001B78394A157805EB9305EDB20135EDB2C9
:1044540031E0104610300844FBF77CFF90B9E200CD
:10446400121B1101314B0B445A7A997A93F82800A4
:104474000290019100921B7A3A4631464046FCF77D
:104484003FFA31E0284B1878FFF7DCF8E200121B02
:104494001101264B0B441A8C1A82E0E7224B187840
:1044A400FFF722FCFCF7D8FB059BC01A04901E4AB8
:1044B4001378013313701C4B1C782046FBF78AFFDA
:1044C400E0B1AC421AD2FCF7C7FB0590164B1C783E
:1044D4001649E3001B1B1A018B185E889F8811F88C
:1044E40002809B7C002BB4D1C4EBC40422010F4B8B
:1044F400134493F84830002BD4D0CFE7084B1B78F3
:10450400032B8BD9FF20FDF7D1FC0023044A137041
:10451400054A137082E700BF841E00201C0100209E
:10452400DC000020E4000020E50000203C11002015
:1045340010B582B00C4600238DF800308DF80130A0
:104544008DF8023008281FD000EB40001D4B1844A2
:1045540002888378ADF800208DF8023014BB009BEC
:10456400ADF804301B0C8DF8063000209DF80430A3
:1045740063F307009DF8053063F30F209DF80630C0
:1045840063F3174002B010BD0620FFF79FFB00EB5A
:1045940040000C4B184402888378ADF800208DF855
:1045A4000230DBE721466846FCF723FA8DF8040065
:1045B400C0F307238DF80530C0F307408DF80600DB
:1045C400D3E700BFAC57000830B583B00D4614469E
:1045D4001946FFF7ADFF8DF80400C0F307238DF8EB
:1045E4000530C0F307408DF806009DF818102846E2
:1045F400FFF79EFF9DF80430637020719DF805302D
:10460400A370C0F3072363719DF80630E370C0F311
:104614000740A07103B030BD10B582B00C461146FE
:10462400FFF786FF6070C0F30723A370C0F3074051
:10463400E07002B010BD2DE9F04383B00C4617467C
:104644009846FF21FFF774FFC0F30729C0F307461C
:10465400C5B24246FF212846FCF7C6F920713A4606
:10466400FF212846FCF7C0F960705FFA89F94246D9
:10467400FF214846FCF7B8F960713A46FF214846E5
:10468400FCF7B2F9A070F6B24246FF213046FCF7BF
:10469400ABF9A0713A46FF213046FCF7A5F9E0706A
:1046A40003B0BDE8F08370B586B0044615461E46D7
:1046B4001822684600F00AFE0A2C06D13246294622
:1046C4006846FFF739FA06B070BD9DF82C309DF8A6
:1046D400282069462046FFF7AEFFEFE72DE9F043B7
:1046E40085B004460E461546FF211046FCF7AEF988
:1046F4008DF80C00C0F307238DF80D30C0F307408C
:104704008DF80E0005212846FCF75FFAC7B2FF2199
:104714003846FCF79BF98146C0F30728C0F30745E8
:1047240005213846FCF751FAC7B29DF80C30637086
:104734009DF80D30A3709DF80E30E37084F804905A
:1047440084F80580A5710123A37323612370FF23DB
:10475400019300230093324621460A20FFF7A3FF6A
:10476400384605B0BDE8F083164B1A68164B1B6833
:104774009A4207D3134B1B683733134A1360134B06
:104784001B7803B9704710B5114B1878FBF79CFEE2
:1047940000B910BD0F4C22780D4B19780E48FFF765
:1047A4009DFF20700D4B1B68002BF2D0022B05D807
:1047B40000230A4A1360054A1370EAE7023B074ADA
:1047C4001360E6E7841E002018010020DC1000209E
:1047D400DE100020DD100020E0100020D8100020A2
:1047E40070B506460C460C4D18220146284600F0CA
:1047F4006DFD336903EB43035A00084B1A60002232
:1048040021462846FFF76AFF054B1870054B1C70BC
:10481400054B01221A7070BDE0100020D810002052
:10482400DD100020DE100020DC1000202DE9F04116
:1048340084B0A84B1B7883B10120FEF711F800283F
:1048440000F0D381A44B1B780C3B062B51D8DFE836
:1048540003F08950497550798100A04CFF2221460C
:104864000120FFF7D9FE0025656125810523E3803A
:104874009622A280072222704FF4FA622282E381F8
:1048840001272773678125766576954EFF23642279
:1048940031460620FFF7CFFE35614FF0020886F857
:1048A4000080FF23B3734FF42F73B3603575019603
:1048B40000942B4640F2811239463846FFF7B0F98E
:1048C400884B1870019600942B464FF4B972394600
:1048D4004046FFF7A5F9844B18707E4B1F70834B3D
:1048E4001870A9E77D4B02221A827D4B4FF42F7278
:1048F4009A60794A13780133DBB21370122B02D910
:10490400134600221A70744B1B78132B00F25B8140
:10491400DFE813F041005100610071008100910053
:10492400A100AF00BD00CB00F2000A0121014E013D
:104934004701BB015901C601DB01EE010020FCF770
:104944004DF8D6E70121FF20FEF768F8644B0022FA
:104954001A61CEE7614B02221A82614B4FF42F7227
:104964009A60C6E75D4B00225A76614B1B783BB1D7
:104974005A4B02221A820322DA8114229A80B8E75F
:10498400564B96229A8007221A704FF4FA621A82C2
:104994000522DA81ADE7C823019332230093012372
:1049A400FF224F490220FFF77EFEFF224B490520DC
:1049B400FFF732FE0BE1C823019332230093012356
:1049C400FF2247490420FFF76EFEFF2243490520DA
:1049D400FFF722FEFBE0C823019332230093012357
:1049E400FF223F490020FFF75EFEFF223B490520DE
:1049F400FFF712FEEBE0C823019332230093012357
:104A0400FF2237490520FFF74EFEFF2233490320DA
:104A1400FFF702FEDBE0C823019332230093012356
:104A2400FF222F490520FFF73EFEFF222B490120DC
:104A3400FFF7F2FDCBE0C823019332230093012357
:104A4400FF2227491846FFF72EFEFF2223490320A1
:104A5400FFF7E2FDBBE0C823019332230093012357
:104A6400FF221F490420FFF71EFE224B00221A706A
:104A7400ADE0C8230193322300930123FF22184998
:104A84000520FFF710FE1B4B00221A709FE0C8237D
:104A94000193322300930123FF2211490020FFF7E1
:104AA40002FE144B00221A7091E00D4DC8230093AE
:104AB4002A4600210220FFF787FD00240194009478
:104AC4002346FF2229460A20FFF7EDFD094B1C70FF
:104AD4007DE000BF5C1E00203F000020F810002095
:104AE400F00000203711002038110020361100207A
:104AF4000801002039000020914CC823009322466D
:104B040000210220FFF760FD002301930093FF22A0
:104B140021460A20FFF7C7FD01208A4B1870FF22A7
:104B24008949FFF779FD52E0854DC82300932A4651
:104B340000210420FFF748FD4FF4AF63AB6000246D
:104B4400019400942346FF2229460A20FFF7ABFD77
:104B54007C4B1C703BE0FF220192642300930023F2
:104B640077490620FFF79FFD0123764A1370764AA2
:104B74005376764B1B785BB1134602221A82DA8194
:104B840050229A80FF2270490120FFF745FD1EE064
:104B94006D4BFA229A804FF4FA621A820A22DA8161
:104BA400F0E7694B01221A82654B4FF496729A60C2
:104BB400FA23962262490820FFF73DFDFF2262494D
:104BC4000820FFF729FD5E49FF20FEF741FC5E49FE
:104BD400FF20FEF749FB5B4B1978FF20FBF7BCFC79
:104BE4005B4B1B78102B00F0878041F28831012049
:104BF400FDF756FE20B3554B1B78002B00F08C803C
:104C0400514B07221A7000225A611A810521D9805A
:104C1400962098804FF4FA601882D9810121197383
:104C240059814A4B1A704649FF20FEF711FC464948
:104C3400FF20FEF719FB434B1978FF20FBF78CFC90
:104C44000220FDF717FE002800F09D80404B1B78E2
:104C5400122B00F09180112B00F0D0803D4B1B787B
:104C6400002B00F0CE803C4B18783C4B19883C4B11
:104C74001A883C4C23786578A4783B4E36780296A3
:104C840001940095FBF770FE7DE02D484FF42F73DF
:104C94008360FF21FFF7A4FD2A4B00221A7096E7D8
:104CA400274900234B700B718B704B71CB708B7148
:104CB40001220A61244A53709370D37001930093C4
:104CC400FF220A20FFF7EFFC81E7284B01221A702C
:104CD4001B4900240C61FF228A73C82301936423B7
:104CE400009323460520FFF7DEFC164B1C706EE78D
:104CF400174B00221A7066E71D4C00212078FBF741
:104D04002BFC00212078FBF705FC1A4B1A8821782C
:104D14000120FDF747FF68E70B4B01221A700021C1
:104D240059610A211981D98014219980022119829B
:104D34000321D9811A735A81044B1A7073E700BF97
:104D4400F000002039000020F810002008010020A5
:104D54003F000020240100203611002040000020E4
:104D6400420000203C000020380000205E1E00208D
:104D74003811002034000020B14A13780133137035
:104D8400B04B00221A700220FDF76AFD00284DD1B5
:104D94000320FDF765FD90B1AB4B1B78002B4FD181
:104DA4000021FF20FBF7B6FB0021FF20FBF7D4FB1B
:104DB400A54B01221A70A54B1B78112B3BD04FF445
:104DC4007A710320FDF76CFD68B1A14A13780133B1
:104DD400DBB213700F2B02D9134600221A709C4BBE
:104DE4001878FBF707FD994B1B78112B64D0122B15
:104DF40071D00E2B39D004B0BDE8F081FDF778FEF8
:104E0400C1E7934B1878800000F0FC00FBF7F2FC3C
:104E140001221146FF20FBF7EBFA01221146FF2085
:104E2400FBF7E6FAFF20FDF741F8ACE7884B18786A
:104E3400FBF7E0FCACE71146FF20FDF7EFFDBEE712
:104E44000121FF20FBF766FB824B1978FF20FBF75B
:104E540083FB7D4B00221A707C4B1B78112BAED147
:104E64001146FF20FDF7DAFDA9E77B4B1A687B4B5F
:104E74001B689A42BFD9784B1B6803F59673774A2F
:104E84001360774DFA23962229460820FFF7D3FBB7
:104E9400744CFA2221460820FFF7BEFB2946FF2066
:104EA400FEF7D6FA2146FF20FEF7DEF9694B1978A2
:104EB400FF20FBF751FB9EE7FF20FBF705FB0028D3
:104EC40099D0FF20FDF7D4FD002894D00021FF20C5
:104ED400FDF7A4FD8FE75A4B1B78013B072B00F22B
:104EE400438101A252F823F0FB4D00080D4F000846
:104EF400754F0008C54F00080150000821500008F4
:104F0400C1500008135100084E4B1B786BB1524B33
:104F14001A68554B1B689A427FF66DAF484B0322C3
:104F24001A70484B00221A7065E74B4B1B6803F656
:104F3400B8334D4A13604B4CC82221460620FFF774
:104F44006BFB06232370012525734FF47A632382B8
:104F5400C823A3800A23E381444E21463078FEF718
:104F640083F929463078FBF7F7FA364B1D70CEE704
:104F7400344B1B78002B7FF43EAF374B1B6803F692
:104F8400B833394A1360374CC82221460620FFF74C
:104F940043FB062323700125257340F6B83323828F
:104FA400C823A3800A23E381314E21463078FEF7DB
:104FB4005BF929463078FBF7CFFA224B1D701AE7CC
:104FC400204B1B78002B7FF416AF264CFF23237352
:104FD400264D21462878FEF747F901212878FBF76A
:104FE400BBFA234D21462878FEF73EF901212878A3
:104FF400FBF7B2FA134B01221A70FCE6114B1B7833
:10500400002B7FF4F8AE124B18780230C0B218703F
:10501400FBF7F0FB0B4B01221A70ECE6094B1B78F3
:1050240043B30D4B1A68104B1B689A427FF6E3AEEC
:10503400034B07221A70034B00221A70DBE600BFF1
:105044005E1E00205D1E0020240100203F00002081
:105054003700002039000020841E00202001002099
:10506400F0000020F8100020601E002037110020FE
:1050740038110020404B1B6803F6B8333F4A1360D5
:105084003F4CC82221460620FFF7C6FA06232370A8
:10509400012525734FF47A6323824FF49673A3801A
:1050A4000A23E381374E21463078FEF7DDF829469E
:1050B4003078FBF751FA344B1D70B2E7324B1B7852
:1050C400002B7FF498AE2C4B1B6803F6B8332B4AA5
:1050D40013602B4CC82221460620FFF79DFA0623B5
:1050E40023700125257340F6B83323824FF4967359
:1050F400A3800A23E381254E21463078FEF7B4F8D5
:1051040029463078FBF728FA1F4B1D7073E61E4BB7
:105114001B78C3B1184B1A68184B1B689A427FF668
:105124006AAE1B4B1B780E2B3FF665AE124A126813
:1051340002F57A7211490A600133D8B2144B18701F
:10514400FBF758FB57E60C4B1B6803F57A730B4AC5
:1051540013600F4B18780130C0B21870FBF74AFB8C
:10516400094B01221A70D5E70A4B00221A70084B2A
:1051740006221A703FE600BF841E0020601E002035
:10518400F8100020371100205D1E00203811002087
:10519400370000205E1E002008B5154B1B7823BB8A
:1051A400134B01221A70134B1B78032B05D8DFE82D
:1051B40003F002131619FFF725F90E4A1378013389
:1051C400DBB21370032B02D9134600221A70084B6A
:1051D40000221A70012008BDFDF788FBEDE7FFF7F8
:1051E40025FBEAE7FFF7C0FAE7E70020F3E700BF93
:1051F40009010020881E002008B5FBF7B5FDFCF767
:10520400BBF9FDF7D7FBFDF77DFCFDF733FD0C4B38
:105214001878FBF7EFFA4FF4FA710120FDF7CEFD91
:105224004FF4FA710220FDF7C9FDFF20FCF73EFEA2
:105234000120FDF79FFCFEF745FDFFF7ADFFFCE7FE
:105244003700002008B503460C4A12685AB10B4ACD
:105254001068033323F003030344094A934206D836
:10526400064A136008BD054A06491160EFE700F0DD
:1052740017F80C2303604FF0FF30F3E7E800002039
:10528400004C0020F41E00200028B8BF40427047A4
:10529400024B0A460146186800F02EB84800002068
:1052A400014B1868704700BF48000020024B0146BC
:1052B400186800F07BB800BF48000020024B01468C
:1052C400186800F027B800BF480000200A44914243
:1052D40000F1FF3300D1704710B511F8014B914232
:1052E40003F8014FF9D110BD03460244934200D1A3
:1052F400704703F8011BF9E738B502FB01F42146B6
:1053040000F054F8054618B122460021FFF7ECFFDF
:10531400284638BD38B50546002943D051F8043C29
:105324000C1F002BB8BFE41800F002F91E4A1368E2
:10533400104633B9636014602846BDE8384000F075
:10534400FDB8A3420BD921686218934201BF1A68C1
:105354005B685218226063600460EDE713465A6884
:105364000AB1A242FAD919685818A0420BD1206890
:105374000144581882421960DED110685268014411
:1053840019605A60D8E702D90C232B60D4E720684F
:1053940021188A4201BF11685268091821606260AD
:1053A4005C60C9E738BD00BFD81E0020F8B5CD1C2D
:1053B40025F0030508350C2D38BF0C25002D0646B5
:1053C40001DBA94203D90C2333600020F8BD00F0AF
:1053D400AFF821490A6814469CB9204F3B6823B9A9
:1053E4002146304600F094F838602946304600F0F3
:1053F4008FF8431C23D10C233046336000F09EF811
:10540400E3E723685B1B17D40B2B03D923601C44ED
:10541400256004E06368A2420CBF0B605360304611
:1054240000F08CF804F10B00231D20F00700C21AD1
:10543400CCD01B1AA350C9E722466468CCE7C41C2D
:1054440024F00304A042E3D0211A304600F060F8AF
:105454000130DDD1CFE700BFD81E0020DC1E0020C4
:1054640038B50D4B05461C68A36B7BB91820FFF7B4
:105474001DFF0A4A0A4BA063C0E90023094B01221D
:1054840083600B2383810023C0E904230022A36BE0
:105494001D615A6138BD00BF480000200E33CDABFA
:1054A40034126DE6ECDE0500134B10B51C68A36BDB
:1054B4007BB91820FFF7FAFE104A114BA063C0E92C
:1054C4000023104B012283600B2383810023C0E956
:1054D4000423A16B0C480A694B6950430B4C04FB31
:1054E4000300A2FB04345A1C044444F10000C1E943
:1054F400042020F0004010BD480000200E33CDAB46
:1055040034126DE6ECDE05002DF451582D7F954CD8
:1055140038B50023054C054608462360FFF792FE84
:10552400431C02D1236803B12B6038BDE01E002068
:10553400014800F009B800BFE81E0020014800F04F
:1055440004B800BFE81E0020704770472E2E2F6C51
:1055540065645365676D656E742F73746D3332754E
:1055640074696C732F73797374656D2F7372632F01
:1055740073746D333266312D73746470657269703F
:10558400682F73746D3332663130785F6164632ED3
:10559400630000002E2E2F6C65645365676D656E85
:1055A400742F73746D33327574696C732F737973DC
:1055B40074656D2F7372632F73746D333266312D7E
:1055C4007374647065726970682F73746D333266B6
:1055D4003130785F646D612E630000002E2E2F6CD5
:1055E40065645365676D656E742F73746D333275BE
:1055F40074696C732F73797374656D2F7372632F71
:1056040073746D333266312D7374647065726970AE
:10561400682F73746D3332663130785F6770696FE9
:105624002E6300002E2E2F6C65645365676D656EC6
:10563400742F73746D33327574696C732F7379734B
:1056440074656D2F7372632F73746D333266312DED
:105654007374647065726970682F6D6973632E6307
:10566400000000002E2E2F6C65645365676D656E17
:10567400742F73746D33327574696C732F7379730B
:1056840074656D2F7372632F73746D333266312DAD
:105694007374647065726970682F73746D333266E5
:1056A4003130785F7263632E630000002E2E2F6CFE
:1056B40065645365676D656E742F73746D333275ED
:1056C40074696C732F73797374656D2F7372632FA0
:1056D40073746D333266312D7374647065726970DE
:1056E400682F73746D3332663130785F7370692E4E
:1056F4006300000048656C6C6F210A00444D412032
:1057040074657374207472616E736665720A000046
:105714002E2E2F6C65645365676D656E742F7374DC
:105724006D33327574696C732F73797374656D2F6F
:105734007372632F73746D333266312D73746470B6
:1057440065726970682F73746D3332663130785FB7
:1057540075736172742E6300E40CAC0D740E3C0F0F
:1057640004100000990079018046500000000000F8
:105774000000000000000000000000000000000025
:105784000000000000000000000000000000000015
:1057940000000000E70000FF6000FFEF0000FF20B2
:1057A4000020FF7600790000FF000000FF000000E9
:0D57B400FFFF00FF00FFFFFFFF00FFFFFFF2
:1057C40078563412020406080000000000000000AD
:1057D4000102030406070809000000000102030493
:1057E400010203040607080900A24A040C01002070
:1057F400000000009700FF060601FFFF6464640ACE
:1058040094019A01480000004C00002000000000B0
:105814000000000000000000000000000000000084
:105824000000000000000000000000000000000074
:105834000000000000000000000000000000000064
:105844000000000000000000000000000000000054
:105854000000000000000000000000000000000044
:1058640000000000000000000000000032547698A0
:040000050800016D81
:00000001FF
