:020000040800F2
:1000000000500020590200085D0100084901000865
:1000100045010008310100081D0100080000000032
:1000200000000000000000000000000019010008AE
:10003000150100080000000011010008810E0008F1
:100040000D0100080D0100080D0100080D01000858
:100050000D0100080D0100080D0100080D01000848
:100060000D0100080D0100080D0100080D01000838
:100070000D0100085D2000089136000819200008D5
:100080000D010008D51F0008F52D00080D0100081E
:100090000D0100080D0100080D0100080D01000808
:1000A0000D0100080D0100080D0100080D010008F8
:1000B0000D0100080D0100080D0100080D010008E8
:1000C0000D0100080D0100080D0100080D010008D8
:1000D0000D0100081D3300080D0100080D01000886
:1000E0000D0100080D0100080D01000800000000CE
:1000F0000000000000000000000000000000000000
:1001000000000000000000005FF808F100BEFEE7FC
:1001100000BEFEE700BEFEE700BEFEE71EF0040FD5
:100120000CBFEFF30880EFF3098071464C4A10478B
:100130001EF0040F0CBFEFF30880EFF30980714647
:10014000484A104700BEFEE71EF0040F0CBFEFF355
:100150000880EFF309807146434A104700BEFEE76E
:1001600000BEFEE700BEFEE700BEFEE700B583B0BE
:1001700000F06AFF284B294A1360294A1360294B73
:10018000294A03E052F8041B43F8041B27498B4219
:10019000F8D3224B1A68264B9A4200D0FEE7204B38
:1001A0001A68244B9A42F9D11B4B234A1360234A05
:1001B0001360234B02E0002243F8042B214A9342B0
:1001C000F9D31D4B1B6813B91C4B1B6803B1FEE729
:1001D00000F036FF694601A800F042FF1A4C1B4BA5
:1001E000E41AA410002504E0184B53F82530984772
:1001F0000135AC42F8DC164C164BE41AA41000256D
:1002000004E0144B53F8253098470135AC42F8DC34
:100210000099019805F050FDBABADECA000000202E
:10022000B0000020000000208C620008B400002014
:100230007856341232547698B4000020042E0020F0
:10024000B4000020082E0020940200089402000848
:10025000940200089402000808B5FFF787FF000029
:0C02600061010008650100086901000848
:10026C008C62000800000020B40000208C620008A2
:10027C000000000000000000B4000020082E002048
:08028C0000000000000000006A
:100294000438C0B2032801D80120704700207047F9
:1002A400D0B110B404460023012001E00133DBB2D5
:1002B4000B4A12789A4211D90A49742202FB03129A
:1002C40092F82920A242F1D1742202FB0312D27CBB
:1002D400022AEBD10020E9E70120704710BC7047E7
:1002E400740F0020D81F002058B3F0B40546002333
:1002F400FF26012703E01E4610E00133DBB2124A59
:1003040012789A4213D91846104C742202FB034205
:1003140092F82920AA42F0D1FF2EECD00B4A742483
:1003240004FB0020C27C022AE7D00027E5E71FB1C6
:100334008E4204D0002000E00020F0BC7047012071
:10034400FBE70120704700BF740F0020D81F002076
:1003540003882BB1013B9BB223B10380002070477B
:100364000020704701207047036823B1013B04D08B
:100374000360002070470020704701207047000090
:10038400E0B110B40446002301E00133DBB20C4AAF
:1003940012789A420FD90B49742202FB031292F885
:1003A4002920A242F1D1742202FB0312D27C012A39
:1003B400EBD0002000E0012010BC70470120704702
:1003C400740F0020D81F0020034B1B78834201D8F0
:1003D4000020704701207047740F002010B50446B8
:1003E400FFF7F2FF28B1044B742202FB0434E079D6
:1003F40010BD0120FCE700BFD81F002038B504461B
:100404000D46FFF7E1FF024650B15DB1074B742181
:1004140001FB0434A38861885B1A01339D4203DC29
:10042400104638BD0022FBE70022F9E7D81F002060
:10043400054B1B78834203D8FF2803D00020704764
:100444000120704701207047740F0020F8B504465E
:100454000F461646FFF7ECFF0546002839D0FF2C5F
:100464004AD0DFB12C4A742303FB042393F92230CE
:10047400012B43D0284A742303FB04231A7E1A72E7
:100484005A7E5A729A7E9A72FF229A73224A74236F
:1004940003FB04230022DA745A6ADA62CEB11E4ADC
:1004A400742303FB0423002283F8492093F9582082
:1004B40083F83C20B3F85620DA8793F84C00FFF712
:1004C400E7FE054630B3144B742202FB04340023C8
:1004D400E3872846F8BD324639462046FFF7B6FF83
:1004E4000134E4B20D4B1B78A342F2D92046FFF746
:1004F40075FF0028F4D1EEE70024F3E7742303FB2F
:1005040004235A7D1A729A7D5A72DA7D9A720122F4
:100514009A73BBE73546DCE7D81F0020740F002030
:1005240038B50446FFF784FF054638B1FF2C19D0CF
:100534000D4B742202FB043494F84950284638BD0C
:100544000134E4B2094B1B78A342F7D92046FFF7E4
:1005540045FF0028F4D12046FFF7E2FF0028EFD141
:100564000546EBE70024EDE7D81F0020740F0020B8
:1005740038B50446FFF75CFF054648B1FF2C1BD095
:100584000E4B742202FB043494F8305085F00105BC
:10059400284638BD0134E4B2094B1B78A342F7D98D
:1005A4002046FFF71BFF0028F4D12046FFF7E0FFA9
:1005B4000028EFD10546EBE70024EDE7D81F002023
:1005C400740F002038B50446FFF732FF054650B1DA
:1005D400FF2C1CD00F4B742202FB0434E57C012D4C
:1005E40014BF00250125284638BD0134E4B20A4B66
:1005F4001B78A342F7D92046FFF7F0FE0028F4D178
:100604002046FFF7DFFF0028EFD10546EBE7002483
:10061400EDE700BFD81F0020740F002070B504461A
:100624000E46FFF705FF054630B1FF2C16D00C4BE4
:10063400742202FB0434A674284670BD3146204659
:10064400FFF7ECFF0134E4B2064B1B78A342F3D965
:100654002046FFF7C3FE0028F4D1EFE70024F3E7B8
:10066400D81F0020740F002070B504460E46FFF713
:10067400DFFE054638B1FF2C17D00D4B742202FB68
:10068400043484F84860284670BD31462046FFF79C
:10069400EBFF0134E4B2074B1B78A342F3D92046A5
:1006A400FFF79CFE0028F4D1EFE70024F3E700BF36
:1006B400D81F0020740F00200138C0B20023022B81
:1006C40024D8F0B403E00133DBB2022B1BD800EBD7
:1006D40040041C440E4D35F834408C42F3D800EBF2
:1006E4004004E5180A4C04EBC50464888C42EAD340
:1006F400074B03EBC5063379137073795370B379E1
:100704009370012000E00020F0BC70470020704787
:100714005C620008FF2805D00138C0B2012803D864
:1007240001207047012070470020704738B5044607
:100734000D46FFF7EFFF034630B1013C054A32F89E
:100744001420AA4202D31DB1184638BD0023FBE78A
:100754000023F9E7700F0020F8B504460D4616464D
:100764001F46FFF7E3FFE0B10146013CE4B24FF45A
:10077400FB7303FB04520C4B03EB8203DB78B342A1
:1007840010D1094B03EB82039B78BB420AD1064D7F
:1007940005EB820462789DF818309A4202D1002158
:1007A40000E001210846F8BDD80F0020FF280BD037
:1007B40010B50446FFF7AEFF024618B1601E094BA0
:1007C4001A5CD2B2104610BD0023012B07D8054A8B
:1007D400D15C01F0FF0219B90133DBB2F5E7002265
:1007E40010467047C00000202DE9F04385B0044650
:1007F4000E46914698469DF830709DF834509DF809
:1008040038302BB900974346FFF7A6FF00283FD1A5
:1008140003AA31462046FFF74FFFC8B19DF80C30BC
:1008240003FB09F9B9F1000F35DBC9F3C7199DF8CA
:100834000D3003FB08F8B8F1000F2FDBC8F3C7181D
:100844009DF80E3003FB07F7002F2ADBC7F3C71709
:10085400013CE4B24FF4FB7303FB0462124B03EB61
:10086400820383F8039083F802805F706B1EDBB20F
:100874001E2B01D90D4B1D784FF4FB7303FB04664B
:1008840065F01F05084B03F82650094B01221A5541
:1008940005B0BDE8F08309F17F09C6E708F17F08D8
:1008A400CCE77F37D2E700BFD80F00203600002006
:1008B400C00F00202DE9F04184B004468846164656
:1008C4001F46FFF79BFD0546F8B1174A742303FB47
:1008D40004239B79EBB1742303FB04239988A1EBD4
:1008E400080189B2013189B2742303FB04F40123A2
:1008F40002939DF82C3001939DF8283000933B46D9
:1009040032460948005DFFF76FFF284604B0BDE892
:10091400F081054A742303FB04235988414489B2B6
:10092400013989B2E0E700BFD81F002010B582B0BA
:10093400002401949DF810400094FFF7BBFF02B01F
:1009440010BD00001F2800D91F2060F01F00014BBC
:1009540018707047360000202DE9F04184B0044639
:10096400884617461E469DF828509DF82C3023B91A
:1009740000953346FFF7F0FE80BB03AA41462046AC
:10098400FFF79AFEB8B19DF80C3003FB07F7002F70
:1009940027DBC7F3C7179DF80D3003FB06F6002EBF
:1009A40021DBC6F3C7169DF80E3003FB05F5002DB9
:1009B4001BDBC5F3C715013CE4B20D4A4FF4FB71D0
:1009C40001FB048102EB8103DF709E705D70094BB3
:1009D4001B7802F82130084B01221A5504B0BDE8F7
:1009E400F0817F37D5E77F36DBE77F35E1E700BF6E
:1009F400D80F002036000020C00F00202DE9F0475A
:100A040084B082460C46174698469DF830909DF86F
:100A140034609DF83850FFF789FE20B139465046BE
:100A2400FFF784FE80B904B0BDE8F0870123029388
:100A3400019500964B46424621465046FFF7D4FEA8
:100A44000134A4B2A742EED36B1EDBB21E2BEDD948
:100A54000123019300964B46424621465046FFF738
:100A64007BFFEDE72DE9F04184B0914229D81E4681
:100A740017460D460446FFF7C1FC804618B33946B5
:100A84002046FFF7BBFC8046E8B11148742303FB02
:100A940004F403195A88511989B23A4492B2013ABA
:100AA40001399DF8303002939DF82C3001939DF864
:100AB40028300093334692B289B2005DFFF79EFF5F
:100AC40001E04FF00008404604B0BDE8F08100BFEB
:100AD400D81F0020034B1B78834201D800207047A5
:100AE40001207047680F002010B5FF2810D004467D
:100AF400FFF7F0FF034648B10D4A4FF43A7101FB8A
:100B0400042494F8E422012A00D00023184610BDDE
:100B14000024084B1B78A34208D92046FFF7E4FFC2
:100B240003460028F2D00134E4B2F2E70123EDE7F2
:100B3400E0000020680F002038B50546FF280DD0DE
:100B44002846FFF7C7FF40B10E4A4FF43A7303FB40
:100B5400052393F8E432012B0BD038BD00240A4B53
:100B64001B78A342ECD92046FFF7E6FF0134E4B238
:100B7400F5E713464FF43A7202FB0535022385F874
:100B8400E432EAE7E0000020680F002038B50446AC
:100B94000D46FFF79FFF30B1034B4FF43A7202FB4F
:100BA400043484F8DE5238BDE000002010B5FF287C
:100BB4000DD00446FFF78EFF034630B10C4B4FF4C3
:100BC4003A7202FB043494F8DE32184610BD002455
:100BD400084B1B78A34208D92046FFF7E7FF0346DA
:100BE4000028F2D10134E4B2F2E70023EDE700BFBC
:100BF400E0000020680F002002FB00F0B0FBF1F0E1
:100C04007047F0B583B003460D4600785F78C41989
:100C14009E7834440A462146FFF7EEFF8DF8000023
:100C24002A4621463846FFF7E7FF8DF801002A4699
:100C340021463046FFF7E0FF8DF80200009B0020BC
:100C4400DAB262F30700C3F3072262F30F20C3F39F
:100C5400074363F3174003B0F0BD82B000238DF85F
:100C640000308DF801308DF8023000B301EB410102
:100C74004218435C8DF8003053788DF80130937836
:100C84008DF80230009BADF804301B0C8DF8063053
:100C940000209DF8043063F307009DF8053063F3EA
:100CA4000F209DF8063063F3174002B07047009B95
:100CB400ADF804301B0C8DF80630E9E770B582B04E
:100CC40004460D46164690F85D1069B3B0F84A30F4
:100CD400B0F848201344B0F84C20134493FBF1F3CC
:100CE4009BB203B901236A1E92FBF3F393FBF1F267
:100CF40001FB1231FF22C9B2206EFFF7AEFF8DF85F
:100D04000400C0F307238DF80530C0F307408DF8C5
:100D14000600B4F84A10A94213D2B4F848300B4480
:100D24009D4220DC01220DE090F845308DF804301E
:100D340090F846308DF8053090F847308DF806303D
:100D4400E7E70022022E14D0032E16D0012E0CD079
:100D540000231846012A04D056B296B1022A19D0AB
:100D6400002002B070BD0222ECE79DF80400237855
:100D7400F0E79DF805006378ECE79DF80600A3789A
:100D8400E8E7C01A00FB05F090FBF1F0C0B218448C
:100D9400C0B2E6E76D1AB4F84820AD1A013DC31A93
:100DA40003FB05F3B4F84C2093FBF2F3DBB2C01A57
:100DB400C0B2D6E7002801DB012070474FF0FF30B6
:100DC40070472DE9F04180460C4616461D46069FA5
:100DD4000846FFF7EFFF444407E0AC4203DDC4EBF1
:100DE40045044FF0FF30B44208DBAC42F5DCB442BA
:100DF400F3DB07B138702046BDE8F081C4EB46044C
:100E04000120F2E710B49C1A0844904203DA20440B
:100E14000130FAE7001B5A1C8242FBDB10BC70470E
:100E2400904202D2B1F1FF3F07D002FB0100009AC9
:100E3400904204D8984204D3704700207047009829
:100E4400704718467047000010B472B6084B9C688F
:100E5400084B186862B64FF47A72074B196802FBA4
:100E640001F31B1BB3FBF1F302FB003010BC704712
:100E740010E000E0982D002048000020024A13688A
:100E840001331360704700BF982D002082B0002307
:100E9400019300932C4A136843F4803313602A4B64
:100EA4001B6803F400330093019B01330193009BFF
:100EB4001BB9019BB3F5A06FF1D1234B1B6813F44D
:100EC400003F06D001230093009B012B04D002B005
:100ED400704700230093F7E71C4B1A6842F0100296
:100EE4001A601A6822F003021A601A6842F00202B9
:100EF4001A60A3F580535A685A605A685A605A684F
:100F040042F480625A605A6822F47C125A605A6829
:100F140042F4E8125A601A6842F080721A600A4B6E
:100F24001B6813F0007FFAD0074B5A6822F00302C3
:100F34005A605A6842F002025A60034B5B6803F03D
:100F44000C03082BF9D1C2E7001002400020024034
:100F540008B5FFF79BFF08BD1F4B5B6803F00C034C
:100F6400042B15D0082B17D01BB11C4B1C4A1A603C
:100F740002E01A4B1A4A1A60174B5B68C3F3031357
:100F8400184AD35CDAB215490B68D3400B6070473A
:100F9400124B134A1A60EFE70F4A53685268C3F3BF
:100FA4008343023312F4803F05D10F4A02FB03F35B
:100FB4000A4A1360E0E7084A526812F4003F05D079
:100FC400094A02FB03F3054A1360D5E7044A02FB0E
:100FD40003F3024A1360CFE7001002402800002008
:100FE40000127A000800002000093D0008B5104BEB
:100FF4001A6842F001021A6059680E4A0A405A609F
:101004001A6822F0847222F480321A601A6822F478
:1010140080221A605A6822F4FE025A604FF41F02BA
:101024009A60FFF795FF044B4FF000629A6008BD89
:10103400001002400000FFF800ED00E008B5FFF7E3
:101044008BFF08BD08B5FFF7D1FF024A024B9A6037
:1010540008BD00BF0000000800ED00E001230360AC
:10106400014B0B60704700BF2C000020FEE708B561
:101074000120FFF7FBFF08B5FFF7F9FF38B5054678
:101084000C46274B984214D0A3F57443984210D0D1
:1010940003F5806398420CD003F58063984208D02E
:1010A40003F58063984204D040F286311D48FFF76F
:1010B400E2FF012C13D0802C11D0402C0FD0202C17
:1010C4000DD0102C0BD0B4F5807F08D0B4F5007F80
:1010D40005D0082C03D0042C01D0022C07D1B4F580
:1010E400007F0AD02B881C4218D0012038BD40F262
:1010F40087310C48FFF7BFFFF1E7094B9D42F1D060
:10110400A3F574439D42EDD003F580639D42E9D07D
:1011140040F28B310348FFF7AEFFE3E70020E5E739
:1011240000380140D061000838B505460C46124B22
:10113400984214D0A3F57443984210D003F5806309
:1011440098420CD003F58063984208D003F580637D
:10115400984204D040F25F210848FFF78CFFB4F5B1
:10116400007F03D2C4F30804AC8038BD4FF4187177
:101174000248FFF780FFF5E700380140D06100081E
:1011840038B504460D46124B98420CD0A3F578436B
:10119400984208D003F58063984204D04FF41D713F
:1011A4000C48FFF768FF012D05D855B1A38843F01B
:1011B4000403A38038BD40F275210648FFF75BFFA6
:1011C400F3E7A3889BB223F004039BB2A380F1E767
:1011D400003001406C61000870B504460D461646A7
:1011E400154B98420CD0A3F57843984208D003F5E8
:1011F4008063984204D04FF408711048FFF73BFF16
:10120400012E0ED825F003039BB203B925B940F291
:1012140022210A48FFF72FFF4EB1A3881D43A58062
:1012240070BD40F221210548FFF725FFEAE7A388B6
:1012340023EA0505A580F3E7003001406C6100084E
:1012440038B504460D46124B98420CD0A3F57843AA
:10125400984208D003F58063984204D040F2B71155
:101264000C48FFF708FF012D05D855B1238843F03A
:101274004003238038BD4FF4DC710648FFF7FBFEC2
:10128400F3E723889BB223F040039BB22380F1E76A
:10129400003001406C61000838B505460C464A4BE5
:1012A40098420BD0A3F57843984207D003F58063A6
:1012B400984203D0A3214548FFF7DDFE238843B1BC
:1012C400B3F5806F05D0B3F5004F02D0B3F5404FAE
:1012D4004CD16388B3F5827F01D0002B4BD1A38816
:1012E400B3F5006F01D0002B4AD1E3880BB1022B78
:1012F4004BD12389012B4DD86389B3F5007F01D0ED
:10130400002B4CD1A3896BB1082B0BD0102B09D027
:10131400182B07D0202B05D0282B03D0302B01D03D
:10132400382B41D1E3890BB1802B42D1238A002B86
:1013340044D02B8803F44152238861880B43A1884D
:101344000B43E1880B4321890B4361890B43A1893A
:101354000B43E1890B4313432B80AB8B9BB223F4E8
:1013640000639BB2AB83238A2B8238BDA621174826
:10137400FFF781FEADE7A7211448FFF77CFEAEE737
:10138400A8211248FFF777FEAFE7A9210F48FFF71E
:1013940072FEAEE7AA210D48FFF76DFEACE7AB2164
:1013A4000A48FFF768FEADE7AC210848FFF763FE83
:1013B400B8E7AD210548FFF75EFEB7E7AE21034865
:1013C400FFF759FEB5E700BF003001406C6100082B
:1013D40038B504460D460E4B184200D120B940F2F0
:1013E40069410C48FFF747FE012D05D855B10A4A5B
:1013F400D3691C43D46138BD40F26A410548FFF704
:101404003AFEF3E7044AD36923EA0404D461F2E719
:1014140000360181246100080010024038B50446FA
:101424000D460E4B034003B920B940F24A410C4823
:10143400FFF721FE012D05D855B10A4A93691C43D3
:10144400946138BD40F24B410548FFF714FEF3E7C1
:10145400044A936923EA04049461F2E70200C0FF9A
:10146400246100080010024008B501460120FFF77E
:10147400D5FF08BD38B504460D460D4B984206D03D
:101484000C4B9C4208D00C4B9C420BD038BD4FF403
:101494000070FFF7C3FFF3E729464FF48060FFF7BE
:1014A400BDFFF0E729464FF40040FFF7B7FFEDE733
:1014B4000024014000280140003C014038B50446A6
:1014C4000D46164B98420CD0154B9C420ED0154B32
:1014D4009C4211D0144B9C4214D0144B9C4217D004
:1014E40038BD4FF48040FFF799FFEDE729464FF4EC
:1014F4000030FFF76DFFEAE729464FF48020FFF73D
:1015040067FFE7E729464FF40020FFF761FFE4E7B0
:1015140029464FF48010FFF75BFFE1E700380140F4
:101524000044004000480040004C0040005000408F
:1015340038B504460D460D4B984206D00C4B9C42E0
:1015440008D00C4B9C420BD038BD4FF48050FFF7B1
:1015540065FFF3E729464FF48040FFF739FFF0E7D2
:1015640029464FF40040FFF733FFEDE70030014018
:1015740000380040003C004038B504460D46184B86
:1015840098420FD0174B9C4210D0174B9C4212D05C
:10159400164B9C4214D0164B9C4216D0154B9C42C1
:1015A40018D038BD0420FFF739FFEBE7294608209F
:1015B400FFF734FFE9E729461020FFF72FFFE7E79D
:1015C40029462020FFF72AFFE5E729464020FFF7B8
:1015D40025FFE3E729468020FFF720FFE1E700BF6E
:1015E40000080140000C01400010014000140140BB
:1015F40000180140001C014038B504460D4620F493
:10160400AA6323F0070303B920B940F22B410B4826
:10161400FFF731FD012D05D855B1094A53691C4323
:10162400546138BD40F22C410448FFF724FDF3E730
:10163400034A536923EA04045461F2E7246100086D
:101644000010024038B504460D46164B984211D09E
:10165400143398420ED0143398420BD0143398426A
:1016640008D01433984205D01433984202D014336E
:10167400984203D129460120FFF7BEFF0A4B9C4242
:101684000BD014339C4208D014339C4205D014333D
:101694009C4202D014339C4203D129460220FFF716
:1016A400ABFF38BD080002400804024010B4294BC7
:1016B4005B6803F00C03042B2BD0082B2CD013B144
:1016C400254B036001E0244B036022494B68C3F3BC
:1016D4000313224CE35CDAB20368D34043604A68E4
:1016E400C2F30222A25CD2B223FA02F282604A68F6
:1016F400C2F3C222A25CD2B2D340C3604A68C2F32E
:10170400813217498A5CD2B2B3FBF2F3036110BC95
:101714007047114B0360D8E70E4A53685268C3F30D
:101724008343023312F4803F04D10E4A02FB03F3D5
:101734000360CAE7074A526812F4003F04D0094A1A
:1017440002FB03F30360C0E7034A02FB03F30360F5
:10175400BBE700BF0010024000127A00180000200E
:101764000400002000093D0000B587B0FFF7F4FB3A
:1017740001A8FFF79BFF019B0F4AA2FB03239B09D0
:10178400013BB3F1807F15D20C4A53600C4BF0211E
:1017940083F82310002191600720106083F8231040
:1017A400084B1B68084AB3FBF2F3084A136007B0FE
:1017B4005DF804FBFEE700BFD34D621010E000E0CB
:1017C40000ED00E02800002040420F004800002007
:1017D40010B5044640B1B0F5804F05D0B0F5004FC8
:1017E40002D0B0F5404F06D1064A536823F4404373
:1017F4001C43546010BD40F202310348FFF73BFC28
:10180400F2E700BF001002402461000838B5044626
:101814000D46431E012B40F28980042800F0868087
:10182400082800F08380644B98427FD0203398428C
:101834007CD0624B984279D08033984276D0604B0A
:10184400984273D003F5807398426FD003F5807388
:1018540098426BD05B4B984268D003F58063984202
:1018640064D0B0F5805F61D0B0F5EA1F5ED0B0F50A
:10187400EB1F5BD0B0F5004F58D0534B984255D076
:101884000133984252D0023398424FD004339842E5
:101894004CD00833984249D0B0F1201F46D03033A1
:1018A400984243D0494B984240D003F58073984204
:1018B4003CD003F50073984238D0454B984235D05C
:1018C40003F57063984231D0B0F5011F2ED0414B1F
:1018D40098422BD00133984228D00233984225D025
:1018E4000433984222D0083398421FD010339842D0
:1018F4001CD02033984219D04033984216D08033FC
:10190400984213D003F5807398420FD003F5007307
:1019140098420BD003F58063984207D003F5006327
:10192400984203D003F58053984218D1012D1CD856
:10193400002C20DB284B5B68C4F30340A2B204F400
:101944004011B1F5401F19D014F4801F27D0032192
:1019540001FA00F023EA000343F0706315E040F25B
:101964002A211E48FFF787FBE0E740F22B211B48A2
:10197400FFF781FBDCE7184BDB69DDE723F07063DD
:101984001548416821F0706141601DB1610D090184
:101994008A401343002C0BDB0F4A536038BD610DA2
:1019A400090102FA01F123EA010343F07063ECE751
:1019B400094AD361F2E700BF10001400400016008A
:1019C4000001180000081A00010020000001300086
:1019D4000011200001000080000001409C6000080C
:1019E40070B504460D4616462D4B98421CD003F59F
:1019F4008063984218D003F58063984214D003F5AD
:101A04008063984210D003F5806398420CD003F5AC
:101A14008063984208D003F58063984204D040F272
:101A24008D112048FFF727FB6B1E9BB2012B23D996
:101A3400042D21D0082D1FD0102D1DD0202D1BD0FA
:101A4400402D19D0802D17D0B5F5807F14D0B5F571
:101A5400007F11D0B5F5806F0ED0B5F5006F0BD0B7
:101A6400B5F5805F08D0B5F5005F05D0B5F5804FBA
:101A740002D0B5F5004F04D1012E08D86EB125610E
:101A840070BD4FF4C7710748FFF7F5FAF4E740F269
:101A94008F110448FFF7EFFAF0E76561F0E700BF44
:101AA400000801409C60000838B504460D462A4BE6
:101AB40098421CD003F58063984218D003F58063E4
:101AC400984214D003F58063984210D003F58063E4
:101AD40098420CD003F58063984208D003F58063E4
:101AE400984204D04FF4A2711C48FFF7C4FA6B1E4D
:101AF4009BB2012B23D9042D21D0082D1FD0102DEA
:101B04001DD0202D1BD0402D19D0802D17D0B5F518
:101B1400807F14D0B5F5007F11D0B5F5806F0ED05D
:101B2400B5F5006F0BD0B5F5805F08D0B5F5005F53
:101B340005D0B5F5804F02D0B5F5004F04D1E36868
:101B44001D4207D0012038BD40F245110348FFF77C
:101B540092FAF4E70020F6E7000801409C600008D0
:101B6400F8B505460C46494B98421BD003F58063F3
:101B7400984217D003F58063984213D003F580632D
:101B840098420FD003F5806398420BD003F580632D
:101B9400984207D003F58063984203D0B2213C48B1
:101BA400FFF769FAE3786BB1042B0BD0282B09D02B
:101BB400482B07D0142B05D0102B03D01C2B01D09D
:101BC400182B14D12388BBB1E37803F00F063046F9
:101BD40013F0100F06D0A378013BDBB2022B10D810
:101BE400A078304323785BB32E68002310E0B32140
:101BF4002748FFF740FAE5E7B4212548FFF73BFA09
:101C0400E2E7BB212248FFF736FAE9E76A610133CC
:101C1400072B14D801229A40218832EA0101F6D117
:101C240099000F278F4026EA070600FA01F10E43B8
:101C3400E1782829EAD04829E9D12A61E7E72E602A
:101C44002388FF2B20D96E68002302E06A6115E027
:101C54000133072B17D803F1080101228A40218898
:101C640032EA0101F4D199000F278F4026EA0706D2
:101C740000FA01F10E43E1782829E7D0E1784829F8
:101C8400E6D12A61E4E76E60F8BD00BF00080140B8
:101C94009C60000810B5044610F0704F02D0094B48
:101CA400034003B924B940F20E210748FFF7E3F9D2
:101CB40014F0805F02D0054B5C6010BD044B5C6087
:101CC400FBE700BF0000F0EF54600008000402408E
:101CD4000000024010B50446431E012B40F29480DC
:101CE400042800F09180082800F08E80102800F06D
:101CF4008B80202800F08880402800F08580802890
:101D040000F08280B0F5807F7ED0B0F5007F7BD07C
:101D1400B0F5806F78D0B0F5006F75D0B0F5805F06
:101D240072D0B0F5005F6FD0B0F5804F6CD0B0F5D5
:101D3400004F69D0B0F5803F66D0B0F5003F63D066
:101D4400B0F5802F60D0B0F5002F5DD0B0F5801FC6
:101D54005AD0B0F5001F57D0B0F5800F54D0B0F56D
:101D6400000F51D0B0F1807F4ED0B0F1007F4BD046
:101D7400B0F1806F48D0B0F1006F45D02C4B984241
:101D840042D0013398423FD0023398423CD00433CE
:101D9400984239D00833984236D01033984233D021
:101DA4002033984230D0403398422DD0803398422B
:101DB4002AD003F58073984226D003F50073984225
:101DC40022D003F5806398421ED0B0F1102F1BD0AF
:101DD40003F5C053984217D003F50053984213D02B
:101DE40003F5804398420FD003F5004398420BD08B
:101DF40003F58033984207D003F50033984203D0AB
:101E040003F58023984208D114F0805F0BD0094B6E
:101E14001B6823420AD0012010BD40F2B7110648C6
:101E2400FFF729F9F0E7054B1B68F2E70020F3E719
:101E34000100001000040240546000080000024049
:101E440038B504460D46164B984226D014339842B2
:101E540023D01433984220D0143398421DD0143325
:101E640098421AD01433984217D01433984214D09D
:101E740003F56273984210D0143398420DD0143392
:101E840098420AD01433984207D01433984204D0AD
:101E94004FF4B2710348FFF7EEF8656038BD00BF38
:101EA400080002405460000870B504460D4616460A
:101EB400224B984226D01433984223D014339842AC
:101EC40020D0143398421DD0143398421AD01433BE
:101ED400984217D01433984214D003F56273984291
:101EE40010D0143398420DD0143398420AD01433CE
:101EF400984207D01433984204D040F24911104854
:101F0400FFF7B9F835F00E0300D125B94FF4A571E8
:101F14000B48FFF7B0F8012E04D84EB123681D43D7
:101F2400256070BD40F24B110548FFF7A4F8F4E7B3
:101F3400236823EA05052560F3E700BF0800024093
:101F44005460000838B504460D461F4B984226D00D
:101F54001433984223D01433984220D01433984237
:101F64001DD0143398421AD01433984217D0143326
:101F7400984214D003F56273984210D014339842F7
:101F84000DD0143398420AD01433984207D0143336
:101F9400984204D040F229110C48FFF76CF8012D47
:101FA40005D855B1236843F00103236038BD4FF4CD
:101FB40095710648FFF75FF8F3E7236823F0010300
:101FC4001B041B0C2360F1E7080002405460000866
:101FD40008B54FF00060FFF77DFE40B14FF00060A0
:101FE400FFF758FE00210948FFF7ACFF08BD4FF08A
:101FF4000070FFF76FFE0028F4D04FF00070FFF779
:1020040049FE034B00229A70ECE700BF80000240B7
:10201400C000002008B54FF40020FFF75BFE40B17C
:102024004FF40020FFF736FE00210948FFF78AFF2E
:1020340008BD4FF40030FFF74DFE0028F4D04FF4F4
:102044000030FFF727FE034B00225A70ECE700BF75
:1020540058000240C000002008B54FF40060FFF7AC
:1020640039FE40B14FF40060FFF714FE0021094827
:10207400FFF768FF08BD4FF40070FFF72BFE002840
:10208400F4D04FF40070FFF705FE034B00221A70E2
:10209400ECE700BF30000240C000002070B50546E8
:1020A400FF2814D02846FEF735FB044628B16E1EDF
:1020B400F6B21C4B9C5D64B90024204670BD2046DA
:1020C400FFF7ECFF0134E4B2022CF8D9EAE701246B
:1020D400FAE72846FEF76AFB0028EDD12EB1012E5F
:1020E4001CD0022E1CD1104D00E0104D00212846BA
:1020F400FFF728FF0E4B33F816100231890089B21E
:102104002846FFF79DFE01212846FFF71BFF094BD8
:1021140001229A55034B00229A55CEE7064DE5E776
:102124000446CAE7C00F002080000240300002408D
:10213400700F0020C00000205800024038B505464A
:102144000C46574B984225D01433984222D014336E
:1021540098421FD0143398421CD01433984219D09B
:102164001433984216D01433984213D003F5627393
:1021740098420FD0143398420CD01433984209D0AB
:102184001433984206D01433984203D0CF214548E3
:10219400FEF771FFA368102B01D0002B53D1E36825
:1021A400013B4FF6FE72934252D82369402B01D073
:1021B400002B52D16369802B01D0002B52D1A3692B
:1021C4002BB1B3F5807F02D0B3F5007F4FD1E36923
:1021D4002BB1B3F5806F02D0B3F5006F4CD1236AF5
:1021E400202B01D0002B4CD1636AB3F5405F07D09C
:1021F400B3F5005F04D0B3F5805F01D0002B45D167
:10220400A36AB3F5804F01D0002B44D12A6822F48D
:10221400FF4222F07002A368216A0B4321690B4339
:1022240061690B43A1690B43E1690B43616A0B4389
:10223400A16A0B4313432B60E3686B602368AB60B4
:102244006368EB6038BDD0211648FEF714FFA6E79B
:10225400D1211448FEF70FFFA7E7D2211148FEF75A
:102264000AFFA7E7D3210F48FEF705FFA7E7D4210C
:102274000C48FEF700FFAAE7D5210A48FEF7FBFE4B
:10228400ADE7D6210748FEF7F6FEADE7D7210548AE
:10229400FEF7F1FEB4E7D8210248FEF7ECFEB5E7FD
:1022A400080002405460000810B504464F4B9842A1
:1022B40025D01433984222D0143398421FD01433BB
:1022C40098421CD01433984219D01433984216D033
:1022D4001433984213D003F5627398420FD0143329
:1022E40098420CD01433984209D01433984206D043
:1022F4001433984203D06F213D48FEF7BCFE236897
:1023040023F001031B041B0C236000232360636080
:10231400A360E360354B9C4226D0364B9C4229D0C7
:10232400354B9C422CD0354B9C422FD0344B9C4295
:1023340032D0344B9C4235D0334B9C4238D0334B53
:102344009C423BD0324B9C423ED0324B9C4241D0CB
:10235400314B9C4244D0314B9C420AD1304A5368A1
:1023640043F47023536004E02E4A536843F00F0390
:10237400536010BD2B4A536843F0F0035360F8E7F1
:10238400284A536843F470635360F2E7254A53685C
:1023940043F470435360ECE7224A536843F47023D8
:1023A4005360E6E71F4A536843F470035360E0E761
:1023B4001C4A536843F070635360DAE7184A536861
:1023C40043F00F035360D4E7154A536843F0F00316
:1023D4005360CEE7124A536843F470635360C8E70E
:1023E4000F4A536843F470435360C2E70800024045
:1023F400546000081C0002403000024044000240C7
:10240400580002406C000240800002400804024070
:102414001C040240300402404404024058040240B8
:10242400000402400000024038B505460C460F4B3C
:1024340098420CD003F58063984208D003F5A0536A
:10244400984204D040F20D510948FEF714FE24F4DA
:10245400FC639BB203B924B940F20E510448FEF761
:102464000AFE6FEA14242C6038BD00BF002401402A
:102474000C600008F8B505460E4614461F46374B57
:1024840098420CD003F58063984208D003F5A0531A
:10249400984204D04FF416713148FEF7ECFD112E2A
:1024A40022D8631EDBB20F2B24D8072F28D8092E7D
:1024B4002CD9EA68A6F10A0303EB430307219940E8
:1024C40022EA01029F401743EF60062C29D8696B6A
:1024D400013C04EB84041F23A34021EA030106FA10
:1024E40004F40C436C63F8BD40F259211C48FEF718
:1024F400C2FDD6E740F25A211948FEF7BCFDD4E7E5
:1025040040F25B211648FEF7B6FDD0E72B6906EBD7
:10251400460107228A4023EA02038F401F432F61AA
:10252400D3E70C2C0CD8296B073C04EB84041F2341
:10253400A34021EA030106FA04F40C432C63D2E716
:10254400EB6AA4F10D0101EB81011F228A4023EA09
:10255400020306FA01F11943E962C4E700240140C9
:102564000C60000838B504460D46114B98420CD057
:1025740003F58063984208D003F5A053984204D031
:102584004FF4E9710B48FEF776FD012D05D855B1DE
:10259400A36843F4A003A36038BD40F2D3110548F7
:1025A400FEF769FDF3E7A36823F4A003A360F3E750
:1025B400002401400C60000810B504460B4B9842FF
:1025C4000CD003F58063984208D003F5A0539842D9
:1025D40004D04FF4DC710648FEF74DFDA36813F0F8
:1025E400040F01D0012010BD0020FCE700240140AD
:1025F4000C60000810B504460A4B98420CD003F551
:102604008063984208D003F5A053984204D04FF455
:10261400D5710548FEF72FFDA36843F00403A360BA
:1026240010BD00BF002401400C60000810B5044632
:102634000B4B98420CD003F58063984208D003F505
:10264400A053984204D04FF4C9710648FEF713FD15
:10265400A36813F0080F01D0012010BD0020FCE78F
:10266400002401400C60000810B504460A4B98424F
:102674000CD003F58063984208D003F5A053984228
:1026840004D04FF4C2710548FEF7F5FCA36843F08B
:102694000803A36010BD00BF002401400C600008C3
:1026A40070B505460C461646164B98420CD003F5F9
:1026B4008063984208D003F5A053984204D040F2B6
:1026C4006B111148FEF7D7FC012E0FD824F4FC63DC
:1026D4009BB203B924B940F26D110B48FEF7CBFC51
:1026E400E4B24EB16B681C436C6070BD4FF4B671BC
:1026F4000548FEF7C0FCE9E76B6823EA04046C6054
:10270400F3E700BF002401400C60000838B504461C
:102714000D460F4B984208D003F5C053984204D09D
:1027240040F24D110B48FEF7A6FC012D05D855B11A
:10273400A36843F48073A36038BD4FF4A7710548C0
:10274400FEF799FCF3E7A36823F48073A360F3E72F
:10275400002401400C60000838B504460D46114BB6
:1027640098420CD003F58063984208D003F5A05337
:10277400984204D04FF49A710B48FEF77CFC012D6B
:1027840005D855B1A36843F00103A36038BD40F2F6
:1027940035110548FEF76FFCF3E7A36823F0010346
:1027A400A360F3E7002401400C60000838B5054637
:1027B4000C46484B98420BD003F58063984207D0EF
:1027C40003F5A053984203D0E5214348FEF753FC98
:1027D4002368D3B1B3F5803F17D0B3F5003F14D0CD
:1027E400B3F5403F11D0B3F5802F0ED0B3F5A02F31
:1027F4000BD0B3F5C02F08D0B3F5E02F05D0B3F557
:10280400002F02D0B3F5102F46D12379012B48D8DD
:102814006379012B4AD8A368A3B1B3F5003F11D063
:10282400B3F5802F0ED0B3F5C02F0BD0B3F5002F26
:1028340008D0B3F5202F05D0B3F5402F02D0B3F55F
:10284400602F38D1E36813B1B3F5006F38D1237C1E
:10285400013BDBB20F2B38D86A6822F4702222F4D1
:1028640080722368217943EA012313436B60AB68C8
:102874001A4A1A40E368A1680B43617943EA4103A9
:102884001343AB60EB6A23F47003227C013AD2B2A7
:1028940043EA0253EB6238BDE6210F48FEF7EBFB37
:1028A400B3E7E7210C48FEF7E6FBB1E7E8210A4865
:1028B400FEF7E1FBAFE7E9210748FEF7DCFBC1E7E0
:1028C400EA210548FEF7D7FBC1E7EB210248FEF7F2
:1028D400D2FBC1E7002401400C600008FDF7F1FFC2
:1028E40010B50446C378012B26D863780F2B28D85B
:1028F400A3780F2B2AD8E3786BB31C4BDA68D24346
:10290400C2F30222C2F104000F2323FA02F2617817
:102914008140A37813400B431B012278DBB2144996
:102924000A4482F80033237803F01F005B09012274
:10293400824041F8232010BD75210E48FEF79BFB11
:10294400D3E776210B48FEF796FBD1E777210948B8
:10295400FEF791FBCFE7237803F01F015B09012207
:102964008A402033024941F82320E4E700ED00E0E7
:1029740000E100E0E460000808B501460448FEF701
:10298400D3FB40210248FEF779FB0028F9D008BDAB
:102994000038014010B5044694F9000020B1013418
:1029A400C0B2FFF7E9FFF7E710BD00000130C0B285
:1029B4000138072845D8DFE800F0040C141C242C47
:1029C400343C214B9868400A80F0010000F001007B
:1029D40070471D4B9868000A80F0010000F0010068
:1029E4007047194B9868C00980F0010000F001009D
:1029F4007047154B9868800980F0010000F00100D1
:102A04007047124B9868400B80F0010000F0010001
:102A140070470E4B9868800B80F0010000F00100B5
:102A240070470A4B9868C00B80F0010000F0010069
:102A34007047054B9868800A80F0010000F001009F
:102A440070470020704700BF000C01400010014097
:102A54000138034B03EBC003987800229A70704747
:102A6400782D00200138034B03EBC003D8780022F3
:102A7400DA707047782D0020042805D80138034BFC
:102A840003EBC0004078704700207047782D002089
:102A940038B504460D46FFF7EFFF0346A8B10D4ACB
:102AA4001268AA4210D30B4A1268551B013C0A4A09
:102AB40002EBC4025268954209D9064A1168064AD3
:102AC40002EBC404616000E00023184638BD002313
:102AD400FBE700BF982D0020782D00202E4B1A68AC
:102AE4002E4B1B689A4256D910B52B4B1B682133C9
:102AF4002A4A136000240FE0294B13F83430DBB169
:102B0400013B274A02F8343016E0254B03EBC2029E
:102B1400012353700134E4B2032C3BD82046FFF761
:102B240045FF0028E8D01E4B13F83430022B03D89D
:102B340001331B4A02F834302246194B13F834305F
:102B4400022B10D9164B03EBC4035B78002BDCD1AA
:102B5400134B03EBC4030121D9700F490968596071
:102B640000219970D1E7002BD4D10D4B03EBC403A2
:102B74005B784BB10A4B03EBC4030021D9700121EC
:102B840099704FF0FF315960054B03EBC2020023EB
:102B94005370BFE710BD7047982D0020C40F00206C
:102BA400782D002030B583B0164C01212046FEF765
:102BB400E3FC154D01212846FEF7DEFC01212046E9
:102BC400FEF7DAFC48238DF8073002238DF806302F
:102BD4004FF47073ADF8043001A92046FEF7C0FF2E
:102BE4004FF40043ADF8043001A92846FEF7B8FFBE
:102BF4004FF48063ADF8043001A92046FEF7B0FF1E
:102C040003B030BD000C01400010014010B50C466B
:102C140002280FD0FF2815D0012800D010BD0A4685
:102C24004FF400510B48FEF7DBFE0B482146FEF73C
:102C340007FBF3E70A464FF480410648FEF7D0FE4F
:102C44000648F3E70120FFF7E1FF21460220FFF7E2
:102C5400DDFFE3E700100140003001400038004090
:102C640008B502280ED0FF2815D0012801D0002075
:102C740008BD4FF400510E48FEF716FF003018BF90
:102C84000120F5E74FF400510948FEF70DFF00302D
:102C940018BF0120ECE70120FFF7E2FF08B1012093
:102CA400E6E70220FFF7DCFF0028E1D00120DFE7A0
:102CB4000010014008B502210348FEF7F5FE00307C
:102CC40018BF012008BD00BF000C014008B5024632
:102CD40002210248FEF784FE08BD00BF000C01403B
:102CE40008B5FFF7E7FF80F00100C0B2FFF7EEFF81
:102CF40008BD000070B582B00120FEF7B5FB174E89
:102D040001213046FEF738FC154D01212846FEF717
:102D140033FC10238DF8073002248DF80640ADF8FB
:102D2400044001A93046FEF71BFF14238DF8073039
:102D34004FF4C043ADF8043001A92846FEF710FF54
:102D44000120FFF7C3FF01210846FFF75FFF0121C0
:102D54002046FFF75BFF02B070BD00BF000C0140CE
:102D6400001001400138094B33F8103040F6E440BC
:102D740000FB03F0031344F6206000FB03F0044B54
:102D8400A3FB0030C0F34F30704700BFCC000020DD
:102D94005917B7D170B584B00E4615460024ADF866
:102DA4000E40FFF7DFFFADF80E0009E029190023FC
:102DB4000093C82289B23046FDF7B8FD0134E4B26D
:102DC400042C10D8094B33F81420BDF80E309BB2F4
:102DD4009A42EBD2291900220092C82389B23046C4
:102DE400FDF7A4FDEAE704B070BD00BF1862000857
:102DF40008B50023022B0BD8154A32F813001549E5
:102E040051F82320024441F823200133DBB2F1E7D7
:102E1400114A13780133DBB21370072B11D9002345
:102E240013700CE00B4951F82320C2F3CF020B4876
:102E340020F81320002241F823200133DBB2022BB7
:102E4400F0D94FF408710648FFF7EEFA08BD00BF49
:102E5400CC000020D4000020A81F0020C4000020C3
:102E6400002401402DE9F04393B04FF48040FEF775
:102E7400AFFC494F01213846FEF7E4FBDFF8289107
:102E840001214846FEF778FB444D01212846FEF710
:102E9400F1FA0124ADF844404FF002088DF8468061
:102EA40000268DF8476011A94846FEF759FE3846BA
:102EB400FFF7FAF93A4B00933A4B019302964FF01D
:102EC4000309CDF80C900496802305934FF4806396
:102ED40007934FF480730693202308934FF4005311
:102EE40009930A9669463846FFF728F92146384679
:102EF400FFF728F80B968DF830408DF831404FF4E9
:102F040060230D930E968DF83C900BA92846FFF78D
:102F14004DFC21462846FFF7F9FB0723224631469C
:102F24002846FFF7A7FA0723424621462846FFF71B
:102F3400A1FA07234A4605212846FFF79BFA1223E4
:102F44008DF840308DF841808DF842408DF8434033
:102F540010A8FFF7C5FC22464FF408712846FFF776
:102F64009FFB21462846FFF7F7FB2846FFF77CFB2B
:102F74000A48FFF75BFB0028FAD10848FFF73AFB41
:102F84000648FFF719FB0028FAD101210348FFF78F
:102F9400E9FA13B0BDE8F0830800024000240140C0
:102FA4004C240140CC000020000801402DE9F04FE2
:102FB40097B00138C6B2012E00F2E9800D46B1F592
:102FC400FA7F01D94FF4FA7537467F4B23F8165030
:102FD4004FF000087D4B03F806807D4B03F8068014
:102FE400DFF8F4914FF4FB6404FB06944FF4FA62A7
:102FF4004146204602F0D6FE04224146204602F015
:10300400D1FEAA46681C4FF4FB7303FB060004229E
:10301400FF2109EB800002F0C5FE01239D420BD382
:103024004FF4FB7202FB07326A4908786A4901F8D7
:10303400220001339BB2F1E7CEB1012E00F0AA8049
:10304400022E40F0A480654E0027DFF8B0813D4693
:103054004FF01109624B039303F5DE337C33029383
:103064004FF0140BA3F57843803B019310E018262E
:1030740001274FF000085B4D4FF00D095A4B0393A5
:1030840003F55043243302934FF0280B574B01931D
:1030940001210846FEF7C2F901210198FEF76CFAF6
:1030A40001210298FEF7CEFA1DB101212846FEF750
:1030B4003FFAB8F1000F03D001214046FEF7FEF9B4
:1030C400002F78D118238DF8573003238DF856300C
:1030D400ADF854B015A90198FEF742FD029F384699
:1030E400FFF7E2F8039B0A930B9410230C930AF165
:1030F40002039B000D9300240E9480230F931094DD
:10310400119412944FF44053139314940AA9BA4699
:103114003846FFF713F88DF824904FF002088DF825
:10312400258001278DF826708DF8277009A8FFF7F0
:10313400D7FB3A460A215046FEF7B6FEADF81040DA
:103144004FF48273ADF81230ADF81440ADF8168028
:10315400ADF818704FF40073ADF81A30ADF81C6078
:10316400ADF81E404FF6FF73ADF8203004A9284691
:10317400FEF792F839462846FEF702F83A464146E9
:103184002846FEF729F839462846FEF759F817B0BD
:10319400BDE8F08F18260027B846154D4FF00F09EB
:1031A400144B039303F5E4334C3302934FF4204B55
:1031B4000E4B01936CE701213846FEF727FB0121F2
:1031C4000D48FEF723FB7DE7700F0020C00F0020A1
:1031D400C000002036000020D80F0020882A1100EB
:1031E40004440040003001400C300140000C014018
:1031F400003800400C380040000230000044004019
:1032040070B506460D46FDF765FC044648B1104A04
:103214004FF43A7303FB062393F8D1320A2B02D9F5
:103224000024204670BD0133DBB210464FF43A72DD
:1032340002FB06F6821982F8D132013B03EBC30389
:10324400DA00164448222946304402F09DFDE8E79E
:10325400E000002070B5044615461E4600230376A0
:1032640080F83C3021B1182202F08EFD0123237630
:1032740045B12022294604F11C0002F085FD0123FA
:1032840084F83C3026649DF8143084F846309DF868
:10329400183084F845309DF8103084F8443070BDFF
:1032A40070B50546194B187868BB0C4616469DB197
:1032B40000211748FEF746FE7CB121461448FEF76C
:1032C400BFFD96B9124BDD600124104B1C702146E2
:1032D4000F48FEF737FE204670BD2B4613F9012B2D
:1032E400002AEAD00134A4B2F8E70121204602F012
:1032F4002DFD084E30602246294602F045FD326815
:10330400034BDA60E0E70020E6E700BFBC000020E2
:1033140044000240B800002008B56E4B1B8813F02F
:10332400200F66D06B4B9B88DBB26B4A13706B4BE0
:103334001B78002B58D11378443B202B59D8DFE855
:1033440003F03358583D582A58584958585821586A
:1033540058581B585858585858585858585858116D
:10336400585815005E48FFF715FB42E0002211464D
:103374005C48FFF795FF3CE00323584A13705A4A10
:10338400137036E00023584A1370544A0121117017
:10339400564A13702DE00123534A13704F4A137099
:1033A400524B00221A7024E04F4B02221A704B4BEE
:1033B40001221A704D4B00221A701AE04A4B042263
:1033C4001A70464B03221A70002211464848FFF730
:1033D40067FF0EE0444B05221A70404B01221A701D
:1033E400424B00221A7004E03C4B1B78DBB2012BE9
:1033F40000D008BD3C4B1B78DBB2052BF9D801A2E9
:1034040052F823F0213400084F3400087D340008BA
:10341400F7330008F7330008AB340008334B1B784C
:103424002D490A78D2B23348C2540A78D2B20A2A51
:1034340001D00A782AB92F4A0021D154274A0321FE
:1034440011700133294A1370D3E7284B1B782249A2
:103454000A78D2B22748C2540A78D2B20A2A01D0D2
:103464000A782AB9234A0021D1541C4A0321117035
:1034740001331E4A1370BCE71C4B1B7816490A78AB
:10348400D2B21C48C2540A78D2B20A2A01D00A78AD
:103494002AB9184A0021D154104A0321117001336A
:1034A400124A1370A5E7114B1B780B490A78D2B264
:1034B4001048C2540A78D2B20A2A01D00A7822B932
:1034C40000220C49CA5405490A700133074A137093
:1034D4008FE700BF003801409F2D0020B42D00204D
:1034E400B4610008BC6100089D2D00207C0F002001
:1034F400B82D0020A02D00202DE9F04104460D46F2
:10350400FCF796FF074600285CD0002D00F0B5803C
:10351400FF2C6AD05A4E742303FB04F808F14800C8
:10352400304420222946043002F02EFC6A6906EB5E
:1035340008035A64012283F8482093F84C00FCF7EE
:10354400A7FE002853D14E4A742303FB04239B791E
:10355400002B78D0742303FB04239A88B3F8561005
:10356400521A92B20132A3F8562093F858205242CC
:1035740083F85820424A742303FB0423B3F85620EB
:103584009B889A426CD93E49742202FB0412A2F829
:1035940056303B4A742303FB0423B3F85620DA87DE
:1035A400B3F85C20A3F84020354B742202FB0434AA
:1035B40094F9583084F83C30002384F849300123CE
:1035C40084F848303846BDE8F08129462046FFF7A4
:1035D40093FF0134E4B22B4B1B78A342F2D920466B
:1035E400FCF7FCFE0028F4D1EFE70024F3E7742590
:1035F40005FB0465286F02F0BFFBB5F85000B5F871
:103604005A300221184402F0A1FB28670023EB87FB
:10361400B5F85C301C4AA2FB03231B09B5F85A20F9
:1036240003FB02F3B5F85020B3FBF2F1934200D24E
:103634000121134A742303FB0423A3F85C10012221
:10364400A3F84020B0E70E4B742202FB04325388E7
:10365400B2F856100B449BB2013BA2F8563089E7EE
:103664000749742303FB04135B889A4291D27422A2
:1036740002FB0412A2F856308BE70027A2E700BF32
:10368400D81F0020740F0020CDCCCCCC10B5114B2A
:103694001B6813F4004F0BD00E4B4FF400425A60DA
:1036A4000D4B01221A7000210C48FEF74BFC10BD93
:1036B400084B1B6813F4005FF5D0064B4FF400521F
:1036C4005A60074C206802F057FB00232360054A28
:1036D4001370E8E7000002409E2D002044000240E1
:1036E400B8000020BC0000202DE9F04F83B08346D1
:1036F4000C46FCF79DFE0190002800F0C180002CD0
:1037040000F0D580BBF1FF0F1ED0D946742000FB1A
:103714000BF01030674B184418222146043002F095
:1037240033FB012742E00135EDB2634B1B78AB421A
:1037340040F2A6802846FCF751FE0028F3D121462A
:103744002846FFF7D1FFEEE70025EEE70022F6B2A8
:10375400B6FBF5FCDFF85CE1742303FB09E383F8B3
:103764000CC0BAF1000F0DD0BCF1000F09D005FB5D
:103774001C66322E06D9019A04E0019AE7E7019A01
:10378400E5E7019AC0B2B0FBF5F6DFF828C174236F
:1037940003FB09C35E7329B1002E36D005FB160066
:1037A400322834D80AB10137BFB292B3A56807EB07
:1037B40087029300B5FBF3F520796378C01A02F011
:1037C400C1FA5FFA80F86079A378C01A02F0BAFAF5
:1037D40006465FFA80FAA079E378C01A02F0B2FADA
:1037E400C1B2B8FBF5F2DFF8CCC0742303FB09C304
:1037F400DA72B8F1000FA9D0002ABED005FB1288F6
:10380400B8F1320FBBD80022A1E7019ACBE7019AA5
:10381400C9E7284A742303FB0B231F841F8294F9EE
:103824000E30B3F1FF3F2FD062782249742303FB9B
:103834000B131A72A2785A72E2789A7294F90E20D3
:103844001C49742303FB0B139A73236923B10022CD
:10385400A3FB05151DBB22B3164A742303FB0B23DC
:1038640000225A62134B742202FB0B3BDBF8243018
:10387400CBF82C3001238BF8123000238BF8133053
:10388400019803B0BDE8F08F22790A49742303FB41
:103894000B131A7262795A72A2799A72CEE70122D4
:1038A400D9E70449742202FB0B125362DAE70023BE
:1038B4000193E5E7D81F0020740F00202DE9F0479D
:1038C40084B004468DF80F00FCF7B2FD002800F028
:1038D400A681A84B742202FB04F202F110011944E0
:1038E4000D1D13449F7ED97D9E7C002E00F0978190
:1038F400A04B742202FB0432537D107E83427FD896
:103904004FF00009DFF86CC2742202FB04C292F883
:1039140016C0527E944575D84FF000088F4273D379
:103924000027B9F1000F71D0924A4FF0740A0AFBD4
:10393400042A9AF80E104942009303469AF80B2081
:1039440049B29AF80800FDF76BFA8AF80800B8F152
:10395400000F6CD0874B4FF0740A0AFB043A9AF8B4
:103964000E1049429AF8163000939AF819309AF8D2
:103974000C2049B29AF80900FDF752FA8AF80900B6
:10398400002F69D07B4B4FF0740A0AFB043A9AF873
:103994000E1049429AF8173000939AF81A309AF8A0
:1039A4000D2049B29AF80A00FDF73AFA8AF80A009B
:1039B4003FB1704A742303FB04239A7A9B7E9A4294
:1039C4005FD947B96B4A742303FB04239A7A9B7E1D
:1039D4009A4280F085803FB1664A742303FB042336
:1039E4009A7ADB7D9A427ED2002F7FD1614A74237A
:1039F40003FB04239A7ADB7D9A427AD93A4641E062
:103A0400B1467FE7B04689E737468AE7594A4FF01F
:103A1400740A0AFB042A00909AF80B209AF90E10F3
:103A24009AF80800FDF7FCF98AF808008FE7514B73
:103A34004FF0740A0AFB043A9AF8193000939AF882
:103A440016309AF80C209AF90E109AF80900FDF72E
:103A5400E7F98AF8090093E7464B4FF0740A0AFB2A
:103A6400043A9AF81A3000939AF817309AF80D200D
:103A74009AF90E109AF80A00FDF7D2F98AF80A00AA
:103A840096E70022B8F1000F07D03A49742303FBEC
:103A94000413597A5B7E99422ED9B8F1000F07D1ED
:103AA4003449742303FB0413597A5B7E994252D23E
:103AB400B8F1000F07D02F49742303FB0413597A7C
:103AC4009B7D99424AD2B8F1000F4BD12949742306
:103AD40003FB0413597A9B7D994247D941460CE074
:103AE4003A463746CEE732460027CBE700273A4628
:103AF400C8E732460027C5E70021B9F1000F07D017
:103B04001C48742303FB0403187A1B7E984233D9A0
:103B1400B9F1000F07D11748742303FB0403187A83
:103B24001B7E98427ED2B9F1000F07D0114874234E
:103B340003FB0403187A5B7D984277D2B9F1000F36
:103B440077D10C48742303FB0403187A5B7D9842F5
:103B540073D94E4611E04146B046CEE731464FF0A8
:103B64000008CAE74FF000084146C6E731464FF067
:103B74000008C2E7D81F002000260AB9002F4ED043
:103B840011B9B8F1000F4AD016B9B9F1000F46D0F7
:103B940000238DF80E30714A742303FB042393F839
:103BA40029608EB1742303FB0423DB7C23B97423C3
:103BB40003FB04230222DA7421463046FCF794FB0B
:103BC40010B1674B01229A5516B1654B9B5D33B317
:103BD400624A742303FB0423DB6A8BBB5F4A7423AE
:103BE40003FB04231B7D012B40F28C80022B05D1A7
:103BF400742303FB04239A7B52429A73574A742317
:103C040003FB04230022DA74544B742202FB0434B1
:103C140094F82940524B1B5D002B40F0948004B073
:103C2400BDE8F08733464E469946A6E74FF00009B3
:103C3400A3E74FF000094E469FE74FF000099CE7C9
:103C4400742000FB04F0283010440430FCF78CFB93
:103C54000028C3D0414A742303FB042393F8303073
:103C6400002B48D0742303FB0423002283F8302064
:103C740093F92230012B1ED0384A742303FB04230A
:103C840093F831201A7693F832205A7693F8332039
:103C94009A76324A742303FB04231B7D012B18D923
:103CA400022B1DD12D4A742303FB04239A7B524219
:103CB40083F8222014E0294A742303FB042393F895
:103CC40031205A7593F832209A7593F83320DA75B7
:103CD400DFE7742303FB042393F9342083F82220C1
:103CE4001E4A742303FB04239A6B5A622946204616
:103CF400FFF7FAFC88E7194A742303FB0423012223
:103D0400DA7481E7154A742303FB042393F90E3014
:103D1400B3F1FF3F0DD0012B7FF470AF0F4A742332
:103D240003FB04235A7D1A729A7D5A72DA7D9A72C1
:103D340064E7742303FB04231A7E1A725A7E5A72B0
:103D44009A7E9A725AE72046FCF7AAFA00283FF4B2
:103D540066AF034B00221A5561E700BFD81F00204D
:103D6400B41F002070B586B005460C4616460846BA
:103D7400FCF75EFB90B3FF2C43D01822294668461B
:103D840002F002F82A692D49742303FB04139A6391
:103D9400012283F8302095F90E2083F8342096B35D
:103DA4006A78742303FB041383F83120AA7883F818
:103DB4003220EA7883F833201A7A8DF801205A7A6F
:103DC4008DF802209B7A8DF8033001238DF80E3094
:103DD4000123049369462046FFF786FC06B070BDB4
:103DE400324621462846FFF7BDFF0134E4B2144BA6
:103DF4001B78A342F2D92046FCF7F0FA0028F4D14C
:103E0400EEE70024F3E72A790C49742303FB041337
:103E140083F831206A7983F83220AA7983F8332031
:103E24001A7A8DF804205A7A8DF805209B7A8DF839
:103E34000630FF238DF80E30CAE700BFD81F0020DC
:103E4400740F00202DE9F041264D2D781D2D40D80A
:103E5400914240D81F4616460D460446FCF766FCC0
:103E640000283BD031462046FCF760FC002837D0C0
:103E74001C4991F800801C48742202FB08F2831844
:103E840084545D809E809F719DF81820DA7108F13A
:103E940001030B7008994046FFF726FC28B9124A23
:103EA400742303FB082300229A740E4B18780138FC
:103EB4000799C0B2FFF720FB30B90B4B742202FB09
:103EC4000838002388F84830064B18780138C0B207
:103ED40002E01F2000E01F20BDE8F0811F20FBE767
:103EE4001F20F9E7740F0020D81F002008B502F046
:103EF40015F808BD10B5044602F034F80134013851
:103F04006FF00043B3FBF4F3B0FBF3F010BD00001B
:103F14002DE9F04F8FB0824601238DF837308DF8AC
:103F24003600FCF785FA10B90FB0BDE8F08F54469F
:103F3400BC4A742303FB0AF303F1080102EB010BEF
:103F4400D118B1F80280B1F80490D05C0490B1F8B3
:103F54005470B1F852000744BFB2B1F8500007449E
:103F6400BFB2B1F85A10084481B2099103F140007C
:103F74001044FCF7EDF90890002800F02581A94AC7
:103F8400742303FB0A2393F849300893002B40F071
:103F94001981742303FB0A2393F84C00022812D0DE
:103FA40040B301283FD0FCF773F906460028BBD084
:103FB4009C4A742303FB0A239B7C002B56D10025C7
:103FC4000590099E4FE0742505FB0A25B5F85A10A3
:103FD40095F93C000DF1370300934B46424600FB34
:103FE40001F1E88FFCF7EDFEE8879DF8373085F89E
:103FF4003C300FE08B4B742505FB0A35B5F85A109D
:1040040095F93C004B46424600FB01F1E88FFCF772
:10401400F9FEE887834A742303FB0A23B3F85C2080
:10402400A3F84020D0E07F4A742303FB0A23D88FEF
:10403400B3F85A2093F93C1089B201FB0202DA87E3
:10404400E8E7784A742303FB04231A6F32F8151047
:1040540093F8643001930022009213465046FCF713
:1040640029FC0135ADB2B542EBD3059E6D4A7423EC
:1040740003FB0A23DB8F099A934207D3694A74230B
:1040840003FB0A2393F84C30042B0BD0654A7423AA
:1040940003FB0A23DB8F099A9342BBD200250596C2
:1040A400099E42E0742505FB0A25099B5A0000215C
:1040B400286F01F077FE0023EB87E7E7A9EB080000
:1040C400FFF718FF80B2574A742303FB04231A6FC7
:1040D400DB8F013022F8130040E0742303FB042338
:1040E4000122DA8743E0059E072B07D04D4A74234B
:1040F40003FB0A23099ADA8708968BE7099B5A1E61
:104104004849742303FB0A13DA87FF2283F83C200F
:1041140008967FE73BB9434A742303FB042393F8CF
:104124004C30072B42D00135ADB23E4A742303FB19
:104134000423B3F85A30AB4241D93A4A742303FBFF
:10414400042393F93C30B3F1FF3FB7D1742303FB4D
:1041540004231A6FDB8F002122F81310314A7423D1
:1041640003FB0423DB6B23F47F43FF2BB5D02D4BE0
:10417400742202FB0432D38F92F93C1089B20B44AF
:104184009BB2D387B342C5D3264A742303FB0423CB
:10419400012283F86C2093F84C30062BA3D1214ADA
:1041A400742303FB04230022DA87BCE7742303FB94
:1041B4000423012283F86C2083F83C20B3E7059E96
:1041C400089627E700230893164A742303FB0A235F
:1041D40093F84C502846FCF75BF8002800F04B821B
:1041E400104A742303FB0A23B3F83EB0043DEDB236
:1041F400012D19D90B4A742303FB0A2393F8653064
:10420400D3B1A9EB080898FBF3F39BB20B93099B7A
:104214009B45C0F01F8100255E46DDF82C80099F78
:1042240058E100BFD81F0020099B5B45E2D10BF188
:10423400FF331FFA83FBDDE700230B93E7E7099BBA
:104244005F1EBFB283E0531E0B9A93FBF2F393FB02
:10425400F1F201FB1231BD4B742000FB0430FF224C
:10426400C9B2806EFCF7F9FC8DF83000C0F3072367
:104274008DF83130C0F307408DF8320084E0B34A42
:10428400742303FB0423002283F86D2083F86E203B
:1042940083F86F20AD4B742505FB043595F93C304C
:1042A40019469DF83090B5F85C80CDF80090002355
:1042B40099FBF8F28B4695F86D00FCF7B1FD8DF88B
:1042C400180085F86D009DF831A0CDF800A00023FA
:1042D4009AFBF8F2CDF814B0594695F86E00FCF745
:1042E4009FFD8DF81F0085F86E009DF832B0CDF863
:1042F40000B000239BFBF8F2059995F86F00FCF7DA
:104304008FFDC0B285F86F0095F86430019300907A
:104314009DF81F309DF8182004990A98FCF7CAFAF2
:1043240095F93C30012B55D0B3F1FF3F5FD00136F6
:10433400B6B2864A742303FB0423B3F85A30B3425B
:1043440040F28D80002F3FF47AAF013FBFB27F4A25
:10435400742303FB04231A6F32F81720049293F892
:10436400651000297FF46FAF784A742303FB04239C
:1043740093F84D208DF8302093F84E208DF831209D
:1043840093F84F308DF83230089B002B82D06F4A5F
:10439400742303FB042393F84C30072B7FF46FAF93
:1043A400742303FB042393F93C30B3F1FF3F7FF400
:1043B40066AF9DF830206549742303FB041383F82A
:1043C4006D209DF8312083F86E209DF8322083F80B
:1043D4006F205FE795F86D209145A5D195F86E2083
:1043E4009245A1D195F86F2093459DD111E0574A8C
:1043F400742303FB0423DB6E23F07F4323F0FF03CA
:10440400002B94D1742303FB042393F86F30002B07
:104414008DD14E4A742303FB042393F86C30002B94
:1044240085D0742303FB04F3D118002081F86C00B9
:1044340040331344181DFBF797FF00283FF477AF70
:10444400424A742303FB0423099ADA87012283F87E
:1044540049206CE700265F46CDF828A069E7BB46F3
:10446400DDF828A0D7E67E1EB6B2384A742303FBD3
:1044740004231B6F33F81690B9F1000F3FF454ADC9
:10448400742303FB042393F8651089BB2F4A742318
:1044940003FB042393F84D208DF8302093F84E202D
:1044A4008DF8312093F84F308DF83230274A742339
:1044B40003FB042393F8643001939DF83230009396
:1044C4009DF831309DF8302049465046FCF7F2F90A
:1044D4000135ADB21D4A742303FB0423B3F85030F5
:1044E400AB427FF621AD002EBDD0013EB6B2BCE793
:1044F40009F1FF3393FBF8F393FBF1F201FB123163
:10450400124B742000FB0430FF22C9B2806EFCF70A
:10451400A4FB8DF83000C0F307238DF83130C0F3CD
:1045240007408DF83200C1E7742000FB042090F9A5
:104534003C1001FB05F1002300934B4642464942DF
:10454400C08FFCF73EFC06B211E000BFD81F00206C
:104554004A4B742000FB043090F93C1001FB05F138
:104564004B4642464942C08FFCF74CFC06B24645D6
:1045740001DB4E4559DD0135ADB2BD42BFF4D4ACCB
:104584003E4A742303FB042393F84C30022BCBD014
:10459400002BDDD0012B7FF4C7AC384A742303FB16
:1045A4000423DE8F93F93C3003FB156636B27A1E82
:1045B4009542DCDB012B1DD0B3F1FF3FD7D146453B
:1045C400D5DA2E48742303FB04F3C218A2F83E90F4
:1045D400403318440430FBF7C7FE0028C7D0274AED
:1045E400742303FB0423012283F84920002283F867
:1045F4004820BCE74E45DFDD2048742303FB04F369
:10460400C218A2F83E80403318440430FBF7ACFED5
:104614000028ACD0194A742303FB0423012283F835
:104624004920002283F84820A1E705F1010A1FFA76
:104634008AFA012251465846FCF740FB05900222B3
:1046440051465846FCF73AFB069003225146584619
:10465400FCF734FB01230293084A742303FB04236D
:1046640093F8643001930090069B059AB1B20498C4
:10467400FCF7BAF87FE700257FE700BFD81F0020CA
:104684002DE9F04186B0002305930493414B1A6849
:10469400414B1B689A4202D806B0BDE8F081FF2066
:1046A400FCF784F80028F7D13C4A137801331370DF
:1046B400384B1B680533384A1360394B1B78394A29
:1046C400157805EB9305EDB20135EDB232E07423B4
:1046D40003FB04F3103308461844FBF739FE88B98A
:1046E400314A742303FB04235A7A997A93F82800F5
:1046F4000290019100921B7A3A4631464046FCF7FB
:104704007DF930E0274B1878FFF7D8F8264A742350
:1047140003FB04231A8C1A82E2E7224B1878FFF772
:10472400F7FBFCF791FB059BC01A04901D4A137814
:10473400013313701B4B1C782046FBF779FED8B16C
:10474400AC4219D2FCF780FB0590164B1C78164935
:10475400742303FB04F3CA185688978811F803805E
:10476400937C002BB3D1104B742202FB043494F8D5
:104774004830002BD5D0D0E7084B1B78032B8BD9BE
:10478400FF20FDF78BFC0023044A1370054A1370C5
:1047940082E700BF982D0020CC0F00206C0F002072
:1047A400740F0020750F0020D81F002010B582B0B0
:1047B4000C4600238DF800308DF801308DF802305E
:1047C400082821D0062809D800EB40001D4B1844C6
:1047D40002888378ADF800208DF8023014BB009B6A
:1047E400ADF804301B0C8DF8063000209DF8043021
:1047F40063F307009DF8053063F30F209DF806303E
:1048040063F3174002B010BD0620FFF773FB00EB03
:1048140040000C4B184402888378ADF800208DF8D2
:104824000230DBE721466846FCF7EBF98DF804001B
:10483400C0F307238DF80530C0F307408DF8060058
:10484400D3E700BF4462000830B583B00D46144678
:104854001946FFF7ABFF8DF80400C0F307238DF86A
:104864000530C0F307408DF806009DF8181028465F
:10487400FFF79CFF9DF80430637020719DF80530AC
:10488400A370C0F3072363719DF80630E370C0F38F
:104894000740A07103B030BD10B582B00C4611467C
:1048A400FFF784FF6070C0F30723A370C0F30740D1
:1048B400E07002B010BD2DE9F04383B00C461746FA
:1048C4009846FF21FFF772FFC0F30729C0F307469C
:1048D400C5B24246FF212846FCF78EF920713A46BC
:1048E400FF212846FCF788F960705FFA89F942468F
:1048F400FF214846FCF780F960713A46FF2148469B
:10490400FCF77AF9A070F6B24246FF213046FCF774
:1049140073F9A0713A46FF213046FCF76DF9E07057
:1049240003B0BDE8F0832DE9F04387B004460D469B
:1049340016461F469DF838809DF83C909DF84030FF
:1049440073B10A2807D13A4631462846FFF70AFAD6
:1049540007B0BDE8F0834B464246FFF7ACFFF2E7F1
:104964001822684601F010FA0A2C05D13A4631465D
:104974006846FFF7F7F9EBE74B464246694620469F
:10498400FFF799FFF2E72DE9F04184B004460F46A2
:1049940090F8D05290F8DC62EA002A44D300034431
:1049A4001A7E93F83C80B2B305EBC502D3000344EE
:1049B40093F8463003B931B3EB002B44D9002144BA
:1049C400002302930193009391F8453032460A2064
:1049D400FFF7A9FF012384F8E53294F8E53203B127
:1049E4005FB1B8F1000F1BD005EBC505E900183124
:1049F400214404313046FEF77FFD002384F8E4327D
:104A040004B0BDE8F08105EBC503D900014430468C
:104A1400FEF76AFEE1E701213046FBF7FFFDDCE724
:104A240000213046FBF720FEE7E700002DE9F843BC
:104A3400914B1A68914B1B689A42C0F01A818E4BB5
:104A44001B6837338D4A1360002444E04046FBF76B
:104A5400B9FD814680B98A4A4FF43A7101FB04F0EA
:104A6400131893F8D03203EBC303D90001440A446A
:104A7400137E13B9B14600E0B1464046FBF750FD42
:104A84008446002844D17E4A4FF43A7101FB07F072
:104A9400131893F8D03203EBC303D90001440A443A
:104AA40092F83C30002B33D0664631E0744A4FF420
:104AB4003A7303FB072393F8E432022B4ED0704A77
:104AC4004FF43A7303FB072393F8E532002B40F0CD
:104AD400B4800134E4B26B4B1B78A34240F2C9802A
:104AE4002746674B4FF43A7505FB043595F8DE62AB
:104AF400002EEED095F8D132002BEAD095F8DC8266
:104B040095F8DD32002BA1D04046FBF739FC8146F5
:104B1400B9F1000FD3D0002ED1D0594A4FF43A71D5
:104B240001FB07F0131893F8D03203EBC303D90049
:104B340001440A4492F8443083B1514A4FF43A7321
:104B440003FB072393F8E432002BAFD14FF43A73FD
:104B540003FB0723012283F8E422A7E7484A4FF422
:104B64003A7303FB0723D3F8E0328BB94FF43A715D
:104B740001FB07F0161896F8D03203EBC303D900F3
:104B840001440A44136C3C4A12681344C6F8E032E8
:104B94003B4A4FF43A7303FB0723D3F8E022364B26
:104BA4001B689A428BD8364B4FF43A7202FB073299
:104BB4000023C2F8E03292F8D0320133DBB282F83B
:104BC400D03292F8D12293420ED32D4A4FF43A7345
:104BD40003FB0723D3F8D832ABB94FF43A7303FB82
:104BE4000723002283F8D022254A4FF43A7303FBAB
:104BF400072393F8DE32002B3FF461AF00212846EF
:104C0400FFF7C1FE5BE7013B1D494FF43A7202FB1B
:104C14000712C2F8D8323BB14FF43A7303FB0713BF
:104C2400002283F8D022DFE7154A4FF43A7303FBDE
:104C34000723002283F8DE22D6E74046FBF798FCE0
:104C440000283FF446AF0E494FF43A7303FB07F7CD
:104C5400CD1995F8D02202EBC202D3003B4418339D
:104C6400194404314046FEF747FC002385F8E53239
:104C74002FE7BDE8F88300BF982D0020C80F00205F
:104C8400E0000020680F002010B50446FBF722FF67
:104C940000B910BD08484FF43A7303FB0400D0F880
:104CA400D432C0F8D832002380F8D032012180F801
:104CB400DE12FFF768FEECE7E00000202DE9F04784
:104CC4009DF82050204C2478042C35D8984617465B
:104CD4008A460646FBF7ACFB88B30A2D31D8DFF8C9
:104CE40068904FF43A72194B02FB043400212046B9
:104CF40001F058F8C4F8D472C4F8D872002384F8C8
:104D0400D03284F8E53284F8DDA284F8D15284F8F4
:104D1400DC62C4F8E03205EBC505EA0041462046F2
:104D240001F032F801212046FFF72DFE99F800002A
:104D3400431C89F8003000E00620BDE8F087062017
:104D4400FBE70620F9E700BF680F0020E000002021
:104D54002DE9F04F8FB004AF97F85C803C4C247879
:104D6400042C6FD81E467A600D468346FBF760FB21
:104D7400002869D00A2E69D806F1FF3A06EBC6026C
:104D8400D300ADEB030D0DF110097B6DBB61012365
:104D94003B743B62002487F8244087F82550BB7796
:104DA40026E042460021386DFBF757FF3873C0F305
:104DB40007237B73C0F30740B8733B7A7B743B7B58
:104DC4003B757B7ABB747B7B7B75BB7AFB74BB7B4B
:104DD400BB7505EBC505E800002202920192009222
:104DE400BB6D07F110014844FEF734FA0134E4B214
:104DF400B4421CD242462146386DFBF72EFF38726E
:104E0400C0F307237B72C0F30740B8722546A2455E
:104E1400C7D0611C4246C9B2386DFBF71EFF387318
:104E2400C0F307237B73C0F30740B873C5E700964C
:104E34004B467A6800215846FFF740FF2C37BD46A1
:104E4400BDE8F08F0620F9E70620F7E70620F5E72E
:104E5400680F00202DE9F04F97B0A54B1B78002B6D
:104E640040F01581042B05D8A24A0021D154013306
:104E7400DBB2F7E7A04DFF2229460120FFF70CFD26
:104E840000246C612C814FF00509A5F80690962347
:104E9400AB8007232B704FF4FA632B82A5F80E9096
:104EA40001272F736F812C766C76944EFF23642236
:104EB40031464846FFF7FFFC34614FF0020886F89C
:104EC40000804FF0FF33B3734FF42F73B360347526
:104ED4007775029601950094234640F28112394673
:104EE4003846FEF7AFFF864B187002960195009482
:104EF400234640F2351239464046FEF7A3FFDFF859
:104F040028B28BF8000002960195009423464FF4D2
:104F1400B4724FF49B714046FEF794FFDFF80CA285
:104F240018223146504600F02FFFFF23322251460B
:104F34000620FFF7C0FC8AF81540CDF808A00194BC
:104F4400009723464FF4B6724FF4B5714046FEF70E
:104F540079FF6C4B18702F706F610A232B81EB80E3
:104F64004FF0640AA5F804A02F736F81A5F8108090
:104F740074754FF46173B360376186F80080B7735A
:104F8400CDF800A05346324621464846FFF75CFC64
:104F9400A5F80E80029401970094FA232246314624
:104FA40004A8FEF757F9009704AB032221469BF8A7
:104FB4000000FFF783FE544B18705546042C20D88C
:104FC40005F1140A5FFA8AF54C4E009564233246C3
:104FD40000210520FFF738FCB3687D3BB360002255
:104FE4000292012301930092FA23314604A8FEF7AA
:104FF40031F904A9444B1878FEF702F90134E4B2FC
:10500400DCE73D4A4FF0060982F81990DFF820A149
:10501400C2F81CA0002402940194012500952346A3
:10502400214604A8FEF716F9374E04A93078FEF796
:10503400E7F83078FFF728FE304B02221A702C4A2A
:105044001570304A1178314A11705D75FF26039648
:105054004FF06408CDF808804FF4FA770197CDF843
:1050640000A04B46224629463046FFF771FE284BE6
:1050740018700396CDF808800197264B00930323FC
:10508400224629463046FFF763FE234B1870012061
:10509400FDF7DEFC0446002800F0E7811F4B1D7875
:1050A400002D40F0E2811E4B1B780B3B082B46D8A9
:1050B400DFE803F09A814505406B45717900194B8F
:1050C4001B784BB10C4B02221A820322DA810B4B60
:1050D4004FF42F729A6032E0074B4FF4FA621A824F
:1050E4000522DA81054B4FF42F729A6027E000BF46
:1050F400702D0020AC1F0020881F0020800F00208E
:10510400D31F0020D41F0020690F0020D21F0020CD
:105114006B0F0020246200086A0F0020D40F0020C7
:1051240043000020B90F0020D51F0020980F002055
:10513400306200080021AA4B1878FBF727FDA94A22
:1051440013780133DBB21370132B02D913460022F8
:105154001A70A44B1B78142B00F22082DFE813F0A2
:105164004A005E00720086009A00AE00BD00CC00CA
:10517400DB00EA00FF0019011F0168015B01DF0188
:10518400E7011E02EF01050219020021964B18786F
:10519400FBF7FCFCD3E70121FF20FDF737FD934B20
:1051A40000221A61CBE7924B02221A828F4B4FF4F2
:1051B4002F729A60C3E78E4B00225A768D4B1B7870
:1051C4003BB18B4B02221A820322DA8114229A8089
:1051D400B5E7874B96229A8007221A7042F2107222
:1051E4001A820F22DA81AAE70021834B1878FBF791
:1051F400CDFCA4E701260296C82301933223009331
:105204003346FF2279490220FFF78DFBFF227849BC
:105214000520FFF741FB794B1E7018E10126029629
:10522400C8230193322300933346FF226F4904209D
:10523400FFF779FBFF226E490520FFF72DFB6F4B2B
:105244001E7004E101260296C823019332230093C1
:105254003346FF2265490020FFF765FBFF226449BE
:105264000520FFF719FB654B1E70F0E0012602963E
:10527400C8230193322300933346FF225B49052060
:10528400FFF751FBFF225A490320FFF705FB5B4B55
:105294001E70DCE001260296C8230193322300939A
:1052A4003346FF2251490520FFF73DFBFF225049B9
:1052B4003046FFF7F1FA514B1E70C8E0012002900E
:1052C400C8230193322300930346FF224749FFF783
:1052D4002AFB4A4B00221A70B9E001230293C82228
:1052E400019232220092FF2240490420FFF71BFB67
:1052F400424B00221A70AAE001230293C8220192B1
:1053040032220092FF2239490520FFF70CFB3B4B68
:1053140000221A709BE001230293C82201923222D8
:105324000092FF2231490020FFF7FDFA334B00229F
:105334001A708CE02D4FC82300933A4600210220B6
:10534400FFF782FA00260296019600963346FF2262
:1053540039460A20FFF7E7FA284B1E7077E0234E00
:10536400C8230093324600210220FFF76DFA002380
:10537400029301930093FF2231460A20FFF7D3FAE8
:10538400FF221B490120FFF787FA1C4B01221A70E8
:105394005DE0194B1878FFF777FC254657E00126A6
:1053A4000296FF2201926423009300230F490620F2
:1053B400FFF7B9FA114B1E700D4B06225A76104AAC
:1053C400DA610C4B1B78EBB1094B02221A82DA81A9
:1053D40050229A80FF2206490120FFF75DFA36E049
:1053E4006B0F0020430000206A0F0020800F002074
:1053F400881F0020B90F0020690F00203B00002007
:10540400306200087F4BFA229A804FF4FA621A82C3
:105414000A22DA81DEE77C4B1B78002B75D0794BAE
:1054240001221A820622DA81784B4FF496729A602E
:10543400FA23962275490820FFF73DFAFF227149A5
:105444000820FFF729FA724B01221A702C46002C0F
:1054540000F0A680002D00F0A8806E4B1B78112B65
:1054640000F0AD806C4B01221A7041F288310120AA
:10547400FDF70EFB20B3644B1B78002B00F0AF80CC
:10548400604B07221A7000225A611A810521D980C3
:10549400962098804FF4FA601882D98101211973FB
:1054A4005981594B1A705949FF20FEF71DF9554986
:1054B400FF20FEF721F8564B1978FF20FBF7D4F8AC
:1054C4000220FDF7CFFA002800F0C580514B1B786D
:1054D400132B00F0B980122B00F01F814F4B1B7867
:1054E400002B00F01D814E4B18784E4B19884E4B03
:1054F4001A884E4C23786578A4784D4E36780296F7
:1055040001940095FBF7AEFAA5E03E4B01221A8206
:105514000A22DA813D4B4FF496729A6088E7454B34
:105524001878FFF7B1FB3A4B00221A708FE7424B11
:105534001878FFF7A9FB364B00221A7087E7334926
:1055440000234B700B718B704B71CB708B710122EC
:105554000A612C4A53709370D370029301930093A1
:10556400FF220A20FFF7DFF971E70123334A1370A2
:10557400264900260E61FF228A730293C8230193F1
:105584006423009333460520FFF7CDF9204B1E70AA
:105594005DE7204B00221A702C4658E72C4656E74C
:1055A4001A49FF20FEF7A0F854E71649FF20FDF73B
:1055B400A3FF174B1978FF20FBF756F84DE7204C53
:1055C40000212078FBF750F800212078FBF726F81B
:1055D4001C4B1A8821780120FDF7DCFB42E7094BBC
:1055E40001221A70002159610A211981D9801421DC
:1055F4009980022119820321D9811A735A81024B9D
:105604001A7050E7881F0020B90F0020800F002077
:105614003B000020430000203A000020D40F00206B
:10562400D21F00204400002046000020400000203B
:10563400390000206B0F00206A0F0020722D00201B
:10564400D51F002034000020A94A137801331370B9
:10565400A84B00221A700220FDF7FAF9002874D131
:105664000320FDF7F5F9A0B1A34B1B78002B7FD1E4
:10567400A24B1B78002B6DD000240294019400945B
:1056840023469F4A12789F490920FFF74CF99B4B08
:105694001C704FF47A710320FDF7FAF968B19A4A45
:1056A40013780133DBB213700F2B02D91346002297
:1056B4001A70954B1878FBF745F90420FDF7D2F9D9
:1056C40018B1924B1A68924B1A600420FDF7C0F986
:1056D400002800F0B180884B1B78002B00F0BD80BF
:1056E4008C4D2A788C4B1A708C498A688C4B1A60C2
:1056F400864B1B68864A12689B1A8B6000240294AE
:10570400019400942346FF220920FFF70CF92C7022
:105714002146FF20FAF7A8FF7DE0FDF7E1FA9AE7BA
:10572400794B1878800000F0FC00FBF70BF901229C
:105734001146FF20FAF78AFE01221146FF20FAF7EC
:1057440085FEFF20FCF7AAFC85E76F4B1878FBF772
:10575400F9F885E70023029301930093684A1278CD
:1057640068490A20FFF7DFF8644B01221A7090E7BA
:105774006C4B1878FBF7B8F900BB6B4B1B7813BB69
:105784000021FF20FAF74AFF0021FF20FAF76CFFFF
:105794005B4C00212078FAF741FF00212078FAF7CA
:1057A40063FF614B01221A70604B1B78122B7FF44C
:1057B40070AF1146FF20FDF729FA6AE7594B1878B4
:1057C400FBF7BAF965E70121FF20FAF727FF514DEE
:1057D4002978FF20FAF748FF494C01212078FAF78D
:1057E4001DFF29782078FAF73FFF4F4B00221A70EB
:1057F4004E4B1B78122B7FF44CAF1146FF20FDF764
:1058040005FA46E74A4B01221A5500212046FBF7C8
:10581400BDF90134E4B2042C08D82046FBF7C6F9DC
:105824000028EFD1424B00221A55F2E7324B0022F6
:105834001A70404B01221A703E4B1B78002B30D15A
:105844003A4B1B78122B00F09E80132B00F0AC8097
:105854000E2B71D017B0BDE8F08F2C4B1B682C4A6F
:1058640012689B1A2D498B600024029401940094C1
:105874000123FF220A20FFF756F805E00121204604
:10588400FBF784F90134E4B2042C04D8284B1B5DE3
:10589400002BF7D0F2E70123174A1370254A13703F
:1058A400CAE7FF20FAF764FE0028C9D0214B002282
:1058B4001A70114B1B78002BC2D01849184B1B6867
:1058C4008B6014460292019200920123FF220A2067
:1058D400FFF729F8104B19780E4B1970FF20FAF7CF
:1058E400C3FE01222146FF20FAF7B0FDA8E700BF5E
:1058F400722D0020712D00203A0000203700002076
:10590400D41F0020980F002038000020982D00207C
:10591400B40F00203B0000203C000020800F00203A
:10592400B00F0020690F0020D40F00204300002096
:10593400AC1F0020B80F0020AA4B1A68AA4B1B68A2
:105944009A4287D9A74B1B6803F59673A64A13603E
:10595400A64DFA23962229460820FEF7ACFFA44C54
:10596400FA2221460820FEF797FF2946FF20FDF77B
:10597400BBFE2146FF20FDF7BFFD9E4B1978FF209B
:10598400FAF772FE66E7FF20FAF71CFE00283FF4E0
:1059940061AFFF20FDF764F900283FF45BAF0021FD
:1059A400FF20FDF733F955E7934B1B78013B072B99
:1059B40000F23F8101A252F823F000BF59580008B9
:1059C400E1590008495A0008995A0008D55A0008B4
:1059D400F55A00085F5B0008B15B0008874B1B7831
:1059E4006BB1804B1A68864B1B689A427FF632AFC4
:1059F400814B03221A70814B00221A702AE7794BDB
:105A04001B6803F6B8337E4A1360794CC8222146DA
:105A14000620FEF741FF06232370012525734FF46A
:105A24007A632382C823A3800A23E381754E214627
:105A34003078FDF761FD29463078FAF715FE6F4B93
:105A44001D70CEE76D4B1B78002B7FF403AF654BC5
:105A54001B6803F6B8336A4A1360654CC8222146B2
:105A64000620FEF719FF062323700125257340F64F
:105A7400B8332382C823A3800A23E381624E2146DC
:105A84003078FDF739FD29463078FAF7EDFD5B4BA8
:105A94001D70DFE6594B1B78002B7FF4DBAE544CB2
:105AA400FF232373574D21462878FDF725FD012157
:105AB4002878FAF7D9FD544D21462878FDF71CFDC6
:105AC40001212878FAF7D0FD4C4B01221A70C1E667
