:020000040800F2
:1000000000500020590200085D0100084901000865
:1000100045010008310100081D0100080000000032
:1000200000000000000000000000000019010008AE
:10003000150100080000000011010008D50D00089E
:100040000D0100080D0100080D0100080D01000858
:100050000D0100080D0100080D0100080D01000848
:100060000D0100080D0100080D0100080D01000838
:100070000D010008C52700089D44000881270008DD
:100080000D0100083D270008C53600080D010008D5
:100090000D0100080D0100080D0100080D01000808
:1000A0000D0100080D0100080D0100080D010008F8
:1000B0000D0100080D0100080D0100080D010008E8
:1000C0000D0100080D0100080D0100080D010008D8
:1000D0000D010008714500080D0100080D01000820
:1000E0000D0100080D0100080D01000800000000CE
:1000F0000000000000000000000000000000000000
:1001000000000000000000005FF808F100BEFEE7FC
:1001100000BEFEE700BEFEE700BEFEE71EF0040FD5
:100120000CBFEFF30880EFF3098071464C4A10478B
:100130001EF0040F0CBFEFF30880EFF30980714647
:10014000484A104700BEFEE71EF0040F0CBFEFF355
:100150000880EFF309807146434A104700BEFEE76E
:1001600000BEFEE700BEFEE700BEFEE700B583B0BE
:1001700000F014FF284B294A1360294A1360294BC9
:10018000294A03E052F8041B43F8041B27498B4219
:10019000F8D3224B1A68264B9A4200D0FEE7204B38
:1001A0001A68244B9A42F9D11B4B234A1360234A05
:1001B0001360234B02E0002243F8042B214A9342B0
:1001C000F9D31D4B1B6813B91C4B1B6803B1FEE729
:1001D00000F0E0FE694601A800F0ECFE1A4C1B4B53
:1001E000E41AA410002504E0184B53F82530984772
:1001F0000135AC42F8DC164C164BE41AA41000256D
:1002000004E0144B53F8253098470135AC42F8DC34
:100210000099019803F0C0FEBABADECA00000020BF
:10022000A0000020000000206C4D0008A400002069
:100230007856341232547698A4000020F01B002027
:10024000A4000020F41B002094020008940200087F
:10025000940200089402000808B5FFF787FF000029
:0C02600061010008650100086901000848
:10026C006C4D000800000020A40000206C4D00081C
:10027C000000000000000000A4000020F41B00207F
:08028C0000000000000000006A
:1002940003882BB1013B9BB223B10380002070473C
:1002A4000020704701207047036823B1013B04D04C
:1002B400036000207047002070470120704770B42D
:1002C400458C8D4205D2038C2B44994214DC0124C5
:1002D40000E00024022A14D0032A15D0012A0DD0EC
:1002E40000221346012C04D066B286B1022C17D02A
:1002F4000023184670BC70470224EBE7437F027862
:10030400F0E7837F4278EDE7C37F8278EAE79B1AC0
:1003140003FB01F393FBF5F3DBB21344DBB2E8E731
:10032400491B048C091B01399A1A02FB01F2818CC6
:1003340092FBF1F2D2B29B1ADBB2DAE7034B1B78E1
:10034400834201D80020704701207047D800002064
:1003540070B504460E461546FFF7F0FF034690B30A
:10036400FEB126495C2202FB041292F94E20012AB6
:100374002BD022495C2202FB041292F84210117223
:1003840092F84410517292F846109172FF219173C1
:100394001A495C2202FB0412002182F82110516DDB
:1003A400D16185B1154A5C2303FB042393F93030F2
:1003B400012B19D0114B5C2202FB0434A388238245
:1003C400FF23E3732B46184670BD5C2202FB041224
:1003D40092F84110117292F84310517292F845103C
:1003E400917201219173D3E75C2303FB0424638896
:1003F40023820123E3732B46E5E700BFAC10002002
:1004040010B50446FFF79AFF034628B1034B5C225C
:1004140002FB043494F82130184610BDAC100020BF
:1004240038B504460D46FFF789FF034628B1044A50
:100434005C2101FB042484F82050184638BD00BF19
:10044400AC10002038B504460D46FFF777FF03468D
:1004540028B1044A5C2101FB042484F82250184684
:1004640038BD00BFAC100020FF2805D00138C0B251
:10047400012803D8012070470120704700207047ED
:1004840038B504460D46FFF7EFFF034630B1013C93
:10049400054A32F81420AA4202D31DB1184638BDC9
:1004A4000023FBE70023F9E7D4000020F8B5044655
:1004B4000D4616461F46FFF7E3FFE0B10146013C37
:1004C400E4B24FF4FB7303FB04520C4B03EB8203C3
:1004D400DB78B34210D1094B03EB82039B78BB4218
:1004E4000AD1064D05EB820462789DF818309A42D1
:1004F40002D1002100E001210846F8BDF8000020E7
:10050400FF280BD010B50446FFF7AEFF024618B122
:10051400601E094B1A5CD2B2104610BD0023012B99
:1005240007D8054AD15C01F0FF0219B90133DBB2E7
:10053400F5E7002210467047B00000202DE9F04393
:1005440083B081460D4690461F469DF828609DF86D
:100554002C409DF8303023B900963B46FFF7A6FFA8
:10056400F8B909F1FF30C0B24FF4FB7303FB00523A
:100574000D4B03EB820383F803809F705E70631E50
:10058400DBB21E2B01D9094B1C784FF4FB7303FB20
:10059400005564F01F04044B03F82540044B01226A
:1005A4001A5403B0BDE8F083F800002036000020A0
:1005B400E800002060F01F00014B1870704700BF76
:1005C400360000202DE9F04182B0044688461746E3
:1005D4001E469DF820509DF8243023B900953346DB
:1005E400FFF764FF90B9601EC0B20A4A4FF4FB7172
:1005F40001FB008102EB8103DF709E705D70064B8E
:100604001B7802F82130054B01221A5402B0BDE8D0
:10061400F08100BFF800002036000020E800002030
:100624002DE9F04182B006460D4617469846FFF77D
:1006340085FE044600B3F5B1114B5C2202FB063281
:10064400938852889B1A01339D4201DD002413E0F4
:10065400511989B201395C2303FB06F60123019386
:100664009DF82030009343463A4689B20448805DA1
:10067400FFF7A8FF00E00024204602B0BDE8F081A7
:10068400AC1000202DE9F04784B082460C46174692
:1006940098469DF830909DF834609DF83850FFF7E7
:1006A400EFFE20B139465046FFF7EAFE80B904B0A8
:1006B400BDE8F08701230293019500964B4642461C
:1006C40021465046FFF73AFF0134A4B2A742EED3C5
:1006D4006B1EDBB21E2BEDD90123019300964B4612
:1006E400424621465046FFF76DFFEDE7002801DB47
:1006F400012070474FF0FF3070472DE9F0418046EC
:100704000C4616461D46069F0846FFF7EFFF444475
:1007140007E0AC4203DDC4EB45044FF0FF30B442C4
:1007240008DBAC42F5DCB442F3DB07B13870204699
:10073400BDE8F081C4EB46040120F2E710B49C1A32
:100744000844904203DA20440130FAE7001B5A1CA3
:100754008242FBDB10BC70472DE9F04F8BB004469E
:1007640001238DF82730FFF7E9FD10B90BB0BDE880
:10077400F08F27467D485C2303FB04F303F1080252
:1007840000EB020BC218B2F80280B2F80490C15C0C
:100794000791968D518D0E44B6B2128D1644B6B2A1
:1007A400103318440230FFF773FDE0B16F4A5C2345
:1007B40003FB042393F82430022B16D053B3012BEC
:1007C400D4D16A4A5C2303FB0423188A5A8E93F912
:1007D4000F1089B201FB02021A82644B5C2202FBF5
:1007E4000434A38E638200244AE05C2505FB0425BF
:1007F400698E95F90F000DF1270300934B4642468D
:1008040000FB01F1288AFFF778FF28829DF8273042
:10081400EB73E2E7554B5C2505FB0435698E95F9CE
:100824000F004B46424600FB01F1288AFFF786FF82
:100834002882D2E75C2000FB072090F90F1001FB0F
:1008440004F1002300934B4642464942008AFFF7D5
:1008540054FF05B20EE0454B5C2000FB073090F9D5
:100864000F1001FB04F14B4642464942008AFFF750
:1008740065FF05B2454501DB4D4551DD0134A4B2A8
:10088400B442BFF473AF394A5C2303FB072393F8E4
:100894002430022BCED0002BDDD0012B7FF466AFA9
:1008A400324A5C2303FB07231D8A93F90F3003FBB1
:1008B40014552DB2721E9442DCDB012B19D0B3F116
:1008C400FF3FD7D14545D5DA28485C2303FB07F31E
:1008D400C218A2F8109018331844FFF7E5FC00285A
:1008E400C8D0224A5C2303FB0723002283F822207A
:1008F400C0E74D45E3DD1D485C2303FB07F3C21845
:10090400A2F8108018331844FFF7CEFC0028B1D0A9
:10091400164A5C2303FB0723002283F82220A9E75D
:1009240004F1010A1FFA8AFA012251465846FFF7D8
:10093400C6FC0590022251465846FFF7C0FC0690BB
:10094400032251465846FFF7BAFC01230293074A93
:100954005C2303FB072393F83C3001930090069B30
:10096400059AA9B20798FFF7E9FD87E7AC100020C4
:10097400904202D2B1F1FF3F07D002FB0100009A7E
:10098400904204D8984204D37047002070470098DE
:1009940070471846704700002DE9F04782B00446BE
:1009A400FFF7CCFC002800F0CA81C64A5C2303FB95
:1009B400042393F8461093F84520914200F0AD804B
:1009C4000326C0485C2303FB040393F82050002D46
:1009D40000F0B58103465C2000FB043090F8413000
:1009E40090F842C0634500F2A6800027DFF8D4E205
:1009F4005C2000FB04E090F843E090F84400864556
:100A040000F29B804FF000099142C0F098804FF0B3
:100A1400000A002F00F09580AA4A4FF05C0808FBFA
:100A2400042898F80E1049420093634698F80B2066
:100A340049B298F80800FFF79BFF88F80800B9F15D
:100A4400000F00F090809F4B4FF05C0808FB0438C7
:100A540098F80E10494298F84330009398F84430BF
:100A640098F80C2049B298F80900FFF781FF88F83C
:100A74000900BAF1000F00F08B80924B4FF05C0834
:100A840008FB043898F80E10494298F84530009352
:100A940098F8463098F80D2049B298F80A00FFF704
:100AA40067FF88F80A00032E00F08780022E00F00A
:100AB400B680844A5C2303FB042393F8422093F812
:100AC40041309A4200F000813FB17E485C2101FB35
:100AD4000401097A8A4280F011813FB979485C2186
:100AE40001FB0401097A8A4240F20B813FB1754946
:100AF4005C2202FB0412127A934240F20581002F19
:100B040040F005816F495C2202FB0412127A934281
:100B140080F00181BA463D46D9E06A485C2303FB74
:100B2400040393F8440093F84330984201D002261A
:100B340047E7012645E72F4658E7A94664E7AA4652
:100B440067E7604A4FF05C0808FB0428CDF800C052
:100B540098F80B2098F90E1098F80800FFF708FF92
:100B640088F808006BE7574B4FF05C0808FB043823
:100B740098F84430009398F8433098F80C2098F98A
:100B84000E1098F80900FFF7F3FE88F8090070E7E3
:100B94004C4B4FF05C0808FB043898F8463000933F
:100BA40098F8453098F80D2098F90E1098F80A0036
:100BB400FFF7DEFE88F80A0075E7BAF1000F08D0E7
:100BC400404A5C2303FB04239A7A93F846309A4202
:100BD40058D9BAF1000F08D13A4A5C2303FB042325
:100BE4009A7A93F846309A424ED2BAF1000F08D05E
:100BF400344A5C2303FB04239A7A93F845309A42DF
:100C040046D2BAF1000F46D12E4A5C2303FB0423DB
:100C14009A7A93F845309A4241D9554657E0B9F14A
:100C2400000F08D0274A5C2303FB04235A7A93F865
:100C340044309A4236D9B9F1000F08D1214A5C23D5
:100C440003FB04235A7A93F844309A422DD2B9F123
:100C5400000F08D01B4A5C2303FB04235A7A93F841
:100C640043309A4224D2B9F1000F24D1154A5C23AF
:100C740003FB04235A7A93F843309A421FD9CA4695
:100C84004D4624E0002522E02B4655469A461EE0B8
:100C94004FF0000A1BE04FF0000A554617E04FF0F2
:100CA400000A14E0CA46002511E0AA464D460EE0AB
:100CB4004FF0000A0BE04FF0000A554607E04FF0F2
:100CC400000A04E0AC1000204FF0000A5546324AF6
:100CD4005C2303FB0423DB6903BB2F4A5C2303FB74
:100CE400042393F84030012B36D9022B27D14DB37E
:100CF4005C2303FB04240123A37320E0BA460025EC
:100D0400E5E7AA463D46E2E74FF0000ADFE74FF089
:100D1400000A5546DBE74FF0000AD8E75C2000FBE9
:100D240004F0183010440430FFF7BEFA0028D4D081
:100D3400194A5C2303FB0424012384F8213002B004
:100D4400BDE8F087BAF1000FF9D0134A5C2303FB26
:100D54000424FF23A373F2E76DB10F4A5C2303FB62
:100D6400042494F84230237294F84430637294F863
:100D74004630A372E3E7BAF1000FE0D0064B5C22E1
:100D840002FB043494F84130237294F843306372C4
:100D940094F84530A372D2E7AC10002010B472B6B8
:100DA400084B9C68084B186862B64FF47A72074B7C
:100DB400196802FB01F31B1BB3FBF1F302FB0030C8
:100DC40010BC704710E000E0841B002038000020B5
:100DD400024A136801331360704700BF841B00206C
:100DE40082B00023019300932C4A136843F48033A8
:100DF40013602A4B1B6803F400330093019B0133F7
:100E04000193009B1BB9019BB3F5A06FF1D1234B58
:100E14001B6813F4003F06D001230093009B012BB1
:100E240004D002B0704700230093F7E71C4B1A6804
:100E340042F010021A601A6822F003021A601A685B
:100E440042F002021A60A3F580535A685A605A6845
:100E54005A605A6842F480625A605A6822F47C12DA
:100E64005A605A6842F4E8125A601A6842F0807272
:100E74001A600A4B1B6813F0007FFAD0074B5A68BC
:100E840022F003025A605A6842F002025A60034B8D
:100E94005B6803F00C03082BF9D1C2E70010024091
:100EA4000020024008B5FFF79BFF08BD1F4B5B689D
:100EB40003F00C03042B15D0082B17D01BB11C4BCB
:100EC4001C4A1A6002E01A4B1A4A1A60174B5B68F4
:100ED400C3F30313184AD35CDAB215490B68D34041
:100EE4000B607047124B134A1A60EFE70F4A5368BE
:100EF4005268C3F38343023312F4803F05D10F4A8F
:100F040002FB03F30A4A1360E0E7084A526812F44A
:100F1400003F05D0094A02FB03F3054A1360D5E7F5
:100F2400044A02FB03F3024A1360CFE700100240B5
:100F34002800002000127A000800002000093D006B
:100F440008B5104B1A6842F001021A6059680E4A3B
:100F54000A405A601A6822F0847222F480321A60BD
:100F64001A6822F480221A605A6822F4FE025A6037
:100F74004FF41F029A60FFF795FF044B4FF0006295
:100F84009A6008BD001002400000FFF800ED00E088
:100F940008B5FFF78BFF08BD08B5FFF7D1FF024A7C
:100FA400024B9A6008BD00BF0000000800ED00E09D
:100FB40001230360014B0B60704700BF2C0000202D
:100FC400FEE708B50120FFF7FBFF08B5FFF7F9FFBF
:100FD40038B505460C46274B984214D0A3F5744304
:100FE400984210D003F5806398420CD003F58063D7
:100FF400984208D003F58063984204D040F28631C9
:101004001D48FFF7E2FF012C13D0802C11D0402C97
:101014000FD0202C0DD0102C0BD0B4F5807F08D02D
:10102400B4F5007F05D0082C03D0042C01D0022C89
:1010340007D1B4F5007F0AD02B881C4218D00120B8
:1010440038BD40F287310C48FFF7BFFFF1E7094B89
:101054009D42F1D0A3F574439D42EDD003F5806326
:101064009D42E9D040F28B310348FFF7AEFFE3E73E
:101074000020E5E7003801401C4C000838B505465F
:101084000C46124B984214D0A3F57443984210D0E6
:1010940003F5806398420CD003F58063984208D02E
:1010A40003F58063984204D040F25F210848FFF7BB
:1010B4008CFFB4F5007F03D2C4F30804AC8038BDC0
:1010C4004FF418710248FFF780FFF5E7003801403C
:1010D4001C4C000838B504460D462E4B984243D0AC
:1010E400B0F1804F40D0A3F5943398423CD003F53F
:1010F4008063984238D003F58063984234D003F576
:101104008063984230D003F5806398422CD003F575
:101114009033984228D003F5C053984224D003F565
:101124008063984220D003F5806398421CD0A3F5D5
:101134009E33984218D003F58063984214D003F587
:101144008063984210D003F5903398420CD003F595
:101154008063984208D003F58063984204D040F23B
:1011640029310D48FFF731FF012D05D855B12388EA
:1011740043F00103238038BD40F22A310648FFF7CB
:1011840024FFF3E723889BB223F001039BB223805F
:10119400F1E700BF002C0140B84B00080023038096
:1011A40043808380C380038143818381C3817047EB
:1011B4002DE9F04104460D463F4B984217D0B0F15B
:1011C400804F14D0A3F59433984210D003F5806374
:1011D40098420CD003F58063984208D003F5943309
:1011E400984204D04FF404713448FFF7EEFE2B8884
:1011F4004BB1102B07D0202B05D0302B03D0602B04
:1012040001D0702B40D16B88012B43D82B890BB1B3
:10121400022B45D1238C9BB223F480539BB22384AD
:10122400268CB6B2B4F804801FFA88F8A78BBFB234
:1012340027F4E6472B881B029BB21F4326F4005673
:101244002B891B039BB233436E883603B6B21E430D
:10125400194B9C4203D003F500639C420BD1AB892C
:10126400B3F5807F00D00BBB28F48048AB899B0189
:101274009BB248EA0308A4F80480A783EB88A4F887
:1012840040302684BDE8F08140F211210B48FFF77D
:101294009CFEB8E740F212210848FFF796FEB5E736
:1012A40040F213210548FFF790FEB3E74FF40C71A9
:1012B4000248FFF78AFED7E7002C0140B84B00082C
:1012C4002DE9F04104460E46574B984217D0B0F131
:1012D400804F14D0A3F59433984210D003F5806363
:1012E40098420CD003F58063984208D003F59433F8
:1012F400984204D040F2C1114C48FFF766FE33888F
:101304004BB1102B07D0202B05D0302B03D0602BF2
:1013140001D0702B5DD17388012B60D833890BB158
:10132400022B62D1238C9BB223F480739BB223845F
:10133400258CADB2B4F804801FFA88F8A78BBFB22D
:1013440027F0730733881F4325F4007533891B0284
:101354009BB22B4375882D02ADB21D43324B9C4288
:1013640003D003F500639C422BD1B3880BB1042B4B
:1013740041D173890BB1082B43D1F389B3F5007FB5
:1013840001D0002B43D1B389B3F5807F01D0002B6A
:1013940043D125F4006573891B029BB21D4325F4D8
:1013A4008065B3881B029BB21D4328F44058B3895F
:1013B4001B019BB248EA0308F3891B019BB243EA71
:1013C4000808A4F80480A783F388A3872584BDE8CC
:1013D400F0814FF4E1711548FFF7F7FD9BE740F208
:1013E400C3111248FFF7F1FD98E74FF4E2710F487B
:1013F400FFF7EBFD96E74FF4F0710C48FFF7E5FDBE
:10140400B7E740F2E1110948FFF7DFFDB5E74FF414
:10141400F1710648FFF7D9FDB5E740F2E31103483F
:10142400FFF7D3FDB5E700BF002C0140B84B00081F
:101434002DE9F04104460E465E4B984223D0B0F1AC
:10144400804F20D0A3F5943398421CD003F58063D9
:10145400984218D003F58063984214D003F594336E
:10146400984210D003F5C05398420CD0A3F59A3398
:10147400984208D003F59433984204D040F26F1197
:101484004D48FFF7A2FD33884BB1102B07D0202B1A
:1014940005D0302B03D0602B01D0702B5FD1738823
:1014A400012B62D833890BB1022B64D1238C9BB2FC
:1014B40023F010039BB22384258CADB2B4F80480CE
:1014C4001FFA88F8278BBFB227F4E64733881B023C
:1014D4009BB21F4325F0200533891B019BB22B438C
:1014E40075882D01ADB21D43324B9C4203D003F5E8
:1014F40000639C422BD1B3880BB1042B41D1738977
:101504000BB1082B43D1F389B3F5007F01D0002B35
:1015140043D1B389B3F5807F01D0002B43D125F0AB
:10152400800573891B019BB21D4325F04005B388D8
:101534001B019BB21D4328F44068B3899B009BB2F6
:1015440048EA0308F3899B009BB243EA0808A4F81D
:1015540004802783F38823872584BDE8F0814FF432
:10156400B8711548FFF731FD99E740F2711112483F
:10157400FFF72BFD96E74FF4B9710F48FFF725FDF0
:1015840094E740F28F110C48FFF71FFDB7E74FF4C3
:10159400C8710948FFF719FDB5E740F291110648F3
:1015A400FFF713FDB5E74FF4C9710348FFF70DFDCD
:1015B400B5E700BF002C0140B84B00082DE9F0410D
:1015C40004460D46684B98423BD0B0F1804F38D06A
:1015D400A3F59433984234D003F58063984230D015
:1015E40003F5806398422CD003F59433984228D0B5
:1015F40003F5C053984224D003F58063984220D069
:1016040003F5806398421CD0A3F59E33984218D00A
:1016140003F58063984214D003F58063984210D098
:1016240003F5903398420CD003F58063984208D0B8
:1016340003F58063984204D04FF48E714B48FFF752
:10164400C4FC2B884BB1102B07D0202B05D0302B9A
:1016540003D0602B01D0702B5CD16B88012B5FD839
:101664002B890BB1022B61D1238C9BB223F0010394
:101674009BB22384268CB6B2A788BFB2B4F8188074
:101684001FFA88F828F073082B8848EA030826F024
:1016940002062B8933436E881E43334B9C420FD082
:1016A40003F500639C420BD003F540639C4207D0D2
:1016B40003F580639C4203D003F580639C4221D1EF
:1016C400AB880BB1042B37D16B890BB1082B39D103
:1016D400EB89B3F5007F01D0002B39D1AB89B3F589
:1016E400807F01D0002B39D126F008066B891E4378
:1016F40026F00406AB881E4327F44077AB891F43CA
:10170400EB891F43A780A4F81880EB88A38626845E
:10171400BDE8F08140F21D111448FFF756FC9CE728
:101724004FF48F711148FFF750FC99E740F21F11F5
:101734000E48FFF74AFC97E74FF49E710B48FFF7FA
:1017440044FCC1E740F23D110848FFF73EFCBFE707
:101754004FF49F710548FFF738FCBFE740F23F1193
:101764000248FFF732FCBFE7002C0140B84B0008E9
:1017740008B50139032906D8DFE801F002060A0E8C
:101784001146FFF71BFF08BD1146FFF751FEFAE7AC
:101794001146FFF795FDF6E71146FFF709FDF2E75D
:1017A40038B504460D46534B984242D0B0F1804FB1
:1017B4003FD0A3F5943398423BD003F5806398421D
:1017C40037D003F58063984233D003F580639842A1
:1017D4002FD003F5806398422BD003F590339842C1
:1017E40027D003F5C053984223D003F58063984271
:1017F4001FD003F5806398421BD0A3F59E33984213
:1018040017D003F58063984213D003F580639842A0
:101814000FD003F5903398420BD003F580639842C0
:1018240007D003F58063984203D0E7213248FFF7DD
:10183400CCFB6B883BB1102B05D0202B03D0402B65
:1018440001D0602B4CD1EB882BB1B3F5807F02D053
:10185400B3F5007F49D123889BB2264A944212D023
:1018640002F5006294420ED0B4F1804F0BD0A2F581
:101874009832944207D002F58062944203D002F574
:101884008062944203D123F070036A8813431B4A95
:10189400944208D002F58062944204D023F4407349
:1018A4009BB2EA8813432380AB88A3852B882385C6
:1018B400104B9C420FD003F500639C420BD003F500
:1018C40040639C4207D003F580639C4203D003F538
:1018D40080639C4201D12B7A23860123A38238BDE5
:1018E400E8210548FFF771FBADE7E9210248FFF75E
:1018F4006CFBB0E7002C0140B84B0008001000401E
:1019040038B504460D46124B98420CD0A3F57843E3
:10191400984208D003F58063984204D04FF41D71B7
:101924000C48FFF752FB012D05D855B1A38843F0AD
:101934000403A38038BD40F275210648FFF745FB38
:10194400F3E7A3889BB223F004039BB2A380F1E7DF
:1019540000300140704B000870B504460D46164631
:10196400154B98420CD0A3F57843984208D003F560
:101974008063984204D04FF408711048FFF725FBA8
:10198400012E0ED825F003039BB203B925B940F20A
:1019940022210A48FFF719FB4EB1A3881D43A580F5
:1019A40070BD40F221210548FFF70FFBEAE7A38849
:1019B40023EA0505A580F3E700300140704B0008D9
:1019C40038B504460D46124B98420CD0A3F5784323
:1019D400984208D003F58063984204D040F2B711CE
:1019E4000C48FFF7F2FA012D05D855B1238843F0CE
:1019F4004003238038BD4FF4DC710648FFF7E5FA55
:101A0400F3E723889BB223F040039BB22380F1E7E2
:101A140000300140704B000838B505460C464A4B6F
:101A240098420BD0A3F57843984207D003F580631E
:101A3400984203D0A3214548FFF7C7FA238843B14E
:101A4400B3F5806F05D0B3F5004F02D0B3F5404F26
:101A54004CD16388B3F5827F01D0002B4BD1A3888E
:101A6400B3F5006F01D0002B4AD1E3880BB1022BF0
:101A74004BD12389012B4DD86389B3F5007F01D065
:101A8400002B4CD1A3896BB1082B0BD0102B09D0A0
:101A9400182B07D0202B05D0282B03D0302B01D0B6
:101AA400382B41D1E3890BB1802B42D1238A002BFF
:101AB40044D02B8803F44152238861880B43A188C6
:101AC4000B43E1880B4321890B4361890B43A189B3
:101AD4000B43E1890B4313432B80AB8B9BB223F461
:101AE40000639BB2AB83238A2B8238BDA62117489F
:101AF400FFF76BFAADE7A7211448FFF766FAAEE7E4
:101B0400A8211248FFF761FAAFE7A9210F48FFF7B0
:101B14005CFAAEE7AA210D48FFF757FAACE7AB2110
:101B24000A48FFF752FAADE7AC210848FFF74DFA2F
:101B3400B8E7AD210548FFF748FAB7E7AE210348F7
:101B4400FFF743FAB5E700BF00300140704B0008CF
:101B540038B504460D460E4B184200D120B940F268
:101B640069410C48FFF731FA012D05D855B10A4AED
:101B7400D3691C43D46138BD40F26A410548FFF77C
:101B840024FAF3E7044AD36923EA0404D461F2E7AC
:101B940000360181284B00080010024038B5044685
:101BA4000D460E4B034003B920B940F24A410C489C
:101BB400FFF70BFA012D05D855B10A4A93691C4366
:101BC400946138BD40F24B410548FFF7FEF9F3E755
:101BD400044A936923EA04049461F2E70200C0FF13
:101BE400284B00080010024008B501460120FFF709
:101BF400D5FF08BD38B504460D46484B984230D051
:101C0400B4F1804F32D0464B9C4234D0454B9C4279
:101C140036D0454B9C4238D0444B9C423AD0444B3E
:101C24009C423CD0434B9C423ED0434B9C4241D0CF
:101C3400424B9C4244D0424B9C4247D0414B9C4235
:101C44004AD0414B9C424CD0404B9C424ED0404BDE
:101C54009C4251D03F4B9C4254D03F4B9C4257D066
:101C640038BD4FF40060FFF799FFC9E7294601200A
:101C7400FFF76EFFC7E729460220FFF769FFC5E7B4
:101C840029460420FFF764FFC3E729460820FFF72D
:101C94005FFFC1E729461020FFF75AFFBFE7294637
:101CA4002020FFF755FFBDE729464FF40050FFF70A
:101CB40075FFBAE729464FF40020FFF76FFFB7E737
:101CC40029464FF48010FFF769FFB4E729464FF423
:101CD4000010FFF763FFB1E729464020FFF738FF04
:101CE400AFE729468020FFF733FFADE729464FF4DD
:101CF4008070FFF72DFFAAE729464FF48030FFF7E5
:101D04004DFFA7E729464FF40030FFF747FFA4E74C
:101D140029464FF48020FFF741FFA1E7002C014042
:101D24000004004000080040000C00400010004087
:101D34000014004000340140004C014000500140B8
:101D44000054014000180040001C004000200040E6
:101D540000400140004401400048014038B50446B9
:101D64000D460D4B984206D00C4B9C4208D00C4BB0
:101D74009C420BD038BD4FF40070FFF70FFFF3E720
:101D840029464FF48060FFF709FFF0E729464FF436
:101D94000040FFF703FFEDE7002401400028014065
:101DA400003C014038B504460D46164B98420CD011
:101DB400154B9C420ED0154B9C4211D0144B9C42A7
:101DC40014D0144B9C4217D038BD4FF48040FFF719
:101DD400E5FEEDE729464FF40030FFF7B9FEEAE7E8
:101DE40029464FF48020FFF7B3FEE7E729464FF476
:101DF4000020FFF7ADFEE4E729464FF48010FFF71B
:101E0400A7FEE1E7003801400044004000480040DC
:101E1400004C00400050004038B504460D460D4BC0
:101E2400984206D00C4B9C4208D00C4B9C420BD0E1
:101E340038BD4FF48050FFF7B1FEF3E729464FF465
:101E44008040FFF785FEF0E729464FF40040FFF796
:101E54007FFEEDE70030014000380040003C0040C8
:101E640038B504460D46184B98420FD0174B9C4288
:101E740010D0174B9C4212D0164B9C4214D0164BD8
:101E84009C4216D0154B9C4218D038BD0420FFF755
:101E940085FEEBE729460820FFF780FEE9E729469F
:101EA4001020FFF77BFEE7E729462020FFF776FEA8
:101EB400E5E729464020FFF771FEE3E72946802045
:101EC400FFF76CFEE1E700BF00080140000C014091
:101ED400001001400014014000180140001C0140A2
:101EE40038B504460D4620F4AA6323F0070303B96A
:101EF40020B940F22B410B48FFF767F8012D05D8B4
:101F040055B1094A53691C43546138BD40F22C4110
:101F14000448FFF75AF8F3E7034A536923EA040431
:101F24005461F2E7284B00080010024038B504461B
:101F34000D46164B984211D0143398420ED01433E8
:101F440098420BD01433984208D01433984205D0E9
:101F54001433984202D01433984203D12946012005
:101F6400FFF7BEFF0A4B9C420BD014339C4208D0AF
:101F740014339C4205D014339C4202D014339C4247
:101F840003D129460220FFF7ABFF38BD0800024009
:101F94000804024010B4294B5B6803F00C03042BC3
:101FA4002BD0082B2CD013B1254B036001E0244B1C
:101FB400036022494B68C3F30313224CE35CDAB297
:101FC4000368D34043604A68C2F30222A25CD2B2DF
:101FD40023FA02F282604A68C2F3C222A25CD2B23D
:101FE400D340C3604A68C2F3813217498A5CD2B2D3
:101FF400B3FBF2F3036110BC7047114B0360D8E7E5
:102004000E4A53685268C3F38343023312F4803F89
:1020140004D10E4A02FB03F30360CAE7074A52687D
:1020240012F4003F04D0094A02FB03F30360C0E743
:10203400034A02FB03F30360BBE700BF0010024046
:1020440000127A00180000200400002000093D005E
:1020540000B587B0FEF72AFF01A8FFF79BFF019B9D
:102064000F4AA2FB03239B09013BB3F1807F15D2E6
:102074000C4A53600C4BF02183F82310002191602B
:102084000720106083F82310084B1B68084AB3FB31
:10209400F2F3084A136007B05DF804FBFEE700BFE3
:1020A400D34D621010E000E000ED00E028000020B5
:1020B40040420F003800002010B5044640B1B0F58E
:1020C400804F05D0B0F5004F02D0B0F5404F06D197
:1020D400064A536823F440431C43546010BD40F245
:1020E40002310348FEF771FFF2E700BF001002401F
:1020F400284B000838B504460D46431E012B40F218
:102104008980042800F08680082800F08380644BCE
:1021140098427FD0203398427CD0624B984279D049
:102124008033984276D0604B984273D003F5807325
:1021340098426FD003F5807398426BD05B4B984202
:1021440068D003F58063984264D0B0F5805F61D0B5
:10215400B0F5EA1F5ED0B0F5EB1F5BD0B0F5004FD1
:1021640058D0534B984255D00133984252D0023341
:1021740098424FD0043398424CD00833984249D007
:10218400B0F1201F46D03033984243D0494B984297
:1021940040D003F5807398423CD003F50073984215
:1021A40038D0454B984235D003F57063984231D00E
:1021B400B0F5011F2ED0414B98422BD001339842E9
:1021C40028D00233984225D00433984222D00833D1
:1021D40098421FD0103398421CD02033984219D013
:1021E4004033984216D08033984213D003F580735D
:1021F40098420FD003F5007398420BD003F5806327
:10220400984207D003F50063984203D003F5805346
:10221400984218D1012D1CD8002C20DB284B5B6878
:10222400C4F30340A2B204F44011B1F5401F19D025
:1022340014F4801F27D0032101FA00F023EA0003DD
:1022440043F0706315E040F22A211E48FEF7BDFEFC
:10225400E0E740F22B211B48FEF7B7FEDCE7184B02
:10226400DB69DDE723F070631548416821F0706194
:1022740041601DB1610D09018A401343002C0BDB41
:102284000F4A536038BD610D090102FA01F123EAD6
:10229400010343F07063ECE7094AD361F2E700BF3E
:1022A40010001400400016000001180000081A0075
:1022B4000100200000013000001120000100008016
:1022C40000000140A04A0008F8B505460C46494BF9
:1022D40098421BD003F58063984217D003F58063BE
:1022E400984213D003F5806398420FD003F58063BE
:1022F40098420BD003F58063984207D003F58063BE
:10230400984203D0B2213C48FEF75FFEE3786BB1FC
:10231400042B0BD0282B09D0482B07D0142B05D025
:10232400102B03D01C2B01D0182B14D12388BBB144
:10233400E37803F00F06304613F0100F06D0A378AD
:10234400013BDBB2022B10D8A078304323785BB377
:102354002E68002310E0B3212748FEF736FEE5E798
:10236400B4212548FEF731FEE2E7BB212248FEF7FF
:102374002CFEE9E76A610133072B14D801229A4045
:10238400218832EA0101F6D199000F278F4026EA0D
:10239400070600FA01F10E43E1782829EAD048291A
:1023A400E9D12A61E7E72E602388FF2B20D96E68E4
:1023B400002302E06A6115E00133072B17D803F10B
:1023C400080101228A40218832EA0101F4D19900EE
:1023D4000F278F4026EA070600FA01F10E43E17841
:1023E4002829E7D0E1784829E6D12A61E4E76E603C
:1023F400F8BD00BF00080140A04A000810B504461B
:1024040010F0704F02D0094B034003B924B940F2D5
:102414000E210748FEF7D9FD14F0805F02D0054B6A
:102424005C6010BD044B5C60FBE700BF0000F0EF94
:10243400584A0008000402400000024010B5044657
:10244400431E012B40F29480042800F09180082858
:1024540000F08E80102800F08B80202800F0888007
:10246400402800F08580802800F08280B0F5807FCD
:102474007ED0B0F5007F7BD0B0F5806F78D0B0F51A
:10248400006F75D0B0F5805F72D0B0F5005F6FD08B
:10249400B0F5804F6CD0B0F5004F69D0B0F5803FF7
:1024A40066D0B0F5003F63D0B0F5802F60D0B0F5B2
:1024B400002F5DD0B0F5801F5AD0B0F5001F57D063
:1024C400B0F5800F54D0B0F5000F51D0B0F1807F3B
:1024D4004ED0B0F1007F4BD0B0F1806F48D0B0F156
:1024E400006F45D02C4B984242D0013398423FD0E4
:1024F400023398423CD00433984239D0083398428E
:1025040036D01033984233D02033984230D0403301
:1025140098422DD0803398422AD003F58073984294
:1025240026D003F50073984222D003F580639842C5
:102534001ED0B0F1102F1BD003F5C053984217D012
:1025440003F50053984213D003F5804398420FD00B
:1025540003F5004398420BD003F58033984207D02B
:1025640003F50033984203D003F58023984208D141
:1025740014F0805F0BD0094B1B6823420AD0012062
:1025840010BD40F2B7110648FEF71FFDF0E7054BFA
:102594001B68F2E70020F3E701000010000402408A
:1025A400584A00080000024038B504460D46164B50
:1025B400984226D01433984223D01433984220D022
:1025C400143398421DD0143398421AD014339842CD
:1025D40017D01433984214D003F56273984210D084
:1025E400143398420DD0143398420AD014339842CD
:1025F40007D01433984204D04FF4B2710348FEF765
:10260400E4FC656038BD00BF08000240584A000879
:1026140070B504460D461646224B984226D0143314
:10262400984223D01433984220D0143398421DD0BA
:10263400143398421AD01433984217D01433984262
:1026440014D003F56273984210D0143398420DD01D
:10265400143398420AD01433984207D01433984262
:1026640004D040F249111048FEF7AFFC35F00E03D8
:1026740000D125B94FF4A5710B48FEF7A6FC012E35
:1026840004D84EB123681D43256070BD40F24B1140
:102694000548FEF79AFCF4E7236823EA050525605C
:1026A400F3E700BF08000240584A000838B5044662
:1026B4000D461F4B984226D01433984223D014332E
:1026C400984220D0143398421DD0143398421AD023
:1026D4001433984217D01433984214D003F562731C
:1026E400984210D0143398420DD0143398420AD033
:1026F4001433984207D01433984204D040F229117D
:102704000C48FEF762FC012D05D855B1236843F04F
:102714000103236038BD4FF495710648FEF755FC5C
:10272400F3E7236823F001031B041B0C2360F1E788
:1027340008000240584A000808B54FF00060FFF74F
:102744007DFE40B14FF00060FFF758FE00210948BC
:10275400FFF7ACFF08BD4FF00070FFF76FFE0028D5
:10276400F4D04FF00070FFF749FE034B00229A703B
:10277400ECE700BF80000240B000002008B54FF431
:102784000020FFF75BFE40B14FF40020FFF736FE58
:1027940000210948FFF78AFF08BD4FF40030FFF716
:1027A4004DFE0028F4D04FF40030FFF727FE034B12
:1027B40000225A70ECE700BF58000240B00000202D
:1027C40008B54FF40060FFF739FE40B14FF40060E4
:1027D400FFF714FE00210948FFF768FF08BD4FF416
:1027E4000070FFF72BFE0028F4D04FF40070FFF7C1
:1027F40005FE034B00221A70ECE700BF30000240D4
:10280400B000002070B50546FF2814D02846FDF717
:102814002BFE044628B16E1EF6B21C4B9C5D64B9B7
:102824000024204670BD2046FFF7ECFF0134E4B2DB
:10283400022CF8D9EAE70124FAE72846FDF760FEFE
:102844000028EDD12EB1012E1CD0022E1CD1104D2A
:1028540000E0104D00212846FFF728FF0E4B33F807
:1028640016100231890089B22846FFF79DFE012126
:102874002846FFF71BFF094B01229A55034B002200
:102884009A55CEE7064DE5E70446CAE7E80000207E
:102894008000024030000240D4000020B00000203C
:1028A400580002402DE9F04186B0002305930493BB
:1028B400414B1A68414B1B689A4202D806B0BDE8E6
:1028C400F081FF20FDF71CFE0028F7D13A4B1B686E
:1028D40006333A4A13603A4B1B783A4A157805EBAB
:1028E4009305EDB20135EDB233E05C2000FB04F05A
:1028F400103008440430FDF7CBFC88B9324A5C231D
:1029040003FB04235A7A997A93F8580002900191B0
:1029140000921B7A3A4631464046FDF7B3FE32E058
:10292400284B1878FEF738F8274A5C2303FB042366
:10293400B3F84C209A82E1E7224B1878FDF70CFF9C
:10294400FEF72CFA059BC01A04901E4A1378013333
:1029540013701C4B1C782046FDF7F0FCE0B1AC4230
:102964001AD2FEF71BFA0590164B1C7816495C2305
:1029740003FB04F3CA185688978811F8038092F869
:102984002030002BB1D1104B5C2202FB043494F8AC
:102994002230002BD4D0CFE70C4A13780133DBB2BA
:1029A4001370032B8AD9FF20FFF72CFF0023074A5B
:1029B4001370044A137081E7841B0020F000002088
:1029C400D8000020D9000020AC100020D000002046
:1029D40038B505460C46574B984225D014339842D7
:1029E40022D0143398421FD0143398421CD014338D
:1029F400984219D01433984216D01433984213D005
:102A040003F5627398420FD0143398420CD01433F8
:102A1400984209D01433984206D01433984203D014
:102A2400CF214548FEF7D1FAA368102B01D0002B23
:102A340053D1E368013B4FF6FE72934252D82369A7
:102A4400402B01D0002B52D16369802B01D0002B85
:102A540052D1A3692BB1B3F5807F02D0B3F5007FC7
:102A64004FD1E3692BB1B3F5806F02D0B3F5006F9A
:102A74004CD1236A202B01D0002B4CD1636AB3F5CF
:102A8400405F07D0B3F5005F04D0B3F5805F01D099
:102A9400002B45D1A36AB3F5804F01D0002B44D15C
:102AA4002A6822F4FF4222F07002A368216A0B43D1
:102AB40021690B4361690B43A1690B43E1690B4332
:102AC400616A0B43A16A0B4313432B60E3686B6099
:102AD4002368AB606368EB6038BDD0211648FEF70D
:102AE40074FAA6E7D1211448FEF76FFAA7E7D221BA
:102AF4001148FEF76AFAA7E7D3210F48FEF765FAF3
:102B0400A7E7D4210C48FEF760FAAAE7D5210A48C2
:102B1400FEF75BFAADE7D6210748FEF756FAADE7B4
:102B2400D7210548FEF751FAB4E7D8210248FEF749
:102B34004CFAB5E708000240584A000810B50446AC
:102B44004F4B984225D01433984222D014339842E4
:102B54001FD0143398421CD01433984219D0143324
:102B6400984216D01433984213D003F562739842F6
:102B74000FD0143398420CD01433984209D0143334
:102B8400984206D01433984203D06F213D48FEF793
:102B94001CFA236823F001031B041B0C236000238D
:102BA40023606360A360E360354B9C4226D0364BC0
:102BB4009C4229D0354B9C422CD0354B9C422FD083
:102BC400344B9C4232D0344B9C4235D0334B9C42E4
:102BD40038D0334B9C423BD0324B9C423ED0324B9C
:102BE4009C4241D0314B9C4244D0314B9C420AD14F
:102BF400304A536843F47023536004E02E4A536808
:102C040043F00F03536010BD2B4A536843F0F003A5
:102C14005360F8E7284A536843F470635360F2E75B
:102C2400254A536843F470435360ECE7224A5368DF
:102C340043F470235360E6E71F4A536843F4700378
:102C44005360E0E71C4A536843F070635360DAE76B
:102C5400184A536843F00F035360D4E7154A536886
:102C640043F0F0035360CEE7124A536843F47063B1
:102C74005360C8E70F4A536843F470435360C2E794
:102C840008000240584A00081C000240300002407C
:102C940044000240580002406C00024080000240A0
:102CA400080402401C040240300402404404024070
:102CB40058040240000402400000024038B50546B2
:102CC4000C460F4B98420CD003F58063984208D011
:102CD40003F5A053984204D040F20D510948FEF781
:102CE40074F924F4FC639BB203B924B940F20E5185
:102CF4000448FEF76AF96FEA14242C6038BD00BF5B
:102D040000240140104A0008F8B505460E46144652
:102D14001F46374B98420CD003F58063984208D085
:102D240003F5A053984204D04FF416713148FEF7CE
:102D34004CF9112E22D8631EDBB20F2B24D8072F97
:102D440028D8092E2CD9EA68A6F10A0303EB430319
:102D54000721994022EA01029F401743EF60062CA5
:102D640029D8696B013C04EB84041F23A34021EAA6
:102D7400030106FA04F40C436C63F8BD40F25921D4
:102D84001C48FEF722F9D6E740F25A211948FEF70B
:102D94001CF9D4E740F25B211648FEF716F9D0E798
:102DA4002B6906EB460107228A4023EA02038F407F
:102DB4001F432F61D3E70C2C0CD8296B073C04EB81
:102DC40084041F23A34021EA030106FA04F40C43FC
:102DD4002C63D2E7EB6AA4F10D0101EB81011F2200
:102DE4008A4023EA020306FA01F11943E962C4E7BF
:102DF40000240140104A000838B504460D46114B22
:102E040098420CD003F58063984208D003F5A05390
:102E1400984204D04FF4E9710B48FEF7D6F8012D1F
:102E240005D855B1A36843F4A003A36038BD40F2AC
:102E3400D3110548FEF7C9F8F3E7A36823F4A00308
:102E4400A360F3E700240140104A000810B50446CB
:102E54000B4B98420CD003F58063984208D003F5DD
:102E6400A053984204D04FF4DC710648FEF7ADF845
:102E7400A36813F0040F01D0012010BD0020FCE76B
:102E840000240140104A000810B504460A4B984239
:102E94000CD003F58063984208D003F5A053984200
:102EA40004D04FF4D5710548FEF78FF8A36843F0BA
:102EB4000403A36010BD00BF00240140104A0008B1
:102EC40010B504460B4B98420CD003F5806398422E
:102ED40008D003F5A053984204D04FF4C9710648B2
:102EE400FEF773F8A36813F0080F01D0012010BD9A
:102EF4000020FCE700240140104A000810B50446F5
:102F04000A4B98420CD003F58063984208D003F52D
:102F1400A053984204D04FF4C2710548FEF755F807
:102F2400A36843F00803A36010BD00BF0024014060
:102F3400104A000870B505460C461646164B9842D2
:102F44000CD003F58063984208D003F5A05398424F
:102F540004D040F26B111148FEF737F8012E0FD858
:102F640024F4FC639BB203B924B940F26D110B48FD
:102F7400FEF72BF8E4B24EB16B681C436C6070BD75
:102F84004FF4B6710548FEF720F8E9E76B6823EAC9
:102F940004046C60F3E700BF00240140104A0008F9
:102FA40038B504460D460F4B984208D003F5C0537C
:102FB400984204D040F24D110B48FEF706F8012D5B
:102FC40005D855B1A36843F48073A36038BD4FF4AA
:102FD400A7710548FDF7F9FFF3E7A36823F48073AD
:102FE400A360F3E700240140104A000838B5044602
:102FF4000D46114B98420CD003F58063984208D0DB
:1030040003F5A053984204D04FF49A710B48FDF78E
:10301400DCFF012D05D855B1A36843F00103A3607B
:1030240038BD40F235110548FDF7CFFFF3E7A3683B
:1030340023F00103A360F3E700240140104A0008D1
:1030440038B505460C46484B98420BD003F58063CF
:10305400984207D003F5A053984203D0E521434892
:10306400FDF7B3FF2368D3B1B3F5803F17D0B3F5B1
:10307400003F14D0B3F5403F11D0B3F5802F0ED0EC
:10308400B3F5A02F0BD0B3F5C02F08D0B3F5E02FC4
:1030940005D0B3F5002F02D0B3F5102F46D1237914
:1030A400012B48D86379012B4AD8A368A3B1B3F59F
:1030B400003F11D0B3F5802F0ED0B3F5C02F0BD045
:1030C400B3F5002F08D0B3F5202F05D0B3F5402F6A
:1030D40002D0B3F5602F38D1E36813B1B3F5006FB4
:1030E40038D1237C013BDBB20F2B38D86A6822F439
:1030F400702222F480722368217943EA0123134366
:103104006B60AB681A4A1A40E368A1680B436179A3
:1031140043EA41031343AB60EB6A23F47003227C5C
:10312400013AD2B243EA0253EB6238BDE6210F48BA
:10313400FDF74BFFB3E7E7210C48FDF746FFB1E786
:10314400E8210A48FDF741FFAFE7E9210748FDF709
:103154003CFFC1E7EA210548FDF737FFC1E7EB2152
:103164000248FDF732FFC1E700240140104A00087D
:10317400FDF7F1FF10B50446C378012B26D8637818
:103184000F2B28D8A3780F2B2AD8E3786BB31C4BCA
:10319400DA68D243C2F30222C2F104000F2323FAF5
:1031A40002F261788140A37813400B431B0122781B
:1031B400DBB214490A4482F80033237803F01F0079
:1031C4005B090122824041F8232010BD75210E487D
:1031D400FDF7FBFED3E776210B48FDF7F6FED1E7BA
:1031E40077210948FDF7F1FECFE7237803F01F01AB
:1031F4005B0901228A402033024941F82320E4E795
:1032040000ED00E000E100E0E84A000808B50146EE
:103214000448FDF733FF40210248FDF7D9FE00289A
:10322400F9D008BD0038014010B5044694F90000F7
:1032340020B10134C0B2FFF7E9FFF7E710BD000089
:103244000130C0B20138072845D8DFE800F0040C8B
:10325400141C242C343C214B9868400A80F0010053
:1032640000F0010070471D4B9868000A80F00100CF
:1032740000F001007047194B9868C00980F0010004
:1032840000F001007047154B9868800980F0010038
:1032940000F001007047124B9868400B80F0010069
:1032A40000F0010070470E4B9868800B80F001001D
:1032B40000F0010070470A4B9868C00B80F00100D1
:1032C40000F001007047054B9868800A80F0010007
:1032D40000F0010070470020704700BF000C01405F
:1032E400001001400138034B03EB8003987800225F
:1032F4009A707047741B00200138034B03EB800362
:10330400D8780022DA707047741B0020042805D88E
:103314000138034B03EB800040787047002070476E
:10332400741B00202B4B1A682B4B1B689A4250D9F4
:1033340010B5284B1B682133274A136000240FE083
:10334400264B13F82430DBB1013B244A02F8243025
:1033540016E0224B03EB8202012353700134E4B2E2
:10336400032C35D82046FFF76BFF0028E8D01B4B11
:1033740013F82430022B03D80133184A02F82430FE
:103384002246164B13F82430022B0DD9134B03EBB2
:1033940084035B78002BDCD1104B03EB8403012105
:1033A400D97000219970D4E7002BD7D10B4B03EBD4
:1033B40084035B7833B1094B03EB84030021D97098
:1033C40001219970054B03EB820200235370C5E77A
:1033D40010BD7047841B0020EC000020741B0020EB
:1033E40030B583B0164C01212046FEF739FD154D4A
:1033F40001212846FEF734FD01212046FEF730FD69
:1034040048238DF8073002238DF806304FF470738B
:10341400ADF8043001A92046FEF756FF4FF460438F
:10342400ADF8043001A92846FEF74EFF4FF480633F
:10343400ADF8043001A92046FEF746FF03B030BDC5
:10344400000C01400010014010B582B00A4C01216B
:103454002046FEF705FD10238DF8073003238DF871
:1034640006304FF40053ADF8043001A92046FEF7AE
:103474002BFF02B010BD00BF00100140084B1A68BA
:10348400084B1B689A4209D9054B1B68FA33054A55
:103494001360054AD36883F40053D360704700BFB8
:1034A400841B0020F40000200010014008B5144BD8
:1034B4001B7813BB124B01221A70124B1B789342D8
:1034C40015D05AB282B1022B14D00E4A13780133AC
:1034D400DBB21370022B02D9134600221A70084B78
:1034E40000221A70012008BDFFF7DCF9EDE7FFF7B1
:1034F40019FFEAE7FFF7C2FFE7E70020F3E700BFA1
:10350400E1000020881B00202DE9F04188B0FDF780
:10351400CDFC434B1D68434BA3FB0535AD0C013D6E
:10352400ADB20120FEF760FBDFF8048101214046C3
:10353400FEF796FC3C4F01213846FEF791FC012131
:103544003846FEF78DFC394C01212046FEF752FB2C
:1035540001212046FEF74EFB01212046FEF74AFBDF
:1035640018238DF81F3001268DF81E608023ADF8D6
:103574001C3007A94046FEF7A7FEADF81C6007A95A
:103584003846FEF7A1FE4FF00208ADF81C8007A9EB
:103594003846FEF799FE4FF47A77ADF81470ADF81B
:1035A40010500025ADF81650ADF8125004A920466D
:1035B400FEF7F6F8ADF8147004A92046FEF7F0F80B
:1035C400ADF8147004A92046FEF7EAF86846FDF742
:1035D400E5FD6023ADF80030ADF80260ADF80850A9
:1035E400ADF806506A4641462046FEF7C1F86A46E1
:1035F40003212046FEF7BCF86A4604212046FEF764
:10360400B7F831462046FDF765FD31462046FDF703
:1036140061FD31462046FDF75DFD08B0BDE8F0814F
:103624002800002083DE1B43000C014000040040FE
:10363400000801400138094B33F8103040F6E440EB
:1036440000FB03F0031344F6206000FB03F0044B7B
:10365400A3FB0030C0F34F30704700BFBC00002014
:103664005917B7D170B584B00E4615460024ADF88D
:103674000E40FFF7DFFFADF80E0009E02919002323
:103684000093C82289B23046FCF7CAFF0134E4B281
:10369400042C10D8094B33F81420BDF80E309BB21B
:1036A4009A42EBD2291900220092C82389B23046EB
:1036B400FCF7B6FFEAE704B070BD00BF644C000835
:1036C40008B50023022B0BD8154A32F8130015490C
:1036D40051F82320024441F823200133DBB2F1E7FF
:1036E400114A13780133DBB21370072B11D900236D
:1036F40013700CE00B4951F82320C2F3CF020B489E
:1037040020F81320002241F823200133DBB2022BDE
:10371400F0D94FF408710648FFF7D0FA08BD00BF8E
:10372400BC000020C4000020A8100020B400002029
:10373400002401402DE9F04393B04FF48040FEF79C
:10374400BBFC494F01213846FEF7F0FBDFF8289116
:1037540001214846FEF784FB444D01212846FEF72B
:10376400FDFA0124ADF844404FF002088DF846807C
:1037740000268DF8476011A94846FEF7A5FD384696
:10378400FFF7DCF93A4B00933A4B019302964FF062
:103794000309CDF80C900496802305934FF48063BD
:1037A40007934FF480730693202308934FF4005338
:1037B40009930A9669463846FFF70AF921463846BE
:1037C400FEF774FF0B968DF830408DF831404FF4BE
:1037D40060230D930E968DF83C900BA92846FFF7B5
:1037E4002FFC21462846FFF7DBFB07232246314600
:1037F4002846FFF789FA0723424621462846FFF761
:1038040083FA07234A4605212846FFF77DFA122347
:103814008DF840308DF841808DF842408DF843405A
:1038240010A8FFF7A7FC22464FF408712846FFF7BB
:1038340081FB21462846FFF7D9FB2846FFF75EFBAC
:103844000A48FFF73DFB0028FAD10848FFF71CFBA4
:103854000648FFF7FBFA0028FAD101210348FFF7D5
:10386400CBFA13B0BDE8F083080002400024014005
:103874004C240140BC000020000801402DE9F04127
:1038840005460C46FCF75AFD064650B3002C37D0CB
:103894001C4F5C2202FB05F808F1200038441C226E
:1038A4002146043000F096FF94F90C3007EB08022F
:1038B400D373538861890B449BB2013B9BB26381F0
:1038C4001382928893420FD95C2303FB05731A82F7
:1038D4000C4B5C2202FB0535012385F82230238A38
:1038E4006B823046BDE8F08106495C2202FB05127A
:1038F40052889342ECD25C2303FB05131A82E7E758
:103904000026EEE7AC10002070B506460D46FCF725
:1039140015FD044608B9204670BD5C231A460349C8
:1039240003FB0611284600F055FFF4E7AC10002015
:1039340010B598B00446FCF701FD034610B91846CB
:1039440018B010BD01A92046FFF7DEFF00238DF853
:1039540029308DF82A308DF82B300AA92046FFF73C
:103964008DFF0346EBE700002DE9F04781460C4646
:10397400FCF7E4FC8246002800F09180002C00F063
:10398400A780C8465C2303FB09F340331C2221466D
:103994005148184400F01EFF03262DE0002700E0E4
:1039A40000272079E378C01A00F0F2FEB0FBF5F0AE
:1039B400C0B2494A5C2303FB0823187320B9227957
:1039C400E3789A4200D05746A0796379C01A00F090
:1039D400DFFEB0FBF5F0C0B23F4A5C2303FB0823D3
:1039E400587328B9A27963799A4201D0574600E006
:1039F4000FB10136B6B2DFB1A56806EB860303EB5F
:103A04008303B5FBF3F5A0786378C01A00F0C0FE19
:103A1400B0FBF5F0C0B2304A5C2303FB0823D87234
:103A24000028BDD1A27863789A42B7D05746B8E748
:103A3400294A5C2303FB0923A3F84C609E8294F972
:103A44000E30B3F1FF3F2DD0627823495C2303FB92
:103A540009131A72E2785A7262799A7294F90E20F2
:103A64001D495C2303FB09139A73DB690022A3FB42
:103A7400051313BB1AB3184A5C2303FB0923002262
:103A84005A65154B5C2202FB0939D9F85430C9F840
:103A94001C30012389F82030002389F82130504656
:103AA400BDE8F087A2780C495C2303FB09131A7262
:103AB40022795A72A2799A72D0E70122DAE723694D
:103AC40005FB03F5044A5C2303FB09235D65D8E782
:103AD4004FF0000AE3E700BFAC10002010B598B027
:103AE4000446FCF72BFC034610B9184618B010BD69
:103AF40001A92046FFF708FF00238DF845308DF813
:103B040046308DF847308DF848308DF849308DF8BF
:103B14004A3011A92046FFF727FF0346E5E70000D6
:103B24002DE9F041254D2D781D2D3DD891423DD8EC
:103B34001F4616460D460446FCF7A2FC002838D062
:103B440031462046FCF79CFC002834D01B4A92F8EE
:103B540000801B485C2303FB08F3C118C4544D8048
:103B64008E8008F10103137006994046FFF7FCFEAE
:103B740030B9134A5C2303FB0823002283F8202076
:103B84000E4B187801383946C0B2FFF777FE30B9CA
:103B94000B4B5C2202FB0838002388F82230074BC9
:103BA40018780138C0B202E01F2000E01F20BDE8F1
:103BB400F0811F20FBE71F20F9E700BFD800002099
:103BC400AC1000202DE9F04F97B00138C6B2012E99
:103BD40000F2E9800D46B1F5FA7F01D94FF4FA7588
:103BE40037467F4B23F816504FF000087D4B03F8FF
:103BF40006807D4B03F80680DFF8F4914FF4FB64F4
:103C040004FB06944FF4FA624146204600F0F0FDAE
:103C140004224146204600F0EBFDAA46681C4FF4FE
:103C2400FB7303FB06000422FF2109EB800000F074
:103C3400DFFD01239D420BD34FF4FB7202FB0732DD
:103C44006A4908786A4901F8220001339BB2F1E716
:103C5400CEB1012E00F0AA80022E40F0A480654E61
:103C64000027DFF8B0813D464FF01109624B039302
:103C740003F5DE337C3302934FF0140BA3F5784342
:103C8400803B019310E0182601274FF000085B4D9C
:103C94004FF00D095A4B039303F550432433029319
:103CA4004FF0280B574B019301210846FDF776FF8F
:103CB40001210198FEF7D4F801210298FEF736F9A4
:103CC4001DB101212846FEF7A7F8B8F1000F03D073
:103CD40001214046FEF766F8002F78D118238DF8AD
:103CE400573003238DF85630ADF854B015A9019818
:103CF400FEF7EAFA029F3846FEF720FF039B0A9379
:103D04000B9410230C930AF102039B000D930024DF
:103D14000E9480230F931094119412944FF44053F3
:103D2400139314940AA9BA463846FEF751FE8DF847
:103D340024904FF002088DF8258001278DF8267015
:103D44008DF8277009A8FFF715FA3A460A2150465C
:103D5400FEF75EFCADF810404FF48273ADF81230FC
:103D6400ADF81440ADF81680ADF818704FF4007338
:103D7400ADF81A30ADF81C60ADF81E404FF6FF7375
:103D8400ADF8203004A92846FDF746FE39462846FA
:103D9400FDF7B6FD3A4641462846FDF7DDFD3946B6
:103DA4002846FDF70DFE17B0BDE8F08F1826002752
:103DB400B846154D4FF00F09144B039303F5E43344
:103DC4004C3302934FF4204B0E4B01936CE70121CB
:103DD4003846FEF78FF901210D48FEF78BF97DE790
:103DE400D4000020E8000020B000002036000020AD
:103DF400F8000020882A11000444004000300140EB
:103E04000C300140000C0140003800400C380040E8
:103E1400000230000044004010B5044600F0A4FD48
:103E2400013401386FF00043B3FBF4F3B0FBF3F05B
:103E340010BD000070B58AB00D46072810D00828C0
:103E44001ED0062820D800EBC000830001AE144C1D
:103E54001C440FCC0FC60FCC0FC62368336013E08D
:103E64000620FFF7D9FF00EBC000830001AE0C4C25
:103E74001C440FCC0FC60FCC0FC62368336003E07D
:103E84000023029304930693029B9B086B70049B8C
:103E94009B08AB70069B9B08EB700AB070BD00BF1B
:103EA400704C000870B58AB00C46072810D008285A
:103EB4001ED0062820D800EBC000830001AE184DA8
:103EC4001D440FCD0FC60FCD0FC62B68336013E012
:103ED4000620FFF7A1FF00EBC000830001AE104DE8
:103EE4001D440FCD0FC60FCD0FC62B68336003E002
:103EF4000023029304930693029BC3F38703A370E6
:103F04009B086370049BC3F3870323719B08E370CE
:103F1400069BC3F38703A3719B0863710AB070BD4A
:103F2400704C000830B58FB00D46144607A9FFF752
:103F3400B9FF69462846FFF7B5FF9DF81E30637048
:103F44009DF80230A3709DF82030E3709DF8043092
:103F540023719DF8223063719DF80630A3710FB070
:103F640030BD30B599B00C461546FFF79BFF01A94B
:103F74002846FFF7C9FC9DF80C3063709DF80D309E
:103F8400E3709DF80E30637101232361A37319B0AC
:103F940030BD00002DE9804891B0FCF787FFFEF7A3
:103FA40057F8FFF71DFAFFF7AFFAFFF74DFAFFF7DF
:103FB400C1FB0820FCF7FEFA4FF4FA710120FFF769
:103FC40001FE4FF4FA710220FFF7FCFDFF20FEF71B
:103FD40019FC09A90220FFF72DFF00240E940525E2
:103FE400ADF82C50ADF82A501923ADF828304FF015
:103FF400010A8DF824A00227ADF83470ADF83250D0
:104004008DF830A0ADF82EA08DF83C4002AE3146BC
:104014000620FFF747FF06948DF80870FF238DF8FC
:1040240016304FF42F7304938DF82040009609AB9B
:10403400B92251465046FFF773FDB74B18700096EE
:1040440009ABB92251463846FFF76AFDB34B1870E5
:10405400009423462A4651465046FFF761FD264602
:10406400A3462546A046574652E00223ADF8343015
:104074004FF42F73049358E0012709E0002402A9A8
:104084000620FFF70FFF09A90220FFF7D3FE01273F
:10409400012E40F247810D2C00F06B814FF0000897
:1040A4000220FFF729F9002840F079810220FFF768
:1040B40019F9002840F08B810220FFF727F9814687
:1040C40020B1974B1B68AB4200F285810320FFF7B8
:1040D40009F98146C8B1BAF1000F00F08681DFF812
:1040E400389299F80000FFF7F9FC99F80000FFF7FF
:1040F4001FFCDFF8289299F80000FFF7EFFC99F80D
:104104000000FFF715FC4FF0000A0C2C00F087812B
:10411400FFF7CCF90120FFF7E5F820B9B8F1000F5B
:1041240001D1002EBCD00C2C9FD01EB90134E4B2B6
:104134000E2CA3D80F2C9FD801A353F824F000BF52
:104144008340000885410008CD410008154200085D
:104154005D420008714200087D420008894200085F
:1041640095420008A9420008B7420008D742000857
:10417400CB4200087D400008EB42000815430008CC
:104184001EB1022E0AD0012782E7634B1A7802A9D6
:104194000120FFF7E6FE0126374679E75E4B1878E3
:1041A400FCF72EF9074608B9012771E700260696A1
:1041B400FF238DF8163002A90120FFF773FE09A929
:1041C4000220FFF737FE63E71EB1022E0AD0012753
:1041D4005EE7514B1A7802A90420FFF7C2FE0126BC
:1041E400374655E74C4B1878FCF70AF9074608B9E7
:1041F40001274DE700260696FF238DF8163002A905
:104204000420FFF74FFE09A90220FFF713FE3FE742
:104214001EB1022E0AD001273AE73F4B1A7802A9B1
:104224000220FFF79EFE0126374631E73A4B187805
:10423400FCF7E6F8074608B9012729E700260696A1
:10424400FF238DF8163002A90220FFF72BFE09A9DF
:104254003046FFF7EFFD1BE702A90220FFF722FE1D
:1042640009A90520FFF7E6FD012711E702A90120AE
:10427400FFF718FE00270BE702A90220FFF712FE42
:10428400002705E702A90420FFF70CFE0027FFE63C
:1042940002AA05210220FFF745FE4FF4AF63049301
:1042A4000027F5E602AA00210120FFF73BFE0027C4
:1042B400EEE602AA04210120FFF734FE4FF4AF63B7
:1042C40004930027E4E60123ADF834304FF49673E9
:1042D400049302A90720FFF7E5FD09A90720FFF7CA
:1042E400A9FD0127D4E600238DF809308DF80A30A2
:1042F4008DF80B308DF80C308DF80D308DF80E30B4
:104304008DF825308DF826308DF827300127BFE64B
:1043140001270024BCE600BFAA100020A910002039
:10432400841B0020DFF8648102A998F80000FFF7DD
:104334001BFB09A998F80000FFF7A0FA394698F882
:104344000000FCF77FF8DFF8488102A998F8000024
:10435400FFF70AFB09A998F80000FFF78FFA39461E
:1043640098F80000FCF76EF8012E7FF494AE022654
:1043740091E6DFF81C81002198F80000FCF762F850
:10438400002198F80000FCF74BF83F4B1A8898F886
:1043940000100120FFF766F94FF0000880E61F20A7
:1043A400FCF708F901221146384B1878FBF7D0FFC7
:1043B40001221146364B1878FBF7CAFFFF20FEF79F
:1043C40021FA344B1D6805F51C5510356EE608209E
:1043D400FCF7F0F870E60820FCF7ECF82D4B1D68AC
:1043E40005F51C551035C84670E6DFF8A0A002A9F3
:1043F4009AF80000FFF7B8FA09A99AF80000FFF745
:104404003DFADFF88CA002A99AF80000FFF7ACFA95
:1044140009A99AF80000FFF731FACA4675E61D4B60
:104424001B685B457FF674AE1A4B1B6803F5967BDD
:1044340002A90720FFF736FD09A90720FFF7FAFCB8
:10444400DFF8489002A999F80000FFF78DFA09A94E
:1044540099F80000FFF712FA394699F80000FBF7C3
:10446400F1FFDFF82C9002A999F80000FFF77CFA1D
:1044740009A999F80000FFF701FA394699F80000F4
:10448400FBF7E0FF44E600BF34000020AA10002040
:10449400A9100020841B002010B5114B1B6813F4D5
:1044A400004F0BD00E4B4FF400425A600D4B0122CB
:1044B4001A7000210C48FEF7F9F810BD084B1B6870
:1044C40013F4005FF5D0064B4FF400525A60074CCA
:1044D400206800F077F900232360054A1370E8E7A9
:1044E400000002408A1B002044000240A800002073
:1044F400AC00002070B50546194B187868BB0C4613
:1045040016469DB100211748FEF7D0F87CB121462C
:104514001448FEF749F896B9124BDD600124104B9C
:104524001C7021460F48FEF7C1F8204670BD2B468B
:1045340013F9012B002AEAD00134A4B2F8E70121CF
:10454400204600F029F9084E30602246294600F042
:1045540041F93268034BDA60E0E70020E6E700BF88
:10456400AC00002044000240A800002008B56E4BB7
:104574001B8813F0200F66D06B4B9B88DBB26B4A11
:1045840013706B4B1B78002B58D11378443B202BB2
:1045940059D8DFE803F03358583D582A5858495839
:1045A4005858215858581B585858585858585858FB
:1045B40058585811585815005E48FEF735FE42E029
:1045C400002211465C48FFF795FF3CE00323584A5C
:1045D40013705A4A137036E00023584A1370544A31
:1045E40001211170564A13702DE00123534A1370B0
:1045F4004F4A1370524B00221A7024E04F4B022290
:104604001A704B4B01221A704D4B00221A701AE09B
:104614004A4B04221A70464B03221A700022114698
:104624004848FFF767FF0EE0444B05221A70404BE1
:1046340001221A70424B00221A7004E03C4B1B7892
:10464400DBB2012B00D008BD3C4B1B78DBB2052B41
:10465400F9D801A252F823F075460008A3460008D1
:10466400D14600084B4600084B460008FF460008A8
:10467400334B1B782D490A78D2B23348C2540A7896
:10468400D2B20A2A01D00A782AB92F4A0021D15479
:10469400274A032111700133294A1370D3E7284BA9
:1046A4001B7822490A78D2B22748C2540A78D2B277
:1046B4000A2A01D00A782AB9234A0021D1541C4A73
:1046C4000321117001331E4A1370BCE71C4B1B7885
:1046D40016490A78D2B21C48C2540A78D2B20A2ABD
:1046E40001D00A782AB9184A0021D154104A03216A
:1046F40011700133124A1370A5E7114B1B780B4953
:104704000A78D2B21048C2540A78D2B20A2A01D026
:104714000A7822B900220C49CA5405490A700133A7
:10472400074A13708FE700BF003801408B1B00203D
:10473400A01B0020004C0008084C0008891B002026
:10474400E0000020A41B00208C1B002008B50346B9
:104754000C4A12685AB10B4A1068033323F003035E
:104764000344094A934206D8064A136008BD054A21
:1047740006491160EFE700F017F80C2303604FF0CF
:10478400FF30F3E7DC000020004C0020F41B002085
:104794000028B8BF40427047024B0A4601461868D9
:1047A40000F02EB83C000020014B1868704700BF91
:1047B4003C000020024B0146186800F07BB800BFA3
:1047C4003C000020024B0146186800F027B800BFE7
:1047D4003C0000200A44914200F1FF3300D17047AD
:1047E40010B511F8014B914203F8014FF9D110BDF6
:1047F40003460244934200D1704703F8011BF9E7D2
:1048040038B502FB01F4214600F054F8054618B10E
:1048140022460021FFF7ECFF284638BD38B505468F
:10482400002943D051F8043C0C1F002BB8BFE418F6
:1048340000F0DEF81E4A1368104633B96360146052
:104844002846BDE8384000F0D9B8A3420BD9216806
:104854006218934201BF1A685B6852182260636051
:104864000460EDE713465A680AB1A242FAD91968FE
:104874005818A0420BD1206801445818824219608C
:10488400DED110685268014419605A60D8E702D931
:104894000C232B60D4E7206821188A4201BF1168D9
:1048A40052680918216062605C60C9E738BD00BFC6
:1048B400D81B0020F8B5CD1C25F0030508350C2DB8
:1048C40038BF0C25002D064601DBA94203D90C2371
:1048D40033600020F8BD00F08BF821490A681446C3
:1048E4009CB9204F3B6823B92146304600F070F84C
:1048F40038602946304600F06BF8431C23D10C2362
:104904003046336000F07AF8E3E723685B1B17D482
:104914000B2B03D923601C44256004E06368A24286
:104924000CBF0B605360304600F068F804F10B00D4
:10493400231D20F00700C21ACCD01B1AA350C9E7CC
:1049440022466468CCE7C41C24F00304A042E3D0EC
:10495400211A304600F03CF80130DDD1CFE700BF2A
:10496400D81B0020DC1B0020134B10B51C68A36B64
:104974007BB91820FFF71EFF104A114BA063C0E952
:104984000023104B012283600B2383810023C0E9A1
:104994000423A16B0C480A694B6950430B4C04FB7C
:1049A4000300A2FB04345A1C044444F10000C1E98E
:1049B400042020F0004010BD3C0000200E33CDAB9D
:1049C40034126DE6ECDE05002DF451582D7F954C24
:1049D40038B50023054C054608462360FFF7B6FEAC
:1049E400431C02D1236803B12B6038BDE01B0020B7
:1049F400014800F009B800BFE81B0020014800F09E
:104A040004B800BFE81B0020704770472E2E2F6C9F
:104A140065645365676D656E742F73746D33327599
:104A240074696C732F73797374656D2F7372632F4C
:104A340073746D333266312D73746470657269708A
:104A4400682F73746D3332663130785F6164632E1E
:104A5400630000002E2E2F6C65645365676D656ED0
:104A6400742F73746D33327574696C732F73797327
:104A740074656D2F7372632F73746D333266312DC9
:104A84007374647065726970682F73746D33326601
:104A94003130785F646D612E630000002E2E2F6C20
:104AA40065645365676D656E742F73746D33327509
:104AB40074696C732F73797374656D2F7372632FBC
:104AC40073746D333266312D7374647065726970FA
:104AD400682F73746D3332663130785F6770696F35
:104AE4002E6300002E2E2F6C65645365676D656E12
:104AF400742F73746D33327574696C732F73797397
:104B040074656D2F7372632F73746D333266312D38
:104B14007374647065726970682F6D6973632E6352
:104B2400000000002E2E2F6C65645365676D656E62
:104B3400742F73746D33327574696C732F73797356
:104B440074656D2F7372632F73746D333266312DF8
:104B54007374647065726970682F73746D33326630
:104B64003130785F7263632E630000002E2E2F6C49
:104B740065645365676D656E742F73746D33327538
:104B840074696C732F73797374656D2F7372632FEB
:104B940073746D333266312D737464706572697029
:104BA400682F73746D3332663130785F7370692E99
:104BB400630000002E2E2F6C65645365676D656E6F
:104BC400742F73746D33327574696C732F737973C6
:104BD40074656D2F7372632F73746D333266312D68
:104BE4007374647065726970682F73746D333266A0
:104BF4003130785F74696D2E6300000048656C6C19
:104C04006F210A00444D41207465737420747261ED
:104C14006E736665720A00002E2E2F6C65645365F0
:104C2400676D656E742F73746D33327574696C734C
:104C34002F73797374656D2F7372632F73746D336F
:104C44003266312D7374647065726970682F737481
:104C54006D3332663130785F75736172742E630020
:104C6400E40CAC0D740E3C0F0410000000000000B6
:104C7400F40100000000000000000000000000003B
:104C8400F4010000E803000000000000010000003F
:104C9400000000000000000000000000F40100001B
:104CA40000000000F4010000E80300000000000020
:104CB4000100000000000000580200000000000095
:104CC400900100000000000000000000E803000064
:104CD400000000000100000000000000F4010000DA
:104CE40000000000F401000000000000F4010000D6
:104CF400E8030000000000000100000000000000C4
:104D0400F4010000000000000000000000000000AA
:104D140000000000E80300000000000001000000A3
:104D2400000000000000000000000000F40100008A
:104D34000000000000000000E80300000000000084
:104D4400010000000000000000000000000000005E
:104D54000000000000000000F4010000E80300006F
:084D6400000000000100000046
:104D6C00785634120204060800000000000000000F
:104D7C0001020304060708090000000001020304F5
:104D8C00010203040607080900A24A04E4000020FB
:104D9C00000000009700FFFF4800000040000020CA
:104DAC0000000000000000000000000000000000F7
:104DBC0000000000000000000000000000000000E7
:104DCC0000000000000000000000000000000000D7
:104DDC0000000000000000000000000000000000C7
:104DEC0000000000000000000000000000000000B7
:104DFC0000000000000000000000000000000000A7
:044E0C00325476980E
:040000050800016D81
:00000001FF
