:020000040800F2
:1000000000500020590200085D0100084901000865
:1000100045010008310100081D0100080000000032
:1000200000000000000000000000000019010008AE
:10003000150100080000000011010008350C00083F
:100040000D0100080D0100080D0100080D01000858
:100050000D0100080D0100080D0100080D01000848
:100060000D0100080D0100080D0100080D01000838
:100070000D01000825260008AD370008E12500081D
:100080000D0100089D2500089D3300080D010008A2
:100090000D0100080D0100080D0100080D01000808
:1000A0000D0100080D0100080D0100080D010008F8
:1000B0000D0100080D0100080D0100080D010008E8
:1000C0000D0100080D0100080D0100080D010008D8
:1000D0000D010008E13900080D0100080D010008BC
:1000E0000D0100080D0100080D01000800000000CE
:1000F0000000000000000000000000000000000000
:1001000000000000000000005FF808F100BEFEE7FC
:1001100000BEFEE700BEFEE700BEFEE71EF0040FD5
:100120000CBFEFF30880EFF3098071464C4A10478B
:100130001EF0040F0CBFEFF30880EFF30980714647
:10014000484A104700BEFEE71EF0040F0CBFEFF355
:100150000880EFF309807146434A104700BEFEE76E
:1001600000BEFEE700BEFEE700BEFEE700B583B0BE
:1001700000F044FE284B294A1360294A1360294B9A
:10018000294A03E052F8041B43F8041B27498B4219
:10019000F8D3224B1A68264B9A4200D0FEE7204B38
:1001A0001A68244B9A42F9D11B4B234A1360234A05
:1001B0001360234B02E0002243F8042B214A9342B0
:1001C000F9D31D4B1B6813B91C4B1B6803B1FEE729
:1001D00000F010FE694601A800F01CFE1A4C1B4BF3
:1001E000E41AA410002504E0184B53F82530984772
:1001F0000135AC42F8DC164C164BE41AA41000256D
:1002000004E0144B53F8253098470135AC42F8DC34
:100210000099019804F02AFABABADECA0000002058
:10022000A000002000000020B8510008A400002019
:100230007856341232547698A4000020581D0020BD
:10024000A40000205C1D0020940200089402000815
:10025000940200089402000808B5FFF787FF000029
:0C02600061010008650100086901000848
:10026C00B851000800000020A4000020B85100087C
:10027C000000000000000000A40000205C1D002015
:08028C0000000000000000006A
:100294000438C0B2032801D80120704700207047F9
:1002A40003882BB1013B9BB223B10380002070472C
:1002B4000020704701207047036823B1013B04D03C
:1002C400036000207047002070470120704770B41D
:1002D400B0F842508D4206D2B0F840302B449942D7
:1002E40014DC012400E00024022A15D0032A17D0CC
:1002F400012A0DD000221346012C04D066B29EB10F
:10030400022C1AD00023184670BC70470224EBE775
:1003140090F83D300278EFE790F83E304278EBE712
:1003240090F83F308278E7E79B1A03FB01F393FBD5
:10033400F5F3DBB21344DBB2E5E7491BB0F8404008
:10034400091B01399A1A02FB01F2B0F8441092FB1E
:10035400F1F2D2B29B1ADBB2D5E70000034B1B7853
:10036400834201D80020704701207047D800002044
:1003740070B504460E461546FFF7F0FF0346002805
:1003840041D0DEB12D49682202FB041292F92220E9
:10039400012A3AD02949682202FB0412917D117284
:1003A400117E5172917E9172FF21917323496822CB
:1003B40002FB04120021D174916A11631DB31F4A18
:1003C400682303FB0423002283F8412093F950306F
:1003D400012B26D0194A682303FB04239A88DA8662
:1003E400FF2283F83420154A682303FB042393F87F
:1003F4004400FFF74DFF0346E8B1104A682101FBB2
:1004040004240022E286184670BD682202FB04120E
:10041400517D1172D17D5172517E9172012191737E
:10042400C4E7064A682303FB04235A88DA860122B8
:1004340083F83420D7E72B46E5E700BFAC10002053
:1004440010B50446FFF78AFF034620B1034B682228
:1004540002FB0434E37C184610BD00BFAC1000203E
:1004640038B504460D46FFF779FF034620B1034A29
:10047400682101FB0424A574184638BDAC10002083
:1004840038B504460D46FFF769FF034628B1044A10
:10049400682101FB042484F84050184638BD00BF8D
:1004A400AC100020FF2805D00138C0B2012803D8C1
:1004B40001207047012070470020704738B504467A
:1004C4000D46FFF7EFFF034630B1013C054A32F811
:1004D4001420AA4202D31DB1184638BD0023FBE7FD
:1004E4000023F9E7D4000020F8B504460D4616466B
:1004F4001F46FFF7E3FFE0B10146013CE4B24FF4CD
:10050400FB7303FB04520C4B03EB8203DB78B34213
:1005140010D1094B03EB82039B78BB420AD1064DF1
:1005240005EB820462789DF818309A4202D10021CA
:1005340000E001210846F8BDF8000020FF280BD098
:1005440010B50446FFF7AEFF024618B1601E094B12
:100554001A5CD2B2104610BD0023012B07D8054AFD
:10056400D15C01F0FF0219B90133DBB2F5E70022D7
:1005740010467047B00000202DE9F04383B0814657
:100584000D4690461F469DF828609DF82C409DF826
:10059400303023B900963B46FFF7A6FFF8B909F1BE
:1005A400FF30C0B24FF4FB7303FB00520D4B03EB5F
:1005B400820383F803809F705E70631EDBB21E2B80
:1005C40001D9094B1C784FF4FB7303FB005564F00D
:1005D4001F04044B03F82540044B01221A5403B0B2
:1005E400BDE8F083F800002036000020E800002079
:1005F4002DE9F04184B006460D4617469846FFF7AC
:10060400ADFE044618B30DB3134B682202FB063249
:10061400938852889B1A01339D4201DD002416E021
:10062400511989B20139682303FB06F601230293A9
:100634009DF82C3001939DF82830009343463A46A8
:1006440089B20548805DFFF797FF00E0002420464B
:1006540004B0BDE8F08100BFAC10002060F01F00C2
:10066400014B1870704700BF360000202DE9F0419F
:1006740082B00446884617461E469DF820509DF8D1
:10068400243023B900953346FFF72EFF90B9601E3E
:10069400C0B20A4A4FF4FB7101FB008102EB8103F3
:1006A400DF709E705D70064B1B7802F82130054B9D
:1006B40001221A5402B0BDE8F08100BFF800002006
:1006C40036000020E80000202DE9F04182B0064603
:1006D4000D4617469846FFF741FE044600B3F5B1B0
:1006E400114B682202FB0632938852889B1A01330D
:1006F4009D4201DD002413E0511989B201396823B8
:1007040003FB06F6012301939DF820300093434632
:100714003A4689B20448805DFFF7A8FF00E0002450
:10072400204602B0BDE8F081AC1000202DE9F0476E
:1007340084B082460C46174698469DF830909DF842
:1007440034609DF83850FFF7B9FE20B13946504661
:10075400FFF7B4FE80B904B0BDE8F087012302932B
:10076400019500964B46424621465046FFF704FF4A
:100774000134A4B2A742EED36B1EDBB21E2BEDD91B
:100784000123019300964B46424621465046FFF70B
:100794006DFFEDE7002801DB012070474FF0FF30CB
:1007A40070472DE9F04180460C4616461D46069FCB
:1007B4000846FFF7EFFF444407E0AC4203DDC4EB17
:1007C40045044FF0FF30B44208DBAC42F5DCB442E0
:1007D400F3DB07B138702046BDE8F081C4EB460472
:1007E4000120F2E710B49C1A0844904203DA204432
:1007F4000130FAE7001B5A1C8242FBDB10BC704735
:10080400904202D2B1F1FF3F07D002FB0100009AEF
:10081400904204D8984204D370470020704700984F
:1008240070471846704700002DE9F04782B004462F
:10083400FFF794FD002800F0B881BE4A682303FB4B
:100844000423997E5A7E914200F0A8800326B94879
:10085400682303FB04039D7C002D00F0A68103465E
:10086400682000FB0430437D90F816C0634500F215
:10087400A1800027DFF8BCE2682000FB04E090F8C8
:1008840017E0007E864500F297804FF00009914200
:10089400C0F094804FF0000A002F00F09180A54A28
:1008A4004FF0680808FB042898F80E10494200939A
:1008B400634698F80B2049B298F80800FFF7A0FFA8
:1008C40088F80800B9F1000F00F08C80994B4FF0C4
:1008D400680808FB043898F80E10494298F8173055
:1008E400009398F8183098F80C2049B298F8090049
:1008F400FFF786FF88F80900BAF1000F00F087803F
:100904008C4B4FF0680808FB043898F80E104942E5
:1009140098F81930009398F81A3098F80D2049B2D5
:1009240098F80A00FFF76CFF88F80A00032E00F01D
:100934008380022E00F0AE807E4A682303FB0423EA
:100944009A7D5B7D9A4200F0F7803FB17948682137
:1009540001FB0401097A8A4280F007813FB9754896
:10096400682101FB0401097A8A4240F201813FB106
:100974007049682202FB0412127A934240F2FB800F
:10098400002F40F0FB806B49682202FB0412127AAC
:10099400934280F0F780BA463D46D0E0654868232C
:1009A40003FB0403187EDB7D984201D002264EE748
:1009B40001264CE72F465DE7A94668E7AA466BE7A0
:1009C4005C4A4FF0680808FB0428CDF800C098F88A
:1009D4000B2098F90E1098F80800FFF711FF88F81B
:1009E40008006FE7534B4FF0680808FB043898F889
:1009F4001830009398F8173098F80C2098F90E10D6
:100A040098F80900FFF7FCFE88F8090074E7494BE1
:100A14004FF0680808FB043898F81A30009398F8E7
:100A2400193098F80D2098F90E1098F80A00FFF77D
:100A3400E7FE88F80A0079E7BAF1000F07D03D4ACB
:100A4400682303FB04239A7A9B7E9A4251D9BAF114
:100A5400000F07D1374A682303FB04239A7A9B7E4D
:100A64009A4248D2BAF1000F07D0324A682303FBF6
:100A740004239A7A5B7E9A4241D2BAF1000F41D1A3
:100A84002C4A682303FB04239A7A5B7E9A423DD95D
:100A9400554654E0B9F1000F07D0264A682303FBFA
:100AA40004235A7A1B7E9A4233D9B9F1000F07D135
:100AB400204A682303FB04235A7A1B7E9A422BD2D2
:100AC400B9F1000F07D01B4A682303FB04235A7AA9
:100AD400DB7D9A4223D2B9F1000F23D1154A682352
:100AE40003FB04235A7ADB7D9A421FD9CA464D463A
:100AF40025E0002523E02B4655469A461FE04FF09B
:100B0400000A1CE04FF0000A554618E04FF0000AB6
:100B140015E0CA46002512E0AA464D460FE04FF004
:100B2400000A0CE04FF0000A554608E04FF0000AB6
:100B340005E000BFAC1000204FF0000A55462E4AD5
:100B4400682303FB04231B6BFBB92B4A682303FBB9
:100B540004231B7D012B35D9022B26D145B36823F1
:100B640003FB04240123A3731FE0BA460025E6E730
:100B7400AA463D46E3E74FF0000AE0E74FF0000ADB
:100B84005546DCE74FF0000AD9E7682303FB04F37A
:100B9400303310461844FFF78FFB0028D5D0164A8F
:100BA400682303FB04240123E37402B0BDE8F08747
:100BB400BAF1000FF9D0104A682303FB0424FF2381
:100BC400A373F2E755B10C4A682303FB0424A37D05
:100BD4002372237E6372A37EA372E6E7BAF1000F49
:100BE400E3D0054B682202FB0434637D2372E37D6A
:100BF4006372637EA372D8E7AC10002010B472B69F
:100C0400084B9C68084B186862B64FF47A72074B1D
:100C1400196802FB01F31B1BB3FBF1F302FB003069
:100C240010BC704710E000E0EC1C002038000020ED
:100C3400024A136801331360704700BFEC1C0020A4
:100C440082B00023019300932C4A136843F4803349
:100C540013602A4B1B6803F400330093019B013398
:100C64000193009B1BB9019BB3F5A06FF1D1234BFA
:100C74001B6813F4003F06D001230093009B012B53
:100C840004D002B0704700230093F7E71C4B1A68A6
:100C940042F010021A601A6822F003021A601A68FD
:100CA40042F002021A60A3F580535A685A605A68E7
:100CB4005A605A6842F480625A605A6822F47C127C
:100CC4005A605A6842F4E8125A601A6842F0807214
:100CD4001A600A4B1B6813F0007FFAD0074B5A685E
:100CE40022F003025A605A6842F002025A60034B2F
:100CF4005B6803F00C03082BF9D1C2E70010024033
:100D04000020024008B5FFF79BFF08BD1F4B5B683E
:100D140003F00C03042B15D0082B17D01BB11C4B6C
:100D24001C4A1A6002E01A4B1A4A1A60174B5B6895
:100D3400C3F30313184AD35CDAB215490B68D340E2
:100D44000B607047124B134A1A60EFE70F4A53685F
:100D54005268C3F38343023312F4803F05D10F4A30
:100D640002FB03F30A4A1360E0E7084A526812F4EC
:100D7400003F05D0094A02FB03F3054A1360D5E797
:100D8400044A02FB03F3024A1360CFE70010024057
:100D94002800002000127A000800002000093D000D
:100DA40008B5104B1A6842F001021A6059680E4ADD
:100DB4000A405A601A6822F0847222F480321A605F
:100DC4001A6822F480221A605A6822F4FE025A60D9
:100DD4004FF41F029A60FFF795FF044B4FF0006237
:100DE4009A6008BD001002400000FFF800ED00E02A
:100DF40008B5FFF78BFF08BD08B5FFF7D1FF024A1E
:100E0400024B9A6008BD00BF0000000800ED00E03E
:100E140001230360014B0B60704700BF2C000020CE
:100E2400FEE708B50120FFF7FBFF08B5FFF7F9FF60
:100E340038B505460C46274B984214D0A3F57443A5
:100E4400984210D003F5806398420CD003F5806378
:100E5400984208D003F58063984204D040F286316A
:100E64001D48FFF7E2FF012C13D0802C11D0402C39
:100E74000FD0202C0DD0102C0BD0B4F5807F08D0CF
:100E8400B4F5007F05D0082C03D0042C01D0022C2B
:100E940007D1B4F5007F0AD02B881C4218D001205A
:100EA40038BD40F287310C48FFF7BFFFF1E7094B2B
:100EB4009D42F1D0A3F574439D42EDD003F58063C8
:100EC4009D42E9D040F28B310348FFF7AEFFE3E7E0
:100ED4000020E5E7003801406850000838B50546B1
:100EE4000C46124B984214D0A3F57443984210D088
:100EF40003F5806398420CD003F58063984208D0D0
:100F040003F58063984204D040F25F210848FFF75C
:100F14008CFFB4F5007F03D2C4F30804AC8038BD61
:100F24004FF418710248FFF780FFF5E700380140DD
:100F34006850000838B504460D462E4B984243D0FD
:100F4400B0F1804F40D0A3F5943398423CD003F5E0
:100F54008063984238D003F58063984234D003F517
:100F64008063984230D003F5806398422CD003F517
:100F74009033984228D003F5C053984224D003F507
:100F84008063984220D003F5806398421CD0A3F577
:100F94009E33984218D003F58063984214D003F529
:100FA4008063984210D003F5903398420CD003F537
:100FB4008063984208D003F58063984204D040F2DD
:100FC40029310D48FFF731FF012D05D855B123888C
:100FD40043F00103238038BD40F22A310648FFF76D
:100FE40024FFF3E723889BB223F001039BB2238001
:100FF400F1E700BF002C01400450000800230380E7
:1010040043808380C380038143818381C38170478C
:101014002DE9F04104460D463F4B984217D0B0F1FC
:10102400804F14D0A3F59433984210D003F5806315
:1010340098420CD003F58063984208D003F59433AA
:10104400984204D04FF404713448FFF7EEFE2B8825
:101054004BB1102B07D0202B05D0302B03D0602BA5
:1010640001D0702B40D16B88012B43D82B890BB155
:10107400022B45D1238C9BB223F480539BB223844F
:10108400268CB6B2B4F804801FFA88F8A78BBFB2D6
:1010940027F4E6472B881B029BB21F4326F4005615
:1010A4002B891B039BB233436E883603B6B21E43AF
:1010B400194B9C4203D003F500639C420BD1AB89CE
:1010C400B3F5807F00D00BBB28F48048AB899B012B
:1010D4009BB248EA0308A4F80480A783EB88A4F829
:1010E40040302684BDE8F08140F211210B48FFF71F
:1010F4009CFEB8E740F212210848FFF796FEB5E7D8
:1011040040F213210548FFF790FEB3E74FF40C714A
:101114000248FFF78AFED7E7002C0140045000087C
:101124002DE9F04104460E46574B984217D0B0F1D2
:10113400804F14D0A3F59433984210D003F5806304
:1011440098420CD003F58063984208D003F5943399
:10115400984204D040F2C1114C48FFF766FE338830
:101164004BB1102B07D0202B05D0302B03D0602B94
:1011740001D0702B5DD17388012B60D833890BB1FA
:10118400022B62D1238C9BB223F480739BB2238401
:10119400258CADB2B4F804801FFA88F8A78BBFB2CF
:1011A40027F0730733881F4325F4007533891B0226
:1011B4009BB22B4375882D02ADB21D43324B9C422A
:1011C40003D003F500639C422BD1B3880BB1042BED
:1011D40041D173890BB1082B43D1F389B3F5007F57
:1011E40001D0002B43D1B389B3F5807F01D0002B0C
:1011F40043D125F4006573891B029BB21D4325F47A
:101204008065B3881B029BB21D4328F44058B38900
:101214001B019BB248EA0308F3891B019BB243EA12
:101224000808A4F80480A783F388A3872584BDE86D
:10123400F0814FF4E1711548FFF7F7FD9BE740F2A9
:10124400C3111248FFF7F1FD98E74FF4E2710F481C
:10125400FFF7EBFD96E74FF4F0710C48FFF7E5FD5F
:10126400B7E740F2E1110948FFF7DFFDB5E74FF4B6
:10127400F1710648FFF7D9FDB5E740F2E3110348E1
:10128400FFF7D3FDB5E700BF002C01400450000870
:101294002DE9F04104460E465E4B984223D0B0F14E
:1012A400804F20D0A3F5943398421CD003F580637B
:1012B400984218D003F58063984214D003F5943310
:1012C400984210D003F5C05398420CD0A3F59A333A
:1012D400984208D003F59433984204D040F26F1139
:1012E4004D48FFF7A2FD33884BB1102B07D0202BBC
:1012F40005D0302B03D0602B01D0702B5FD17388C5
:10130400012B62D833890BB1022B64D1238C9BB29D
:1013140023F010039BB22384258CADB2B4F804806F
:101324001FFA88F8278BBFB227F4E64733881B02DD
:101334009BB21F4325F0200533891B019BB22B432D
:1013440075882D01ADB21D43324B9C4203D003F589
:1013540000639C422BD1B3880BB1042B41D1738918
:101364000BB1082B43D1F389B3F5007F01D0002BD7
:1013740043D1B389B3F5807F01D0002B43D125F04D
:10138400800573891B019BB21D4325F04005B3887A
:101394001B019BB21D4328F44068B3899B009BB298
:1013A40048EA0308F3899B009BB243EA0808A4F8BF
:1013B40004802783F38823872584BDE8F0814FF4D4
:1013C400B8711548FFF731FD99E740F271111248E1
:1013D400FFF72BFD96E74FF4B9710F48FFF725FD92
:1013E40094E740F28F110C48FFF71FFDB7E74FF465
:1013F400C8710948FFF719FDB5E740F29111064895
:10140400FFF713FDB5E74FF4C9710348FFF70DFD6E
:10141400B5E700BF002C0140045000082DE9F0415D
:1014240004460D46684B98423BD0B0F1804F38D00B
:10143400A3F59433984234D003F58063984230D0B6
:1014440003F5806398422CD003F59433984228D056
:1014540003F5C053984224D003F58063984220D00A
:1014640003F5806398421CD0A3F59E33984218D0AC
:1014740003F58063984214D003F58063984210D03A
:1014840003F5903398420CD003F58063984208D05A
:1014940003F58063984204D04FF48E714B48FFF7F4
:1014A400C4FC2B884BB1102B07D0202B05D0302B3C
:1014B40003D0602B01D0702B5CD16B88012B5FD8DB
:1014C4002B890BB1022B61D1238C9BB223F0010336
:1014D4009BB22384268CB6B2A788BFB2B4F8188016
:1014E4001FFA88F828F073082B8848EA030826F0C6
:1014F40002062B8933436E881E43334B9C420FD024
:1015040003F500639C420BD003F540639C4207D073
:1015140003F580639C4203D003F580639C4221D190
:10152400AB880BB1042B37D16B890BB1082B39D1A4
:10153400EB89B3F5007F01D0002B39D1AB89B3F52A
:10154400807F01D0002B39D126F008066B891E4319
:1015540026F00406AB881E4327F44077AB891F436B
:10156400EB891F43A780A4F81880EB88A386268400
:10157400BDE8F08140F21D111448FFF756FC9CE7CA
:101584004FF48F711148FFF750FC99E740F21F1197
:101594000E48FFF74AFC97E74FF49E710B48FFF79C
:1015A40044FCC1E740F23D110848FFF73EFCBFE7A9
:1015B4004FF49F710548FFF738FCBFE740F23F1135
:1015C4000248FFF732FCBFE7002C0140045000083A
:1015D40008B50139032906D8DFE801F002060A0E2E
:1015E4001146FFF71BFF08BD1146FFF751FEFAE74E
:1015F4001146FFF795FDF6E71146FFF709FDF2E7FF
:1016040038B504460D46534B984242D0B0F1804F52
:101614003FD0A3F5943398423BD003F580639842BE
:1016240037D003F58063984233D003F58063984242
:101634002FD003F5806398422BD003F59033984262
:1016440027D003F5C053984223D003F58063984212
:101654001FD003F5806398421BD0A3F59E339842B4
:1016640017D003F58063984213D003F58063984242
:101674000FD003F5903398420BD003F58063984262
:1016840007D003F58063984203D0E7213248FFF77F
:10169400CCFB6B883BB1102B05D0202B03D0402B07
:1016A40001D0602B4CD1EB882BB1B3F5807F02D0F5
:1016B400B3F5007F49D123889BB2264A944212D0C5
:1016C40002F5006294420ED0B4F1804F0BD0A2F523
:1016D4009832944207D002F58062944203D002F516
:1016E4008062944203D123F070036A8813431B4A37
:1016F400944208D002F58062944204D023F44073EB
:101704009BB2EA8813432380AB88A3852B88238567
:10171400104B9C420FD003F500639C420BD003F5A1
:1017240040639C4207D003F580639C4203D003F5D9
:1017340080639C4201D12B7A23860123A38238BD86
:10174400E8210548FFF771FBADE7E9210248FFF7FF
:101754006CFBB0E7002C014004500008001000406E
:1017640038B504460D46124B98420CD0A3F5784385
:10177400984208D003F58063984204D04FF41D7159
:101784000C48FFF752FB012D05D855B1A38843F04F
:101794000403A38038BD40F275210648FFF745FBDA
:1017A400F3E7A3889BB223F004039BB2A380F1E781
:1017B40000300140BC4F000870B504460D46164683
:1017C400154B98420CD0A3F57843984208D003F502
:1017D4008063984204D04FF408711048FFF725FB4A
:1017E400012E0ED825F003039BB203B925B940F2AC
:1017F40022210A48FFF719FB4EB1A3881D43A58097
:1018040070BD40F221210548FFF70FFBEAE7A388EA
:1018140023EA0505A580F3E700300140BC4F00082A
:1018240038B504460D46124B98420CD0A3F57843C4
:10183400984208D003F58063984204D040F2B7116F
:101844000C48FFF7F2FA012D05D855B1238843F06F
:101854004003238038BD4FF4DC710648FFF7E5FAF6
:10186400F3E723889BB223F040039BB22380F1E784
:1018740000300140BC4F000838B505460C464A4BC1
:1018840098420BD0A3F57843984207D003F58063C0
:10189400984203D0A3214548FFF7C7FA238843B1F0
:1018A400B3F5806F05D0B3F5004F02D0B3F5404FC8
:1018B4004CD16388B3F5827F01D0002B4BD1A38830
:1018C400B3F5006F01D0002B4AD1E3880BB1022B92
:1018D4004BD12389012B4DD86389B3F5007F01D007
:1018E400002B4CD1A3896BB1082B0BD0102B09D042
:1018F400182B07D0202B05D0282B03D0302B01D058
:10190400382B41D1E3890BB1802B42D1238A002BA0
:1019140044D02B8803F44152238861880B43A18867
:101924000B43E1880B4321890B4361890B43A18954
:101934000B43E1890B4313432B80AB8B9BB223F402
:1019440000639BB2AB83238A2B8238BDA621174840
:10195400FFF76BFAADE7A7211448FFF766FAAEE785
:10196400A8211248FFF761FAAFE7A9210F48FFF752
:101974005CFAAEE7AA210D48FFF757FAACE7AB21B2
:101984000A48FFF752FAADE7AC210848FFF74DFAD1
:10199400B8E7AD210548FFF748FAB7E7AE21034899
:1019A400FFF743FAB5E700BF00300140BC4F000821
:1019B40038B504460D460E4B184200D120B940F20A
:1019C40069410C48FFF731FA012D05D855B10A4A8F
:1019D400D3691C43D46138BD40F26A410548FFF71E
:1019E40024FAF3E7044AD36923EA0404D461F2E74E
:1019F40000360181744F00080010024038B50446D7
:101A04000D460E4B034003B920B940F24A410C483D
:101A1400FFF70BFA012D05D855B10A4A93691C4307
:101A2400946138BD40F24B410548FFF7FEF9F3E7F6
:101A3400044A936923EA04049461F2E70200C0FFB4
:101A4400744F00080010024008B501460120FFF75A
:101A5400D5FF08BD38B504460D46484B984230D0F2
:101A6400B4F1804F32D0464B9C4234D0454B9C421B
:101A740036D0454B9C4238D0444B9C423AD0444BE0
:101A84009C423CD0434B9C423ED0434B9C4241D071
:101A9400424B9C4244D0424B9C4247D0414B9C42D7
:101AA4004AD0414B9C424CD0404B9C424ED0404B80
:101AB4009C4251D03F4B9C4254D03F4B9C4257D008
:101AC40038BD4FF40060FFF799FFC9E729460120AC
:101AD400FFF76EFFC7E729460220FFF769FFC5E756
:101AE40029460420FFF764FFC3E729460820FFF7CF
:101AF4005FFFC1E729461020FFF75AFFBFE72946D9
:101B04002020FFF755FFBDE729464FF40050FFF7AB
:101B140075FFBAE729464FF40020FFF76FFFB7E7D8
:101B240029464FF48010FFF769FFB4E729464FF4C4
:101B34000010FFF763FFB1E729464020FFF738FFA5
:101B4400AFE729468020FFF733FFADE729464FF47E
:101B54008070FFF72DFFAAE729464FF48030FFF786
:101B64004DFFA7E729464FF40030FFF747FFA4E7EE
:101B740029464FF48020FFF741FFA1E7002C0140E4
:101B84000004004000080040000C00400010004029
:101B94000014004000340140004C0140005001405A
:101BA4000054014000180040001C00400020004088
:101BB40000400140004401400048014038B504465B
:101BC4000D460D4B984206D00C4B9C4208D00C4B52
:101BD4009C420BD038BD4FF40070FFF70FFFF3E7C2
:101BE40029464FF48060FFF709FFF0E729464FF4D8
:101BF4000040FFF703FFEDE7002401400028014007
:101C0400003C014038B504460D46164B98420CD0B2
:101C1400154B9C420ED0154B9C4211D0144B9C4248
:101C240014D0144B9C4217D038BD4FF48040FFF7BA
:101C3400E5FEEDE729464FF40030FFF7B9FEEAE789
:101C440029464FF48020FFF7B3FEE7E729464FF417
:101C54000020FFF7ADFEE4E729464FF48010FFF7BC
:101C6400A7FEE1E70038014000440040004800407E
:101C7400004C00400050004038B504460D460D4B62
:101C8400984206D00C4B9C4208D00C4B9C420BD083
:101C940038BD4FF48050FFF7B1FEF3E729464FF407
:101CA4008040FFF785FEF0E729464FF40040FFF738
:101CB4007FFEEDE70030014000380040003C00406A
:101CC40038B504460D46184B98420FD0174B9C422A
:101CD40010D0174B9C4212D0164B9C4214D0164B7A
:101CE4009C4216D0154B9C4218D038BD0420FFF7F7
:101CF40085FEEBE729460820FFF780FEE9E7294641
:101D04001020FFF77BFEE7E729462020FFF776FE49
:101D1400E5E729464020FFF771FEE3E729468020E6
:101D2400FFF76CFEE1E700BF00080140000C014032
:101D3400001001400014014000180140001C014043
:101D440038B504460D4620F4AA6323F0070303B90B
:101D540020B940F22B410B48FFF767F8012D05D855
:101D640055B1094A53691C43546138BD40F22C41B2
:101D74000448FFF75AF8F3E7034A536923EA0404D3
:101D84005461F2E7744F00080010024038B504466D
:101D94000D46164B984211D0143398420ED014338A
:101DA40098420BD01433984208D01433984205D08B
:101DB4001433984202D01433984203D129460120A7
:101DC400FFF7BEFF0A4B9C420BD014339C4208D051
:101DD40014339C4205D014339C4202D014339C42E9
:101DE40003D129460220FFF7ABFF38BD08000240AB
:101DF4000804024010B4294B5B6803F00C03042B65
:101E04002BD0082B2CD013B1254B036001E0244BBD
:101E1400036022494B68C3F30313224CE35CDAB238
:101E24000368D34043604A68C2F30222A25CD2B280
:101E340023FA02F282604A68C2F3C222A25CD2B2DE
:101E4400D340C3604A68C2F3813217498A5CD2B274
:101E5400B3FBF2F3036110BC7047114B0360D8E786
:101E64000E4A53685268C3F38343023312F4803F2B
:101E740004D10E4A02FB03F30360CAE7074A52681F
:101E840012F4003F04D0094A02FB03F30360C0E7E5
:101E9400034A02FB03F30360BBE700BF00100240E8
:101EA40000127A00180000200400002000093D0000
:101EB40000B587B0FEF72AFF01A8FFF79BFF019B3F
:101EC4000F4AA2FB03239B09013BB3F1807F15D288
:101ED4000C4A53600C4BF02183F8231000219160CD
:101EE4000720106083F82310084B1B68084AB3FBD3
:101EF400F2F3084A136007B05DF804FBFEE700BF85
:101F0400D34D621010E000E000ED00E02800002056
:101F140040420F003800002010B5044640B1B0F52F
:101F2400804F05D0B0F5004F02D0B0F5404F06D138
:101F3400064A536823F440431C43546010BD40F2E6
:101F440002310348FEF771FFF2E700BF00100240C0
:101F5400744F000838B504460D46431E012B40F269
:101F64008980042800F08680082800F08380644B70
:101F740098427FD0203398427CD0624B984279D0EB
:101F84008033984276D0604B984273D003F58073C7
:101F940098426FD003F5807398426BD05B4B9842A4
:101FA40068D003F58063984264D0B0F5805F61D057
:101FB400B0F5EA1F5ED0B0F5EB1F5BD0B0F5004F73
:101FC40058D0534B984255D00133984252D00233E3
:101FD40098424FD0043398424CD00833984249D0A9
:101FE400B0F1201F46D03033984243D0494B984239
:101FF40040D003F5807398423CD003F500739842B7
:1020040038D0454B984235D003F57063984231D0AF
:10201400B0F5011F2ED0414B98422BD0013398428A
:1020240028D00233984225D00433984222D0083372
:1020340098421FD0103398421CD02033984219D0B4
:102044004033984216D08033984213D003F58073FE
:1020540098420FD003F5007398420BD003F58063C8
:10206400984207D003F50063984203D003F58053E8
:10207400984218D1012D1CD8002C20DB284B5B681A
:10208400C4F30340A2B204F44011B1F5401F19D0C7
:1020940014F4801F27D0032101FA00F023EA00037F
:1020A40043F0706315E040F22A211E48FEF7BDFE9E
:1020B400E0E740F22B211B48FEF7B7FEDCE7184BA4
:1020C400DB69DDE723F070631548416821F0706136
:1020D40041601DB1610D09018A401343002C0BDBE3
:1020E4000F4A536038BD610D090102FA01F123EA78
:1020F400010343F07063ECE7094AD361F2E700BFE0
:1021040010001400400016000001180000081A0016
:1021140001002000000130000011200001000080B7
:1021240000000140EC4E0008F8B505460C46494B4A
:1021340098421BD003F58063984217D003F580635F
:10214400984213D003F5806398420FD003F580635F
:1021540098420BD003F58063984207D003F580635F
:10216400984203D0B2213C48FEF75FFEE3786BB19E
:10217400042B0BD0282B09D0482B07D0142B05D0C7
:10218400102B03D01C2B01D0182B14D12388BBB1E6
:10219400E37803F00F06304613F0100F06D0A3784F
:1021A400013BDBB2022B10D8A078304323785BB319
:1021B4002E68002310E0B3212748FEF736FEE5E73A
:1021C400B4212548FEF731FEE2E7BB212248FEF7A1
:1021D4002CFEE9E76A610133072B14D801229A40E7
:1021E400218832EA0101F6D199000F278F4026EAAF
:1021F400070600FA01F10E43E1782829EAD04829BC
:10220400E9D12A61E7E72E602388FF2B20D96E6885
:10221400002302E06A6115E00133072B17D803F1AC
:10222400080101228A40218832EA0101F4D199008F
:102234000F278F4026EA070600FA01F10E43E178E2
:102244002829E7D0E1784829E6D12A61E4E76E60DD
:10225400F8BD00BF00080140EC4E000810B504466C
:1022640010F0704F02D0094B034003B924B940F277
:102274000E210748FEF7D9FD14F0805F02D0054B0C
:102284005C6010BD044B5C60FBE700BF0000F0EF36
:10229400A44E0008000402400000024010B50446A9
:1022A400431E012B40F29480042800F091800828FA
:1022B40000F08E80102800F08B80202800F08880A9
:1022C400402800F08580802800F08280B0F5807F6F
:1022D4007ED0B0F5007F7BD0B0F5806F78D0B0F5BC
:1022E400006F75D0B0F5805F72D0B0F5005F6FD02D
:1022F400B0F5804F6CD0B0F5004F69D0B0F5803F99
:1023040066D0B0F5003F63D0B0F5802F60D0B0F553
:10231400002F5DD0B0F5801F5AD0B0F5001F57D004
:10232400B0F5800F54D0B0F5000F51D0B0F1807FDC
:102334004ED0B0F1007F4BD0B0F1806F48D0B0F1F7
:10234400006F45D02C4B984242D0013398423FD085
:10235400023398423CD00433984239D0083398422F
:1023640036D01033984233D02033984230D04033A3
:1023740098422DD0803398422AD003F58073984236
:1023840026D003F50073984222D003F58063984267
:102394001ED0B0F1102F1BD003F5C053984217D0B4
:1023A40003F50053984213D003F5804398420FD0AD
:1023B40003F5004398420BD003F58033984207D0CD
:1023C40003F50033984203D003F58023984208D1E3
:1023D40014F0805F0BD0094B1B6823420AD0012004
:1023E40010BD40F2B7110648FEF71FFDF0E7054B9C
:1023F4001B68F2E70020F3E701000010000402402C
:10240400A44E00080000024038B504460D46164BA1
:10241400984226D01433984223D01433984220D0C3
:10242400143398421DD0143398421AD0143398426E
:1024340017D01433984214D003F56273984210D025
:10244400143398420DD0143398420AD0143398426E
:1024540007D01433984204D04FF4B2710348FEF706
:10246400E4FC656038BD00BF08000240A44E0008CB
:1024740070B504460D461646224B984226D01433B6
:10248400984223D01433984220D0143398421DD05C
:10249400143398421AD01433984217D01433984204
:1024A40014D003F56273984210D0143398420DD0BF
:1024B400143398420AD01433984207D01433984204
:1024C40004D040F249111048FEF7AFFC35F00E037A
:1024D40000D125B94FF4A5710B48FEF7A6FC012ED7
:1024E40004D84EB123681D43256070BD40F24B11E2
:1024F4000548FEF79AFCF4E7236823EA05052560FE
:10250400F3E700BF08000240A44E000838B50446B3
:102514000D461F4B984226D01433984223D01433CF
:10252400984220D0143398421DD0143398421AD0C4
:102534001433984217D01433984214D003F56273BD
:10254400984210D0143398420DD0143398420AD0D4
:102554001433984207D01433984204D040F229111E
:102564000C48FEF762FC012D05D855B1236843F0F1
:102574000103236038BD4FF495710648FEF755FCFE
:10258400F3E7236823F001031B041B0C2360F1E72A
:1025940008000240A44E000808B54FF00060FFF7A1
:1025A4007DFE40B14FF00060FFF758FE002109485E
:1025B400FFF7ACFF08BD4FF00070FFF76FFE002877
:1025C400F4D04FF00070FFF749FE034B00229A70DD
:1025D400ECE700BF80000240B000002008B54FF4D3
:1025E4000020FFF75BFE40B14FF40020FFF736FEFA
:1025F40000210948FFF78AFF08BD4FF40030FFF7B8
:102604004DFE0028F4D04FF40030FFF727FE034BB3
:1026140000225A70ECE700BF58000240B0000020CE
:1026240008B54FF40060FFF739FE40B14FF4006085
:10263400FFF714FE00210948FFF768FF08BD4FF4B7
:102644000070FFF72BFE0028F4D04FF40070FFF762
:1026540005FE034B00221A70ECE700BF3000024075
:10266400B000002070B50546FF2814D02846FDF7B9
:1026740019FF044628B16E1EF6B21C4B9C5D64B96A
:102684000024204670BD2046FFF7ECFF0134E4B27D
:10269400022CF8D9EAE70124FAE72846FDF74EFFB1
:1026A4000028EDD12EB1012E1CD0022E1CD1104DCC
:1026B40000E0104D00212846FFF728FF0E4B33F8A9
:1026C40016100231890089B22846FFF79DFE0121C8
:1026D4002846FFF71BFF094B01229A55034B0022A2
:1026E4009A55CEE7064DE5E70446CAE7E800002020
:1026F4008000024030000240D4000020B0000020DE
:102704005800024038B505460C46574B984225D030
:102714001433984222D0143398421FD01433984271
:102724001CD01433984219D01433984216D0143361
:10273400984213D003F5627398420FD01433984231
:102744000CD01433984209D01433984206D0143371
:10275400984203D0CF214548FEF767FBA368102BAE
:1027640001D0002B53D1E368013B4FF6FE72934234
:1027740052D82369402B01D0002B52D16369802B9E
:1027840001D0002B52D1A3692BB1B3F5807F02D0C5
:10279400B3F5007F4FD1E3692BB1B3F5806F02D05D
:1027A400B3F5006F4CD1236A202B01D0002B4CD100
:1027B400636AB3F5405F07D0B3F5005F04D0B3F5A7
:1027C400805F01D0002B45D1A36AB3F5804F01D0BF
:1027D400002B44D12A6822F4FF4222F07002A3683D
:1027E400216A0B4321690B4361690B43A1690B43C4
:1027F400E1690B43616A0B43A16A0B4313432B60EA
:10280400E3686B602368AB606368EB6038BDD0211C
:102814001648FEF70AFBA6E7D1211448FEF705FB8C
:10282400A7E7D2211148FEF700FBA7E7D3210F4801
:10283400FEF7FBFAA7E7D4210C48FEF7F6FAAAE75D
:10284400D5210A48FEF7F1FAADE7D6210748FEF78D
:10285400ECFAADE7D7210548FEF7E7FAB4E7D8214B
:102864000248FEF7E2FAB5E708000240A44E000869
:1028740010B504464F4B984225D01433984222D0C9
:10288400143398421FD0143398421CD01433984206
:1028940019D01433984216D01433984213D003F548
:1028A400627398420FD0143398420CD01433984278
:1028B40009D01433984206D01433984203D06F21C0
:1028C4003D48FEF7B2FA236823F001031B041B0CF6
:1028D4002360002323606360A360E360354B9C4264
:1028E40026D0364B9C4229D0354B9C422CD0354BBC
:1028F4009C422FD0344B9C4232D0344B9C4235D036
:10290400334B9C4238D0334B9C423BD0324B9C429D
:102914003ED0324B9C4241D0314B9C4244D0314B4F
:102924009C420AD1304A536843F47023536004E054
:102934002E4A536843F00F03536010BD2B4A53686B
:1029440043F0F0035360F8E7284A536843F4706394
:102954005360F2E7254A536843F470435360ECE74D
:10296400224A536843F470235360E6E71F4A5368CE
:1029740043F470035360E0E71C4A536843F0706308
:102984005360DAE7184A536843F00F035360D4E7FF
:10299400154A536843F0F0035360CEE7124A536874
:1029A40043F470635360C8E70F4A536843F47043B9
:1029B4005360C2E708000240A44E00081C00024015
:1029C4003000024044000240580002406C000240C3
:1029D40080000240080402401C040240300402400B
:1029E4004404024058040240000402400000024033
:1029F40038B505460C460F4B98420CD003F580635E
:102A0400984208D003F5A053984204D040F20D51E7
:102A14000948FEF70AFA24F4FC639BB203B924B90B
:102A240040F20E510448FEF700FA6FEA14242C60B9
:102A340038BD00BF002401405C4E0008F8B50546CF
:102A44000E4614461F46374B98420CD003F580635C
:102A5400984208D003F5A053984204D04FF416715D
:102A64003148FEF7E2F9112E22D8631EDBB20F2B98
:102A740024D8072F28D8092E2CD9EA68A6F10A03EE
:102A840003EB43030721994022EA01029F401743C5
:102A9400EF60062C29D8696B013C04EB84041F23E6
:102AA400A34021EA030106FA04F40C436C63F8BD65
:102AB40040F259211C48FEF7B8F9D6E740F25A21F2
:102AC4001948FEF7B2F9D4E740F25B211648FEF745
:102AD400ACF9D0E72B6906EB460107228A4023EACA
:102AE40002038F401F432F61D3E70C2C0CD8296BB2
:102AF400073C04EB84041F23A34021EA030106FAE4
:102B040004F40C432C63D2E7EB6AA4F10D0101EB4E
:102B140081011F228A4023EA020306FA01F11943C4
:102B2400E962C4E7002401405C4E000838B504465D
:102B34000D46114B98420CD003F58063984208D09F
:102B440003F5A053984204D04FF4E9710B48FEF703
:102B54006CF9012D05D855B1A36843F4A003A36013
:102B640038BD40F2D3110548FEF75FF9F3E7A368D7
:102B740023F4A003A360F3E7002401405C4E0008A3
:102B840010B504460B4B98420CD003F58063984271
:102B940008D003F5A053984204D04FF4DC710648E2
:102BA400FEF743F9A36813F0040F01D0012010BD10
:102BB4000020FCE7002401405C4E000810B50446E8
:102BC4000A4B98420CD003F58063984208D003F571
:102BD400A053984204D04FF4D5710548FEF725F967
:102BE400A36843F00403A36010BD00BF00240140A8
:102BF4005C4E000810B504460B4B98420CD003F50C
:102C04008063984208D003F5A053984204D04FF44F
:102C1400C9710648FEF709F9A36813F0080F01D03B
:102C2400012010BD0020FCE7002401405C4E000898
:102C340010B504460A4B98420CD003F580639842C1
:102C440008D003F5A053984204D04FF4C27105484C
:102C5400FEF7EBF8A36843F00803A36010BD00BFC0
:102C6400002401405C4E000870B505460C4616462B
:102C7400164B98420CD003F58063984208D003F5B4
:102C8400A053984204D040F26B111148FEF7CDF8DE
:102C9400012E0FD824F4FC639BB203B924B940F28B
:102CA4006D110B48FEF7C1F8E4B24EB16B681C43DA
:102CB4006C6070BD4FF4B6710548FEF7B6F8E9E7ED
:102CC4006B6823EA04046C60F3E700BF002401404E
:102CD4005C4E000838B504460D460F4B984208D0A8
:102CE40003F5C053984204D040F24D110B48FEF74F
:102CF4009CF8012D05D855B1A36843F48073A360F3
:102D040038BD4FF4A7710548FEF78FF8F3E7A368C1
:102D140023F48073A360F3E7002401405C4E0008B1
:102D240038B504460D46114B98420CD003F5806328
:102D3400984208D003F5A053984204D04FF49A71F6
:102D44000B48FEF772F8012D05D855B1A36843F07E
:102D54000103A36038BD40F235110548FEF765F85C
:102D6400F3E7A36823F00103A360F3E70024014021
:102D74005C4E000838B505460C46484B98420BD0CB
:102D840003F58063984207D003F5A053984203D01B
:102D9400E5214348FEF749F82368D3B1B3F5803FF2
:102DA40017D0B3F5003F14D0B3F5403F11D0B3F5BD
:102DB400802F0ED0B3F5A02F0BD0B3F5C02F08D0C1
:102DC400B3F5E02F05D0B3F5002F02D0B3F5102FE3
:102DD40046D12379012B48D86379012B4AD8A368BB
:102DE400A3B1B3F5003F11D0B3F5802F0ED0B3F5E6
:102DF400C02F0BD0B3F5002F08D0B3F5202F05D08A
:102E0400B3F5402F02D0B3F5602F38D1E36813B186
:102E1400B3F5006F38D1237C013BDBB20F2B38D8DC
:102E24006A6822F4702222F480722368217943EACA
:102E3400012313436B60AB681A4A1A40E368A16824
:102E44000B43617943EA41031343AB60EB6A23F418
:102E54007003227C013AD2B243EA0253EB6238BDDA
:102E6400E6210F48FDF7E1FFB3E7E7210C48FDF742
:102E7400DCFFB1E7E8210A48FDF7D7FFAFE7E92116
:102E84000748FDF7D2FFC1E7EA210548FDF7CDFF6A
:102E9400C1E7EB210248FDF7C8FFC1E70024014068
:102EA4005C4E0008FDF7F1FF10B50446C378012B12
:102EB40026D863780F2B28D8A3780F2B2AD8E37849
:102EC4006BB31C4BDA68D243C2F30222C2F1040092
:102ED4000F2323FA02F261788140A37813400B4355
:102EE4001B012278DBB214490A4482F800332378A8
:102EF40003F01F005B090122824041F8232010BD2A
:102F040075210E48FDF791FFD3E776210B48FDF7B5
:102F14008CFFD1E777210948FDF787FFCFE72378B6
:102F240003F01F015B0901228A402033024941F862
:102F34002320E4E700ED00E000E100E0344F000866
:102F440008B501460448FDF7C9FF40210248FDF7D2
:102F54006FFF0028F9D008BD0038014010B50446C1
:102F640094F9000020B10134C0B2FFF7E9FFF7E79C
:102F740010BD00000130C0B20138072845D8DFE891
:102F840000F0040C141C242C343C214B9868400A97
:102F940080F0010000F0010070471D4B9868000AA2
:102FA40080F0010000F001007047194B9868C009D7
:102FB40080F0010000F001007047154B986880090B
:102FC40080F0010000F001007047124B9868400B3C
:102FD40080F0010000F0010070470E4B9868800BF0
:102FE40080F0010000F0010070470A4B9868C00BA4
:102FF40080F0010000F001007047054B9868800ADA
:1030040080F0010000F0010070470020704700BF0D
:10301400000C0140001001400138034B03EB800316
:10302400987800229A707047DC1C00200138034B0A
:1030340003EB8003D8780022DA707047DC1C002090
:10304400042805D80138034B03EB8000407870470F
:1030540000207047DC1C00202B4B1A682B4B1B688C
:103064009A4250D910B5284B1B682133274A136064
:1030740000240FE0264B13F82430DBB1013B244A33
:1030840002F8243016E0224B03EB82020123537032
:103094000134E4B2032C35D82046FFF76BFF002837
:1030A400E8D01B4B13F82430022B03D80133184A01
:1030B40002F824302246164B13F82430022B0DD983
:1030C400134B03EB84035B78002BDCD1104B03EB35
:1030D40084030121D97000219970D4E7002BD7D142
:1030E4000B4B03EB84035B7833B1094B03EB840391
:1030F4000021D97001219970054B03EB8202002352
:103104005370C5E710BD7047EC1C0020EC00002094
:10311400DC1C002030B583B0164C01212046FEF79C
:10312400CFFD154D01212846FEF7CAFD0121204699
:10313400FEF7C6FD48238DF8073002238DF80630CC
:103144004FF47073ADF8043001A92046FEF7ECFF8C
:103154004FF46043ADF8043001A92846FEF7E4FFBC
:103164004FF48063ADF8043001A92046FEF7DCFF7C
:1031740003B030BD000C01400010014010B582B016
:103184000A4C01212046FEF79BFD10238DF80730E1
:1031940003238DF806304FF40053ADF8043001A931
:1031A4002046FEF7C1FF02B010BD00BF0010014071
:1031B400084B1A68084B1B689A4209D9054B1B68CF
:1031C400FA33054A1360054AD36883F40053D36085
:1031D400704700BFEC1C0020F400002000100140E8
:1031E4002DE9F04188B0FDF791FD434B1D68434B39
:1031F400A3FB0535AD0C013DADB20120FEF724FC67
:10320400DFF8048101214046FEF75AFD3C4F0121BD
:103214003846FEF755FD01213846FEF751FD394C7D
:1032240001212046FEF716FC01212046FEF712FC80
:1032340001212046FEF70EFC18238DF81F300126CD
:103244008DF81E608023ADF81C3007A94046FEF7B8
:103254006BFFADF81C6007A93846FEF765FF4FF019
:103264000208ADF81C8007A93846FEF75DFF4FF44D
:103274007A77ADF81470ADF810500025ADF81650FB
:10328400ADF8125004A92046FEF7BAF9ADF814704F
:1032940004A92046FEF7B4F9ADF8147004A9204639
:1032A400FEF7AEF96846FDF7A9FE6023ADF80030DD
:1032B400ADF80260ADF80850ADF806506A464146D4
:1032C4002046FEF785F96A4603212046FEF780F979
:1032D4006A4604212046FEF77BF931462046FDF775
:1032E40029FE31462046FDF725FE31462046FDF7EE
:1032F40021FE08B0BDE8F0812800002083DE1B43D6
:10330400000C014000040040000801400138094B52
:1033140033F8103040F6E44000FB03F0031344F6A6
:10332400206000FB03F0044BA3FB0030C0F34F30DC
:10333400704700BFBC0000205917B7D170B584B0E6
:103344000E4615460024ADF80E40FFF7DFFFADF83A
:103354000E0009E0291900230093C82289B23046DF
:10336400FDF7B2F90134E4B2042C10D8094B33F858
:103374001420BDF80E309BB29A42EBD229190022D8
:103384000092C82389B23046FDF79EF9EAE704B0FB
:1033940070BD00BFB050000808B50023022B0BD845
:1033A400154A32F81300154951F82320024441F814
:1033B40023200133DBB2F1E7114A13780133DBB286
:1033C4001370072B11D9002313700CE00B4951F82B
:1033D4002320C2F3CF020B4820F81320002241F827
:1033E40023200133DBB2022BF0D94FF408710648D5
:1033F400FFF7FEFA08BD00BFBC000020C400002097
:10340400A8100020B4000020002401402DE9F0435E
:1034140093B04FF48040FEF77FFD494F01213846B9
:10342400FEF7B4FCDFF8289101214846FEF748FC7A
:10343400444D01212846FEF7C1FB0124ADF8444068
:103444004FF002088DF8468000268DF8476011A9D8
:103454004846FEF769FE3846FFF70AFA3A4B0093EE
:103464003A4B019302964FF00309CDF80C90049661
:10347400802305934FF4806307934FF4807306937E
:10348400202308934FF4005309930A96694638465B
:10349400FFF738F921463846FFF738F80B968DF8D0
:1034A40030408DF831404FF460230D930E968DF823
:1034B4003C900BA92846FFF75DFC21462846FFF700
:1034C40009FC0723224631462846FFF7B7FA0723AB
:1034D400424621462846FFF7B1FA07234A4605210A
:1034E4002846FFF7ABFA12238DF840308DF841805F
:1034F4008DF842408DF8434010A8FFF7D5FC2246D2
:103504004FF408712846FFF7AFFB21462846FFF722
:1035140007FC2846FFF78CFB0A48FFF76BFB0028E3
:10352400FAD10848FFF74AFB0648FFF729FB0028B1
:10353400FAD101210348FFF7F9FA13B0BDE8F0838B
:1035440008000240002401404C240140BC0000203B
:10355400000801402DE9F04F97B00138C6B2012EA2
:1035640000F2E9800D46B1F5FA7F01D94FF4FA75FE
:1035740037467F4B23F816504FF000087D4B03F875
:1035840006807D4B03F80680DFF8F4914FF4FB646A
:1035940004FB06944FF4FA624146204601F04EFBC8
:1035A40004224146204601F049FBAA46681C4FF418
:1035B400FB7303FB06000422FF2109EB800001F0EA
:1035C4003DFB01239D420BD34FF4FB7202FB0732F8
:1035D4006A4908786A4901F8220001339BB2F1E78D
:1035E400CEB1012E00F0AA80022E40F0A480654ED8
:1035F4000027DFF8B0813D464FF01109624B039379
:1036040003F5DE337C3302934FF0140BA3F57843B8
:10361400803B019310E0182601274FF000085B4D12
:103624004FF00D095A4B039303F55043243302938F
:103634004FF0280B574B019301210846FEF7DEF9A2
:1036440001210198FEF73CFB01210298FEF79EFB45
:103654001DB101212846FEF70FFBB8F1000F03D07E
:1036640001214046FEF7CEFA002F78D118238DF8B9
:10367400573003238DF85630ADF854B015A901988E
:10368400FEF752FD029F3846FFF7F2F8039B0A93B8
:103694000B9410230C930AF102039B000D93002456
:1036A4000E9480230F931094119412944FF440536A
:1036B400139314940AA9BA463846FFF723F88DF8F1
:1036C40024904FF002088DF8258001278DF826708C
:1036D4008DF8277009A8FFF7E7FB3A460A21504600
:1036E400FEF7C6FEADF810404FF48273ADF8123009
:1036F400ADF81440ADF81680ADF818704FF40073AF
:10370400ADF81A30ADF81C60ADF81E404FF6FF73EB
:10371400ADF8203004A92846FEF7AEF8394628460D
:10372400FEF71EF83A4641462846FEF745F8394664
:103734002846FEF775F817B0BDE8F08F1826002765
:10374400B846154D4FF00F09144B039303F5E433BA
:103754004C3302934FF4204B0E4B01936CE7012141
:103764003846FEF7F7FB01210D48FEF7F3FB7DE732
:10377400D4000020E8000020B00000203600002023
:10378400F8000020882A1100044400400030014061
:103794000C300140000C0140003800400C3800405F
:1037A400000230000044004010B5114B1B6813F4B4
:1037B400004F0BD00E4B4FF400425A600D4B0122C8
:1037C4001A7000210C48FEF7A1FE10BD084B1B68BF
:1037D40013F4005FF5D0064B4FF400525A60074CC7
:1037E400206801F015FA00232360054A1370E8E706
:1037F40000000240F21C002044000240A800002007
:10380400AC0000202DE9F04104460D46FCF7A6FD6E
:10381400064600283DD0002D6ED0384F4FF0680882
:1038240008FB04F808F1400038441C2229460430FF
:1038340001F0F6F995F90C30474487F83430012348
:1038440087F840302878FCF723FD28BB2B4B6822EF
:1038540002FB0432B2F84E3051880B44013B9BB258
:10386400A2F84E30D386928893423DD923496823E7
:1038740003FB0413DA86214A682303FB0423B3F809
:1038840054201A871D4B682202FB0434002384F859
:1038940041303046BDE8F081786E01F0B9F9B7F8EF
:1038A4004800B7F852300221184401F09BF97866B9
:1038B4000023FB86B7F85430114AA2FB03231B09EB
:1038C400B7F8522003FB02F3B7F84820B3FBF2F138
:1038D400934200D20121094A682303FB0423A3F87D
:1038E400541001221A87CDE79942C4D9034A6823A8
:1038F40003FB0423D986BEE70026CAE7AC100020E8
:10390400CDCCCCCC70B506460D46FCF727FD04465D
:1039140008B9204670BD68231A46034903FB061103
:10392400284601F07DF9F4E7AC10002010B59AB0F8
:103934000446FCF713FD034610B918461AB010BD2F
:1039440069462046FFF7DEFF00238DF845308DF8E9
:1039540046308DF8473011A92046FFF753FF034640
:10396400EBE7000070B50546194B187868BB0C46A8
:1039740016469DB100211748FEF7C8FD7CB12146CB
:103984001448FEF741FD96B9124BDD600124104B3B
:103994001C7021460F48FEF7B9FD204670BD2B462A
:1039A40013F9012B002AEAD00134A4B2F8E701216B
:1039B400204601F017F9084E30602246294601F0EE
:1039C4002FF93268034BDA60E0E70020E6E700BF36
:1039D400AC00002044000240A800002008B56E4B53
:1039E4001B8813F0200F66D06B4B9B88DBB26B4AAD
:1039F40013706B4B1B78002B58D11378443B202B4E
:103A040059D8DFE803F03358583D582A58584958D4
:103A14005858215858581B58585858585858585896
:103A240058585811585815005E48FFF797FA42E065
:103A3400002211465C48FFF795FF3CE00323584AF7
:103A440013705A4A137036E00023584A1370544ACC
:103A540001211170564A13702DE00123534A13704B
:103A64004F4A1370524B00221A7024E04F4B02222B
:103A74001A704B4B01221A704D4B00221A701AE037
:103A84004A4B04221A70464B03221A700022114634
:103A94004848FFF767FF0EE0444B05221A70404B7D
:103AA40001221A70424B00221A7004E03C4B1B782E
:103AB400DBB2012B00D008BD3C4B1B78DBB2052BDD
:103AC400F9D801A252F823F0E53A0008133B0008A4
:103AD400413B0008BB3A0008BB3A00086F3B0008B2
:103AE400334B1B782D490A78D2B23348C2540A7832
:103AF400D2B20A2A01D00A782AB92F4A0021D15415
:103B0400274A032111700133294A1370D3E7284B44
:103B14001B7822490A78D2B22748C2540A78D2B212
:103B24000A2A01D00A782AB9234A0021D1541C4A0E
:103B34000321117001331E4A1370BCE71C4B1B7820
:103B440016490A78D2B21C48C2540A78D2B20A2A58
:103B540001D00A782AB9184A0021D154104A032105
:103B640011700133124A1370A5E7114B1B780B49EE
:103B74000A78D2B21048C2540A78D2B20A2A01D0C2
:103B84000A7822B900220C49CA5405490A70013343
:103B9400074A13708FE700BF00380140F31C002070
:103BA400081D00204C50000854500008F11C00204F
:103BB400E00000200C1D0020F41C00202DE9F0473B
:103BC40081460C46FCF7CAFB8246002800F0908030
:103BD400002C00F0A680C846682000FB09F01030D5
:103BE400514B18441C222146043001F019F80326D5
:103BF4002DE0002700E000272079E378C01A00F0C8
:103C0400EDFFB0FBF5F0C0B2474A682303FB08237D
:103C1400187320B92279E3789A4200D05746A079E4
:103C24006379C01A00F0DAFFB0FBF5F0C0B23E4A87
:103C3400682303FB0823587328B9A27963799A424D
:103C440001D0574600E00FB10136B6B2D7B1A5682E
:103C540006EB86029300B5FBF3F5A0786378C01AEF
:103C640000F0BCFFB0FBF5F0C0B22F4A682303FBA1
:103C74000823D8720028BED1A27863789A42B8D0BB
:103C84005746B9E7284A682303FB09231E841E828A
:103C940094F90E30B3F1FF3F2DD0627822496823A6
:103CA40003FB09131A72E2785A7262799A7294F9D0
:103CB4000E201D49682303FB09139A731B6B002212
:103CC400A3FB051313BB1AB3174A682303FB092389
:103CD40000229A62144B682202FB0939D9F8283071
:103CE400C9F83030012389F81230002389F81330E1
:103CF4005046BDE8F087A2780B49682303FB0913FB
:103D04001A7222795A72A2799A72D0E70122DAE7FA
:103D1400236905FB03F5044A682303FB09239D6219
:103D2400D8E74FF0000AE3E7AC10002010B59AB0D2
:103D34000446FCF713FB034610B918461AB010BD2D
:103D440069462046FFF7DEFD00238DF815308DF817
:103D540016308DF817308DF818308DF819308DF82D
:103D64001A3005A92046FFF729FF0346E5E70000BE
:103D74002DE9F041244D2D781D2D3CD891423CD89D
:103D84001F4616460D460446FCF798FB002837D01C
:103D940031462046FCF792FB002833D01A4A92F8A9
:103DA40000801A48682303FB08F3C118C4544D80EB
:103DB4008E8008F10103137006994046FFF7FEFE5A
:103DC40028B9124A682303FB082300229A740E4B75
:103DD400187801383946C0B2FFF714FD30B90B4BDF
:103DE400682202FB0838002388F84030064B187814
:103DF4000138C0B202E01F2000E01F20BDE8F081BE
:103E04001F20FBE71F20F9E7D8000020AC1000209A
:103E140010B5044600F0CEFF013401386FF00043C2
:103E2400B3FBF4F3B0FBF3F010BD00002DE9F04F49
:103E34008BB0044601238DF82730FCF78FFA10B9B4
:103E44000BB0BDE8F08F2646B34A682303FB04F3A6
:103E540003F1080102EB010BD118B1F80280B1F8AB
:103E64000490D05C0790B1F84C70B1F84A00074454
:103E7400BFB2B1F848502F44BFB2B1F852100D444C
:103E8400ADB203F138001044FCF70AFA00284CD014
:103E9400A14A682303FB042393F84400022810D0AA
:103EA40048B301284ED0FCF7F3F90028C8D09A4A49
:103EB400682303FB04239B7C002B67D14FF0000A8B
:103EC40062E04FF0680A0AFB042ABAF852109AF921
:103ED40034000DF1270300934B46424600FB01F1E9
:103EE400BAF83600FCF75DFCAAF836009DF82730D6
:103EF4008AF8343012E0884B4FF0680A0AFB043A1F
:103F0400BAF852109AF934004B46424600FB01F1CC
:103F1400BAF83600FCF766FCAAF836007E4A682335
:103F240003FB0423B3F854201A877B4A682303FB5A
:103F3400042393F84400FCF7ABF9002840F0EE802A
:103F440000249FE1744A682303FB0423D88EB3F84A
:103F5400522093F9341089B201FB0202DA86DDE7BC
:103F64006D4A682303FB06235A6E32F81A1093F83D
:103F74005C3001930022009213462046FCF738FB84
:103F84000AF1010A1FFA8AFAAA45E9D3624A6823A8
:103F940003FB0423DB8EAB4208D3682303FB042317
:103FA40093F84430042B0BD0052B17D05A4A6823BE
:103FB40003FB0423DB8EAB42B0D24FF0000A5DE07A
:103FC4004FF0680A0AFB042A6A000021DAF8640048
:103FD40000F034FE0023AAF83630E7E74E4A68239F
:103FE40003FB0423DD86012283F84120DEE7A9EBED
:103FF4000800FFF70DFF80B2474A682303FB06233E
:104004005A6EDB8E013022F8130050E0682303FB64
:1040140006230122DA8653E0072B18D03E4A682390
:1040240003FB0423DD863C4A682303FB042393F843
:104034004430072B66D0384A682303FB042300224C
:1040440083F8602083F8612083F8622066E76A1EA3
:104054003149682303FB0413DA86FF2283F83420F2
:10406400E1E73BB92C4A682303FB062393F8443069
:10407400072B40D00AF1010A1FFA8AFA264A68235C
:1040840003FB0623B3F852305345CCD9224A6823A4
:1040940003FB062393F93430B3F1FF3FA7D1682320
:1040A40003FB06235A6EDB8E002122F813101A4AF2
:1040B400682303FB06235B6B23F47F43FF2BA5D00C
:1040C400154B682202FB0632D38E92F9341089B262
:1040D4000B449BB2D386AB42C3D30F4A682303FB82
:1040E400062393F84430062B96D1682303FB06235A
:1040F4000022DA86BEE7682303FB0623012283F845
:104104003420B7E7682303FB042393F93430B3F175
:10411400FF3F90D102E700BFAC100020984B682706
:1041240007FB043797F9348097F84520B7F8549083
:104134000092002392FBF9F2414697F86000FCF7E5
:104144005FFB87F8600097F846200092002392FBFB
:10415400F9F2414697F86100FCF752FB87F86100D9
:1041640097F847200092002392FBF9F2414697F812
:104174006200FCF745FB87F86200FF8EBD4229D838
:104184004FF000084AE06F1EBFB27D4B682202FB6D
:104194000632536E33F8171092F8623092F85C00CE
:1041A4000190009392F8613092F860202046FCF769
:1041B4001FFA08F101081FFA88F8714A682303FB03
:1041C4000623B3F852304345DAD9002FDBD0013F40
:1041D400BFB2DAE74FF00008EFE76F1EBFB2684ADC
:1041E400682303FB06235B6E33F8171000293FF4A2
:1041F40027AE1346682202FB063292F8473092F843
:104204005C000190009392F8463092F845202046D5
:10421400FCF7EEF908F101081FFA88F8584A6823F8
:1042240003FB0623B3F8483043457FF609AE002F5D
:10423400D3D0013FBFB2D2E7682000FB062090F93B
:10424400341001FB04F1002300934B4642464942DB
:10425400C08EFCF7A6FA05B20EE0494B682000FBBD
:10426400063090F9341001FB04F14B4642464942B2
:10427400C08EFCF7B7FA05B2454501DB4D4559DD63
:104284000134A4B2BC42BFF4DBAD3D4A682303FB56
:10429400062393F84430022BCED0002BDDD0012B23
:1042A4007FF4CEAD364A682303FB0623DD8E93F9F3
:1042B400343003FB14552DB27A1E9442DCDB012BFF
:1042C4001DD0B3F1FF3FD7D14545D5DA2C4868233B
:1042D40003FB06F3C218A2F83690383318440430AE
:1042E400FBF7EAFF0028C7D0254A682303FB06230F
:1042F400012283F84120002283F84020BCE74D4589
:10430400DFDD1F48682303FB06F3C218A2F83680DA
:10431400383318440430FBF7CFFF0028ACD0184AD8
:10432400682303FB0623012283F84120002283F83B
:104334004020A1E704F1010A1FFA8AFA012251463A
:104344005846FBF7C4FF0590022251465846FBF736
:10435400BEFF0690032251465846FBF7B8FF0123DF
:104364000293074A682303FB062393F85C30019306
:104374000090069B059AA9B20798FCF7FDF87FE721
:10438400AC1000202DE9F04186B00023059304937E
:10439400404B1A68404B1B689A4202D806B0BDE8ED
:1043A400F081FF20FCF7CAF80028F7D1394B1B68CD
:1043B4000533394A1360394B1B78394A157805EBB4
:1043C4009305EDB20135EDB232E0682303FB04F34B
:1043D400103308461844FBF763FF88B9314A682351
:1043E40003FB04235A7A997A93F82C0002900191E2
:1043F40000921B7A3A4631464046FCF797F930E082
:10440400274B1878FCF710FA264A682303FB042389
:104414001A8C1A82E2E7224B1878FFF707FDFCF7A3
:10442400EDFB059BC01A04901D4A137801331370E9
:104434001B4B1C782046FBF791FFD8B1AC4219D234
:10444400FCF7DCFB0590164B1C781649682303FB2C
:1044540004F3CA185688978811F80380937C002BBC
:10446400B3D1104B682202FB043494F84030002B83
:10447400D5D0D0E70C4A13780133DBB21370032B89
:104484008CD9FF20FEF7EEF80023074A1370044A84
:10449400137083E7EC1C0020F0000020D8000020FB
:1044A400D9000020AC100020D000002008B5144B27
:1044B4001B7813BB124B01221A70124B1B789342C8
:1044C40015D05AB282B1022B14D00E4A137801339C
:1044D400DBB21370022B02D9134600221A70084B68
:1044E40000221A70012008BDFFF74CFFEDE7FEF72C
:1044F400B3FDEAE7FEF75CFEE7E70020F3E700BF61
:10450400E1000020F01C002070B58AB00D46072899
:1045140010D008281ED0062820D800EBC000830045
:1045240001AE144C1C440FCC0FC60FCC0FC623682D
:10453400336013E00620FFF76BFC00EBC000830040
:1045440001AE0C4C1C440FCC0FC60FCC0FC6236815
:10455400336003E00023029304930693029B9B08B9
:104564006B70049B9B08AB70069B9B08EB700AB0B6
:1045740070BD00BFBC50000870B58AB00C46072857
:1045840010D008281ED0062820D800EBC0008300D5
:1045940001AE184D1D440FCD0FC60FCD0FC62B68AD
:1045A400336013E00620FFF733FC00EBC000830008
:1045B40001AE104D1D440FCD0FC60FCD0FC62B6895
:1045C400336003E00023029304930693029BC3F336
:1045D4008703A3709B086370049BC3F38703237151
:1045E4009B08E370069BC3F38703A3719B08637165
:1045F4000AB070BDBC50000830B58FB00D461446EB
:1046040007A9FFF7B9FF69462846FFF7B5FF9DF8EC
:104614001E3063709DF80230A3709DF82030E37063
:104624009DF8043023719DF8223063719DF80630A3
:10463400A3710FB030BD30B59BB00C461546FFF7E3
:104644009BFF69462846FFF75DF99DF808306370C3
:104654009DF80930E3709DF80A30637101232361EA
:10466400A3731BB030BD00002DE9804891B0FCF766
:104674004DFBFDF71DFCFEF74DFDFEF7B1FDFEF70A
:104684007DFDFEF7C3FE0120FBF7E8FF4FF4FA714E
:104694000120FEF75FFF4FF4FA710220FEF75AFF84
:1046A400FF20FDF7DFFF09A90320FFF72DFF0024FA
:1046B4000E94ADF82C400526ADF82A604FF0010A9F
:1046C400ADF828A006278DF824704B23ADF83430BC
:1046D400ADF832608DF830A0ADF82EA08DF83C60B6
:1046E40002AD29462046FFF747FF069402238DF8C2
:1046F4000830FF238DF816304FF42F7304938DF890
:104704002040009509AB1E2251465046FFF730FB6E
:10471400C14B187029463846FFF72EFF09A93046C9
:10472400FFF7F2FE07238DF824303223ADF828304A
:104734000423ADF8323040F6B833ADF83430009588
:1047440009AB3C221F215046FFF712FBB34B1870F4
:10475400009509AB4FF48C723C215046FFF708FBDF
:104764002646A3462546A046574652E00223ADF806
:1047740034304FF42F73049358E0012709E00024E8
:1047840002A90620FFF7F8FE09A90220FFF7BCFEE4
:104794000127012E40F246810D2C00F06A814FF072
:1047A40000080220FEF742FC002840F07881022035
:1047B400FEF732FC002840F08A810220FEF740FC1C
:1047C400814620B1964B1B68AB4200F284810320E2
:1047D400FEF722FC8146C8B1BAF1000F00F08581D2
:1047E400DFF8349299F80000FFF7A0FA99F8000076
:1047F400FFF79CF8DFF8249299F80000FFF796FA87
:1048040099F80000FFF792F84FF0000A0C2C00F022
:104814008681FFF74BFE0120FEF7FEFB20B9B8F1BD
:10482400000F01D1002EBCD00C2C9FD01EB9013436
:10483400E4B20E2CA3D80F2C9FD801A353F824F074
:104844008547000885480008CD4800081549000838
:104854005D490008714900087D490008894900083C
:1048640095490008A9490008B7490008D749000834
:10487400CB4900087F470008EB490008154A0008A7
:104884001EB1022E0AD0012783E7634B1A7802A9CE
:104894000120FFF7D0FE012637467AE75E4B1878F1
:1048A400FBF7CEFD074608B9012772E700260696F6
:1048B400FF238DF8163002A90120FFF75DFE09A938
:1048C4000220FFF721FE64E71EB1022E0AD0012761
:1048D4005FE7514B1A7802A90420FFF7ACFE0126CA
:1048E400374656E74C4B1878FBF7AAFD074608B93C
:1048F40001274EE700260696FF238DF8163002A9FD
:104904000420FFF739FE09A90220FFF7FDFD40E767
:104914001EB1022E0AD001273BE73F4B1A7802A9A9
:104924000220FFF788FE0126374632E73A4B187813
:10493400FBF786FD074608B901272AE700260696F5
:10494400FF238DF8163002A90220FFF715FE09A9EE
:104954003046FFF7D9FD1CE702A90220FFF70CFE41
:1049640009A90520FFF7D0FD012712E702A90120BC
:10497400FFF702FE00270CE702A90220FFF7FCFD67
:10498400002706E702A90420FFF7F6FD002700E749
:1049940002AA05210220FFF72FFE4FF4AF63049310
:1049A4000027F6E602AA00210120FFF725FE0027D2
:1049B400EFE602AA04210120FFF71EFE4FF4AF63C5
:1049C40004930027E5E60123ADF834304FF49673E1
:1049D400049302A90720FFF7CFFD09A90720FFF7D9
:1049E40093FD0127D5E600238DF809308DF80A30B0
:1049F4008DF80B308DF80C308DF80D308DF80E30AD
:104A04008DF825308DF826308DF827300127C0E643
:104A140001270024BDE600BFAA100020A910002031
:104A2400EC1C0020DFF8648102A998F80000FFF76D
:104A3400C5F809A998F80000FEF7E4FE394698F88D
:104A44000000FBF71DFDDFF8488102A998F800007B
:104A5400FFF7B4F809A998F80000FEF7D3FE394629
:104A640098F80000FBF70CFD012E7FF495AE0226AA
:104A740092E6DFF81C81002198F80000FBF700FDA6
:104A8400002198F80000FBF7EBFC3F4B1A8898F8DC
:104A940000100120FEF752FC4FF0000881E61F20B1
:104AA400FBF7DCFD01221146384B1878FBF760FC5C
:104AB40001221146364B1878FBF75AFCFF20FDF70C
:104AC400D1FD344B1D6805F51C5510356FE60120EA
:104AD400FBF7C4FD71E60120FBF7C0FD2D4B1D68FB
:104AE40005F51C551035C84671E6DFF8A0A002A9EB
:104AF4009AF80000FFF762F809A99AF80000FEF797
:104B040081FEDFF88CA002A99AF80000FFF756F89E
:104B140009A99AF80000FEF775FECA4676E61D4B11
:104B24001B685B457FF675AE1A4B1B6803F5967BD5
:104B340002A90720FFF720FD09A90720FFF7E4FCDD
:104B4400DFF8489002A999F80000FFF737F809A99F
:104B540099F80000FEF756FE394699F80000FBF775
:104B64008FFCDFF82C9002A999F80000FFF726F8D3
:104B740009A999F80000FEF745FE394699F80000A6
:104B8400FBF77EFC45E600BF34000020AA1000209D
:104B9400A9100020EC1C002008B503460C4A12683A
:104BA4005AB10B4A1068033323F003030344094A40
:104BB400934206D8064A136008BD054A06491160A7
:104BC400EFE700F017F80C2303604FF0FF30F3E732
:104BD400DC000020004C00205C1D00200028B8BF31
:104BE40040427047024B0A460146186800F02EB84E
:104BF4003C000020014B1868704700BF3C000020B7
:104C0400024B0146186800F07BB800BF3C0000204E
:104C1400024B0146186800F027B800BF3C00002092
:104C24000A44914200F1FF3300D1704710B511F8E6
:104C3400014B914203F8014FF9D110BD03460244E0
:104C4400934200D1704703F8011BF9E738B502FB22
:104C540001F4214600F054F8054618B1224600211B
:104C6400FFF7ECFF284638BD38B50546002943D088
:104C740051F8043C0C1F002BB8BFE41800F0DEF818
:104C84001E4A1368104633B9636014602846BDE8B1
:104C9400384000F0D9B8A3420BD921686218934276
:104CA40001BF1A685B685218226063600460EDE714
:104CB40013465A680AB1A242FAD919685818A04290
:104CC4000BD120680144581882421960DED1106863
:104CD4005268014419605A60D8E702D90C232B604A
:104CE400D4E7206821188A4201BF11685268091864
:104CF400216062605C60C9E738BD00BF401D0020D0
:104D0400F8B5CD1C25F0030508350C2D38BF0C254E
:104D1400002D064601DBA94203D90C233360002091
:104D2400F8BD00F08BF821490A6814469CB9204F5D
:104D34003B6823B92146304600F070F838602946B4
:104D4400304600F06BF8431C23D10C23304633600B
:104D540000F07AF8E3E723685B1B17D40B2B03D925
:104D640023601C44256004E06368A2420CBF0B600E
:104D74005360304600F068F804F10B00231D20F066
:104D84000700C21ACCD01B1AA350C9E72246646894
:104D9400CCE7C41C24F00304A042E3D0211A30461B
:104DA40000F03CF80130DDD1CFE700BF401D00200A
:104DB400441D0020134B10B51C68A36B7BB918204D
:104DC400FFF71EFF104A114BA063C0E90023104BEC
:104DD400012283600B2383810023C0E90423A16B98
:104DE4000C480A694B6950430B4C04FB0300A2FBBB
:104DF40004345A1C044444F10000C1E9042020F0A6
:104E0400004010BD3C0000200E33CDAB34126DE6E3
:104E1400ECDE05002DF451582D7F954C38B5002358
:104E2400054C054608462360FFF7B6FE431C02D135
:104E3400236803B12B6038BD481D0020014800F0F1
:104E440009B800BF501D0020014800F004B800BF9D
:104E5400501D0020704770472E2E2F6C65645365DB
:104E6400676D656E742F73746D33327574696C730A
:104E74002F73797374656D2F7372632F73746D332D
:104E84003266312D7374647065726970682F73743F
:104E94006D3332663130785F6164632E63000000E5
:104EA4002E2E2F6C65645365676D656E742F737455
:104EB4006D33327574696C732F73797374656D2FE8
:104EC4007372632F73746D333266312D737464702F
:104ED40065726970682F73746D3332663130785F30
:104EE400646D612E630000002E2E2F6C6564536583
:104EF400676D656E742F73746D33327574696C737A
:104F04002F73797374656D2F7372632F73746D339C
:104F14003266312D7374647065726970682F7374AE
:104F24006D3332663130785F6770696F2E630000CD
:104F34002E2E2F6C65645365676D656E742F7374C4
:104F44006D33327574696C732F73797374656D2F57
:104F54007372632F73746D333266312D737464709E
:104F640065726970682F6D6973632E6300000000B9
:104F74002E2E2F6C65645365676D656E742F737484
:104F84006D33327574696C732F73797374656D2F17
:104F94007372632F73746D333266312D737464705E
:104FA40065726970682F73746D3332663130785F5F
:104FB4007263632E630000002E2E2F6C65645365AC
:104FC400676D656E742F73746D33327574696C73A9
:104FD4002F73797374656D2F7372632F73746D33CC
:104FE4003266312D7374647065726970682F7374DE
:104FF4006D3332663130785F7370692E6300000060
:105004002E2E2F6C65645365676D656E742F7374F3
:105014006D33327574696C732F73797374656D2F86
:105024007372632F73746D333266312D73746470CD
:1050340065726970682F73746D3332663130785FCE
:1050440074696D2E6300000048656C6C6F210A0062
:10505400444D412074657374207472616E73666587
:10506400720A00002E2E2F6C65645365676D656EA1
:10507400742F73746D33327574696C732F73797311
:1050840074656D2F7372632F73746D333266312DB3
:105094007374647065726970682F73746D333266EB
:1050A4003130785F75736172742E6300E40CAC0D5B
:1050B400740E3C0F0410000000000000F401000016
:1050C400000000000000000000000000F4010000E7
:1050D400E8030000000000000100000000000000E0
:1050E4000000000000000000F401000000000000C7
:1050F400F4010000E80300000000000001000000CB
:1051040000000000580200000000000090010000B0
:105114000000000000000000E803000000000000A0
:105124000100000000000000F40100000000000085
:10513400F401000000000000F4010000E803000096
:10514400000000000100000000000000F401000065
:10515400000000000000000000000000000000004B
:10516400E80300000000000001000000000000004F
:105174000000000000000000F40100000000000036
:1051840000000000E803000000000000010000002F
:10519400000000000000000000000000000000000B
:1051A40000000000F4010000E8030000000000001B
:0451B40001000000F6
:1051B80078563412020406080000000000000000BF
:1051C80001020304060708090000000001020304A5
:1051D800010203040607080900A24A04E4000020AB
:1051E800000000009700FFFF48000000400000207A
:1051F80000000000000000000000000000000000A7
:105208000000000000000000000000000000000096
:105218000000000000000000000000000000000086
:105228000000000000000000000000000000000076
:105238000000000000000000000000000000000066
:105248000000000000000000000000000000000056
:0452580032547698BE
:040000050800016D81
:00000001FF
