:020000040800F2
:1000000000500020590200085D0100084901000865
:1000100045010008310100081D0100080000000032
:1000200000000000000000000000000019010008AE
:10003000150100080000000011010008450D00082E
:100040000D0100080D0100080D0100080D01000858
:100050000D0100080D0100080D0100080D01000848
:100060000D0100080D0100080D0100080D01000838
:100070000D010008211F000875300008DD1E000872
:100080000D010008991E0008652C00080D010008EC
:100090000D0100080D0100080D0100080D01000808
:1000A0000D0100080D0100080D0100080D010008F8
:1000B0000D0100080D0100080D0100080D010008E8
:1000C0000D0100080D0100080D0100080D010008D8
:1000D0000D0100089D3200080D0100080D01000807
:1000E0000D0100080D0100080D01000800000000CE
:1000F0000000000000000000000000000000000000
:1001000000000000000000005FF808F100BEFEE7FC
:1001100000BEFEE700BEFEE700BEFEE71EF0040FD5
:100120000CBFEFF30880EFF3098071464C4A10478B
:100130001EF0040F0CBFEFF30880EFF30980714647
:10014000484A104700BEFEE71EF0040F0CBFEFF355
:100150000880EFF309807146434A104700BEFEE76E
:1001600000BEFEE700BEFEE700BEFEE700B583B0BE
:1001700000F0CCFE284B294A1360294A1360294B12
:10018000294A03E052F8041B43F8041B27498B4219
:10019000F8D3224B1A68264B9A4200D0FEE7204B38
:1001A0001A68244B9A42F9D11B4B234A1360234A05
:1001B0001360234B02E0002243F8042B214A9342B0
:1001C000F9D31D4B1B6813B91C4B1B6803B1FEE729
:1001D00000F098FE694601A800F0A4FE1A4C1B4BE3
:1001E000E41AA410002504E0184B53F82530984772
:1001F0000135AC42F8DC164C164BE41AA41000256D
:1002000004E0144B53F8253098470135AC42F8DC34
:100210000099019803F084FEBABADECA00000020FB
:10022000A0000020000000204C500008A400002086
:100230007856341232547698A4000020641D0020B1
:10024000A4000020681D0020940200089402000809
:10025000940200089402000808B5FFF787FF000029
:0C02600061010008650100086901000848
:10026C004C50000800000020A40000204C50000856
:10027C000000000000000000A4000020681D002009
:08028C0000000000000000006A
:100294000438C0B2032801D80120704700207047F9
:1002A40003882BB1013B9BB223B10380002070472C
:1002B4000020704701207047036823B1013B04D03C
:1002C400036000207047002070470120704770B41D
:1002D400B0F842508D4206D2B0F840302B449942D7
:1002E40014DC012400E00024022A15D0032A17D0CC
:1002F400012A0DD000221346012C04D066B29EB10F
:10030400022C1AD00023184670BC70470224EBE775
:1003140090F83D300278EFE790F83E304278EBE712
:1003240090F83F308278E7E79B1A03FB01F393FBD5
:10033400F5F3DBB21344DBB2E5E7491BB0F8404008
:10034400091B01399A1A02FB01F2B0F8441092FB1E
:10035400F1F2D2B29B1ADBB2D5E70000054B1B7851
:10036400834203D8FF2803D0002070470120704740
:1003740001207047D80000202DE9F0410546884649
:100384001646FFF7EBFF0746002845D0FF2D46D061
:10039400B8F1000F1BD0344A682303FB052393F9FB
:1003A4002230012B48D0304A682303FB05239A7D71
:1003B4001A721A7E5A729A7E9A72FF229A732A4A83
:1003C400682303FB05230022DA749A6A1A631EB3B6
:1003D400254A682303FB0523002283F8412093F96F
:1003E4005030012B34D0204A682303FB05239A881C
:1003F400DA86FF2283F834201B4A682303FB052393
:1004040093F84400FFF744FF074658B3164B68229D
:1004140002FB05350023EB863846BDE8F081002455
:10042400124B1B78A342B3D9324641462046FFF70C
:10043400A3FF0134E4B2F3E7682303FB05235A7DE9
:100444001A72DA7D5A725A7E9A7201229A73B6E748
:10045400054A682303FB05235A88DA86012283F8B8
:100464003420C9E73746D7E7A8100020D800002079
:1004740010B50446FFF772FF034620B1034B682210
:1004840002FB0434E37C184610BD00BFA810002012
:10049400F8B505460E46FFF761FF074630B1FF2D5C
:1004A40006D0094B682202FB0535AE743846F8BD08
:1004B4000024064B1B78A342F3D931462046FFF7AC
:1004C400E7FF0134E4B2F4E7A8100020D8000020CC
:1004D400F8B505460E46FFF741FF074638B1FF2D34
:1004E40007D00A4B682202FB053585F84060384680
:1004F400F8BD0024064B1B78A342F2D931462046AE
:10050400FFF7E6FF0134E4B2F4E700BFA8100020CF
:10051400D800002000207047FF2805D00138C0B261
:10052400012803D80120704701207047002070473C
:1005340038B504460D46FFF7EFFF034630B1013CE2
:10054400054A32F81420AA4202D31DB1184638BD18
:100554000023FBE70023F9E7D4000020F8B50446A4
:100564000D4616461F46FFF7E3FFE0B10146013C86
:10057400E4B24FF4FB7303FB04520C4B03EB820312
:10058400DB78B34210D1094B03EB82039B78BB4267
:100594000AD1064D05EB820462789DF818309A4220
:1005A40002D1002100E001210846F8BDF40000203A
:1005B400FF280BD010B50446FFF7AEFF024618B172
:1005C400601E094B1A5CD2B2104610BD0023012BE9
:1005D40007D8054AD15C01F0FF0219B90133DBB237
:1005E400F5E7002210467047B00000202DE9F043E3
:1005F40085B081460D4690461F469DF830609DF8B3
:1006040034409DF838302BB900963B46FFF7A6FFDF
:1006140000283ED103AA29464846FFF77BFFC0B114
:100624009DF80C3003FB08F8B8F1000F34DBC8F375
:10063400C7189DF80D3003FB07F7002F2FDBC7F316
:10064400C7179DF80E3003FB06F6002E29DBC6F310
:10065400C71609F1FF30C0B24FF4FB7303FB00521D
:10066400114B03EB820383F803809F705E70631E5B
:10067400DBB21E2B01D90D4B1C784FF4FB7303FB2B
:10068400005564F01F04084B03F82540084B012271
:100694001A5405B0BDE8F08308F17F08C7E77F3737
:1006A400CDE77F36D3E700BFF400002036000020FA
:1006B400E80000202DE9F04184B006460D461746B7
:1006C4009846FFF74BFE044618B30DB3134B68224C
:1006D40002FB0632938852889B1A01339D4201DD46
:1006E400002416E0511989B20139682303FB06F688
:1006F400012302939DF82C3001939DF82830009338
:1007040043463A4689B20548805DFFF76FFF00E033
:100714000024204604B0BDE8F08100BFA8100020EA
:100724001F2800D91F2060F01F00014B187070476C
:10073400360000202DE9F04184B00446884617466F
:100744001E469DF828509DF82C3023B90095334659
:10075400FFF704FF80BB03AA41462046FFF7DAFEF9
:10076400B8B19DF80C3003FB07F7002F27DBC7F364
:10077400C7179DF80D3003FB06F6002E21DBC6F3E8
:10078400C7169DF80E3003FB05F5002D1BDBC5F3E2
:10079400C715013CE4B20D4A4FF4FB7101FB04811F
:1007A40002EB8103DF709E705D70094B1B7802F8C9
:1007B4002130084B01221A5504B0BDE8F0817F377F
:1007C400D5E77F36DBE77F35E1E700BFF4000020A3
:1007D40036000020E80000202DE9F04182B00646F2
:1007E4000D4617469846FFF7B9FD044600B3F5B128
:1007F400114B682202FB0632938852889B1A0133FC
:100804009D4201DD002413E0511989B201396823A6
:1008140003FB06F6012301939DF820300093434621
:100824003A4689B20448805DFFF784FF00E0002463
:10083400204602B0BDE8F081A81000202DE9F04761
:1008440084B082460C46174698469DF830909DF831
:1008540034609DF83850FFF76BFE20B1394650469E
:10086400FFF766FE80B904B0BDE8F0870123029368
:10087400019500964B46424621465046FFF7B6FE88
:100884000134A4B2A742EED36B1EDBB21E2BEDD90A
:100894000123019300964B46424621465046FFF7FA
:1008A40049FFEDE7002801DB012070474FF0FF30DE
:1008B40070472DE9F04180460C4616461D46069FBA
:1008C4000846FFF7EFFF444407E0AC4203DDC4EB06
:1008D40045044FF0FF30B44208DBAC42F5DCB442CF
:1008E400F3DB07B138702046BDE8F081C4EB460461
:1008F4000120F2E710B49C1A0844904203DA204421
:100904000130FAE7001B5A1C8242FBDB10BC704723
:10091400904202D2B1F1FF3F07D002FB0100009ADE
:10092400904204D8984204D370470020704700983E
:1009340070471846704700002DE9F04782B004461E
:10094400FFF70CFD002800F0B881BE4A682303FBC2
:100954000423997E5A7E914200F0A8800326B94868
:10096400682303FB04039D7C002D00F0A68103464D
:10097400682000FB0430437D90F816C0634500F204
:10098400A1800027DFF8BCE2682000FB04E090F8B7
:1009940017E0007E864500F297804FF000099142EF
:1009A400C0F094804FF0000A002F00F09180A54A17
:1009B4004FF0680808FB042898F80E104942009389
:1009C400634698F80B2049B298F80800FFF7A0FF97
:1009D40088F80800B9F1000F00F08C80994B4FF0B3
:1009E400680808FB043898F80E10494298F8173044
:1009F400009398F8183098F80C2049B298F8090038
:100A0400FFF786FF88F80900BAF1000F00F087802D
:100A14008C4B4FF0680808FB043898F80E104942D4
:100A240098F81930009398F81A3098F80D2049B2C4
:100A340098F80A00FFF76CFF88F80A00032E00F00C
:100A44008380022E00F0AE807E4A682303FB0423D9
:100A54009A7D5B7D9A4200F0F7803FB17948682126
:100A640001FB0401097A8A4280F007813FB9754885
:100A7400682101FB0401097A8A4240F201813FB1F5
:100A84007049682202FB0412127A934240F2FB80FE
:100A9400002F40F0FB806B49682202FB0412127A9B
:100AA400934280F0F780BA463D46D0E0654868231B
:100AB40003FB0403187EDB7D984201D002264EE737
:100AC40001264CE72F465DE7A94668E7AA466BE78F
:100AD4005C4A4FF0680808FB0428CDF800C098F879
:100AE4000B2098F90E1098F80800FFF711FF88F80A
:100AF40008006FE7534B4FF0680808FB043898F878
:100B04001830009398F8173098F80C2098F90E10C4
:100B140098F80900FFF7FCFE88F8090074E7494BD0
:100B24004FF0680808FB043898F81A30009398F8D6
:100B3400193098F80D2098F90E1098F80A00FFF76C
:100B4400E7FE88F80A0079E7BAF1000F07D03D4ABA
:100B5400682303FB04239A7A9B7E9A4251D9BAF103
:100B6400000F07D1374A682303FB04239A7A9B7E3C
:100B74009A4248D2BAF1000F07D0324A682303FBE5
:100B840004239A7A5B7E9A4241D2BAF1000F41D192
:100B94002C4A682303FB04239A7A5B7E9A423DD94C
:100BA400554654E0B9F1000F07D0264A682303FBE9
:100BB40004235A7A1B7E9A4233D9B9F1000F07D124
:100BC400204A682303FB04235A7A1B7E9A422BD2C1
:100BD400B9F1000F07D01B4A682303FB04235A7A98
:100BE400DB7D9A4223D2B9F1000F23D1154A682341
:100BF40003FB04235A7ADB7D9A421FD9CA464D4629
:100C040025E0002523E02B4655469A461FE04FF089
:100C1400000A1CE04FF0000A554618E04FF0000AA5
:100C240015E0CA46002512E0AA464D460FE04FF0F3
:100C3400000A0CE04FF0000A554608E04FF0000AA5
:100C440005E000BFA81000204FF0000A55462E4AC8
:100C5400682303FB04231B6BFBB92B4A682303FBA8
:100C640004231B7D012B35D9022B26D145B36823E0
:100C740003FB04240123A3731FE0BA460025E6E71F
:100C8400AA463D46E3E74FF0000AE0E74FF0000ACA
:100C94005546DCE74FF0000AD9E7682303FB04F369
:100CA400303310461844FFF707FB0028D5D0164A06
:100CB400682303FB04240123E37402B0BDE8F08736
:100CC400BAF1000FF9D0104A682303FB0424FF2370
:100CD400A373F2E755B10C4A682303FB0424A37DF4
:100CE4002372237E6372A37EA372E6E7BAF1000F38
:100CF400E3D0054B682202FB0434637D2372E37D59
:100D04006372637EA372D8E7A810002010B472B691
:100D1400084B9C68084B186862B64FF47A72074B0C
:100D2400196802FB01F31B1BB3FBF1F302FB003058
:100D340010BC704710E000E0F81C002038000020D0
:100D4400024A136801331360704700BFF81C002087
:100D540082B00023019300932C4A136843F4803338
:100D640013602A4B1B6803F400330093019B013387
:100D74000193009B1BB9019BB3F5A06FF1D1234BE9
:100D84001B6813F4003F06D001230093009B012B42
:100D940004D002B0704700230093F7E71C4B1A6895
:100DA40042F010021A601A6822F003021A601A68EC
:100DB40042F002021A60A3F580535A685A605A68D6
:100DC4005A605A6842F480625A605A6822F47C126B
:100DD4005A605A6842F4E8125A601A6842F0807203
:100DE4001A600A4B1B6813F0007FFAD0074B5A684D
:100DF40022F003025A605A6842F002025A60034B1E
:100E04005B6803F00C03082BF9D1C2E70010024021
:100E14000020024008B5FFF79BFF08BD1F4B5B682D
:100E240003F00C03042B15D0082B17D01BB11C4B5B
:100E34001C4A1A6002E01A4B1A4A1A60174B5B6884
:100E4400C3F30313184AD35CDAB215490B68D340D1
:100E54000B607047124B134A1A60EFE70F4A53684E
:100E64005268C3F38343023312F4803F05D10F4A1F
:100E740002FB03F30A4A1360E0E7084A526812F4DB
:100E8400003F05D0094A02FB03F3054A1360D5E786
:100E9400044A02FB03F3024A1360CFE70010024046
:100EA4002800002000127A000800002000093D00FC
:100EB40008B5104B1A6842F001021A6059680E4ACC
:100EC4000A405A601A6822F0847222F480321A604E
:100ED4001A6822F480221A605A6822F4FE025A60C8
:100EE4004FF41F029A60FFF795FF044B4FF0006226
:100EF4009A6008BD001002400000FFF800ED00E019
:100F040008B5FFF78BFF08BD08B5FFF7D1FF024A0C
:100F1400024B9A6008BD00BF0000000800ED00E02D
:100F240001230360014B0B60704700BF2C000020BD
:100F3400FEE708B50120FFF7FBFF08B5FFF7F9FF4F
:100F440038B505460C46274B984214D0A3F5744394
:100F5400984210D003F5806398420CD003F5806367
:100F6400984208D003F58063984204D040F2863159
:100F74001D48FFF7E2FF012C13D0802C11D0402C28
:100F84000FD0202C0DD0102C0BD0B4F5807F08D0BE
:100F9400B4F5007F05D0082C03D0042C01D0022C1A
:100FA40007D1B4F5007F0AD02B881C4218D0012049
:100FB40038BD40F287310C48FFF7BFFFF1E7094B1A
:100FC4009D42F1D0A3F574439D42EDD003F58063B7
:100FD4009D42E9D040F28B310348FFF7AEFFE3E7CF
:100FE4000020E5E700380140B44E000838B5054656
:100FF4000C46124B984214D0A3F57443984210D077
:1010040003F5806398420CD003F58063984208D0BE
:1010140003F58063984204D040F25F210848FFF74B
:101024008CFFB4F5007F03D2C4F30804AC8038BD50
:101034004FF418710248FFF780FFF5E700380140CC
:10104400B44E000838B504460D46124B98420CD0F5
:10105400A3F57843984208D003F58063984204D0FE
:101064004FF41D710C48FFF768FF012D05D855B1E9
:10107400A38843F00403A38038BD40F275210648D9
:10108400FFF75BFFF3E7A3889BB223F004039BB253
:10109400A380F1E700300140504E000870B50446CB
:1010A4000D461646154B98420CD0A3F5784398424A
:1010B40008D003F58063984204D04FF408711048B7
:1010C400FFF73BFF012E0ED825F003039BB203B9B3
:1010D40025B940F222210A48FFF72FFF4EB1A38819
:1010E4001D43A58070BD40F221210548FFF725FF6F
:1010F400EAE7A38823EA0505A580F3E70030014069
:10110400504E000838B504460D46124B98420CD098
:10111400A3F57843984208D003F58063984204D03D
:1011240040F2B7110C48FFF708FF012D05D855B15F
:10113400238843F04003238038BD4FF4DC71064814
:10114400FFF7FBFEF3E723889BB223F040039BB237
:101154002380F1E700300140504E000838B50546C1
:101164000C464A4B98420BD0A3F57843984207D0DB
:1011740003F58063984203D0A3214548FFF7DDFEC1
:10118400238843B1B3F5806F05D0B3F5004F02D087
:10119400B3F5404F4CD16388B3F5827F01D0002B67
:1011A4004BD1A388B3F5006F01D0002B4AD1E3885B
:1011B4000BB1022B4BD12389012B4DD86389B3F595
:1011C400007F01D0002B4CD1A3896BB1082B0BD02D
:1011D400102B09D0182B07D0202B05D0282B03D097
:1011E400302B01D0382B41D1E3890BB1802B42D174
:1011F400238A002B44D02B8803F44152238861882E
:101204000B43A1880B43E1880B4321890B4361897C
:101214000B43A1890B43E1890B4313432B80AB8B15
:101224009BB223F400639BB2AB83238A2B8238BD29
:10123400A6211748FFF781FEADE7A7211448FFF761
:101244007CFEAEE7A8211248FFF777FEAFE7A9219D
:101254000F48FFF772FEAEE7AA210D48FFF76DFEB7
:10126400ACE7AB210A48FFF768FEADE7AC210848BC
:10127400FFF763FEB8E7AD210548FFF75EFEB7E769
:10128400AE210348FFF759FEB5E700BF0030014027
:10129400504E000838B504460D460E4B184200D196
:1012A40020B940F269410C48FFF747FE012D05D8EB
:1012B40055B10A4AD3691C43D46138BD40F26A412E
:1012C4000548FFF73AFEF3E7044AD36923EA040426
:1012D400D461F2E700360181084E00080010024094
:1012E40038B504460D460E4B034003B920B940F20D
:1012F4004A410C48FFF721FE012D05D855B10A4A91
:1013040093691C43946138BD40F24B410548FFF793
:1013140014FEF3E7044A936923EA04049461F2E7B0
:101324000200C0FF084E00080010024008B5014644
:101334000120FFF7D5FF08BD38B504460D460D4B17
:10134400984206D00C4B9C4208D00C4B9C420BD0CC
:1013540038BD4FF40070FFF7C3FFF3E729464FF49D
:101364008060FFF7BDFFF0E729464FF40040FFF728
:10137400B7FFEDE70024014000280140003C014094
:1013840038B504460D46164B98420CD0154B9C427A
:101394000ED0154B9C4211D0144B9C4214D0144BCC
:1013A4009C4217D038BD4FF48040FFF799FFEDE71A
:1013B40029464FF40030FFF76DFFEAE729464FF462
:1013C4008020FFF767FFE7E729464FF40020FFF787
:1013D40061FFE4E729464FF48010FFF75BFFE1E784
:1013E400003801400044004000480040004C0040E8
:1013F4000050004038B504460D460D4B984206D0C7
:101404000C4B9C4208D00C4B9C420BD038BD4FF483
:101414008050FFF765FFF3E729464FF48040FFF75C
:1014240039FFF0E729464FF40040FFF733FFEDE7BB
:101434000030014000380040003C004038B504460C
:101444000D46184B98420FD0174B9C4210D0174BA7
:101454009C4212D0164B9C4214D0164B9C4216D080
:10146400154B9C4218D038BD0420FFF739FFEBE739
:1014740029460820FFF734FFE9E729461020FFF743
:101484002FFFE7E729462020FFF72AFFE5E7294653
:101494004020FFF725FFE3E729468020FFF720FFE0
:1014A400E1E700BF00080140000C014000100140CA
:1014B4000014014000180140001C014038B50446E6
:1014C4000D4620F4AA6323F0070303B920B940F2C0
:1014D4002B410B48FFF731FD012D05D855B1094AC1
:1014E40053691C43546138BD40F22C410448FFF752
:1014F40024FDF3E7034A536923EA04045461F2E741
:10150400084E00080010024038B504460D46164B3C
:10151400984211D0143398420ED0143398420BD011
:101524001433984208D01433984205D014339842A7
:1015340002D01433984203D129460120FFF7BEFF9D
:101544000A4B9C420BD014339C4208D014339C4267
:1015540005D014339C4202D014339C4203D1294653
:101564000220FFF7ABFF38BD080002400804024028
:1015740010B4294B5B6803F00C03042B2BD0082B0D
:101584002CD013B1254B036001E0244B03602249A6
:101594004B68C3F30313224CE35CDAB20368D34011
:1015A40043604A68C2F30222A25CD2B223FA02F276
:1015B40082604A68C2F3C222A25CD2B2D340C36042
:1015C4004A68C2F3813217498A5CD2B2B3FBF2F3A0
:1015D400036110BC7047114B0360D8E70E4A53688F
:1015E4005268C3F38343023312F4803F04D10E4A9A
:1015F40002FB03F30360CAE7074A526812F4003F90
:1016040004D0094A02FB03F30360C0E7034A02FB68
:1016140003F30360BBE700BF0010024000127A002E
:10162400180000200400002000093D0000B587B028
:10163400FFF7F4FB01A8FFF79BFF019B0F4AA2FBF6
:1016440003239B09013BB3F1807F15D20C4A5360FD
:101654000C4BF02183F823100021916007201060C7
:1016640083F82310084B1B68084AB3FBF2F3084ABB
:10167400136007B05DF804FBFEE700BFD34D6210B2
:1016840010E000E000ED00E02800002040420F00E0
:101694003800002010B5044640B1B0F5804F05D0A5
:1016A400B0F5004F02D0B0F5404F06D1064A53685A
:1016B40023F440431C43546010BD40F202310348FC
:1016C400FFF73BFCF2E700BF00100240084E0008A1
:1016D40038B504460D46431E012B40F28980042888
:1016E40000F08680082800F08380644B98427FD005
:1016F400203398427CD0624B984279D08033984210
:1017040076D0604B984273D003F5807398426FD0C3
:1017140003F5807398426BD05B4B984268D003F515
:101724008063984264D0B0F5805F61D0B0F5EA1F61
:101734005ED0B0F5EB1F5BD0B0F5004F58D0534BE3
:10174400984255D00133984252D0023398424FD038
:10175400043398424CD00833984249D0B0F1201F4A
:1017640046D03033984243D0494B984240D003F599
:10177400807398423CD003F50073984238D0454BAF
:10178400984235D003F57063984231D0B0F5011F0B
:101794002ED0414B98422BD00133984228D00233AB
:1017A400984225D00433984222D0083398421FD05F
:1017B400103398421CD02033984219D040339842B9
:1017C40016D08033984213D003F5807398420FD01B
:1017D40003F5007398420BD003F58063984207D059
:1017E40003F50063984203D003F58053984218D15F
:1017F400012D1CD8002C20DB284B5B68C4F303406C
:10180400A2B204F44011B1F5401F19D014F4801FA2
:1018140027D0032101FA00F023EA000343F07063A8
:1018240015E040F22A211E48FFF787FBE0E740F26B
:101834002B211B48FFF781FBDCE7184BDB69DDE755
:1018440023F070631548416821F0706141601DB157
:10185400610D09018A401343002C0BDB0F4A5360CE
:1018640038BD610D090102FA01F123EA010343F0D5
:101874007063ECE7094AD361F2E700BF100014007B
:10188400400016000001180000081A0001002000A2
:101894000001300000112000010000800000014020
:1018A400804D000870B504460D4616462D4B9842EF
:1018B4001CD003F58063984218D003F580639842E6
:1018C40014D003F58063984210D003F580639842E6
:1018D4000CD003F58063984208D003F580639842E6
:1018E40004D040F28D112048FFF727FB6B1E9BB2FA
:1018F400012B23D9042D21D0082D1FD0102D1DD04C
:10190400202D1BD0402D19D0802D17D0B5F5807F08
:1019140014D0B5F5007F11D0B5F5806F0ED0B5F5B4
:10192400006F0BD0B5F5805F08D0B5F5005F05D02A
:10193400B5F5804F02D0B5F5004F04D1012E08D87B
:101944006EB1256170BD4FF4C7710748FFF7F5FA12
:10195400F4E740F28F110448FFF7EFFAF0E765610E
:10196400F0E700BF00080140804D000838B5044688
:101974000D462A4B98421CD003F58063984218D038
:1019840003F58063984214D003F58063984210D025
:1019940003F5806398420CD003F58063984208D025
:1019A40003F58063984204D04FF4A2711C48FFF7FA
:1019B400C4FA6B1E9BB2012B23D9042D21D0082D10
:1019C4001FD0102D1DD0202D1BD0402D19D0802DBF
:1019D40017D0B5F5807F14D0B5F5007F11D0B5F5DB
:1019E400806F0ED0B5F5006F0BD0B5F5805F08D0D1
:1019F400B5F5005F05D0B5F5804F02D0B5F5004FC1
:101A040004D1E3681D4207D0012038BD40F24511DE
:101A14000348FFF792FAF4E70020F6E700080140D4
:101A2400804D0008F8B505460C46494B98421BD03A
:101A340003F58063984217D003F58063984213D06E
:101A440003F5806398420FD003F5806398420BD06E
:101A540003F58063984207D003F58063984203D06E
:101A6400B2213C48FFF769FAE3786BB1042B0BD041
:101A7400282B09D0482B07D0142B05D0102B03D0CA
:101A84001C2B01D0182B14D12388BBB1E37803F0AD
:101A94000F06304613F0100F06D0A378013BDBB2DB
:101AA400022B10D8A078304323785BB32E68002330
:101AB40010E0B3212748FFF740FAE5E7B4212548B1
:101AC400FFF73BFAE2E7BB212248FFF736FAE9E7E2
:101AD4006A610133072B14D801229A40218832EA23
:101AE4000101F6D199000F278F4026EA070600FA74
:101AF40001F10E43E1782829EAD04829E9D12A6185
:101B0400E7E72E602388FF2B20D96E68002302E0CC
:101B14006A6115E00133072B17D803F1080101228C
:101B24008A40218832EA0101F4D199000F278F40BD
:101B340026EA070600FA01F10E43E1782829E7D0E6
:101B4400E1784829E6D12A61E4E76E60F8BD00BF78
:101B540000080140804D000810B5044610F0704F95
:101B640002D0094B034003B924B940F20E210748BF
:101B7400FFF7E3F914F0805F02D0054B5C6010BD01
:101B8400044B5C60FBE700BF0000F0EF384D000839
:101B9400000402400000024010B50446431E012B1D
:101BA40040F29480042800F09180082800F08E8090
:101BB400102800F08B80202800F08880402800F056
:101BC4008580802800F08280B0F5807F7ED0B0F5DB
:101BD400007F7BD0B0F5806F78D0B0F5006F75D002
:101BE400B0F5805F72D0B0F5005F6FD0B0F5804F74
:101BF4006CD0B0F5004F69D0B0F5803F66D0B0F539
:101C0400003F63D0B0F5802F60D0B0F5002F5DD0D9
:101C1400B0F5801F5AD0B0F5001F57D0B0F5800F33
:101C240054D0B0F5000F51D0B0F1807F4ED0B0F158
:101C3400007F4BD0B0F1806F48D0B0F1006F45D039
:101C44002C4B984242D0013398423FD00233984201
:101C54003CD00433984239D00833984236D01033FC
:101C6400984233D02033984230D0403398422DD01C
:101C7400803398422AD003F58073984226D003F526
:101C84000073984222D003F5806398421ED0B0F1CD
:101C9400102F1BD003F5C053984217D003F50053FF
:101CA400984213D003F5804398420FD003F50043C4
:101CB40098420BD003F58033984207D003F50033E4
:101CC400984203D003F58023984208D114F0805F32
:101CD4000BD0094B1B6823420AD0012010BD40F2EF
:101CE400B7110648FFF729F9F0E7054B1B68F2E73F
:101CF4000020F3E70100001000040240384D000802
:101D04000000024038B504460D46164B984226D0D2
:101D14001433984223D01433984220D01433984279
:101D24001DD0143398421AD01433984217D0143368
:101D3400984214D003F56273984210D01433984239
:101D44000DD0143398420AD01433984207D0143378
:101D5400984204D04FF4B2710348FFF7EEF865607F
:101D640038BD00BF08000240384D000870B5044675
:101D74000D461646224B984226D01433984223D05F
:101D84001433984220D0143398421DD0143398420F
:101D94001AD01433984217D01433984214D003F550
:101DA4006273984210D0143398420DD01433984281
:101DB4000AD01433984207D01433984204D040F226
:101DC40049111048FFF7B9F835F00E0300D125B9D1
:101DD4004FF4A5710B48FFF7B0F8012E04D84EB1AB
:101DE40023681D43256070BD40F24B110548FFF781
:101DF400A4F8F4E7236823EA05052560F3E700BFA8
:101E040008000240384D000838B504460D461F4B03
:101E1400984226D01433984223D01433984220D0C9
:101E2400143398421DD0143398421AD01433984274
:101E340017D01433984214D003F56273984210D02B
:101E4400143398420DD0143398420AD01433984274
:101E540007D01433984204D040F229110C48FFF7FC
:101E64006CF8012D05D855B1236843F001032360B4
:101E740038BD4FF495710648FFF75FF8F3E7236820
:101E840023F001031B041B0C2360F1E7080002404C
:101E9400384D000808B54FF00060FFF77DFE40B1F3
:101EA4004FF00060FFF758FE00210948FFF7ACFF30
:101EB40008BD4FF00070FFF76FFE0028F4D04FF01C
:101EC4000070FFF749FE034B00229A70ECE700BF55
:101ED40080000240B000002008B54FF40020FFF756
:101EE4005BFE40B14FF40020FFF736FE00210948A5
:101EF400FFF78AFF08BD4FF40030FFF74DFE0028BE
:101F0400F4D04FF40030FFF727FE034B00225A7041
:101F1400ECE700BF58000240B000002008B54FF4C1
:101F24000060FFF739FE40B14FF40060FFF714FE84
:101F340000210948FFF768FF08BD4FF40070FFF760
:101F44002BFE0028F4D04FF40070FFF705FE034B7E
:101F540000221A70ECE700BF30000240B0000020FD
:101F640070B50546FF2814D02846FEF7D5FA044676
:101F740028B16E1EF6B21C4B9C5D64B90024204649
:101F840070BD2046FFF7ECFF0134E4B2022CF8D90F
:101F9400EAE70124FAE72846FEF70AFB0028EDD118
:101FA4002EB1012E1CD0022E1CD1104D00E0104D7C
:101FB40000212846FFF728FF0E4B33F81610023194
:101FC400890089B22846FFF79DFE01212846FFF7C4
:101FD4001BFF094B01229A55034B00229A55CEE769
:101FE400064DE5E70446CAE7E80000208000024009
:101FF40030000240D4000020B0000020580002400D
:1020040038B505460C46574B984225D014339842B0
:1020140022D0143398421FD0143398421CD0143366
:10202400984219D01433984216D01433984213D0DE
:1020340003F5627398420FD0143398420CD01433D2
:10204400984209D01433984206D01433984203D0EE
:10205400CF214548FEF771FFA368102B01D0002B58
:1020640053D1E368013B4FF6FE72934252D8236981
:10207400402B01D0002B52D16369802B01D0002B5F
:1020840052D1A3692BB1B3F5807F02D0B3F5007FA1
:102094004FD1E3692BB1B3F5806F02D0B3F5006F74
:1020A4004CD1236A202B01D0002B4CD1636AB3F5A9
:1020B400405F07D0B3F5005F04D0B3F5805F01D073
:1020C400002B45D1A36AB3F5804F01D0002B44D136
:1020D4002A6822F4FF4222F07002A368216A0B43AB
:1020E40021690B4361690B43A1690B43E1690B430C
:1020F400616A0B43A16A0B4313432B60E3686B6073
:102104002368AB606368EB6038BDD0211648FEF7E6
:1021140014FFA6E7D1211448FEF70FFFA7E7D22149
:102124001148FEF70AFFA7E7D3210F48FEF705FF82
:10213400A7E7D4210C48FEF700FFAAE7D5210A48F7
:10214400FEF7FBFEADE7D6210748FEF7F6FEADE746
:10215400D7210548FEF7F1FEB4E7D8210248FEF77F
:10216400ECFEB5E708000240384D000810B50446FF
:102174004F4B984225D01433984222D014339842BE
:102184001FD0143398421CD01433984219D01433FE
:10219400984216D01433984213D003F562739842D0
:1021A4000FD0143398420CD01433984209D014330E
:1021B400984206D01433984203D06F213D48FEF76D
:1021C400BCFE236823F001031B041B0C23600023C3
:1021D40023606360A360E360354B9C4226D0364B9A
:1021E4009C4229D0354B9C422CD0354B9C422FD05D
:1021F400344B9C4232D0344B9C4235D0334B9C42BE
:1022040038D0334B9C423BD0324B9C423ED0324B75
:102214009C4241D0314B9C4244D0314B9C420AD128
:10222400304A536843F47023536004E02E4A5368E1
:1022340043F00F03536010BD2B4A536843F0F0037F
:102244005360F8E7284A536843F470635360F2E735
:10225400254A536843F470435360ECE7224A5368B9
:1022640043F470235360E6E71F4A536843F4700352
:102274005360E0E71C4A536843F070635360DAE745
:10228400184A536843F00F035360D4E7154A536860
:1022940043F0F0035360CEE7124A536843F470638B
:1022A4005360C8E70F4A536843F470435360C2E76E
:1022B40008000240384D00081C0002403000024073
:1022C40044000240580002406C000240800002407A
:1022D400080402401C04024030040240440402404A
:1022E40058040240000402400000024038B505468C
:1022F4000C460F4B98420CD003F58063984208D0EB
:1023040003F5A053984204D040F20D510948FEF75A
:1023140014FE24F4FC639BB203B924B940F20E51B9
:102324000448FEF70AFE6FEA14242C6038BD00BF8F
:1023340000240140F04C0008F8B505460E4614464A
:102344001F46374B98420CD003F58063984208D05F
:1023540003F5A053984204D04FF416713148FEF7A8
:10236400ECFD112E22D8631EDBB20F2B24D8072FCD
:1023740028D8092E2CD9EA68A6F10A0303EB4303F3
:102384000721994022EA01029F401743EF60062C7F
:1023940029D8696B013C04EB84041F23A34021EA80
:1023A400030106FA04F40C436C63F8BD40F25921AE
:1023B4001C48FEF7C2FDD6E740F25A211948FEF741
:1023C400BCFDD4E740F25B211648FEF7B6FDD0E72A
:1023D4002B6906EB460107228A4023EA02038F4059
:1023E4001F432F61D3E70C2C0CD8296B073C04EB5B
:1023F40084041F23A34021EA030106FA04F40C43D6
:102404002C63D2E7EB6AA4F10D0101EB81011F22D9
:102414008A4023EA020306FA01F11943E962C4E798
:1024240000240140F04C000838B504460D46114B19
:1024340098420CD003F58063984208D003F5A0536A
:10244400984204D04FF4E9710B48FEF776FD012D54
:1024540005D855B1A36843F4A003A36038BD40F286
:10246400D3110548FEF769FDF3E7A36823F4A0033D
:10247400A360F3E700240140F04C000810B50446C3
:102484000B4B98420CD003F58063984208D003F5B7
:10249400A053984204D04FF4DC710648FEF74DFD7A
:1024A400A36813F0040F01D0012010BD0020FCE745
:1024B40000240140F04C000810B504460A4B984231
:1024C4000CD003F58063984208D003F5A0539842DA
:1024D40004D04FF4D5710548FEF72FFDA36843F0EF
:1024E4000403A36010BD00BF00240140F04C0008A9
:1024F40010B504460B4B98420CD003F58063984208
:1025040008D003F5A053984204D04FF4C97106488B
:10251400FEF713FDA36813F0080F01D0012010BDCE
:102524000020FCE700240140F04C000810B50446EC
:102534000A4B98420CD003F58063984208D003F507
:10254400A053984204D04FF4C2710548FEF7F5FC3D
:10255400A36843F00803A36010BD00BF002401403A
:10256400F04C000870B505460C461646164B9842CA
:102574000CD003F58063984208D003F5A053984229
:1025840004D040F26B111148FEF7D7FC012E0FD88E
:1025940024F4FC639BB203B924B940F26D110B48D7
:1025A400FEF7CBFCE4B24EB16B681C436C6070BDAB
:1025B4004FF4B6710548FEF7C0FCE9E76B6823EAFF
:1025C40004046C60F3E700BF00240140F04C0008F1
:1025D40038B504460D460F4B984208D003F5C05356
:1025E400984204D040F24D110B48FEF7A6FC012D91
:1025F40005D855B1A36843F48073A36038BD4FF484
:10260400A7710548FEF799FCF3E7A36823F48073E8
:10261400A360F3E700240140F04C000838B50446F9
:102624000D46114B98420CD003F58063984208D0B4
:1026340003F5A053984204D04FF49A710B48FEF767
:102644007CFC012D05D855B1A36843F00103A360B8
:1026540038BD40F235110548FEF76FFCF3E7A36877
:1026640023F00103A360F3E700240140F04C0008C9
:1026740038B505460C46484B98420BD003F58063A9
:10268400984207D003F5A053984203D0E52143486C
:10269400FEF753FC2368D3B1B3F5803F17D0B3F5ED
:1026A400003F14D0B3F5403F11D0B3F5802F0ED0C6
:1026B400B3F5A02F0BD0B3F5C02F08D0B3F5E02F9E
:1026C40005D0B3F5002F02D0B3F5102F46D12379EE
:1026D400012B48D86379012B4AD8A368A3B1B3F579
:1026E400003F11D0B3F5802F0ED0B3F5C02F0BD01F
:1026F400B3F5002F08D0B3F5202F05D0B3F5402F44
:1027040002D0B3F5602F38D1E36813B1B3F5006F8D
:1027140038D1237C013BDBB20F2B38D86A6822F412
:10272400702222F480722368217943EA012313433F
:102734006B60AB681A4A1A40E368A1680B4361797D
:1027440043EA41031343AB60EB6A23F47003227C36
:10275400013AD2B243EA0253EB6238BDE6210F4894
:10276400FEF7EBFBB3E7E7210C48FEF7E6FBB1E726
:10277400E8210A48FEF7E1FBAFE7E9210748FEF745
:10278400DCFBC1E7EA210548FEF7D7FBC1E7EB21F3
:102794000248FEF7D2FBC1E700240140F04C0008D8
:1027A400FDF7F1FF10B50446C378012B26D86378F2
:1027B4000F2B28D8A3780F2B2AD8E3786BB31C4BA4
:1027C400DA68D243C2F30222C2F104000F2323FACF
:1027D40002F261788140A37813400B431B012278F5
:1027E400DBB214490A4482F80033237803F01F0053
:1027F4005B090122824041F8232010BD75210E4857
:10280400FEF79BFBD3E776210B48FEF796FBD1E757
:1028140077210948FEF791FBCFE7237803F01F01E6
:102824005B0901228A402033024941F82320E4E76E
:1028340000ED00E000E100E0C84D000808B50146E5
:102844000448FEF7D3FB40210248FEF779FB002839
:10285400F9D008BD0038014010B5044694F90000D1
:1028640020B10134C0B2FFF7E9FFF7E710BD000063
:102874000130C0B20138072845D8DFE800F0040C65
:10288400141C242C343C214B9868400A80F001002D
:1028940000F0010070471D4B9868000A80F00100A9
:1028A40000F001007047194B9868C00980F00100DE
:1028B40000F001007047154B9868800980F0010012
:1028C40000F001007047124B9868400B80F0010043
:1028D40000F0010070470E4B9868800B80F00100F7
:1028E40000F0010070470A4B9868C00B80F00100AB
:1028F40000F001007047054B9868800A80F00100E1
:1029040000F0010070470020704700BF000C014038
:10291400001001400138034B03EBC00398780022F8
:102924009A707047D81C00200138034B03EBC00396
:10293400D8780022DA707047D81C0020042805D803
:102944000138034B03EBC000407870470020704708
:10295400D81C002038B504460D46FFF7EFFF0346A8
:10296400A8B10D4A1268AA4210D30B4A1268551B2B
:10297400013C0A4A02EBC4025268954209D9064A4C
:102984001168064A02EBC404616000E000231846A3
:1029940038BD0023FBE700BFF81C0020D81C002032
:1029A4002E4B1A682E4B1B689A4256D910B52B4BE6
:1029B4001B6821332A4A136000240FE0294B13F8C3
:1029C4003430DBB1013B274A02F8343016E0254BA2
:1029D40003EBC202012353700134E4B2032C3BD84D
:1029E4002046FFF745FF0028E8D01E4B13F834308B
:1029F400022B03D801331B4A02F834302246194B08
:102A040013F83430022B10D9164B03EBC4035B7854
:102A1400002BDCD1134B03EBC4030121D9700F4904
:102A24000968596000219970D1E7002BD4D10D4B6E
:102A340003EBC4035B784BB10A4B03EBC4030021E3
:102A4400D970012199704FF0FF315960054B03EBA8
:102A5400C20200235370BFE710BD7047F81C00206A
:102A6400EC000020D81C002030B583B0164C0121A6
:102A74002046FEF7E3FC154D01212846FEF7DEFC57
:102A840001212046FEF7DAFC48238DF807300223A3
:102A94008DF806304FF47073ADF8043001A9204668
:102AA400FEF7C0FF4FF40043ADF8043001A92846F7
:102AB400FEF7B8FF4FF48063ADF8043001A9204657
:102AC400FEF7B0FF03B030BD000C01400010014020
:102AD40010B50C4602280FD0FF2815D0012800D0CD
:102AE40010BD0A464FF400510B48FEF7DBFE0B48BD
:102AF4002146FEF707FBF3E70A464FF480410648F8
:102B0400FEF7D0FE0648F3E70120FFF7E1FF214678
:102B14000220FFF7DDFFE3E7001001400030014031
:102B24000038004008B502210348FEF71FFF0030BB
:102B340018BF012008BD00BF000C014008B50246C3
:102B440002210248FEF7AEFE08BD00BF000C0140A2
:102B540008B5FFF7E7FF80F00100C0B2FFF7EEFF12
:102B640008BD000070B582B00120FEF7DFFB174EF0
:102B740001213046FEF762FC154D01212846FEF77F
:102B84005DFC10238DF8073002248DF80640ADF863
:102B9400044001A93046FEF745FF14238DF80730A1
:102BA4004FF4C043ADF8043001A92846FEF73AFFBC
:102BB4000120FFF7C3FF01210846FFF789FF012128
:102BC4002046FFF785FF02B070BD00BF000C014036
:102BD400001001400138094B33F8103040F6E4404E
:102BE40000FB03F0031344F6206000FB03F0044BE6
:102BF400A3FB0030C0F34F30704700BFBC0000207F
:102C04005917B7D170B584B00E4615460024ADF8F7
:102C14000E40FFF7DFFFADF80E0009E0291900238D
:102C24000093C82289B23046FDF7D6FD0134E4B2E0
:102C3400042C10D8094B33F81420BDF80E309BB285
:102C44009A42EBD2291900220092C82389B2304655
:102C5400FDF7C2FDEAE704B070BD00BFFC4E0008FA
:102C640008B50023022B0BD8154A32F81300154976
:102C740051F82320024441F823200133DBB2F1E769
:102C8400114A13780133DBB21370072B11D90023D7
:102C940013700CE00B4951F82320C2F3CF020B4808
:102CA40020F81320002241F823200133DBB2022B49
:102CB400F0D94FF408710648FFF718FB08BD00BFB0
:102CC400BC000020C4000020A4100020B400002098
:102CD400002401402DE9F04393B04FF48040FEF707
:102CE400D9FC494F01213846FEF70EFCDFF8289144
:102CF40001214846FEF7A2FB444D01212846FEF778
:102D04001BFB0124ADF844404FF002088DF84680C7
:102D140000268DF8476011A94846FEF783FE384621
:102D2400FFF724FA3A4B00933A4B019302964FF083
:102D34000309CDF80C900496802305934FF4806327
:102D440007934FF480730693202308934FF40053A2
:102D540009930A9669463846FFF752F921463846E0
:102D6400FFF752F80B968DF830408DF831404FF450
:102D740060230D930E968DF83C900BA92846FFF71F
:102D840077FC21462846FFF723FC072322463146D9
:102D94002846FFF7D1FA0723424621462846FFF783
:102DA400CBFA07234A4605212846FFF7C5FA122322
:102DB4008DF840308DF841808DF842408DF84340C5
:102DC40010A8FFF7EFFC22464FF408712846FFF7DE
:102DD400C9FB21462846FFF721FC2846FFF7A6FB3E
:102DE4000A48FFF785FB0028FAD10848FFF764FB7F
:102DF4000648FFF743FB0028FAD101210348FFF7F7
:102E040013FB13B0BDE8F083080002400024014026
:102E14004C240140BC000020000801402DE9F04F83
:102E240097B00138C6B2012E00F2E9800D46B1F523
:102E3400FA7F01D94FF4FA7537467F4B23F81650C1
:102E44004FF000087D4B03F806807D4B03F80680A5
:102E5400DFF8F4914FF4FB6404FB06944FF4FA6238
:102E64004146204601F010FE04224146204601F06E
:102E74000BFEAA46681C4FF4FB7303FB06000422F6
:102E8400FF2109EB800001F0FFFD01239D420BD3DC
:102E94004FF4FB7202FB07326A4908786A4901F869
:102EA400220001339BB2F1E7CEB1012E00F0AA80DB
:102EB400022E40F0A480654E0027DFF8B0813D4625
:102EC4004FF01109624B039303F5DE337C33029315
:102ED4004FF0140BA3F57843803B019310E01826C0
:102EE40001274FF000085B4D4FF00D095A4B039337
:102EF40003F55043243302934FF0280B574B0193AF
:102F040001210846FEF7ECF901210198FEF796FA33
:102F140001210298FEF7F8FA1DB101212846FEF7B7
:102F240069FAB8F1000F03D001214046FEF728FAF0
:102F3400002F78D118238DF8573003238DF856309D
:102F4400ADF854B015A90198FEF76CFD029F384600
:102F5400FFF70CF9039B0A930B9410230C930AF1CB
:102F640002039B000D9300240E9480230F9310946E
:102F7400119412944FF44053139314940AA9BA462B
:102F84003846FFF73DF88DF824904FF002088DF88D
:102F9400258001278DF826708DF8277009A8FFF782
:102FA40001FC3A460A215046FEF7E0FEADF8104017
:102FB4004FF48273ADF81230ADF81440ADF81680BA
:102FC400ADF818704FF40073ADF81A30ADF81C600A
:102FD400ADF81E404FF6FF73ADF8203004A9284623
:102FE400FEF7BCF839462846FEF72CF83A46414627
:102FF4002846FEF753F839462846FEF783F817B0FB
:10300400BDE8F08F18260027B846154D4FF00F097C
:10301400144B039303F5E4334C3302934FF4204BE6
:103024000E4B01936CE701213846FEF751FB012159
:103034000D48FEF74DFB7DE7D4000020E80000209A
:10304400B000002036000020F4000020882A11007F
:1030540004440040003001400C300140000C0140A9
:10306400003800400C3800400002300000440040AA
:1030740010B5114B1B6813F4004F0BD00E4B4FF4DB
:1030840000425A600D4B01221A7000210C48FEF7D1
:10309400BBFE10BD084B1B6813F4005FF5D0064B54
:1030A4004FF400525A60074C206801F0D7FC00230B
:1030B4002360054A1370E8E700000240FE1C00206C
:1030C40044000240A8000020AC0000202DE9F0419B
:1030D40004460E46FDF742F90746002840D0002E6C
:1030E40000F08180FF2C3ED0404D4FF0680808FB73
:1030F40004F808F1400028441C223146043001F051
:10310400B5FC96F90C30454485F83430012385F834
:1031140040303078FDF7BCF888BB344B682202FBA2
:103124000432B2F84E3051880B44013B9BB2A2F8F2
:103134004E30D386928893424DD92C49682303FBA1
:103144000413DA86294A682303FB0423B3F85420C2
:103154001A87264B682202FB0434002384F841308A
:103164003846BDE8F0810025214B1B78AB42BBD922
:1031740031462846FFF7AAFF0135EDB2F4E71B4BB1
:10318400682505FB0435686E01F068FCB5F8480055
:10319400B5F852300221184401F04AFC6866002355
:1031A400EB86B5F85430134AA2FB03231B09B5F888
:1031B400522003FB02F3B5F84820B3FBF2F193422B
:1031C40000D20121094A682303FB0423A3F8541005
:1031D40001221A87BDE79942B4D9044A682303FB44
:1031E4000423D986AEE70027BAE700BFA810002061
:1031F400D8000020CDCCCCCC70B506460D46FDF7EA
:10320400ADF8044608B9204670BD68231A46034940
:1032140003FB0611284601F029FCF4E7A81000205E
:1032240070B50546194B187868BB0C4616469DB117
:1032340000211748FEF7E8FD7CB121461448FEF74B
:1032440061FD96B9124BDD600124104B1C702146C0
:103254000F48FEF7D9FD204670BD2B4613F9012B0C
:10326400002AEAD00134A4B2F8E70121204601F093
:10327400DFFB084E30602246294601F0F7FB326836
:10328400034BDA60E0E70020E6E700BFAC00002073
:1032940044000240A800002008B56E4B1B8813F0C0
:1032A400200F66D06B4B9B88DBB26B4A13706B4B61
:1032B4001B78002B58D11378443B202B59D8DFE8D6
:1032C40003F03358583D582A5858495858582158EB
:1032D40058581B58585858585858585858585811EE
:1032E400585815005E48FFF7B7FA42E0002211462D
:1032F4005C48FFF795FF3CE00323584A13705A4A91
:10330400137036E00023584A1370544A0121117097
:10331400564A13702DE00123534A13704F4A137019
:10332400524B00221A7024E04F4B02221A704B4B6E
:1033340001221A704D4B00221A701AE04A4B0422E3
:103344001A70464B03221A70002211464848FFF7B0
:1033540067FF0EE0444B05221A70404B01221A709D
:10336400424B00221A7004E03C4B1B78DBB2012B69
:1033740000D008BD3C4B1B78DBB2052BF9D801A269
:1033840052F823F0A1330008CF330008FD330008BE
:1033940077330008773300082B340008334B1B784D
:1033A4002D490A78D2B23348C2540A78D2B20A2AD2
:1033B40001D00A782AB92F4A0021D154274A03217F
:1033C40011700133294A1370D3E7284B1B78224923
:1033D4000A78D2B22748C2540A78D2B20A2A01D053
:1033E4000A782AB9234A0021D1541C4A03211170B6
:1033F40001331E4A1370BCE71C4B1B7816490A782C
:10340400D2B21C48C2540A78D2B20A2A01D00A782D
:103414002AB9184A0021D154104A032111700133EA
:10342400124A1370A5E7114B1B780B490A78D2B2E4
:103434001048C2540A78D2B20A2A01D00A7822B9B2
:1034440000220C49CA5405490A700133074A137013
:103454008FE700BF00380140FF1C0020141D00202E
:10346400984E0008A04E0008FD1C0020E00000203B
:10347400181D0020001D00202DE9F04781460C4650
:10348400FCF76CFF8246002800F0A080002C00F0BE
:10349400B680B9F1FF0F18D0C846682000FB09F0C8
:1034A4001030584B18441C222146043001F0DEFA37
:1034B40003263AE021462846FFF7DEFF0135EDB248
:1034C400514B1B78AB42F5D8E6E70025F8E7002717
:1034D40000E000272079E378C01A01F0A5FAB0FBD8
:1034E400F5F0C0B2474A682303FB0823187320B9D8
:1034F4002279E3789A4200D05746A0796379C01ABA
:1035040001F092FAB0FBF5F0C0B23E4A682303FB27
:103514000823587328B9A27963799A4201D057468F
:1035240000E00FB10136B6B2D7B1A56806EB86024A
:103534009300B5FBF3F5A0786378C01A01F074FA30
:10354400B0FBF5F0C0B22F4A682303FB0823D872FE
:103554000028BED1A27863789A42B8D05746B9E71A
:10356400284A682303FB09231E841E8294F90E3023
:10357400B3F1FF3F2DD062782249682303FB09137E
:103584001A72E2785A7262799A7294F90E201D497D
:10359400682303FB09139A731B6B0022A3FB051317
:1035A40013BB1AB3174A682303FB092300229A6248
:1035B400144B682202FB0939D9F82830C9F8303095
:1035C400012389F81230002389F813305046BDE8EE
:1035D400F087A2780B49682303FB09131A72227936
:1035E4005A72A2799A72D0E70122DAE7236905FBBD
:1035F40003F5044A682303FB09239D62D8E74FF0CF
:10360400000AE3E7A8100020D80000202DE9F041CB
:10361400244D2D781D2D3CD891423CD81F4616468A
:103624000D460446FCF784FF002837D03146204677
:10363400FCF77EFF002833D01A4A92F800801A481B
:10364400682303FB08F3C118C4544D808E8008F12D
:103654000103137006994046FFF70EFF28B9124A7A
:10366400682303FB082300229A740E4B1878013850
:103674003946C0B2FFF72AFD30B90B4B682202FB72
:103684000838002388F84030064B18780138C0B257
:1036940002E01F2000E01F20BDE8F0811F20FBE7AF
:1036A4001F20F9E7D8000020A810002008B501F079
:1036B400A7FA08BD10B5044601F0C6FA0134013872
:1036C4006FF00043B3FBF4F3B0FBF3F010BD000064
:1036D4002DE9F04F8BB0044601238DF82730FCF719
:1036E4003DFE10B90BB0BDE8F08F2646BA4A6823F8
:1036F40003FB04F303F1080102EB010BD118B1F849
:103704000280B1F80490D05C0790B1F84C70B1F825
:103714004A000744BFB2B1F848502F44BFB2B1F8D1
:1037240052100D44ADB203F138001044FCF7B8FD5B
:1037340000284CD0A84A682303FB042393F84400D0
:10374400022810D048B301284ED0FCF7A1FD002870
:10375400C8D0A14A682303FB04239B7C002B67D1B8
:103764004FF0000A62E04FF0680A0AFB042ABAF834
:1037740052109AF934000DF1270300934B46424648
:1037840000FB01F1BAF83600FDF793F8AAF8360009
:103794009DF827308AF8343012E08F4B4FF0680AD6
:1037A4000AFB043ABAF852109AF934004B464246DE
:1037B40000FB01F1BAF83600FDF79CF8AAF83600D0
:1037C400854A682303FB0423B3F854201A87824AEA
:1037D400682303FB042393F84400FCF759FD0028F5
:1037E40040F0FC800024ADE17B4A682303FB042302
:1037F400D88EB3F8522093F9341089B201FB020237
:10380400DA86DDE7744A682303FB06235A6E32F82E
:103814001A1093F85C30019300220092134620465C
:10382400FCF748FF0AF1010A1FFA8AFAAA45E9D30C
:10383400694A682303FB0423DB8EAB4208D3682365
:1038440003FB042393F84430042B0BD0052B17D02F
:10385400614A682303FB0423DB8EAB42B0D24FF0F2
:10386400000A5DE04FF0680A0AFB042A6A0000219E
:10387400DAF8640001F008F90023AAF83630E7E723
:10388400554A682303FB0423DD86012283F8412083
:10389400DEE7A9EB0800FFF70DFF80B24E4A68236C
:1038A40003FB06235A6EDB8E013022F8130050E02E
:1038B400682303FB06230122DA8653E0072B18D082
:1038C400454A682303FB0423DD86434A682303FB3C
:1038D400042393F84430072B66D03F4A682303FB44
:1038E4000423002283F8602083F8612083F8622097
:1038F40066E76A1E3849682303FB0413DA86FF224D
:1039040083F83420E1E73BB9334A682303FB0623F9
:1039140093F84430072B40D00AF1010A1FFA8AFABF
:103924002D4A682303FB0623B3F852305345CCD900
:10393400294A682303FB062393F93430B3F1FF3F8C
:10394400A7D1682303FB06235A6EDB8E002122F8DD
:103954001310214A682303FB06235B6B23F47F4384
:10396400FF2BA5D01C4B682202FB0632D38E92F9A2
:10397400341089B20B449BB2D386AB42C3D3164AEC
:10398400682303FB062393F84430062B96D168235F
:1039940003FB06230022DA86BEE7682303FB062323
:1039A400012283F83420B7E7682303FB042393F947
:1039B4003430B3F1FF3F90D1682303FB042393F821
:1039C400452083F8602093F8462083F8612093F81B
:1039D400472083F86220F3E6A8100020984B68275C
:1039E40007FB043797F9348097F84520B7F85490CB
:1039F4000092002392FBF9F2414697F86000FCF72D
:103A040087FF87F8600097F846200092002392FB16
:103A1400F9F2414697F86100FCF77AFF87F86100F4
:103A240097F847200092002392FBF9F2414697F859
:103A34006200FCF76DFF87F86200FF8EBD4229D853
:103A44004FF000084AE06F1EBFB27D4B682202FBB4
:103A54000632536E33F8171092F8623092F85C0015
:103A64000190009392F8613092F860202046FCF7B0
:103A740021FE08F101081FFA88F8714A682303FB44
:103A84000623B3F852304345DAD9002FDBD0013F87
:103A9400BFB2DAE74FF00008EFE76F1EBFB2684A23
:103AA400682303FB06235B6E33F8171000293FF4E9
:103AB40019AE1346682202FB063292F8473092F898
:103AC4005C000190009392F8463092F8452020461D
:103AD400FCF7F0FD08F101081FFA88F8584A68233A
:103AE40003FB0623B3F8483043457FF6FBAD002FB4
:103AF400D3D0013FBFB2D2E7682000FB062090F983
:103B0400341001FB04F1002300934B464246494222
:103B1400C08EFCF7CEFE05B20EE0494B682000FBD8
:103B2400063090F9341001FB04F14B4642464942F9
:103B3400C08EFCF7DFFE05B2454501DB4D4559DD7E
:103B44000134A4B2BC42BFF4CDAD3D4A682303FBAB
:103B5400062393F84430022BCED0002BDDD0012B6A
:103B64007FF4C0AD364A682303FB0623DD8E93F948
:103B7400343003FB14552DB27A1E9442DCDB012B46
:103B84001DD0B3F1FF3FD7D14545D5DA2C48682382
:103B940003FB06F3C218A2F83690383318440430F5
:103BA400FCF78AFB0028C7D0254A682303FB0623B9
:103BB400012283F84120002283F84020BCE74D45D0
:103BC400DFDD1F48682303FB06F3C218A2F8368022
:103BD400383318440430FCF76FFB0028ACD0184A83
:103BE400682303FB0623012283F84120002283F883
:103BF4004020A1E704F1010A1FFA8AFA0122514682
:103C04005846FCF764FB0590022251465846FCF7DF
:103C14005EFB0690032251465846FCF758FB0123ED
:103C24000293074A682303FB062393F85C3001934D
:103C34000090069B059AA9B20798FCF7D7FC7FE78A
:103C4400A81000202DE9F04186B0002305930493C9
:103C5400404B1A68404B1B689A4202D806B0BDE834
:103C6400F081FF20FCF7A4FC0028F7D1394B1B6836
:103C74000533394A1360394B1B78394A157805EBFB
:103C84009305EDB20135EDB232E0682303FB04F392
:103C9400103308461844FCF703FB88B9314A6823FB
:103CA40003FB04235A7A997A93F82C000290019129
:103CB40000921B7A3A4631464046FCF7BFFD30E09D
:103CC400274B1878FCF738FE264A682303FB0423A5
:103CD4001A8C1A82E2E7224B1878FFF7F9FCFDF7F9
:103CE40015F8059BC01A04901D4A1378013313700C
:103CF4001B4B1C782046FCF731FBD8B1AC4219D2DF
:103D0400FDF704F80590164B1C781649682303FB4D
:103D140004F3CA185688978811F80380937C002B03
:103D2400B3D1104B682202FB043494F84030002BCA
:103D3400D5D0D0E70C4A13780133DBB21370032BD0
:103D44008CD9FF20FEF70CF90023074A1370044AAC
:103D5400137083E7F81C0020F0000020D800002036
:103D6400D9000020A8100020D000002008B5114B75
:103D74001B78E3B90F4B01221A700F4B1B7883B1E8
:103D8400934211D00C4A13780133DBB21370022B27
:103D940002D9134600221A70064B00221A70012021
:103DA40008BDFFF74FFFEDE7FEF7FAFDEAE7002055
:103DB400F6E700BFE1000020FC1C002070B58AB0CB
:103DC4000D46092810D00A281ED0082820D800EB58
:103DD400C000830001AE144C1C440FCC0FC60FCCA2
:103DE4000FC62368336013E00820FFF763FC00EB81
:103DF400C000830001AE0C4C1C440FCC0FC60FCC8A
:103E04000FC62368336003E00023029304930693F0
:103E1400029B9B086B70049B9B08AB70069B9B08E2
:103E2400EB700AB070BD00BF084F000870B58AB0CF
:103E34000C46092810D00A281ED0082820D800EBE8
:103E4400C000830001AE184D1D440FCD0FC60FCD29
:103E54000FC62B68336013E00820FFF72BFC00EB40
:103E6400C000830001AE104D1D440FCD0FC60FCD11
:103E74000FC62B68336003E0002302930493069378
:103E8400029BC3F38703A3709B086370049BC3F373
:103E9400870323719B08E370069BC3F38703A37115
:103EA4009B0863710AB070BD084F000830B58FB02D
:103EB4000D46144607A9FFF7B9FF69462846FFF7E0
:103EC400B5FF9DF81E3063709DF80230A3709DF815
:103ED4002030E3709DF8043023719DF82230637123
:103EE4009DF80630A3710FB030BD30B59BB00C46C1
:103EF4001546FFF79BFF69462846FFF77DF99DF8B5
:103F0400083063709DF80930E3709DF80A306371DE
:103F140001232361A3731BB030BD00002DE9804849
:103F240095B0FCF77BFFFDF781FBFEF79DFDFEF7E7
:103F340019FEFEF7CFFECA4B1878FCF7F1FB4FF4DD
:103F4400FA710120FEF76AFF4FF4FA710220FEF7BE
:103F540065FFFF20FEF704F80120FEF73BFEFFF7A4
:103F6400A5FB0DA90420FFF729FF00241294ADF846
:103F74003C400523ADF83A309622ADF838200722AC
:103F84008DF834204FF4FA62ADF84420ADF8423095
:103F940001268DF84060ADF83E608DF84C4006ADCA
:103FA40029462046FFF742FF0A9402278DF818702D
:103FB400FF238DF826304FF42F7308938DF830408B
:103FC40000950DAB40F2811231463046FFF71EFBDF
:103FD400A44B187000950DAB4FF4AF7231463846C0
:103FE400FFF714FBA04B1870274604940594A146D0
:103FF4002546A346A2460C24C0E00223ADF8443073
:104004004FF42F730893C5E0012607E00024002D28
:1040140000F0F080022D00F0F6800126012D40F220
:10402400C0820E2C00F0EF8241F288310120FEF7AD
:1040340091FC00283CD0002F00F0F98207238DF872
:10404400343000271297ADF83C700523ADF83A30B0
:104054009622ADF838204FF4FA62ADF84420ADF85A
:10406400423001238DF84030ADF83E30DFF8F48162
:1040740006A998F80000FFF7FFF90DA998F80000C9
:10408400FFF724F8314698F80000FCF721FADFF82E
:10409400D88106A998F80000FFF7EEF90DA998F861
:1040A4000000FFF713F8314698F80000FCF710FA07
:1040B4000220FEF739FCD8B1102C00F0D0820F2C6E
:1040C40000F0D482664B1878800000F0FC00FCF706
:1040D40027FB01221146634B1878FCF74DF90122A6
:1040E4001146614B1878FCF747F9FF20FDF738FFBC
:1040F4000220FEF70FFC002840F0BB820320FEF7ED
:1041040009FC039000B3BAF1000F00F0BE82DFF89F
:1041140054A100219AF80000FCF7BAF9DFF84881AD
:10412400002198F80000FCF7B3F900219AF8000088
:10413400FCF7CEF9002198F80000FCF7C9F90F2C20
:1041440000F09C824FF0000A4FF47A710320FEF7CE
:1041540001FC68B1424A13780133DBB213700F2BB0
:1041640002D9134600221A703D4B1878FCF7D8FA8E
:104174000D2C00F0AE82102C00F0DF82FFF7F6FD6C
:104184000120FEF7C7FB10B9002D3FF44DAF0D2CF5
:104194003FF433AF25B90134E4B2102C3FF636AF07
:1041A400112C3FF631AF01A353F824F0134000085B
:1041B400374200088D420008D54200081D4300081C
:1041C4003143000879430008B9430008F943000863
:1041D400394400087D440008C14400080D45000826
:1041E400014500080D40000821450008514500081C
:1041F400A14500081B4B1A7806A90620FFF775FE97
:1042040001252E460AE7174B1878FCF731F90646C4
:1042140008B9012602E700250A95FF238DF8263008
:1042240006A90620FFF702FE0DA90220FFF7C6FD2E
:10423400F4E61DB1022D0AD00126EFE6094B1A78E7
:1042440006A90120FFF751FE01252E46E6E6054B9F
:104254001878FCF70DF9064640B90126DEE600BFE2
:1042640037000020A6100020A510002000250A9584
:10427400FF238DF8263006A90120FFF7D7FD0DA9ED
:104284000220FFF79BFDC9E61DB1022D0AD00126CD
:10429400C4E6AD4B1A7806A90420FFF726FE0125D3
:1042A4002E46BBE6A84B1878FCF7E2F8064608B998
:1042B4000126B3E600250A95FF238DF8263006A9CA
:1042C4000420FFF7B3FD0DA90220FFF777FDA5E653
:1042D4001DB1022D0AD00126A0E69B4B1A7806A92F
:1042E4000220FFF702FE01252E4697E6964B18782A
:1042F400FCF7BEF8064608B901268FE600250A95A4
:10430400FF238DF8263006A90220FFF78FFD0DA9A3
:104314002846FFF753FD81E606A90220FFF786FD34
:104324000DA90520FFF74AFD012677E61DB1022DF0
:104334000AD0012672E6844B1A7806A90520FFF7F5
:10434400D4FD01252E4669E67F4B1878FCF790F8DA
:10435400064608B9012661E600250A95FF238DF873
:10436400263006A90520FFF761FD0DA92846FFF7B1
:1043740025FD53E61DB1022D0AD001264EE6724BEF
:104384001A7806A90120FFF7B0FD0125002645E6AD
:104394006D4B1878FCF76CF808B901263EE6002648
:1043A4000A96FF238DF8263006A90120FFF73EFD6B
:1043B400354633E61DB1022D0AD001262EE6624BA6
:1043C4001A7806A90220FFF790FD0125002625E6AC
:1043D4005D4B1878FCF74CF808B901261EE6002658
:1043E4000A96FF238DF8263006A90220FFF71EFD4A
:1043F400354613E61DB1022D0AD001260EE6524BB6
:104404001A7806A90420FFF770FD0125002605E6A9
:104414004D4B1878FCF72CF808B90126FEE5002668
:104424000A96FF238DF8263006A90420FFF7FEFC28
:104434003546F3E51DB1022D0AD00026EEE5424BC8
:104444001A7806A90620FFF750FD01250026E5E5A8
:104454003D4B1878FCF70CF8064600283FF4DEAD17
:1044640000260A9601238DF8263006AA0421062088
:10447400FFF71CFD3546D1E51DB1022D0AD00026FB
:10448400CCE5314B1A7806A90620FFF72EFD01254D
:104494000026C3E52C4B1878FBF7EAFF06460028F4
:1044A4003FF4BCAD00260A9601238DF8263006AAF7
:1044B40005210620FFF7FAFC3546AFE535B1022D9C
:1044C4000CD04FF4AF6308930026A7E51E4B1A786F
:1044D40006A90120FFF709FD0125F2E71A4B187818
:1044E400FBF7C6FF0028ECD000250A9501208DF8C3
:1044F400260006AA0421FFF7D9FCE2E70123ADF860
:1045040044304FF49673089306A90920FFF78EFCF4
:104514000DA90920FFF752FC01267FE500238DF841
:1045240019308DF81A308DF81B308DF81C308DF849
:104534001D308DF81E308DF835308DF836308DF8FD
:10454400373001266AE500BFA61000202DB1022DE8
:104554000ED04FF001094E4660E5CE4B1A7806A9FD
:104564000220FFF7C2FC4FF001094D46002655E535
:10457400C84B1878FBF77CFF18B94FF001094E4679
:104584004CE500260A96FF238DF8263006A9022062
:10459400FFF74CFC4FF0010935463FE501260024A6
:1045A4003CE50F2C2AD00121FF20FEF791FADFF819
:1045B400E48206A998F80000FEF75EFF0DA998F8BA
:1045C4000000FEF783FD314698F80000FBF780FFFA
:1045D400DFF8D08206A998F80000FEF74DFF0DA978
:1045E40098F80000FEF772FD314698F80000FBF7DA
:1045F4006FFF012D7FF415AD022512E50021FF2088
:10460400FEF766FAD3E7DFF89C82002198F80000F1
:10461400FBF75EFF002198F80000FBF739FF9E4B83
:104624001A8898F800100120FEF7ECFAFCE4012245
:104634008DF83420002112910A21ADF83C10ADF818
:104644003A101421ADF83810ADF844200321ADF828
:1046540042108DF84020ADF83E20074606E509F1EA
:1046640001095FFA89F90023049341E5FEF770FA22
:104674003EE58A4B1878FCF753F83FE50121FF200B
:10468400FEF726FA4FF0000A5EE5DFF808A20121E2
:104694009AF80000FBF7FCFEDFF80882012198F885
:1046A4000000FBF7F5FE01219AF80000FBF710FF6C
:1046B400012198F80000FBF70BFF0F2C02D0DDF866
:1046C4000CA041E50021FF20FEF702FADDF80CA062
:1046D4003AE5734B1B685B457FF650AD704B1B6826
:1046E40003F5967B06A90920FFF7A0FB0DA9092075
:1046F400FFF764FBDFF89C8106A998F80000FEF739
:10470400BBFE0DA998F80000FEF7E0FC314698F8CE
:104714000000FBF7DDFEDFF88C8106A998F80000A5
:10472400FEF7AAFE0DA998F80000FEF7CFFC31466B
:1047340098F80000FBF7CCFE20E509F1FF33072BC6
:1047440000F2408101A252F823F000BF8141000829
:1047540071470008DD470008374800087B48000817
:10476400AD4800081B49000877490008049B53B171
:104774004B4B1B68059A93427FF600AD00230493CC
:104784004FF00309FAE4464B1B6803F6B83305936C
:104794000DA90320FFF712FB06238DF834304FF0E8
:1047A40001038DF840304FF47A63ADF84430C823E8
:1047B400ADF838300A23ADF84230DFF8D8800DA9BF
:1047C40098F80000FEF782FC012198F80000FBF73E
:1047D4007FFE01230493CBE7049B002B7FF4CEAC34
:1047E4002F4B1B6803F6B83305930DA90320FFF77D
:1047F400E5FA06238DF834304FF001038DF840308C
:1048040040F6B833ADF84430C823ADF838300A2345
:10481400ADF84230DFF88C800DA998F80000FEF75F
:1048240055FC012198F80000FBF752FE0123049384
:10483400A4E4049B002B7FF4A1ACFF238DF840304B
:10484400DFF850800DA998F80000FEF73FFC012125
:1048540098F80000FBF73CFEDFF848800DA998F8B3
:104864000000FEF733FC012198F80000FBF730FE4E
:104874000123049382E4049B002B7FF47FAC074B59
:1048840018780230C0B21870FBF74AFF0123049372
:1048940074E400BFA610002034000020370000207C
:1048A400F81C0020A5100020049B53B1494B1B6841
:1048B400059A93427FF662AC002304934FF00709F4
:1048C4005CE4444B1B6803F6B83305930DA903203D
:1048D400FFF774FA06238DF834304FF001038DF896
:1048E40040304FF47A63ADF844304FF49673ADF82A
:1048F40038300A23ADF84230DFF8E0800DA998F88B
:104904000000FEF7E3FB012198F80000FBF7E0FD4F
:1049140001230493CAE7049B002B7FF42FAC2D4B97
:104924001B6803F6B83305930DA90320FFF746FA75
:1049340006238DF834304FF001038DF8403040F6F3
:10494400B833ADF844304FF49673ADF838300A23D9
:10495400ADF84230DFF888800DA998F80000FEF722
:10496400B5FB012198F80000FBF7B2FD0123049385
:1049740004E4049BBBB1174B1B68059A93427FF672
:10498400FDAB154B1B780E2B3FF6F8AB114A1268A2
:1049940002F57A7205920133D8B20F4B1870FBF707
:1049A400BFFEFFF7EBBB0B4B1B6803F57A73059354
:1049B400094B18780130C0B21870FBF7B1FE01231F
:1049C4000493D8E7044B06221A704FF00009FFF74E
:1049D400D5BB00BFF81C002037000020A610002023
:1049E400A510002008B503460C4A12685AB10B4AB8
:1049F4001068033323F003030344094A934206D89F
:104A0400064A136008BD054A06491160EFE700F045
:104A140017F80C2303604FF0FF30F3E7DC000020AD
:104A2400004C0020681D00200028B8BF4042704799
:104A3400024B0A460146186800F02EB83C000020DC
:104A4400014B1868704700BF3C000020024B014630
:104A5400186800F07BB800BF3C000020024B014600
:104A6400186800F027B800BF3C0000200A449142B7
:104A740000F1FF3300D1704710B511F8014B91429A
:104A840003F8014FF9D110BD03460244934200D10B
:104A9400704703F8011BF9E738B502FB01F421461E
:104AA40000F054F8054618B122460021FFF7ECFF48
:104AB400284638BD38B50546002943D051F8043C92
:104AC4000C1F002BB8BFE41800F002F91E4A13684B
:104AD400104633B9636014602846BDE8384000F0DE
:104AE400FDB8A3420BD921686218934201BF1A682A
:104AF4005B685218226063600460EDE713465A68ED
:104B04000AB1A242FAD919685818A0420BD12068F8
:104B14000144581882421960DED110685268014479
:104B240019605A60D8E702D90C232B60D4E72068B7
:104B340021188A4201BF1168526809182160626015
:104B44005C60C9E738BD00BF4C1D0020F8B5CD1C22
:104B540025F0030508350C2D38BF0C25002D06461D
:104B640001DBA94203D90C2333600020F8BD00F017
:104B7400AFF821490A6814469CB9204F3B6823B911
:104B84002146304600F094F838602946304600F05B
:104B94008FF8431C23D10C233046336000F09EF879
:104BA400E3E723685B1B17D40B2B03D923601C4456
:104BB400256004E06368A2420CBF0B60536030467A
:104BC40000F08CF804F10B00231D20F00700C21A3A
:104BD400CCD01B1AA350C9E722466468CCE7C41C96
:104BE40024F00304A042E3D0211A304600F060F818
:104BF4000130DDD1CFE700BF4C1D0020501D002047
:104C040038B50D4B05461C68A36B7BB91820FFF71C
:104C14001DFF0A4A0A4BA063C0E90023094B012285
:104C240083600B2383810023C0E904230022A36B48
:104C34001D615A6138BD00BF3C0000200E33CDAB6E
:104C440034126DE6ECDE0500134B10B51C68A36B43
:104C54007BB91820FFF7FAFE104A114BA063C0E994
:104C64000023104B012283600B2383810023C0E9BE
:104C74000423A16B0C480A694B6950430B4C04FB99
:104C84000300A2FB04345A1C044444F10000C1E9AB
:104C9400042020F0004010BD3C0000200E33CDABBA
:104CA40034126DE6ECDE05002DF451582D7F954C41
:104CB40038B50023054C054608462360FFF792FEED
:104CC400431C02D1236803B12B6038BD541D00205E
:104CD400014800F009B800BF5C1D0020014800F045
:104CE40004B800BF5C1D0020704770472E2E2F6C47
:104CF40065645365676D656E742F73746D333275B7
:104D040074696C732F73797374656D2F7372632F69
:104D140073746D333266312D7374647065726970A7
:104D2400682F73746D3332663130785F6164632E3B
:104D3400630000002E2E2F6C65645365676D656EED
:104D4400742F73746D33327574696C732F73797344
:104D540074656D2F7372632F73746D333266312DE6
:104D64007374647065726970682F73746D3332661E
:104D74003130785F646D612E630000002E2E2F6C3D
:104D840065645365676D656E742F73746D33327526
:104D940074696C732F73797374656D2F7372632FD9
:104DA40073746D333266312D737464706572697017
:104DB400682F73746D3332663130785F6770696F52
:104DC4002E6300002E2E2F6C65645365676D656E2F
:104DD400742F73746D33327574696C732F737973B4
:104DE40074656D2F7372632F73746D333266312D56
:104DF4007374647065726970682F6D6973632E6370
:104E0400000000002E2E2F6C65645365676D656E7F
:104E1400742F73746D33327574696C732F73797373
:104E240074656D2F7372632F73746D333266312D15
:104E34007374647065726970682F73746D3332664D
:104E44003130785F7263632E630000002E2E2F6C66
:104E540065645365676D656E742F73746D33327555
:104E640074696C732F73797374656D2F7372632F08
:104E740073746D333266312D737464706572697046
:104E8400682F73746D3332663130785F7370692EB6
:104E94006300000048656C6C6F210A00444D41209A
:104EA40074657374207472616E736665720A0000AF
:104EB4002E2E2F6C65645365676D656E742F737445
:104EC4006D33327574696C732F73797374656D2FD8
:104ED4007372632F73746D333266312D737464701F
:104EE40065726970682F73746D3332663130785F20
:104EF40075736172742E6300E40CAC0D740E3C0F78
:104F04000410000000000000BC02000000000000CB
:104F14000000000000000000F4010000E8030000AD
:104F2400000000000100000000000000000000007C
:104F340000000000F401000000000000F401000083
:104F4400E803000000000000010000000000000071
:104F54005802000000000000900100000000000062
:104F640000000000E8030000000000000100000051
:104F740000000000F401000000000000F401000043
:104F840000000000F4010000E8030000000000003D
:104F94000100000000000000F40100000000000017
:104FA400000000000000000000000000E803000012
:104FB40000000000010000000000000000000000EC
:104FC40000000000F40100000000000000000000E8
:104FD400E8030000000000000100000000000000E1
:104FE40000000000000000000000000000000000BD
:104FF400F4010000E80300000000000001000000CC
:105004000000000058020000000000003C00000006
:1050140000000000C8000000E803000000000000D9
:105024000100000000000000180100000000000062
:10503400F40100000000000046000000E803000046
:08504400000000000100000063
:10504C00785634120204060800000000000000002C
:10505C000102030406070809000000000102030412
:10506C00010203040607080900A24A04E400002018
:10507C00000000009700FF064800000040000020E0
:10508C000000000000000000000000000000000014
:10509C000000000000000000000000000000000004
:1050AC0000000000000000000000000000000000F4
:1050BC0000000000000000000000000000000000E4
:1050CC0000000000000000000000000000000000D4
:1050DC0000000000000000000000000000000000C4
:0450EC00325476982C
:040000050800016D81
:00000001FF
