:020000040800F2
:1000000000500020590200085D0100084901000865
:1000100045010008310100081D0100080000000032
:1000200000000000000000000000000019010008AE
:10003000150100080000000011010008E90E000889
:100040000D0100080D0100080D0100080D01000858
:100050000D0100080D0100080D0100080D01000848
:100060000D0100080D0100080D0100080D01000838
:100070000D01000831220008BD390008ED210008FB
:100080000D010008A9210008C92F00080D01000872
:100090000D0100080D0100080D0100080D01000808
:1000A0000D0100080D0100080D0100080D010008F8
:1000B0000D0100080D0100080D0100080D010008E8
:1000C0000D0100080D0100080D0100080D010008D8
:1000D0000D010008193600080D0100080D01000887
:1000E0000D0100080D0100080D01000800000000CE
:1000F0000000000000000000000000000000000000
:1001000000000000000000005FF808F100BEFEE7FC
:1001100000BEFEE700BEFEE700BEFEE71EF0040FD5
:100120000CBFEFF30880EFF3098071464C4A10478B
:100130001EF0040F0CBFEFF30880EFF30980714647
:10014000484A104700BEFEE71EF0040F0CBFEFF355
:100150000880EFF309807146434A104700BEFEE76E
:1001600000BEFEE700BEFEE700BEFEE700B583B0BE
:1001700001F054F8284B294A1360294A1360294B8F
:10018000294A03E052F8041B43F8041B27498B4219
:10019000F8D3224B1A68264B9A4200D0FEE7204B38
:1001A0001A68244B9A42F9D11B4B234A1360234A05
:1001B0001360234B02E0002243F8042B214A9342B0
:1001C000F9D31D4B1B6813B91C4B1B6803B1FEE729
:1001D00001F020F8694601A801F02CF81A4C1B4BDD
:1001E000E41AA410002504E0184B53F82530984772
:1001F0000135AC42F8DC164C164BE41AA41000256D
:1002000004E0144B53F8253098470135AC42F8DC34
:100210000099019806F02AFBBABADECA0000002055
:10022000B000002000000020406E0008B400002054
:100230007856341232547698B4000020503500209D
:10024000B4000020543500209402000894020008F5
:10025000940200089402000808B5FFF787FF000029
:0C02600061010008650100086901000848
:10026C00406E000800000020B4000020406E000822
:10027C000000000000000000B400002054350020F5
:08028C0000000000000000006A
:10029400D0B110B404460023012001E00133DBB2E5
:1002A4000B4A12789A4211D90A49742202FB0312AA
:1002B40092F82920A242F1D1742202FB0312D27CCB
:1002C400022AEBD10020E9E70120704710BC7047F7
:1002D400BC1600202427002058B3F0B405460023A0
:1002E400FF26012703E01E4610E00133DBB2124A69
:1002F40012789A4213D91846104C742202FB034216
:1003040092F82920AA42F0D1FF2EECD00B4A742493
:1003140004FB0020C27C022AE7D00027E5E71FB1D6
:100324008E4204D0002000E00020F0BC7047012081
:10033400FBE70120704700BFBC16002024270020E3
:1003440003882BB1013B9BB223B10380002070478B
:100354000020704701207047036823B1013B04D09B
:100364000360002070470020704701207047043864
:10037400C0B2032801D80120704700207047000054
:10038400E0B110B40446002301E00133DBB20C4AAF
:1003940012789A420FD90B49742202FB031292F885
:1003A4002920A242F1D1742202FB0312D27C012A39
:1003B400EBD0002000E0012010BC70470120704702
:1003C400BC16002024270020034B1B78834201D84D
:1003D4000020704701207047BC16002010B5044669
:1003E400FFF7F2FF28B1044B742202FB0434E079D6
:1003F40010BD0120FCE700BF2427002038B50446C7
:100404000D46FFF7E1FF024650B15DB1074B742181
:1004140001FB0434A38861885B1A01339D4203DC29
:10042400104638BD0022FBE70022F9E7242700200C
:1004340010B50446FFF7C8FF50B1064B742202FB07
:10044400043398885B88C01A80B2013080B210BD32
:100454000020FCE724270020054B1B78834203D8A7
:10046400FF2803D000207047012070470120704707
:10047400BC160020F8B504460F461646FFF7ECFFFD
:100484000546002837D0FF2C48D0EFB12A4A742300
:1004940003FB042393F92230012B41D0264A742311
:1004A40003FB04231A7E1A725A7E5A729A7E9A7237
:1004B400FF229A73204A742303FB04230022DA7474
:1004C4005A6ADA6201229A74AEB11B4B742202FB9F
:1004D400043494F9583084F83C30B4F95630E38746
:1004E400236E6364002384F86C30012284F848206E
:1004F40084F8493035462846F8BD32463946204608
:10050400FFF7B8FF0134E4B20C4B1B78A342F2D9D5
:100514002046FFF763FF0028F4D1EEE70024F3E759
:10052400742303FB04235A7D1A729A7D5A72DA7D6E
:100534009A7201229A73BDE724270020BC1600207A
:1005440038B50446FFF788FF054638B1FF2C19D0AB
:100554000D4B742202FB043494F84950284638BDEC
:100564000134E4B2094B1B78A342F7D92046FFF7C4
:1005740035FF0028F4D12046FFF7E2FF0028EFD131
:100584000546EBE70024EDE724270020BC160020F5
:1005940038B50446FFF760FF054648B1FF2C1BD071
:1005A4000E4B742202FB043494F8305085F001059C
:1005B400284638BD0134E4B2094B1B78A342F7D96D
:1005C4002046FFF70BFF0028F4D12046FFF7E0FF99
:1005D4000028EFD10546EBE70024EDE724270020AF
:1005E400BC16002038B50446FFF736FF054650B167
:1005F400FF2C1CD00F4B742202FB0434E57C012D2C
:1006040014BF00250125284638BD0134E4B20A4B45
:100614001B78A342F7D92046FFF7E0FE0028F4D167
:100624002046FFF7DFFF0028EFD10546EBE7002463
:10063400EDE700BF24270020BC16002070B5044657
:100644000E46FFF709FF054630B1FF2C16D00C4BC0
:10065400742202FB0434A674284670BD3146204639
:10066400FFF7ECFF0134E4B2064B1B78A342F3D945
:100674002046FFF7B3FE0028F4D1EFE70024F3E7A8
:1006840024270020BC16002070B504460E46FFF750
:10069400E3FE054638B1FF2C17D00D4B742202FB44
:1006A400043484F84860284670BD31462046FFF77C
:1006B400EBFF0134E4B2074B1B78A342F3D9204685
:1006C400FFF78CFE0028F4D1EFE70024F3E700BF26
:1006D40024270020BC1600200138C0B20023022BBE
:1006E40024D8F0B403E00133DBB2022B1BD800EBB7
:1006F40040041C440E4D35F834408C42F3D800EBD2
:100704004004E5180A4C04EBC50464888C42EAD31F
:10071400074B03EBC5063379137073795370B379C0
:100724009370012000E00020F0BC70470020704767
:10073400106E0008FF2805D00138C0B2012803D884
:1007440001207047012070470020704738B50446E7
:100754000D46FFF7EFFF034630B1013C054A32F87E
:100764001420AA4202D31DB1184638BD0023FBE76A
:100774000023F9E7B8160020F8B504460D461646DE
:100784001F46FFF7E3FFE0B10146013CE4B24FF43A
:10079400FB7303FB04520C4B03EB8203DB78B34281
:1007A40010D1094B03EB82039B78BB420AD1064D5F
:1007B40005EB820462789DF818309A4202D1002138
:1007C40000E001210846F8BD20170020FF280BD0C7
:1007D40010B50446FFF7AEFF024618B1601E094B80
:1007E4001A5CD2B2104610BD0023012B07D8054A6B
:1007F400D15C01F0FF0219B90133DBB2F5E7002245
:1008040010467047C00000202DE9F04385B004462F
:100814000E46914698469DF830709DF834509DF8E8
:1008240038302BB900974346FFF7A6FF00283FD185
:1008340003AA31462046FFF74FFFC8B19DF80C309C
:1008440003FB09F9B9F1000F35DBC9F3C7199DF8AA
:100854000D3003FB08F8B8F1000F2FDBC8F3C718FD
:100864009DF80E3003FB07F7002F2ADBC7F3C717E9
:10087400013CE4B24FF4FB7303FB0462124B03EB41
:10088400820383F8039083F802805F706B1EDBB2EF
:100894001E2B01D90D4B1D784FF4FB7303FB04662B
:1008A40065F01F05084B03F82650094B01221A5521
:1008B40005B0BDE8F08309F17F09C6E708F17F08B8
:1008C400CCE77F37D2E700BF201700203800002094
:1008D400081700202DE9F04184B0044688461646E6
:1008E4001F46FFF78BFD0546F8B1174A742303FB37
:1008F40004239B79EBB1742303FB04239988A1EBB4
:10090400080189B2013189B2742303FB04F4012381
:1009140002939DF82C3001939DF8283000933B46B8
:1009240032460948005DFFF76FFF284604B0BDE872
:10093400F081054A742303FB04235988414489B296
:10094400013989B2E0E700BF2427002010B582B046
:10095400002401949DF810400094FFF7BBFF02B0FF
:1009640010BD00001F2800D91F2060F01F00014B9C
:1009740018707047380000202DE9F04184B0044617
:10098400884617461E469DF828509DF82C3023B9FA
:1009940000953346FFF7F0FE80BB03AA414620468C
:1009A400FFF79AFEB8B19DF80C3003FB07F7002F50
:1009B40027DBC7F3C7179DF80D3003FB06F6002E9F
:1009C40021DBC6F3C7169DF80E3003FB05F5002D99
:1009D4001BDBC5F3C715013CE4B20D4A4FF4FB71B0
:1009E40001FB048102EB8103DF709E705D70094B93
:1009F4001B7802F82130084B01221A5504B0BDE8D7
:100A0400F0817F37D5E77F36DBE77F35E1E700BF4D
:100A14002017002038000020081700202DE9F04797
:100A240084B082460C46174698469DF830909DF84F
:100A340034609DF83850FFF789FE20B1394650469E
:100A4400FFF784FE80B904B0BDE8F0870123029368
:100A5400019500964B46424621465046FFF7D4FE88
:100A64000134A4B2A742EED36B1EDBB21E2BEDD928
:100A74000123019300964B46424621465046FFF718
:100A84007BFFEDE72DE9F04184B0914229D81E4661
:100A940017460D460446FFF7B1FC804618B33946A5
:100AA4002046FFF7ABFC8046E8B11148742303FBF2
:100AB40004F403195A88511989B23A4492B2013A9A
:100AC40001399DF8303002939DF82C3001939DF844
:100AD40028300093334692B289B2005DFFF79EFF3F
:100AE40001E04FF00008404604B0BDE8F08100BFCB
:100AF40024270020054B1B78834203D8FF2803D00A
:100B040000207047012070470120704770160020B4
:100B140010B5FF2810D00446FFF7ECFF034648B198
:100B24000D4A4FF48A6101FB042494F84C24012AF1
:100B340000D00023184610BD0024084B1B78A342A4
:100B440008D92046FFF7E4FF03460028F2D0013419
:100B5400E4B2F2E70123EDE7E00000207016002084
:100B640038B50546FF280DD02846FFF7C3FF40B12E
:100B74000E4A4FF48A6303FB052393F84C34012B8C
:100B84000BD038BD00240A4B1B78A342ECD9204675
:100B9400FFF7E6FF0134E4B2F5E713464FF48A6247
:100BA40002FB0535022385F84C34EAE7E000002017
:100BB4007016002038B504460D46FFF79BFF40B180
:100BC400FF2C07D0094B4FF48A6202FB043484F8EB
:100BD400465438BD0024064B1B78A342F9D9294654
:100BE4002046FFF7E7FF0134E4B2F4E7E000002019
:100BF4007016002010B5FF280DD00446FFF77AFFC9
:100C0400034630B10C4B4FF48A6202FB043494F86F
:100C14004634184610BD0024084B1B78A34208D95B
:100C24002046FFF7E7FF03460028F2D10134E4B27F
:100C3400F2E70023EDE700BFE0000020701600207B
:100C440002FB00F0B0FBF1F07047F0B583B003464F
:100C54000D4600785F78C4199E7834440A462146CC
:100C6400FFF7EEFF8DF800002A4621463846FFF7CD
:100C7400E7FF8DF801002A4621463046FFF7E0FFE2
:100C84008DF80200009B0020DAB262F30700C3F380
:100C9400072262F30F20C3F3074363F3174003B043
:100CA400F0BD82B000238DF800308DF801308DF84E
:100CB400023000B301EB41014218435C8DF800306F
:100CC40053788DF8013093788DF80230009BADF89D
:100CD40004301B0C8DF8063000209DF8043063F3BB
:100CE40007009DF8053063F30F209DF8063063F389
:100CF400174002B07047009BADF804301B0C8DF810
:100D04000630E9E770B582B004460D46164690F801
:100D14005D1099B390F85E2002B90122B4F84A300C
:100D2400B4F848000344B4F84C00034401FB02F255
:100D340093FBF2F39BB203B901236A1E92FBF3F314
:100D440093FBF1F201FB1231FF22C9B2206EFFF7CF
:100D5400A8FF8DF80400C0F307238DF80530C0F315
:100D640007408DF80600B4F84A10A94213D2B4F82B
:100D740048300B449D4220DC01220DE090F84530C0
:100D84008DF8043090F846308DF8053090F84730EF
:100D94008DF80630E7E70022022E14D0032E16D079
:100DA400012E0CD000231846012A04D056B296B165
:100DB400022A19D0002002B070BD0222ECE79DF88F
:100DC40004002378F0E79DF805006378ECE79DF8CC
:100DD4000600A378E8E7C01A00FB05F090FBF1F0E9
:100DE400C0B21844C0B2E6E76D1AB4F84820AD1A90
:100DF400013DC31A03FB05F3B4F84C2093FBF2F353
:100E0400DBB2C01AC0B2D6E7002801DB012070476C
:100E14004FF0FF3070472DE9F04180460C461646EE
:100E24001D46069F0846FFF7EFFF444407E0AC4227
:100E340003DDC4EB45044FF0FF30B44208DBAC42A1
:100E4400F5DCB442F3DB07B138702046BDE8F0812D
:100E5400C4EB46040120F2E710B49C1A0844904203
:100E640004DA20440130FAE7001B01389842FBDC25
:100E740010BC7047904202D2B1F1FF3F07D002FB91
:100E84000100009A904204D8984204D3704700208D
:100E9400704700987047184670470144994203DC34
:100EA400914203DA01207047012070470020704707
:100EB40010B472B6084B9C68084B186862B64FF4BD
:100EC4007A72074B196802FB01F31B1BB3FBF1F3A6
:100ED40002FB003010BC704710E000E0E434002056
:100EE40048000020024A136801331360704700BFB2
:100EF400E43400200346C0789A7802B9187A70471F
:100F04002DE9F04180460D461646FFF7F3FD002813
:100F140046D044462846FFF7EDFF00239C4618E0E0
:100F24000CF10102D2B20CF1020C05EB8C0CDCF8D2
:100F3400047003EBC3014FEAC10C4FF48A6101FB57
:100F440004CC1A4961440F64904226D99446013373
:100F5400DBB216494FF48A6202FB041292F8392478
:100F64009A421FD903EBC302D1004FF48A6202FBF9
:100F740004110E4A0A44012182F84710002ECFD0F2
:100F8400AA6B03EBC3014FEAC10E4FF48A6101FB64
:100F940004EE064971440A64D9E74FF0000CD6E721
:100FA4004FF006084046BDE8F08100BFE000002095
:100FB40000230370704700000023836303724363BC
:100FC400837001230370024B1B684360704700BFAA
:100FD400E43400200078704770B504460E46FFF7ED
:100FE400F9FF40B9054616B90125284670BD2046CB
:100FF400FFF7E2FFF9E7A07838B1237A023304EB74
:1010040083035A68636B9B1A6363144B1D6863689C
:10101400227AEB1A911C04EB81014B606560616BD1
:101024000B4463630132D2B2227268B1E178B3FB3C
:10103400F1F3A363E3789A420DD3657845B90023AD
:1010440023720123A370D0E7B3FBF2F3A363F1E7A8
:1010540000232370C9E70025C7E700BFE43400205C
:1010640082B00023019300932C4A136843F4803325
:1010740013602A4B1B6803F400330093019B013374
:101084000193009B1BB9019BB3F5A06FF1D1234BD6
:101094001B6813F4003F06D001230093009B012B2F
:1010A40004D002B0704700230093F7E71C4B1A6882
:1010B40042F010021A601A6822F003021A601A68D9
:1010C40042F002021A60A3F580535A685A605A68C3
:1010D4005A605A6842F480625A605A6822F47C1258
:1010E4005A605A6842F4E8125A601A6842F08072F0
:1010F4001A600A4B1B6813F0007FFAD0074B5A683A
:1011040022F003025A605A6842F002025A60034B0A
:101114005B6803F00C03082BF9D1C2E7001002400E
:101124000020024008B5FFF79BFF08BD1F4B5B681A
:1011340003F00C03042B15D0082B17D01BB11C4B48
:101144001C4A1A6002E01A4B1A4A1A60174B5B6871
:10115400C3F30313184AD35CDAB215490B68D340BE
:101164000B607047124B134A1A60EFE70F4A53683B
:101174005268C3F38343023312F4803F05D10F4A0C
:1011840002FB03F30A4A1360E0E7084A526812F4C8
:10119400003F05D0094A02FB03F3054A1360D5E773
:1011A400044A02FB03F3024A1360CFE70010024033
:1011B4002800002000127A000800002000093D00E9
:1011C40008B5104B1A6842F001021A6059680E4AB9
:1011D4000A405A601A6822F0847222F480321A603B
:1011E4001A6822F480221A605A6822F4FE025A60B5
:1011F4004FF41F029A60FFF795FF044B4FF0006213
:101204009A6008BD001002400000FFF800ED00E005
:1012140008B5FFF78BFF08BD08B5FFF7D1FF024AF9
:10122400024B9A6008BD00BF0000000800ED00E01A
:1012340001230360014B0B60704700BF2C000020AA
:10124400FEE708B50120FFF7FBFF08B5FFF7F9FF3C
:1012540038B505460C46274B984214D0A3F5744381
:10126400984210D003F5806398420CD003F5806354
:10127400984208D003F58063984204D040F2863146
:101284001D48FFF7E2FF012C13D0802C11D0402C15
:101294000FD0202C0DD0102C0BD0B4F5807F08D0AB
:1012A400B4F5007F05D0082C03D0042C01D0022C07
:1012B40007D1B4F5007F0AD02B881C4218D0012036
:1012C40038BD40F287310C48FFF7BFFFF1E7094B07
:1012D4009D42F1D0A3F574439D42EDD003F58063A4
:1012E4009D42E9D040F28B310348FFF7AEFFE3E7BC
:1012F4000020E5E700380140846D000838B5054654
:101304000C46124B984214D0A3F57443984210D063
:1013140003F5806398420CD003F58063984208D0AB
:1013240003F58063984204D040F25F210848FFF738
:101334008CFFB4F5007F03D2C4F30804AC8038BD3D
:101344004FF418710248FFF780FFF5E700380140B9
:10135400846D000838B504460D46124B98420CD0F3
:10136400A3F57843984208D003F58063984204D0EB
:101374004FF41D710C48FFF768FF012D05D855B1D6
:10138400A38843F00403A38038BD40F275210648C6
:10139400FFF75BFFF3E7A3889BB223F004039BB240
:1013A400A380F1E700300140206D000870B50446C9
:1013B4000D461646154B98420CD0A3F57843984237
:1013C40008D003F58063984204D04FF408711048A4
:1013D400FFF73BFF012E0ED825F003039BB203B9A0
:1013E40025B940F222210A48FFF72FFF4EB1A38806
:1013F4001D43A58070BD40F221210548FFF725FF5C
:10140400EAE7A38823EA0505A580F3E70030014055
:10141400206D000838B504460D46124B98420CD096
:10142400A3F57843984208D003F58063984204D02A
:1014340040F2B7110C48FFF708FF012D05D855B14C
:10144400238843F04003238038BD4FF4DC71064801
:10145400FFF7FBFEF3E723889BB223F040039BB224
:101464002380F1E700300140206D000838B50546BF
:101474000C464A4B98420BD0A3F57843984207D0C8
:1014840003F58063984203D0A3214548FFF7DDFEAE
:10149400238843B1B3F5806F05D0B3F5004F02D074
:1014A400B3F5404F4CD16388B3F5827F01D0002B54
:1014B4004BD1A388B3F5006F01D0002B4AD1E38848
:1014C4000BB1022B4BD12389012B4DD86389B3F582
:1014D400007F01D0002B4CD1A3896BB1082B0BD01A
:1014E400102B09D0182B07D0202B05D0282B03D084
:1014F400302B01D0382B41D1E3890BB1802B42D161
:10150400238A002B44D02B8803F44152238861881A
:101514000B43A1880B43E1880B4321890B43618969
:101524000B43A1890B43E1890B4313432B80AB8B02
:101534009BB223F400639BB2AB83238A2B8238BD16
:10154400A6211748FFF781FEADE7A7211448FFF74E
:101554007CFEAEE7A8211248FFF777FEAFE7A9218A
:101564000F48FFF772FEAEE7AA210D48FFF76DFEA4
:10157400ACE7AB210A48FFF768FEADE7AC210848A9
:10158400FFF763FEB8E7AD210548FFF75EFEB7E756
:10159400AE210348FFF759FEB5E700BF0030014014
:1015A400206D000838B504460D460E4B184200D194
:1015B40020B940F269410C48FFF747FE012D05D8D8
:1015C40055B10A4AD3691C43D46138BD40F26A411B
:1015D4000548FFF73AFEF3E7044AD36923EA040413
:1015E400D461F2E700360181D86C00080010024093
:1015F40038B504460D460E4B034003B920B940F2FA
:101604004A410C48FFF721FE012D05D855B10A4A7D
:1016140093691C43946138BD40F24B410548FFF780
:1016240014FEF3E7044A936923EA04049461F2E79D
:101634000200C0FFD86C00080010024008B5014643
:101644000120FFF7D5FF08BD38B504460D460D4B04
:10165400984206D00C4B9C4208D00C4B9C420BD0B9
:1016640038BD4FF40070FFF7C3FFF3E729464FF48A
:101674008060FFF7BDFFF0E729464FF40040FFF715
:10168400B7FFEDE70024014000280140003C014081
:1016940038B504460D46164B98420CD0154B9C4267
:1016A4000ED0154B9C4211D0144B9C4214D0144BB9
:1016B4009C4217D038BD4FF48040FFF799FFEDE707
:1016C40029464FF40030FFF76DFFEAE729464FF44F
:1016D4008020FFF767FFE7E729464FF40020FFF774
:1016E40061FFE4E729464FF48010FFF75BFFE1E771
:1016F400003801400044004000480040004C0040D5
:101704000050004038B504460D460D4B984206D0B3
:101714000C4B9C4208D00C4B9C420BD038BD4FF470
:101724008050FFF765FFF3E729464FF48040FFF749
:1017340039FFF0E729464FF40040FFF733FFEDE7A8
:101744000030014000380040003C004038B50446F9
:101754000D46184B98420FD0174B9C4210D0174B94
:101764009C4212D0164B9C4214D0164B9C4216D06D
:10177400154B9C4218D038BD0420FFF739FFEBE726
:1017840029460820FFF734FFE9E729461020FFF730
:101794002FFFE7E729462020FFF72AFFE5E7294640
:1017A4004020FFF725FFE3E729468020FFF720FFCD
:1017B400E1E700BF00080140000C014000100140B7
:1017C4000014014000180140001C014038B50446D3
:1017D4000D4620F4AA6323F0070303B920B940F2AD
:1017E4002B410B48FFF731FD012D05D855B1094AAE
:1017F40053691C43546138BD40F22C410448FFF73F
:1018040024FDF3E7034A536923EA04045461F2E72D
:10181400D86C00080010024038B504460D46164B3B
:10182400984211D0143398420ED0143398420BD0FE
:101834001433984208D01433984205D01433984294
:1018440002D01433984203D129460120FFF7BEFF8A
:101854000A4B9C420BD014339C4208D014339C4254
:1018640005D014339C4202D014339C4203D1294640
:101874000220FFF7ABFF38BD080002400804024015
:1018840010B4294B5B6803F00C03042B2BD0082BFA
:101894002CD013B1254B036001E0244B0360224993
:1018A4004B68C3F30313224CE35CDAB20368D340FE
:1018B40043604A68C2F30222A25CD2B223FA02F263
:1018C40082604A68C2F3C222A25CD2B2D340C3602F
:1018D4004A68C2F3813217498A5CD2B2B3FBF2F38D
:1018E400036110BC7047114B0360D8E70E4A53687C
:1018F4005268C3F38343023312F4803F04D10E4A87
:1019040002FB03F30360CAE7074A526812F4003F7C
:1019140004D0094A02FB03F30360C0E7034A02FB55
:1019240003F30360BBE700BF0010024000127A001B
:10193400180000200400002000093D0000B587B015
:10194400FFF7F4FB01A8FFF79BFF019B0F4AA2FBE3
:1019540003239B09013BB3F1807F15D20C4A5360EA
:101964000C4BF02183F823100021916007201060B4
:1019740083F82310084B1B68084AB3FBF2F3084AA8
:10198400136007B05DF804FBFEE700BFD34D62109F
:1019940010E000E000ED00E02800002040420F00CD
:1019A4004800002010B5044640B1B0F5804F05D082
:1019B400B0F5004F02D0B0F5404F06D1064A536847
:1019C40023F440431C43546010BD40F202310348E9
:1019D400FFF73BFCF2E700BF00100240D86C0008A0
:1019E40038B504460D46431E012B40F28980042875
:1019F40000F08680082800F08380644B98427FD0F2
:101A0400203398427CD0624B984279D080339842FC
:101A140076D0604B984273D003F5807398426FD0B0
:101A240003F5807398426BD05B4B984268D003F502
:101A34008063984264D0B0F5805F61D0B0F5EA1F4E
:101A44005ED0B0F5EB1F5BD0B0F5004F58D0534BD0
:101A5400984255D00133984252D0023398424FD025
:101A6400043398424CD00833984249D0B0F1201F37
:101A740046D03033984243D0494B984240D003F586
:101A8400807398423CD003F50073984238D0454B9C
:101A9400984235D003F57063984231D0B0F5011FF8
:101AA4002ED0414B98422BD00133984228D0023398
:101AB400984225D00433984222D0083398421FD04C
:101AC400103398421CD02033984219D040339842A6
:101AD40016D08033984213D003F5807398420FD008
:101AE40003F5007398420BD003F58063984207D046
:101AF40003F50063984203D003F58053984218D14C
:101B0400012D1CD8002C20DB284B5B68C4F3034058
:101B1400A2B204F44011B1F5401F19D014F4801F8F
:101B240027D0032101FA00F023EA000343F0706395
:101B340015E040F22A211E48FFF787FBE0E740F258
:101B44002B211B48FFF781FBDCE7184BDB69DDE742
:101B540023F070631548416821F0706141601DB144
:101B6400610D09018A401343002C0BDB0F4A5360BB
:101B740038BD610D090102FA01F123EA010343F0C2
:101B84007063ECE7094AD361F2E700BF1000140068
:101B9400400016000001180000081A00010020008F
:101BA400000130000011200001000080000001400D
:101BB400506C000870B504460D4616462D4B9842ED
:101BC4001CD003F58063984218D003F580639842D3
:101BD40014D003F58063984210D003F580639842D3
:101BE4000CD003F58063984208D003F580639842D3
:101BF40004D040F28D112048FFF727FB6B1E9BB2E7
:101C0400012B23D9042D21D0082D1FD0102D1DD038
:101C1400202D1BD0402D19D0802D17D0B5F5807FF5
:101C240014D0B5F5007F11D0B5F5806F0ED0B5F5A1
:101C3400006F0BD0B5F5805F08D0B5F5005F05D017
:101C4400B5F5804F02D0B5F5004F04D1012E08D868
:101C54006EB1256170BD4FF4C7710748FFF7F5FAFF
:101C6400F4E740F28F110448FFF7EFFAF0E76561FB
:101C7400F0E700BF00080140506C000838B5044686
:101C84000D462A4B98421CD003F58063984218D025
:101C940003F58063984214D003F58063984210D012
:101CA40003F5806398420CD003F58063984208D012
:101CB40003F58063984204D04FF4A2711C48FFF7E7
:101CC400C4FA6B1E9BB2012B23D9042D21D0082DFD
:101CD4001FD0102D1DD0202D1BD0402D19D0802DAC
:101CE40017D0B5F5807F14D0B5F5007F11D0B5F5C8
:101CF400806F0ED0B5F5006F0BD0B5F5805F08D0BE
:101D0400B5F5005F05D0B5F5804F02D0B5F5004FAD
:101D140004D1E3681D4207D0012038BD40F24511CB
:101D24000348FFF792FAF4E70020F6E700080140C1
:101D3400506C0008F8B505460C46494B98421BD038
:101D440003F58063984217D003F58063984213D05B
:101D540003F5806398420FD003F5806398420BD05B
:101D640003F58063984207D003F58063984203D05B
:101D7400B2213C48FFF769FAE3786BB1042B0BD02E
:101D8400282B09D0482B07D0142B05D0102B03D0B7
:101D94001C2B01D0182B14D12388BBB1E37803F09A
:101DA4000F06304613F0100F06D0A378013BDBB2C8
:101DB400022B10D8A078304323785BB32E6800231D
:101DC40010E0B3212748FFF740FAE5E7B42125489E
:101DD400FFF73BFAE2E7BB212248FFF736FAE9E7CF
:101DE4006A610133072B14D801229A40218832EA10
:101DF4000101F6D199000F278F4026EA070600FA61
:101E040001F10E43E1782829EAD04829E9D12A6171
:101E1400E7E72E602388FF2B20D96E68002302E0B9
:101E24006A6115E00133072B17D803F10801012279
:101E34008A40218832EA0101F4D199000F278F40AA
:101E440026EA070600FA01F10E43E1782829E7D0D3
:101E5400E1784829E6D12A61E4E76E60F8BD00BF65
:101E640000080140506C000810B5044610F0704F93
:101E740002D0094B034003B924B940F20E210748AC
:101E8400FFF7E3F914F0805F02D0054B5C6010BDEE
:101E9400044B5C60FBE700BF0000F0EF086C000837
:101EA400000402400000024010B50446431E012B0A
:101EB40040F29480042800F09180082800F08E807D
:101EC400102800F08B80202800F08880402800F043
:101ED4008580802800F08280B0F5807F7ED0B0F5C8
:101EE400007F7BD0B0F5806F78D0B0F5006F75D0EF
:101EF400B0F5805F72D0B0F5005F6FD0B0F5804F61
:101F04006CD0B0F5004F69D0B0F5803F66D0B0F525
:101F1400003F63D0B0F5802F60D0B0F5002F5DD0C6
:101F2400B0F5801F5AD0B0F5001F57D0B0F5800F20
:101F340054D0B0F5000F51D0B0F1807F4ED0B0F145
:101F4400007F4BD0B0F1806F48D0B0F1006F45D026
:101F54002C4B984242D0013398423FD002339842EE
:101F64003CD00433984239D00833984236D01033E9
:101F7400984233D02033984230D0403398422DD009
:101F8400803398422AD003F58073984226D003F513
:101F94000073984222D003F5806398421ED0B0F1BA
:101FA400102F1BD003F5C053984217D003F50053EC
:101FB400984213D003F5804398420FD003F50043B1
:101FC40098420BD003F58033984207D003F50033D1
:101FD400984203D003F58023984208D114F0805F1F
:101FE4000BD0094B1B6823420AD0012010BD40F2DC
:101FF400B7110648FFF729F9F0E7054B1B68F2E72C
:102004000020F3E70100001000040240086C0008FF
:102014000000024038B504460D46164B984226D0BF
:102024001433984223D01433984220D01433984266
:102034001DD0143398421AD01433984217D0143355
:10204400984214D003F56273984210D01433984226
:102054000DD0143398420AD01433984207D0143365
:10206400984204D04FF4B2710348FFF7EEF865606C
:1020740038BD00BF08000240086C000870B5044673
:102084000D461646224B984226D01433984223D04C
:102094001433984220D0143398421DD014339842FC
:1020A4001AD01433984217D01433984214D003F53D
:1020B4006273984210D0143398420DD0143398426E
:1020C4000AD01433984207D01433984204D040F213
:1020D40049111048FFF7B9F835F00E0300D125B9BE
:1020E4004FF4A5710B48FFF7B0F8012E04D84EB198
:1020F40023681D43256070BD40F24B110548FFF76E
:10210400A4F8F4E7236823EA05052560F3E700BF94
:1021140008000240086C000838B504460D461F4B01
:10212400984226D01433984223D01433984220D0B6
:10213400143398421DD0143398421AD01433984261
:1021440017D01433984214D003F56273984210D018
:10215400143398420DD0143398420AD01433984261
:1021640007D01433984204D040F229110C48FFF7E9
:102174006CF8012D05D855B1236843F001032360A1
:1021840038BD4FF495710648FFF75FF8F3E723680D
:1021940023F001031B041B0C2360F1E70800024039
:1021A400086C000808B54FF00060FFF77DFE40B1F1
:1021B4004FF00060FFF758FE00210948FFF7ACFF1D
:1021C40008BD4FF00070FFF76FFE0028F4D04FF009
:1021D4000070FFF749FE034B00229A70ECE700BF42
:1021E40080000240C000002008B54FF40020FFF733
:1021F4005BFE40B14FF40020FFF736FE0021094892
:10220400FFF78AFF08BD4FF40030FFF74DFE0028AA
:10221400F4D04FF40030FFF727FE034B00225A702E
:10222400ECE700BF58000240C000002008B54FF49E
:102234000060FFF739FE40B14FF40060FFF714FE71
:1022440000210948FFF768FF08BD4FF40070FFF74D
:102254002BFE0028F4D04FF40070FFF705FE034B6B
:1022640000221A70ECE700BF30000240C0000020DA
:1022740070B50546FF2814D02846FEF75BFA0446DD
:1022840028B16E1EF6B21C4B9C5D64B90024204636
:1022940070BD2046FFF7ECFF0134E4B2022CF8D9FC
:1022A400EAE70124FAE72846FEF790FA0028EDD180
:1022B4002EB1012E1CD0022E1CD1104D00E0104D69
:1022C40000212846FFF728FF0E4B33F81610023181
:1022D400890089B22846FFF79DFE01212846FFF7B1
:1022E4001BFF094B01229A55034B00229A55CEE756
:1022F400064DE5E70446CAE70817002080000240BF
:1023040030000240B8160020C000002058000240EF
:1023140038B505460C46574B984225D0143398429D
:1023240022D0143398421FD0143398421CD0143353
:10233400984219D01433984216D01433984213D0CB
:1023440003F5627398420FD0143398420CD01433BF
:10235400984209D01433984206D01433984203D0DB
:10236400CF214548FEF771FFA368102B01D0002B45
:1023740053D1E368013B4FF6FE72934252D823696E
:10238400402B01D0002B52D16369802B01D0002B4C
:1023940052D1A3692BB1B3F5807F02D0B3F5007F8E
:1023A4004FD1E3692BB1B3F5806F02D0B3F5006F61
:1023B4004CD1236A202B01D0002B4CD1636AB3F596
:1023C400405F07D0B3F5005F04D0B3F5805F01D060
:1023D400002B45D1A36AB3F5804F01D0002B44D123
:1023E4002A6822F4FF4222F07002A368216A0B4398
:1023F40021690B4361690B43A1690B43E1690B43F9
:10240400616A0B43A16A0B4313432B60E3686B605F
:102414002368AB606368EB6038BDD0211648FEF7D3
:1024240014FFA6E7D1211448FEF70FFFA7E7D22136
:102434001148FEF70AFFA7E7D3210F48FEF705FF6F
:10244400A7E7D4210C48FEF700FFAAE7D5210A48E4
:10245400FEF7FBFEADE7D6210748FEF7F6FEADE733
:10246400D7210548FEF7F1FEB4E7D8210248FEF76C
:10247400ECFEB5E708000240086C000810B50446FD
:102484004F4B984225D01433984222D014339842AB
:102494001FD0143398421CD01433984219D01433EB
:1024A400984216D01433984213D003F562739842BD
:1024B4000FD0143398420CD01433984209D01433FB
:1024C400984206D01433984203D06F213D48FEF75A
:1024D400BCFE236823F001031B041B0C23600023B0
:1024E40023606360A360E360354B9C4226D0364B87
:1024F4009C4229D0354B9C422CD0354B9C422FD04A
:10250400344B9C4232D0344B9C4235D0334B9C42AA
:1025140038D0334B9C423BD0324B9C423ED0324B62
:102524009C4241D0314B9C4244D0314B9C420AD115
:10253400304A536843F47023536004E02E4A5368CE
:1025440043F00F03536010BD2B4A536843F0F0036C
:102554005360F8E7284A536843F470635360F2E722
:10256400254A536843F470435360ECE7224A5368A6
:1025740043F470235360E6E71F4A536843F470033F
:102584005360E0E71C4A536843F070635360DAE732
:10259400184A536843F00F035360D4E7154A53684D
:1025A40043F0F0035360CEE7124A536843F4706378
:1025B4005360C8E70F4A536843F470435360C2E75B
:1025C40008000240086C00081C0002403000024071
:1025D40044000240580002406C0002408000024067
:1025E400080402401C040240300402404404024037
:1025F40058040240000402400000024038B5054679
:102604000C460F4B98420CD003F58063984208D0D7
:1026140003F5A053984204D040F20D510948FEF747
:1026240014FE24F4FC639BB203B924B940F20E51A6
:102634000448FEF70AFE6FEA14242C6038BD00BF7C
:1026440000240140C06B0008F8B505460E46144648
:102654001F46374B98420CD003F58063984208D04C
:1026640003F5A053984204D04FF416713148FEF795
:10267400ECFD112E22D8631EDBB20F2B24D8072FBA
:1026840028D8092E2CD9EA68A6F10A0303EB4303E0
:102694000721994022EA01029F401743EF60062C6C
:1026A40029D8696B013C04EB84041F23A34021EA6D
:1026B400030106FA04F40C436C63F8BD40F259219B
:1026C4001C48FEF7C2FDD6E740F25A211948FEF72E
:1026D400BCFDD4E740F25B211648FEF7B6FDD0E717
:1026E4002B6906EB460107228A4023EA02038F4046
:1026F4001F432F61D3E70C2C0CD8296B073C04EB48
:1027040084041F23A34021EA030106FA04F40C43C2
:102714002C63D2E7EB6AA4F10D0101EB81011F22C6
:102724008A4023EA020306FA01F11943E962C4E785
:1027340000240140C06B000838B504460D46114B17
:1027440098420CD003F58063984208D003F5A05357
:10275400984204D04FF4E9710B48FEF776FD012D41
:1027640005D855B1A36843F4A003A36038BD40F273
:10277400D3110548FEF769FDF3E7A36823F4A0032A
:10278400A360F3E700240140C06B000810B50446C1
:102794000B4B98420CD003F58063984208D003F5A4
:1027A400A053984204D04FF4DC710648FEF74DFD67
:1027B400A36813F0040F01D0012010BD0020FCE732
:1027C40000240140C06B000810B504460A4B98422F
:1027D4000CD003F58063984208D003F5A0539842C7
:1027E40004D04FF4D5710548FEF72FFDA36843F0DC
:1027F4000403A36010BD00BF00240140C06B0008A7
:1028040010B504460B4B98420CD003F580639842F4
:1028140008D003F5A053984204D04FF4C971064878
:10282400FEF713FDA36813F0080F01D0012010BDBB
:102834000020FCE700240140C06B000810B50446EA
:102844000A4B98420CD003F58063984208D003F5F4
:10285400A053984204D04FF4C2710548FEF7F5FC2A
:10286400A36843F00803A36010BD00BF0024014027
:10287400C06B000870B505460C461646164B9842C8
:102884000CD003F58063984208D003F5A053984216
:1028940004D040F26B111148FEF7D7FC012E0FD87B
:1028A40024F4FC639BB203B924B940F26D110B48C4
:1028B400FEF7CBFCE4B24EB16B681C436C6070BD98
:1028C4004FF4B6710548FEF7C0FCE9E76B6823EAEC
:1028D40004046C60F3E700BF00240140C06B0008EF
:1028E40038B504460D460F4B984208D003F5C05343
:1028F400984204D040F24D110B48FEF7A6FC012D7E
:1029040005D855B1A36843F48073A36038BD4FF470
:10291400A7710548FEF799FCF3E7A36823F48073D5
:10292400A360F3E700240140C06B000838B50446F7
:102934000D46114B98420CD003F58063984208D0A1
:1029440003F5A053984204D04FF49A710B48FEF754
:102954007CFC012D05D855B1A36843F00103A360A5
:1029640038BD40F235110548FEF76FFCF3E7A36864
:1029740023F00103A360F3E700240140C06B0008C7
:1029840038B505460C46484B98420BD003F5806396
:10299400984207D003F5A053984203D0E521434859
:1029A400FEF753FC2368D3B1B3F5803F17D0B3F5DA
:1029B400003F14D0B3F5403F11D0B3F5802F0ED0B3
:1029C400B3F5A02F0BD0B3F5C02F08D0B3F5E02F8B
:1029D40005D0B3F5002F02D0B3F5102F46D12379DB
:1029E400012B48D86379012B4AD8A368A3B1B3F566
:1029F400003F11D0B3F5802F0ED0B3F5C02F0BD00C
:102A0400B3F5002F08D0B3F5202F05D0B3F5402F30
:102A140002D0B3F5602F38D1E36813B1B3F5006F7A
:102A240038D1237C013BDBB20F2B38D86A6822F4FF
:102A3400702222F480722368217943EA012313432C
:102A44006B60AB681A4A1A40E368A1680B4361796A
:102A540043EA41031343AB60EB6A23F47003227C23
:102A6400013AD2B243EA0253EB6238BDE6210F4881
:102A7400FEF7EBFBB3E7E7210C48FEF7E6FBB1E713
:102A8400E8210A48FEF7E1FBAFE7E9210748FEF732
:102A9400DCFBC1E7EA210548FEF7D7FBC1E7EB21E0
:102AA4000248FEF7D2FBC1E700240140C06B0008D6
:102AB400FDF7F1FF10B50446C378012B26D86378DF
:102AC4000F2B28D8A3780F2B2AD8E3786BB31C4B91
:102AD400DA68D243C2F30222C2F104000F2323FABC
:102AE40002F261788140A37813400B431B012278E2
:102AF400DBB214490A4482F80033237803F01F0040
:102B04005B090122824041F8232010BD75210E4843
:102B1400FEF79BFBD3E776210B48FEF796FBD1E744
:102B240077210948FEF791FBCFE7237803F01F01D3
:102B34005B0901228A402033024941F82320E4E75B
:102B440000ED00E000E100E0986C000808B50146E3
:102B54000448FEF7D3FB40210248FEF779FB002826
:102B6400F9D008BD0038014010B5044694F90000BE
:102B740020B10134C0B2FFF7E9FFF7E710BD000050
:102B84000130C0B20138072845D8DFE800F0040C52
:102B9400141C242C343C214B9868400A80F001001A
:102BA40000F0010070471D4B9868000A80F0010096
:102BB40000F001007047194B9868C00980F00100CB
:102BC40000F001007047154B9868800980F00100FF
:102BD40000F001007047124B9868400B80F0010030
:102BE40000F0010070470E4B9868800B80F00100E4
:102BF40000F0010070470A4B9868C00B80F0010098
:102C040000F001007047054B9868800A80F00100CD
:102C140000F0010070470020704700BF000C014025
:102C2400001001400138034B03EBC00398780022E5
:102C34009A707047C43400200138034B03EBC0037F
:102C4400D8780022DA707047C4340020042805D8EC
:102C54000138034B03EBC0004078704700207047F5
:102C6400C434002038B504460D46FFF7EFFF034691
:102C7400A8B10D4A1268AA4210D30B4A1268551B18
:102C8400013C0A4A02EBC4025268954209D9064A39
:102C94001168064A02EBC404616000E00023184690
:102CA40038BD0023FBE700BFE4340020C434002017
:102CB4002E4B1A682E4B1B689A4256D910B52B4BD3
:102CC4001B6821332A4A136000240FE0294B13F8B0
:102CD4003430DBB1013B274A02F8343016E0254B8F
:102CE40003EBC202012353700134E4B2032C3BD83A
:102CF4002046FFF745FF0028E8D01E4B13F8343078
:102D0400022B03D801331B4A02F834302246194BF4
:102D140013F83430022B10D9164B03EBC4035B7841
:102D2400002BDCD1134B03EBC4030121D9700F49F1
:102D34000968596000219970D1E7002BD4D10D4B5B
:102D440003EBC4035B784BB10A4B03EBC4030021D0
:102D5400D970012199704FF0FF315960054B03EB95
:102D6400C20200235370BFE710BD7047E434002053
:102D74000C170020C434002030B583B0164C012158
:102D84002046FEF7E3FC154D01212846FEF7DEFC44
:102D940001212046FEF7DAFC48238DF80730022390
:102DA4008DF806304FF47073ADF8043001A9204655
:102DB400FEF7C0FF4FF40043ADF8043001A92846E4
:102DC400FEF7B8FF4FF48063ADF8043001A9204644
:102DD400FEF7B0FF03B030BD000C0140001001400D
:102DE40010B50C4602280FD0FF2815D0012800D0BA
:102DF40010BD0A464FF400510B48FEF7DBFE0B48AA
:102E04002146FEF707FBF3E70A464FF480410648E4
:102E1400FEF7D0FE0648F3E70120FFF7E1FF214665
:102E24000220FFF7DDFFE3E700100140003001401E
:102E34000038004008B502280ED0FF2815D001281C
:102E440001D0002008BD4FF400510E48FEF716FFD4
:102E5400003018BF0120F5E74FF400510948FEF790
:102E64000DFF003018BF0120ECE70120FFF7E2FF5F
:102E740008B10120E6E70220FFF7DCFF0028E1D0DB
:102E84000120DFE70010014008B502210348FEF7E6
:102E9400F5FE003018BF012008BD00BF000C014042
:102EA40008B5024602210248FEF784FE08BD00BFB1
:102EB400000C014008B5FFF7E7FF80F00100C0B245
:102EC400FFF7EEFF08BD000070B582B00120FEF7E9
:102ED400B5FB174E01213046FEF738FC154D012194
:102EE4002846FEF733FC10238DF8073002248DF8B2
:102EF4000640ADF8044001A93046FEF71BFF142339
:102F04008DF807304FF4C043ADF8043001A92846CA
:102F1400FEF710FF0120FFF7C3FF01210846FFF76A
:102F24005FFF01212046FFF75BFF02B070BD00BFC9
:102F3400000C0140001001400138094B33F81030F7
:102F440040F6E44000FB03F0031344F6206000FB6A
:102F540003F0044BA3FB0030C0F34F30704700BFB5
:102F6400CC0000205917B7D170B584B00E46154671
:102F74000024ADF80E40FFF7DFFFADF80E0009E0C6
:102F8400291900230093C82289B23046FDF7DEFCDC
:102F94000134E4B2042C10D8094B33F81420BDF8E2
:102FA4000E309BB29A42EBD2291900220092C82318
:102FB40089B23046FDF7CAFCEAE704B070BD00BF31
:102FC400CC6D000808B50023022B0BD8154A32F843
:102FD4001300154951F82320024441F823200133FA
:102FE400DBB2F1E7114A13780133DBB21370072B1C
:102FF40011D9002313700CE00B4951F82320C2F3BC
:10300400CF020B4820F81320002241F8232001337B
:10301400DBB2022BF0D94FF408710648FFF7EEFA41
:1030240008BD00BFCC000020D4000020F026002002
:10303400C4000020002401402DE9F04393B04FF474
:103044008040FEF7AFFC494F01213846FEF7E4FB10
:10305400DFF8289101214846FEF778FB444D012111
:103064002846FEF7F1FA0124ADF844404FF0020877
:103074008DF8468000268DF8476011A94846FEF772
:1030840059FE3846FFF7FAF93A4B00933A4B01934D
:1030940002964FF00309CDF80C9004968023059313
:1030A4004FF4806307934FF48073069320230893AF
:1030B4004FF4005309930A9669463846FFF728F9F6
:1030C40021463846FFF728F80B968DF830408DF8E6
:1030D40031404FF460230D930E968DF83C900BA96C
:1030E4002846FFF74DFC21462846FFF7F9FB072346
:1030F400224631462846FFF7A7FA072342462146CF
:103104002846FFF7A1FA07234A4605212846FFF778
:103114009BFA12238DF840308DF841808DF842409F
:103124008DF8434010A8FFF7C5FC22464FF4087100
:103134002846FFF79FFB21462846FFF7F7FB284662
:10314400FFF77CFB0A48FFF75BFB0028FAD108482D
:10315400FFF73AFB0648FFF719FB0028FAD10121D3
:103164000348FFF7E9FA13B0BDE8F0830800024012
:10317400002401404C240140CC0000200008014000
:103184002DE9F04F97B00138C6B2012E00F2E98064
:103194000D46B1F5FA7F01D94FF4FA7537467F4BE6
:1031A40023F816504FF000087D4B03F806807D4B42
:1031B40003F80680DFF8F4914FF4FB6404FB0694F3
:1031C4004FF4FA624146204603F0C6FB042241460E
:1031D400204603F0C1FBAA46681C4FF4FB7303FBB3
:1031E40006000422FF2109EB800003F0B5FB012354
:1031F4009D420BD34FF4FB7202FB07326A490878F5
:103204006A4901F8220001339BB2F1E7CEB1012EE5
:1032140000F0AA80022E40F0A480654E0027DFF85B
:10322400B0813D464FF01109624B039303F5DE3341
:103234007C3302934FF0140BA3F57843803B019346
:1032440010E0182601274FF000085B4D4FF00D09E0
:103254005A4B039303F55043243302934FF0280B46
:10326400574B019301210846FEF7C2F90121019849
:10327400FEF76CFA01210298FEF7CEFA1DB1012186
:103284002846FEF73FFAB8F1000F03D0012140466B
:10329400FEF7FEF9002F78D118238DF85730032359
:1032A4008DF85630ADF854B015A90198FEF742FDDB
:1032B400029F3846FFF7E2F8039B0A930B9410230E
:1032C4000C930AF102039B000D9300240E948023B7
:1032D4000F931094119412944FF440531393149435
:1032E4000AA9BA463846FFF713F88DF824904FF030
:1032F40002088DF8258001278DF826708DF8277037
:1033040009A8FFF7D7FB3A460A215046FEF7B6FE56
:10331400ADF810404FF48273ADF81230ADF814409C
:10332400ADF81680ADF818704FF40073ADF81A308C
:10333400ADF81C60ADF81E404FF6FF73ADF82030B9
:1033440004A92846FEF792F839462846FEF702F803
:103354003A4641462846FEF729F839462846FEF7FC
:1033640059F817B0BDE8F08F18260027B846154D58
:103374004FF00F09144B039303F5E4334C330293DA
:103384004FF4204B0E4B01936CE701213846FEF7B6
:1033940027FB01210D48FEF723FB7DE7B81600202B
:1033A40008170020C000002038000020201700204B
:1033B400882A110004440040003001400C300140D0
:1033C400000C0140003800400C380040000230007E
:1033D40000440040F8B505460F4614461E463C22FC
:1033E400002103F0B9FA6F700A2C00D90A24EC709A
:1033F40006B9F8BD2846FDF7DFFDFAE770B50646C5
:103404000D46FDF777FB044648B1104A4FF48A6332
:1034140003FB062393F839340F2B02D900242046EA
:1034240070BD0133DBB210464FF48A6202FB06F62C
:10343400821982F83934013B03EBC303DA001644E2
:1034440048222946304403F079FAE8E7E0000020F6
:103454002DE9F0410446174698469DF818609DF8FA
:103464001C500023037680F83C3021B1182203F06D
:1034740065FA0123237647B12022394604F11C0062
:1034840003F05CFA012384F83C300EB10123237667
:1034940015B1012384F83C30C4F840809DF82830ED
:1034A40084F846309DF82C3084F845309DF820305F
:1034B40084F844309DF8243084F84730667684F8E4
:1034C4003D50BDE8F08100002DE9F0479DF8205003
:1034D4001E4C2478042C31D8984617468A46064652
:1034E400FCF7BAFF68B30F2D2DD8DFF860904FF4C6
:1034F4008A62174B02FB04340021204603F02CFAA5
:10350400C4F83C74C4F84074002384F8383484F854
:103514004D3484F845A484F8395484F84464C4F8D8
:10352400483405EBC505EA004146204603F006FA97
:1035340099F80000431C89F8003000E00620BDE83B
:10354400F0870620FBE70620F9E700BF701600208D
:10355400E00000202DE9F04383B005460E461746EF
:103564009846FDF7C7FA98B10B4C94F80090257073
:103574009DF82C3000930A9B424639463046FFF7AB
:10358400A3FF84F80090854204D103B0BDE8F08322
:103594000620FAE70620F8E77016002070B5054605
:1035A400194B187868BB0C4616469DB10021174884
:1035B400FEF7B2FD7CB121461448FEF72BFD96B907
:1035C400124BDD600124104B1C7021460F48FEF79E
:1035D400A3FD204670BD2B4613F9012B002AEAD027
:1035E4000134A4B2F8E70121204603F089F9084E1A
:1035F40030602246294603F0A1F93268034BDA60B1
:10360400E0E70020E6E700BFBC00002044000240E1
:10361400B800002008B56E4B1B8813F0200F66D04D
:103624006B4B9B88DBB26B4A13706B4B1B78002B84
:1036340058D11378443B202B59D8DFE803F0335892
:10364400583D582A585849585858215858581B58C2
:1036540058585858585858585858581158581500C8
:103664005E48FFF781FA42E0002211465C48FFF70A
:1036740095FF3CE00323584A13705A4A137036E00E
:103684000023584A1370544A01211170564A13708A
:103694002DE00123534A13704F4A1370524B0022FA
:1036A4001A7024E04F4B02221A704B4B01221A70FD
:1036B4004D4B00221A701AE04A4B04221A70464BF2
:1036C40003221A70002211464848FFF767FF0EE0F4
:1036D400444B05221A70404B01221A70424B0022BF
:1036E4001A7004E03C4B1B78DBB2012B00D008BD00
:1036F4003C4B1B78DBB2052BF9D801A252F823F01E
:103704001D3700084B37000879370008F3360008E6
:10371400F3360008A7370008334B1B782D490A7885
:10372400D2B23348C2540A78D2B20A2A01D00A78F3
:103734002AB92F4A0021D154274A03211170013399
:10374400294A1370D3E7284B1B7822490A78D2B24E
:103754002748C2540A78D2B20A2A01D00A782AB970
:10376400234A0021D1541C4A0321117001331E4AFB
:103774001370BCE71C4B1B7816490A78D2B21C485C
:10378400C2540A78D2B20A2A01D00A782AB9184A4D
:103794000021D154104A032111700133124A1370CD
:1037A400A5E7114B1B780B490A78D2B21048C254D2
:1037B4000A78D2B20A2A01D00A7822B900220C4926
:1037C400CA5405490A700133074A13708FE700BFD2
:1037D40000380140EB34002000350020686D0008FB
:1037E400706D0008E9340020C41600200435002060
:1037F400EC3400202DE9F84304460F46FCF72CFE78
:103804000646002800F0B380002F00F0CC80FF2C87
:1038140040D02546DFF89481742303FB04F909F1B1
:103824004800404420223946043003F087F87A697E
:1038340008EB09035A64012283F8482093F84C00EA
:10384400FCF795FD40BB594A742303FB0523B3F9E8
:103854005630002B4CDA9BB25449742202FB0512F9
:1038640091880B449BB251885B1A9BB20233A2F835
:103874005630E8E739462046FFF7BCFF0134E4B28E
:103884004B4B1B78A34272D92046FCF7A7FD0028B6
:10389400F4D1EFE70024F3E7742505FB0485286FD2
:1038A40003F044F8B5F85000B5F85A300221184432
:1038B40003F026F828670023EB87B5F85C303D4A0F
:1038C400A2FB03231B09B5F85A2003FB02F3B5F846
:1038D4005020B3FBF2F1934200D20121334A742306
:1038E40003FB0423A3F85C100122A3F8402030E07A
:1038F4001146742202FB04129279002A3AD00A4635
:10390400742101FB04218A889BB2D31A9BB2013330
:10391400A1F8563091F858305B4281F85830234A68
:10392400742303FB0423B3F956209B889A422DDDAC
:103934001E49742202FB0412A2F856301B4A742357
:1039440003FB0423B3F95620DA87B3F85C20A3F809
:103954004020164B742202FB043494F9583084F846
:103964003C30002384F84930012384F84830304641
:10397400BDE8F8830D4A742101FB04214A889BB2F7
:1039840013449BB2013BA1F85630C8E7074974239E
:1039940003FB04135B889A42D0DA742202FB0412FC
:1039A400A2F85630CAE70026E1E700BF242700202A
:1039B400BC160020CDCCCCCC10B5114B1B6813F435
:1039C400004F0BD00E4B4FF400425A600D4B0122B6
:1039D4001A7000210C48FEF79FFB10BD084B1B68B2
:1039E40013F4005FF5D0064B4FF400525A60074CB5
:1039F400206802F09BFF00232360054A1370E8E768
:103A040000000240EA34002044000240B8000020D4
:103A1400BC0000202DE9F04F83B083460C46FCF730
:103A24001BFD0190002800F0C180002C00F0D5801F
:103A3400BBF1FF0F1ED0D946742000FB0BF01030F1
:103A4400674B184418222146043002F077FF0127FF
:103A540042E00135EDB2634B1B78AB4240F2A680E5
:103A64002846FCF7BBFC0028F3D121462846FFF783
:103A7400D1FFEEE70025EEE70022F6B2B6FBF5FC37
:103A8400DFF85CE1742303FB09E383F80CC0BAF1AB
:103A9400000F0DD0BCF1000F09D005FB1C66322EBF
:103AA40006D9019A04E0019AE7E7019AE5E7019A49
:103AB400C0B2B0FBF5F6DFF828C1742303FB09C3D9
:103AC4005E7329B1002E36D005FB1600322834D897
:103AD4000AB10137BFB292B3A56807EB870293001E
:103AE400B5FBF3F520796378C01A02F005FF5FFA9D
:103AF40080F86079A378C01A02F0FEFE06465FFAE9
:103B040080FAA079E378C01A02F0F6FEC1B2B8FBDD
:103B1400F5F2DFF8CCC0742303FB09C3DA72B8F101
:103B2400000FA9D0002ABED005FB1288B8F1320FCD
:103B3400BBD80022A1E7019ACBE7019AC9E7284A3A
:103B4400742303FB0B231F841F8294F90E30B3F1FB
:103B5400FF3F2FD062782249742303FB0B131A72A0
:103B6400A2785A72E2789A7294F90E201C4974234E
:103B740003FB0B139A73236923B10022A3FB0515DE
:103B84001DBB22B3164A742303FB0B2300225A6283
:103B9400134B742202FB0B3BDBF82430CBF82C30A4
:103BA40001238BF8123000238BF81330019803B0F3
:103BB400BDE8F08F22790A49742303FB0B131A72B0
:103BC40062795A72A2799A72CEE70122D9E704493E
:103BD400742202FB0B125362DAE700230193E5E738
:103BE40024270020BC1600202DE9F04784B00446A9
:103BF4008DF80F00FCF730FC002800F0AA81AA4BD6
:103C0400742202FB04F202F1100119440D1D134445
:103C14009E7C002E00F09D81A34B742202FB043293
:103C2400537D107E834200F284804FF000099E4948
:103C3400742202FB0412917D527E91427BD84FF094
:103C440000089949742202FB0412D17D927E9142AC
:103C540073D80027B9F1000F71D0934A4FF0740A5A
:103C64000AFB042A9AF80E104942009303469AF874
:103C74000B2049B29AF80800FDF7FCF88AF808000E
:103C8400B8F1000F6CD0884B4FF0740A0AFB043A69
:103C94009AF80E1049429AF8163000939AF819309F
:103CA4009AF80C2049B29AF80900FDF7E3F88AF86B
:103CB4000900002F69D07C4B4FF0740A0AFB043AC8
:103CC4009AF80E1049429AF8173000939AF81A306D
:103CD4009AF80D2049B29AF80A00FDF7CBF88AF851
:103CE4000A003FB1704A742303FB04239A7A9B7E33
:103CF4009A425FD947B96C4A742303FB04239A7A26
:103D04009B7E9A4280F085803FB1674A742303FB0F
:103D140004239A7ADB7D9A427ED2002F7FD1624AB5
:103D2400742303FB04239A7ADB7D9A427AD93A46B8
:103D340041E0B1467BE7B04683E737468AE75A4A13
:103D44004FF0740A0AFB042A00909AF80B209AF99F
:103D54000E109AF80800FDF78DF88AF808008FE72E
:103D6400514B4FF0740A0AFB043A9AF81930009345
:103D74009AF816309AF80C209AF90E109AF809005D
:103D8400FDF778F88AF8090093E7474B4FF0740A77
:103D94000AFB043A9AF81A3000939AF817309AF802
:103DA4000D209AF90E109AF80A00FDF763F88AF8C4
:103DB4000A0096E70022B8F1000F07D03A497423AD
:103DC40003FB0413597A5B7E99422ED9B8F1000F94
:103DD40007D13549742303FB0413597A5B7E994256
:103DE40052D2B8F1000F07D02F49742303FB0413F8
:103DF400597A9B7D99424AD2B8F1000F4BD12A4996
:103E0400742303FB0413597A9B7D994247D9414695
:103E14000CE03A463746CEE732460027CBE7002788
:103E24003A46C8E732460027C5E70021B9F1000F3A
:103E340007D01D48742303FB0403187A1B7E9842A1
:103E440034D9B9F1000F07D11748742303FB0403D5
:103E5400187A1B7E98427FD2B9F1000F07D012481E
:103E6400742303FB0403187A5B7D984278D2B9F17A
:103E7400000F78D10C48742303FB0403187A5B7D8C
:103E8400984274D94E4612E04146B046CEE73146D8
:103E94004FF00008CAE74FF000084146C6E7314634
:103EA4004FF00008C2E700BF2427002000260AB90B
:103EB400002F4ED011B9B8F1000F4AD016B9B9F19C
:103EC400000F46D000238DF80E30714A742303FB93
:103ED400042393F829608EB1742303FB0423DB7C51
:103EE40023B9742303FB04230222DA7421463046E7
:103EF400FCF7F2F910B1674B01229A5516B1654BE4
:103F04009B5D33B3624A742303FB0423DB6A8BBBDC
:103F14005F4A742303FB04231B7D012B40F28C8036
:103F2400022B05D1742303FB04239A7B52429A7318
:103F3400574A742303FB04230022DA74544B74227B
:103F440002FB043494F82940524B1B5D002B40F0D3
:103F5400948004B0BDE8F08733464E469946A6E700
:103F64004FF00009A3E74FF000094E469FE74FF0DA
:103F740000099CE7742000FB04F02830104404304E
:103F8400FCF7EAF90028C3D0414A742303FB042355
:103F940093F83030002B48D0742303FB0423002211
:103FA40083F8302093F92230012B1ED0384A742331
:103FB40003FB042393F831201A7693F832205A76BF
:103FC40093F833209A76324A742303FB04231B7D2F
:103FD400012B18D9022B1DD12D4A742303FB042372
:103FE4009A7B524283F8222014E0294A742303FB6B
:103FF400042393F831205A7593F832209A7593F874
:104004003320DA75DFE7742303FB042393F93420A8
:1040140083F822201E4A742303FB04239A6B5A62FA
:1040240029462046FFF7F6FC88E7194A742303FB68
:1040340004230122DA7481E7154A742303FB042361
:1040440093F90E30B3F1FF3F0DD0012B7FF470AF25
:104054000F4A742303FB04235A7D1A729A7D5A7201
:10406400DA7D9A7264E7742303FB04231A7E1A72BE
:104074005A7E5A729A7E9A725AE72046FCF708F9D9
:1040840000283FF466AF034B00221A5561E700BFD6
:1040940024270020FC26002070B586B005460C4677
:1040A40016460846FCF7D8F990B3FF2C43D01822E3
:1040B4002946684602F042FC2A692D49742303FB11
:1040C40004139A63012283F8302095F90E2083F8B3
:1040D400342096B36A78742303FB041383F83120E5
:1040E400AA7883F83220EA7883F833201A7A8DF894
:1040F40001205A7A8DF802209B7A8DF8033001232F
:104104008DF80E300123049369462046FFF782FCA4
:1041140006B070BD324621462846FFF7BDFF013484
:10412400E4B2144B1B78A342F2D92046FCF756F9AB
:104134000028F4D1EEE70024F3E72A790C4974232C
:1041440003FB041383F831206A7983F83220AA79B7
:1041540083F833201A7A8DF804205A7A8DF80520D2
:104164009B7A8DF80630FF238DF80E30CAE700BF26
:1041740024270020BC1600202DE9F041264D2D787F
:104184001D2D40D8914240D81F4616460D46044680
:10419400FCF7DCFA00283BD031462046FCF7D6FA7F
:1041A400002837D01C4991F800801C48742202FB77
:1041B40008F2831884545D809E809F719DF81820B6
:1041C400DA7108F101030B7008994046FFF722FCED
:1041D40028B9124A742303FB082300229A740E4B55
:1041E400187801380799C0B2FFF704FB30B90B4BBC
:1041F400742202FB0838002388F84830064B1878EC
:104204000138C0B202E01F2000E01F20BDE8F081A9
:104214001F20FBE71F20F9E7BC16002024270020FD
:104224002DE9F04F9BB006AFB860F9607B6097F85A
:1042340078A097F8889097F88C307B6197F8943041
:104244003B617E4B1B78042B04D9FCF753FC0028FC
:1042540000F0EB80F868FCF7FFF8002800F0E78036
:10426400BAF1070F00F2E5804FEA0A1303EB4A03A1
:10427400DA00ADEB020D0DF1180B1822F96F07F1FE
:10428400380002F05BFBB9F1000F0BD10123BB64D2
:10429400F868FCF7CDF8386008B996233B604FF016
:1042A400000859E02022D7F8801007F1180002F026
:1042B40045FBEBE77B6987F83030387EFCF757F82D
:1042C40038B13D85FF2387F824304FF6FF737B8494
:1042D4006DE001233B853B6803EB83029300B3FB52
:1042E400F5F39BB2FB840BB90123FB840023FB622F
:1042F4005DE0230103EB4403D800002205920492FD
:104304000123039302920192009206FA03F307F148
:1043140038015844FFF79CF861E0002287F84C20EC
:104324003D64FF2387F846306400013404EBC40481
:10433400E00005920492012303930292CDF80490C5
:104344000092A5EB460307F138015844FFF780F8C3
:1043540008F101085FFA88F8D04547D2444608F1CD
:104364000203D7F8902002EB83035A683B6923B118
:10437400D7F890309A6B4FF0010A31490E8802FB4E
:1043840006F6304BA3FB060676090D88C5F16405D5
:1043940005FB02F5A3FB05356D097B6987F84C30F5
:1043A4003E64012387F84630B9F1000F82D1B9F198
:1043B400000F9ED0230103EB4403D8000023059390
:1043C40004930122039202930193009306FA02F3E9
:1043D40007F1180207F138015844FFF739F8B9F129
:1043E400000F9AD0002387F8303096E7BC68204647
:1043F400FCF780FB68B14FEA4A0A5FFA8AF301933B
:10440400CDF800B07B680022F9682046FFF7A2F8D7
:1044140010E04FEA4A0A5FFA8AF300935B467A682F
:104424000021F868FFF750F804E0062002E00620B7
:1044340000E006205437BD46BDE8F08F701600201A
:10444400360000201F85EB512DE9F04F9BB006AFDD
:10445400B860F96015467B6097F8788097F88860B3
:1044640097F88C90724B1B78042B04D9FCF742FB11
:10447400002800F0D680F868FBF7EEFF002800F073
:10448400D280B8F10F0F00F2D08008F1FF3B08EBA7
:10449400C802D300ADEB030D0DF1180AD7F8803034
:1044A4003B64012387F83830BB64002487F84C4010
:1044B40087F84D5087F8463020E032460021F86FE7
:1044C400FCF7EFFB3874C0F307237B74C0F3074099
:1044D400B87431E005EBC505E800002205920492AA
:1044E40003920292CDF804900092D7F8843007F139
:1044F40038015044FEF7ACFF0134E4B2444574D2B1
:1045040032462146F86FFCF7CCFB3875C0F307231D
:104514007B75C0F30740B8752546A345CDD0611C13
:104524003246C9B2F86FFCF7BCFB3874C0F30723FA
:104534007B74C0F30740B8743B7D87F839303B7C0B
:1045440087F83C307B7D87F83A307B7C87F83D30B8
:10455400BB7D87F83B30BB7C87F83E30002CB9D15B
:10456400B9F1000FB6D0012387F8323087F83180D3
:10457400FB6F7B630023FB62F868FBF759FF2D4B4D
:10458400A3FB0030C0F3CF00B88308B93223BB8348
:10459400BB8B9B08FB833B8401233B76264BD7F8DC
:1045A4008020A3FB0223C3F34F133B850BB90123E4
:1045B4003B850223FB84012287F824207A8400238C
:1045C40087F8303005EBC505E800059304930393A1
:1045D400029301920093D7F8843007F1180207F18F
:1045E40038015044FEF734FF86E7BC682046FCF7E8
:1045F40081FA68B1CDF80480CDF800A07B68002270
:10460400F9682046FEF7A6FF5437BD46BDE8F08F93
:10461400CDF8008053467A680021F868FEF754FF0D
:10462400F2E70620F0E70620EEE70620ECE700BFFD
:10463400701600201F85EB51D34D621008B502F0AF
:1046440047FA08BD10B5044602F066FA0134013891
:104654006FF00043B3FBF4F3B0FBF3F010BD0000C4
:104664002DE9F04F8FB0814601238DF837308DF856
:104674003600FBF7F1FE10B90FB0BDE8F08F4C46E1
:10468400C04A742303FB09F303F1080102EB010A96
:10469400D118B1F80280B1F804B0D05C0490B1F83C
:1046A4005470B1F852000744BFB2B1F85000074447
:1046B400BFB2B1F85A10084481B2099103F1400025
:1046C4001044FBF73DFE0890002800F0EF81AD4A4E
:1046D400742303FB092393F849300893002B40F01B
:1046E400E381742303FB092393F84C00012807D0CA
:1046F400742303FB092393F86C60002E00F085807B
:10470400A04A742303FB0923B3F93E00404501DBAF
:1047140058451ADD9B4A742303FB0923D88FB3F849
:104724005A2093F93C1001FB020212B2DA870129E4
:104734002DD0B1F1FF3F49D0924A742303FB0923E2
:10474400B3F85C20A3F84020B0E1742303FB0923F1
:10475400B3F85A1093F93C505B46424605FB01F10D
:10476400FCF79BFB0028D5D0742303FB09F34033EB
:10477400844A1344181DFBF7EFFD0028CAD0814A70
:10478400742303FB0923012283F86C20C2E707EB9F
:104794000B039342CDDC7B4A742303FB092393F878
:1047A4006C305BB1742303FB0923012283F8492095
:1047B400002283F8482083F86C20BDE771497422F5
:1047C40002FB0912A2F83E800893B5E7A8EB0703A1
:1047D4009342B1DB6B4A742303FB092393F86C30D7
:1047E4005BB1742303FB0923012283F849200022CF
:1047F40083F8482083F86C209EE76249742202FB08
:104804000912A2F83EB0089396E7022813D00028B4
:1048140046D0FBF7ACFD089000283FF42DAF594A71
:10482400742303FB09239B7C002B40F08D8000251F
:104834000596099E85E0534B742505FB0935B5F8AB
:104844005A1095F93C000DF1370300935B4642463C
:1048540000FB01F1B5F93E00FCF7DDFAE88795F9B4
:104864003C209DF937309A4201D1089664E77423BD
:1048740003FB09F34033434A1344181DFBF76CFD53
:10488400089020B1012285F86C20089654E73D4A2F
:10489400742303FB09239DF8372083F83C204BE75E
:1048A400384B742000FB0930B0F85A1090F93C5092
:1048B4005B46424605FB01F1B0F93E00FCF7EDFA18
:1048C40048B9304A742303FB092393F86C300893E6
:1048D400A3B1089630E7742303FB09F34033294A54
:1048E4001344181DFBF738FD0028EAD0254A742329
:1048F40003FB0923012283F86C20E2E7742505FBFE
:104904000925B5F85A1095F93C005B46424600FB70
:1049140001F1B5F93E00FCF79FFAE8870CE7194A64
:10492400742303FB04231A6F32F8151093F86430D0
:1049340001930022009213464846FBF7CBFF013552
:10494400ADB2B542EBD3059E0E4A742303FB092393
:10495400B3F93E30099A0592934207DB094A74235E
:1049640003FB092393F84C30042B0DD0054A742320
:1049740003FB0923B3F93E30099A9A4200F391806C
:104984000896D9E624270020742505FB0925099BF0
:104994005A000021286F01F0DFFF0023EB87E5E7D1
:1049A400ABEB0800FFF74EFE80B2C84A742303FB4A
:1049B40004231A6FB3F93E30013022F813003FE0AC
:1049C400742303FB04230122DA8742E0072B06D079
:1049D400BE4A742303FB0923099ADA87ACE6099BD0
:1049E4005A1EBA49742303FB0913DA87FF2283F89A
:1049F4003C20A1E63BB9B54A742303FB042393F896
:104A04004C30072B44D00135ADB2B04A742303FBBC
:104A14000423B3F85A30AB427FF68EAEAB4A74230C
:104A240003FB042393F93C30B3F1FF3FB8D1742363
:104A340003FB04231A6FB3F93E30002122F813104C
:104A4400A24A742303FB0423DB6B23F47F43FF2B71
:104A5400B6D09E4B742202FB0432D38F92F93C10E1
:104A640089B20B441BB2D3879E42C3DC974A74239A
:104A740003FB0423012283F86C2093F84C30062BAB
:104A8400A4D1924A742303FB04230022DA87BAE7F1
:104A9400742303FB0423012283F86C2083F83C2055
:104AA400B1E70025059EB0E700230893874A7423E5
:104AB40003FB092393F84C502846FBF758FC0028C5
:104AC40000F0B081814A742303FB0923B3F93E301B
:104AD4001FFA83FA043DEDB2012D20D97B4A7423D9
:104AE40003FB092393F865300BB31146742202FBD0
:104AF400091292F8662002B90122ABEB080803FB05
:104B040002F398FBF3F39BB20B93099B9A45C0F015
:104B14001F8100255646DDF82C80099F58E1099B2A
:104B24005345DBD10AF1FF331FFA83FAD6E700239A
:104B34000B93EAE7099B5F1EBFB283E0531E0B9AF7
:104B440093FBF2F393FBF1F201FB12315F4B742000
:104B540000FB0430FF22C9B2806EFCF7A2F88DF886
:104B64003000C0F307238DF83130C0F307408DF8CF
:104B7400320084E0554A742303FB0423002283F8A3
:104B84006D2083F86E2083F86F20504B742505FB4D
:104B9400043595F93C3019469DF83090B5F85C80A1
:104BA400CDF80090002399FBF8F28B4695F86D0040
:104BB400FCF760F98DF8180085F86D009DF831A0B8
:104BC400CDF800A000239AFBF8F2CDF814B05946B2
:104BD40095F86E00FCF74EF98DF81F0085F86E000D
:104BE4009DF832B0CDF800B000239BFBF8F2059994
:104BF40095F86F00FCF73EF9C0B285F86F0095F8A0
:104C04006430019300909DF81F309DF8182004999A
:104C14000A98FBF75FFE95F93C30012B58D0B3F1AD
:104C2400FF3F62D00136B6B2284A742303FB042343
:104C3400B3F85A30B34240F29080002F3FF47AAF79
:104C4400013FBFB2214A742303FB04231A6F32F8D5
:104C54001720049293F8651000297FF46FAF1B4A64
:104C6400742303FB042393F84D208DF8302093F82C
:104C74004E208DF8312093F84F308DF83230089B58
:104C8400002B82D0114A742303FB042393F84C3085
:104C9400072B7FF46FAF742303FB042393F93C3099
:104CA400B3F1FF3F7FF466AF9DF8302007497423CA
:104CB40003FB041383F86D209DF8312083F86E20E4
:104CC4009DF8322083F86F205FE700BF242700207F
:104CD40095F86D209145A2D195F86E2092459ED10C
:104CE40095F86F2093459AD111E08D4A742303FB04
:104CF4000423DB6E23F07F4323F0FF03002B91D1C9
:104D0400742303FB042393F86F30002B8AD1844A65
:104D1400742303FB042393F86C30002B82D0742398
:104D240003FB04F3D118002081F86C0040331344D2
:104D3400181DFBF711FB00283FF474AF784A742365
:104D440003FB0423099ADA87012283F8492069E7DF
:104D540000265746CDF8289066E7BA46DDF8289035
:104D6400D7E67E1EB6B26E4A742303FB04231B6F80
:104D740033F816A0BAF1000F3FF47EAC742303FBA2
:104D8400042393F8651089BB654A742303FB042349
:104D940093F84D208DF8302093F84E208DF8312073
:104DA40093F84F308DF832305D4A742303FB0423AB
:104DB40093F8643001939DF8323000939DF83130BC
:104DC4009DF8302051464846FBF784FD0135ADB2CD
:104DD400534A742303FB0423B3F85030AB427FF6E9
:104DE4004BAC002EBDD0013EB6B2BCE70AF1FF3396
:104DF40093FBF8F393FBF1F201FB1231484B74205F
:104E040000FB0430FF22C9B2806EFBF74AFF8DF825
:104E14003000C0F307238DF83130C0F307408DF81C
:104E24003200C1E73E4B742202FB093393F8483049
:104E3400002B3FF421AC002610E0394A742303FB15
:104E44000423DA8F93F93C50ADB206FB15252DB23D
:104E5400454501DB5D453DDD0136B6B2BE42BFF4DA
:104E64000BAC2F4A742303FB042393F84C20012A30
:104E7400E3D02B49742303FB041393F86C30002B09
:104E8400DBD1022A13D0002A7FF4F6AB244B742022
:104E940000FB043090F93C1001FB06F15B464246EE
:104EA4004942B0F93E00FBF7D7FF05B2D0E71C4BEF
:104EB400742000FB043090F93C1001FB06F1002340
:104EC40000935B4642464942B0F93E00FBF7A3FF1C
:104ED40005B2BDE706F101091FFA89F90122494625
:104EE4005046FBF70FFF0590022249465046FBF758
:104EF40009FF0690032249465046FBF703FF0123AE
:104F04000293074A742303FB042393F86430019348
:104F14000090069B059AA9B20498FBF775FC9BE7E1
:104F2400242700202DE9F04186B000230593049343
:104F3400414B1A68414B1B689A4202D806B0BDE83F
:104F4400F081FF20FBF742FC0028F7D13C4A13789C
:104F540001331370384B1B680533384A1360394BDF
:104F64001B78394A157805EB9305EDB20135EDB29E
:104F740032E0742303FB04F3103308461844FBF7B0
:104F8400DFF988B9314A742303FB04235A7A997AE6
:104F940093F828000290019100921B7A3A46314618
:104FA4004046FBF73BFD30E0274B1878FEF71CFE2C
:104FB400264A742303FB04231A8C1A82E2E7224B49
:104FC4001878FFF74DFBFBF773FF059BC01A04909D
:104FD4001D4A1378013313701B4B1C782046FBF7D2
:104FE4003BFAD8B1AC4219D2FBF762FF0590164BDD
:104FF4001C781649742303FB04F3CA18568897884F
:1050040011F80380937C002BB3D1104B742202FB64
:10501400043494F84830002BD5D0D0E7084B1B78E3
:10502400032B8BD9FF20FDF723F90023044A1370C7
:10503400054A137082E700BFE434002014170020EF
:10504400B5160020BC160020BD1600202427002021
:1050540010B582B00C4600238DF800308DF8013075
:105064008DF80230082821D0062809D800EB40002A
:105074001D4B184402888378ADF800208DF8023067
:1050840014BB009BADF804301B0C8DF806300020D7
:105094009DF8043063F307009DF8053063F30F2097
:1050A4009DF8063063F3174002B010BD0620FFF7E9
:1050B400C9FA00EB40000C4B184402888378ADF821
:1050C40000208DF80230DBE721466846FBF7BDFD82
:1050D4008DF80400C0F307238DF80530C0F30740B2
:1050E4008DF80600D3E700BFF86D000830B583B033
:1050F4000D4614461946FFF7ABFF8DF80400C0F3C4
:1051040007238DF80530C0F307408DF806009DF89D
:1051140018102846FFF79CFF9DF804306370207137
:105124009DF80530A370C0F3072363719DF8063022
:10513400E370C0F30740A07103B030BD10B582B076
:105144000C461146FFF784FF6070C0F30723A37079
:10515400C0F30740E0700023637602B010BD2DE970
:10516400F04383B00C4617469846FF21FFF770FFC3
:10517400C0F30729C0F30746C5B24246FF212846BB
:10518400FBF75EFD20713A46FF212846FBF758FDE8
:1051940060705FFA89F94246FF214846FBF750FDEB
:1051A40060713A46FF214846FBF74AFDA070F6B20B
:1051B4004246FF213046FBF743FDA0713A46FF21EA
:1051C4003046FBF73DFDE07003B0BDE8F0832DE908
:1051D400F04387B004460D4616461F469DF83880B6
:1051E4009DF83C909DF8403073B10A2807D13A46A7
:1051F40031462846FEF750FF07B0BDE8F0834B4622
:105204004246FFF7ACFFF2E71822684601F096FB2E
:105214000A2C05D13A4631466846FEF73DFFEBE7D6
:105224004B46424669462046FFF799FFF2E7F0B540
:1052340085B005460F4690F8384490F8446404EB72
:10524400C402D30003441B7E002B4DD004EBC402E4
:10525400D30003445B7E002B41D104EBC402D30092
:10526400034493F8463003B989B3E3002344D900D7
:105274002944002302930193009391F84530324668
:105284000A20FFF7A4FF012385F84D3495F84D3427
:1052940003B1BFB104EBC402D3002B4493F83C30F8
:1052A40063B304EBC402D3002B4493F83D3003B141
:1052B400FFB104EBC404E100183129440431304641
:1052C400FEF798FA002385F84C3405B0F0BD04EBE2
:1052D400C403D90001443046FEF79CFBD6E7012104
:1052E4003046FBF7ABF9D1E700213046FBF7A6F9CE
:1052F400CCE701213046FBF7C7F9E3E7002130464C
:10530400FBF7C2F9DEE70000BD4B1A68BD4B1B6812
:105314009A42C0F0BD812DE9F047B94B1B68253393
:10532400B84A136000244EE04846FBF729F8824649
:10533400BAF1000F00D07EB9B34A4FF48A6101FB81
:1053440007F0131893F8383403EBC303D90001446E
:105354000A4492F8473053B3AB4A4FF48A6101FBD5
:1053640007F0131893F8383403EBC303D90001444E
:105374000A4492F84430002B00F0D280A24A4FF441
:105384008A6303FB072393F84C3433B94FF48A63DD
:1053940003FB0723012283F84C249B4A4FF48A63BE
:1053A40003FB072393F84C34022B00F0B980964A90
:1053B4004FF48A6303FB072393F84D34002B40F02A
:1053C40027810134E4B2914B1B78A34240F25E8101
:1053D40027464FF48A658C4B05FB043595F84664E3
:1053E400002EEED095F83924002AEAD095F844949A
:1053F40095F84534002B97D183494FF48A6303FB16
:10540400041393F8388408F101085FFA88F84245D8
:1054140001D84FF000084846FBF7E4F8844600281A
:1054240038D1794A4FF48A6101FB07F0131893F8D5
:10543400383403EBC303D90001440A44137E002B20
:1054440068D008EBC803DA004FF48A6303FB072231
:105454006D4B134493F819A0BAF1000F1BD008EB5D
:10546400C803DA004FF48A6303FB0722664B134434
:1054740093F818A0BAF1000F0DD0634A4FF48A6371
:1054840003FB0723D3F84034012B01D0B24602E0DA
:10549400E24600E0B2464846FBF752F801460028CF
:1054A4007FF446AF584A4FF48A6000FB07FC02EBD6
:1054B4000C0393F8383403EBC303D800604402446C
:1054C40092F83C30002B3FF433AF08EBC803DA000A
:1054D4004FF48A6303FB07224B4B134493F83D308C
:1054E400D3B108EBC8084FEAC8024FF48A6303FB40
:1054F4000722454B134493F83C307BB1424A4FF4A6
:105504008A6303FB0723D3F84034012B7FF410AFE5
:105514000E460DE7B246BEE71E4609E71E4607E7FC
:10552400394A4FF48A6303FB0723D3F848348BB911
:105534004FF48A6101FB07F0161896F8383403EB30
:10554400C303D90001440A44136C2D4A126813445E
:10555400C6F848342C4A4FF48A6303FB0723D3F874
:105564004824274B1B689A423FF621AF264B4FF441
:105574008A6202FB07320023C2F8483492F83834B6
:105584000133DBB282F8383492F8392493420ED3D3
:105594001D4A4FF48A6303FB0723D3F84034ABB9A5
:1055A4004FF48A6303FB0723002283F83824164A46
:1055B4004FF48A6303FB072393F84634002B3FF42C
:1055C400F6AE00212846FFF732FEF0E6013B0E4915
:1055D4004FF48A6202FB0712C2F840343BB14FF425
:1055E4008A6303FB0713002283F83824DFE7064AA3
:1055F4004FF48A6303FB0723002283F84624D6E78B
:10560400E434002010170020E00000207016002071
:105614004846FAF7BDFF00283FF4D3AE1D4A4FF4C5
:105624008A6101FB07F0131893F8383403EBC305C0
:10563400E9000D4601440A4492F83C200AB34FF4B1
:105644008A6202FB0751134A0A4492F83D209AB930
:105654004FF48A6101FB075118310E4B1944043190
:105664004846FEF7C7F80B4B4FF48A6202FB073338
:10567400002283F84D24A4E601214846FBF704F8F0
:10568400F1E700214846FAF7FFFFECE7BDE8F087B1
:10569400704700BFE000002010B50446FBF72AFA6B
:1056A40000B910BD08484FF48A6303FB0400D0F826
:1056B4003C34C0F84034002380F83834012180F8A9
:1056C4004614FFF7B4FDECE7E00000202DE9F04FAD
:1056D4009BB09C4B1B78002B40F0A881042B05D871
:1056E400994A0021D1540133DBB2F7E7974DFF22E9
:1056F40029460120FFF722FD00246C612C814FF024
:105704000509A5F806909623AB8007232B704FF468
:10571400FA632B82A5F80E9001262E736E812C76E7
:105724006C768B4FFF23642239464846FFF717FDFA
:105734003C614FF0020887F800804FF0FF0B87F8B8
:105744000EB04FF42F73BB603C7587F815802E7034
:105754004FF0040AA5F804A0A5F806904FF003033F
:105764002B81EE812B826C6185F80CB04FF6FB73B4
:105774006B810297019500962346132231463046E9
:10578400FEF7FAFC734B18705B46642239464046B8
:10579400FFF7E5FC5A4629462046FFF7CFFC2C705C
:1057A4004FF6FD736B8102970195009623462722DD
:1057B40014213046FEF7E0FC674B18705B46642208
:1057C40039460620FFF7CBFC5A4629464846FFF7E0
:1057D400B5FC85F800802E82A5F80A900297019501
:1057E400009623463B2228213046FEF7C5FC5B4B3E
:1057F40018705B46642239460320FFF7B0FC5A4612
:1058040029465046FFF79AFC85F80080A5F80A90CF
:10581400029701950096234650223C213046FEF71C
:10582400ABFC4F4B18707E7502970195009423468C
:1058340040F2351231464046FEF79EFC494B187043
:1058440002970195009423464FF4B4724FF49B7170
:105854004046FEF791FCDFF818A11822394650465D
:1058640001F06CF85B46322251460620FFF777FCC4
:105874008AF81540CDF808A00194009623464FF409
:10588400B6724FF4B5714046FEF776FC364B18708D
:105894002E706E610A232B81EB804FF0640AA5F809
:1058A40004A02E736E81A5F810807C754FF461738B
:1058B400BB603E6187F80080BE73CDF800A05346FC
:1058C4003A4621464846FFF711FCA5F80E80059498
:1058D40004960394029401940094FA2322463946D0
:1058E40008A8FDF7B5FD009608AB032221461D4824
:1058F4000078FDF7E9FD1D4B18705546042C39D886
:105904001435EDB2124E0095642332460021052071
:10591400FFF7ECFBB3687D3BB360002205920123E3
:1059240004930392029201920092FA23314608A84A
:10593400FDF78EFD08A90D4B1878FDF75FFD0134C6
:10594400E4B2DBE7BC340020F4260020D02600209B
:10595400C81600201C2700201D2700201E27002019
:105964001F270020202700201B270020711600205D
:10597400E01600209C4A4FF0060982F81990DFF8DF
:10598400A4A2C2F81CA00024059404940125039544
:105994000294019400942346214608A8FDF758FD7B
:1059A40008A9924B1878FDF729FD914F02233B700B
:1059B4007D750594FF2604964FF0640BCDF80CB06A
:1059C4004FF4FA78CDF80880CDF804A0CDF8009013
:1059D40023462A4631460520FEF736FD854B1870CE
:1059E40005940496CDF80CB0CDF80880824B019351
:1059F4000323009323462A4631460520FEF724FD5F
:105A04007E4B1870009508AB224621463046FDF7C0
:105A14005BFD7B4B187021463046FBF7CBF8794B86
:105A24001A78794B1A70794B1D703C610120FDF78F
:105A3400F9F80446002800F03182754B1D78002DDA
:105A440040F02C82734B1B780B3B092B23D8DFE8E7
:105A540003F095637C22051D4D22535B6E4B1B782E
:105A64004BB1614B02221A820322DA81604B4FF45C
:105A74002F729A600FE05C4B4FF4FA621A8205228F
:105A8400DA815B4B4FF42F729A6004E00021594B8A
:105A94001878FBF78FF8614B1B78002B74D15D4AA3
:105AA40013780133DBB21370142B02D9134600228E
:105AB4001A70584B1B78152B00F28582DFE813F01F
:105AC4006C008000B400C800DC00F000FF000E0190
