:020000040800F2
:1000000000500020590200085D0100084901000865
:1000100045010008310100081D0100080000000032
:1000200000000000000000000000000019010008AE
:10003000150100080000000011010008C50A0008B1
:100040000D0100080D0100080D0100080D01000858
:100050000D0100080D0100080D0100080D01000848
:100060000D0100080D0100080D0100080D01000838
:100070000D010008A11C00082D3200085D1C0008BD
:100080000D010008191C0008392A00080D0100089C
:100090000D0100080D0100080D0100080D01000808
:1000A0000D0100080D0100080D0100080D010008F8
:1000B0000D0100080D0100080D0100080D010008E8
:1000C0000D0100080D0100080D0100080D010008D8
:1000D0000D010008C12E00080D0100080D010008E7
:1000E0000D0100080D0100080D01000800000000CE
:1000F0000000000000000000000000000000000000
:1001000000000000000000005FF808F100BEFEE7FC
:1001100000BEFEE700BEFEE700BEFEE71EF0040FD5
:100120000CBFEFF30880EFF3098071464C4A10478B
:100130001EF0040F0CBFEFF30880EFF30980714647
:10014000484A104700BEFEE71EF0040F0CBFEFF355
:100150000880EFF309807146434A104700BEFEE76E
:1001600000BEFEE700BEFEE700BEFEE700B583B0BE
:1001700000F08CFD284B294A1360294A1360294B53
:10018000294A03E052F8041B43F8041B27498B4219
:10019000F8D3224B1A68264B9A4200D0FEE7204B38
:1001A0001A68244B9A42F9D11B4B234A1360234A05
:1001B0001360234B02E0002243F8042B214A9342B0
:1001C000F9D31D4B1B6813B91C4B1B6803B1FEE729
:1001D00000F058FD694601A800F064FD1A4C1B4B65
:1001E000E41AA410002504E0184B53F82530984772
:1001F0000135AC42F8DC164C164BE41AA41000256D
:1002000004E0144B53F8253098470135AC42F8DC34
:100210000099019804F0E6FDBABADECA0000002099
:10022000A4000020000000207C530008A80000204B
:100230007856341232547698A8000020E41E00202C
:10024000A8000020E81E0020940200089402000884
:10025000940200089402000808B5FFF787FF000029
:0C02600061010008650100086901000848
:10026C007C53000800000020A80000207C530008EC
:10027C000000000000000000A8000020E81E002084
:08028C0000000000000000006A
:100294000438C0B2032801D80120704700207047F9
:1002A400D0B110B404460023012001E00133DBB2D5
:1002B4000B4A12789A4211D9C3EBC3021101094ABD
:1002C4000A4492F82920A242F0D1064A0A44D27C78
:1002D400022AEBD10020E9E70120704710BC7047E7
:1002E400DC0000203011002068B3F0B40546002380
:1002F400FF26012703E01E4611E00133DBB2134A57
:1003040012789A4215D91C46C3EBC3021001104A55
:10031400024492F82920AA42EFD1FF2EEBD0C4EB7D
:10032400C40420010A4A0244D27C022AE5D00027F0
:10033400E3E71FB18E4204D0002000E00020F0BCAF
:1003440070470120FBE70120704700BFDC0000205C
:100354003011002003882BB1013B9BB223B10380F1
:10036400002070470020704701207047036823B1C4
:10037400013B04D003600020704700207047012037
:10038400704770B4B0F84A508D4206D2B0F8483085
:100394002B44994214DC012400E00024022A15D0E5
:1003A400032A17D0012A0DD000221346012C04D0B1
:1003B40066B29EB1022C1AD00023184670BC704756
:1003C4000224EBE790F845300278EFE790F84630E6
:1003D4004278EBE790F847308278E7E79B1A03FB13
:1003E40001F393FBF5F3DBB21344DBB2E5E7491BFE
:1003F400B0F84840091B01399A1A02FB01F2B0F81F
:100404004C1092FBF1F2D2B29B1ADBB2D5E700009A
:10041400034B1B78834201D80020704701207047AA
:10042400DC000020054B1B78834203D8FF2803D04F
:10043400002070470120704701207047DC00002035
:10044400F8B504460F461646FFF7ECFF05460028AC
:100454003ED0FF2C3ED0F7B1C4EBC4031A012C4BA1
:10046400134493F92230012B41D0E200121B1101F5
:10047400274B0B441A7E1A725A7E5A729A7E9A72CB
:10048400FF229A73E200121B1101214B0B4400223C
:10049400DA745A6ADA62DEB1E200121B11011C4BF3
:1004A4000B44002283F8492093F9582083F83C2018
:1004B400B3F85620DA8793F84C00FFF7E9FE0546B7
:1004C40018B3C4EBC4042201114B13440022DA878D
:1004D4002846F8BD00240F4B1B78A342F8D93246B6
:1004E40039462046FFF7ACFF0134E4B2F3E7E200FB
:1004F400121B1101064B0B445A7D1A729A7D5A72D3
:10050400DA7D9A7201229A73BCE73546E0E700BFB0
:1005140030110020DC00002038B50446FFF782FFCC
:10052400054658B1FF2C0BD0C4EBC40422010B4B7D
:100534001344DD7C012D14BF00250125284638BD58
:100544000024074B1B78A342F8D92046FFF7E4FFA9
:1005540010B10134E4B2F4E70546EFE730110020AE
:10056400DC00002070B504460D46FFF75BFF06462D
:1005740038B1FF2C07D0C4EBC4042201084B134448
:100584009D74304670BD0024064B1B78A342F8D9F5
:1005940029462046FFF7E6FF0134E4B2F4E700BF42
:1005A40030110020DC00002070B504460D46FFF732
:1005B40039FF064640B1FF2C08D0C4EBC404220125
:1005C400084B134483F84850304670BD0024064B52
:1005D4001B78A342F8D929462046FFF7E5FF0134EA
:1005E400E4B2F4E730110020DC0000200020704762
:1005F400FF2805D00138C0B2012803D80120704774
:10060400012070470020704738B504460D46FFF7B7
:10061400EFFF034630B1013C054A32F81420AA42E8
:1006240002D31DB1184638BD0023FBE70023F9E7C8
:10063400D8000020F8B504460D4616461F46FFF7BD
:10064400E3FFE0B10146013CE4B24FF4FB7303FB6A
:1006540004520C4B03EB8203DB78B34210D1094BF9
:1006640003EB82039B78BB420AD1064D05EB82045F
:1006740062789DF818309A4202D1002100E00121ED
:100684000846F8BD20010020FF280BD010B5044611
:10069400FFF7AEFF024618B1601E094B1A5CD2B2D6
:1006A400104610BD0023012B07D8054AD15C01F088
:1006B400FF0219B90133DBB2F5E700221046704797
:1006C400B40000202DE9F04385B081460D469046E4
:1006D4001F469DF830609DF834409DF838302BB9A2
:1006E40000963B46FFF7A6FF00283ED103AA294601
:1006F4004846FFF77BFFC0B19DF80C3003FB08F8B8
:10070400B8F1000F34DBC8F3C7189DF80D3003FBB4
:1007140007F7002F2FDBC7F3C7179DF80E3003FB35
:1007240006F6002E29DBC6F3C71609F1FF30C0B266
:100734004FF4FB7303FB0052114B03EB820383F86A
:1007440003809F705E70631EDBB21E2B01D90D4BBC
:100754001C784FF4FB7303FB005564F01F04084B33
:1007640003F82540084B01221A5405B0BDE8F08374
:1007740008F17F08C7E77F37CDE77F36D3E700BFAF
:100784002001002036000020080100202DE9F0415E
:1007940084B004460E4690461F46FFF743FE0546C6
:1007A40020B316B3E3001B1B1901124A0A449388B1
:1007B40052889B1A01339E4201DD002516E09119EF
:1007C40089B20139C4EBC4042001012302939DF8CA
:1007D4002C3001939DF8283000933B46424689B261
:1007E400044C205CFFF76EFF00E00025284604B0AF
:1007F400BDE8F081301100201F2800D91F2060F0CF
:100804001F00014B18707047360000202DE9F0419D
:1008140084B00446884617461E469DF828509DF825
:100824002C3023B900953346FFF704FF80BB03AA9D
:1008340041462046FFF7DAFEB8B19DF80C3003FBC1
:1008440007F7002F27DBC7F3C7179DF80D3003FB0D
:1008540006F6002E21DBC6F3C7169DF80E3003FB07
:1008640005F5002D1BDBC5F3C715013CE4B20D4AA9
:100874004FF4FB7101FB048102EB8103DF709E7076
:100884005D70094B1B7802F82130084B01221A5580
:1008940004B0BDE8F0817F37D5E77F36DBE77F35ED
:1008A400E1E700BF200100203600002008010020FD
:1008B4002DE9F04182B004460E4690461F46FFF7EC
:1008C400A7FD054608B3FEB1E3001B1B1901114A3D
:1008D4000A44938852889B1A01339E4201DD002505
:1008E40013E0911989B20139C4EBC4042001012336
:1008F40001939DF8203000933B46424689B2054C53
:10090400205CFFF783FF00E00025284602B0BDE825
:10091400F08100BF301100202DE9F04784B08246F9
:100924000C46174698469DF830909DF834609DF823
:100934003850FFF769FE20B139465046FFF764FE90
:1009440080B904B0BDE8F0870123029301950096B5
:100954004B46424621465046FFF7B4FE0134A4B24A
:10096400A742EED36B1EDBB21E2BEDD901230193FC
:1009740000964B46424621465046FFF747FFEDE7B7
:10098400014B1870704700BFD410002002FB00F028
:10099400B0FBF1F07047F0B583B003460D46007824
:1009A4005F78C4199E7834440A462146FFF7EEFF67
:1009B4008DF800002A4621463846FFF7E7FF8DF8F8
:1009C40001002A4621463046FFF7E0FF8DF8020079
:1009D400009B0020DAB262F30700C3F3072262F33C
:1009E4000F20C3F3074363F3174003B0F0BD00289F
:1009F40001DB012070474FF0FF307047013088421F
:100A040000D9002070472DE9F04180460C46164677
:100A14001D46069F0846FFF7EAFF444407E0AC4240
:100A240003DDC4EB45044FF0FF30B44208DBAC42B5
:100A3400F5DCB442F3DB07B138702046BDE8F08141
:100A4400C4EB46040120F2E710B49C1A0844904217
:100A540003DA20440130FAE7001B5A1C8242FBDB14
:100A640010BC7047904202D2B1F1FF3F07D002FBA5
:100A74000100009A904204D8984204D370470020A1
:100A840070470098704718467047000010B472B65B
:100A9400084B9C68084B186862B64FF47A72074B8F
:100AA400196802FB01F31B1BB3FBF1F302FB0030DB
:100AB40010BC704710E000E0781E00203C000020CD
:100AC400024A136801331360704700BF781E002088
:100AD40082B00023019300932C4A136843F48033BB
:100AE40013602A4B1B6803F400330093019B01330A
:100AF4000193009B1BB9019BB3F5A06FF1D1234B6C
:100B04001B6813F4003F06D001230093009B012BC4
:100B140004D002B0704700230093F7E71C4B1A6817
:100B240042F010021A601A6822F003021A601A686E
:100B340042F002021A60A3F580535A685A605A6858
:100B44005A605A6842F480625A605A6822F47C12ED
:100B54005A605A6842F4E8125A601A6842F0807285
:100B64001A600A4B1B6813F0007FFAD0074B5A68CF
:100B740022F003025A605A6842F002025A60034BA0
:100B84005B6803F00C03082BF9D1C2E700100240A4
:100B94000020024008B5FFF79BFF08BD1F4B5B68B0
:100BA40003F00C03042B15D0082B17D01BB11C4BDE
:100BB4001C4A1A6002E01A4B1A4A1A60174B5B6807
:100BC400C3F30313184AD35CDAB215490B68D34054
:100BD4000B607047124B134A1A60EFE70F4A5368D1
:100BE4005268C3F38343023312F4803F05D10F4AA2
:100BF40002FB03F30A4A1360E0E7084A526812F45E
:100C0400003F05D0094A02FB03F3054A1360D5E708
:100C1400044A02FB03F3024A1360CFE700100240C8
:100C24002800002000127A000800002000093D007E
:100C340008B5104B1A6842F001021A6059680E4A4E
:100C44000A405A601A6822F0847222F480321A60D0
:100C54001A6822F480221A605A6822F4FE025A604A
:100C64004FF41F029A60FFF795FF044B4FF00062A8
:100C74009A6008BD001002400000FFF800ED00E09B
:100C840008B5FFF78BFF08BD08B5FFF7D1FF024A8F
:100C9400024B9A6008BD00BF0000000800ED00E0B0
:100CA40001230360014B0B60704700BF2C00002040
:100CB400FEE708B50120FFF7FBFF08B5FFF7F9FFD2
:100CC40038B505460C46274B984214D0A3F5744317
:100CD400984210D003F5806398420CD003F58063EA
:100CE400984208D003F58063984204D040F28631DC
:100CF4001D48FFF7E2FF012C13D0802C11D0402CAB
:100D04000FD0202C0DD0102C0BD0B4F5807F08D040
:100D1400B4F5007F05D0082C03D0042C01D0022C9C
:100D240007D1B4F5007F0AD02B881C4218D00120CB
:100D340038BD40F287310C48FFF7BFFFF1E7094B9C
:100D44009D42F1D0A3F574439D42EDD003F5806339
:100D54009D42E9D040F28B310348FFF7AEFFE3E751
:100D64000020E5E700380140FC52000838B505468C
:100D74000C46124B984214D0A3F57443984210D0F9
:100D840003F5806398420CD003F58063984208D041
:100D940003F58063984204D040F25F210848FFF7CE
:100DA4008CFFB4F5007F03D2C4F30804AC8038BDD3
:100DB4004FF418710248FFF780FFF5E7003801404F
:100DC400FC52000838B504460D46124B98420CD02C
:100DD400A3F57843984208D003F58063984204D081
:100DE4004FF41D710C48FFF768FF012D05D855B16C
:100DF400A38843F00403A38038BD40F2752106485C
:100E0400FFF75BFFF3E7A3889BB223F004039BB2D5
:100E1400A380F1E7003001409852000870B5044601
:100E24000D461646154B98420CD0A3F578439842CC
:100E340008D003F58063984204D04FF40871104839
:100E4400FFF73BFF012E0ED825F003039BB203B935
:100E540025B940F222210A48FFF72FFF4EB1A3889B
:100E64001D43A58070BD40F221210548FFF725FFF1
:100E7400EAE7A38823EA0505A580F3E700300140EB
:100E84009852000838B504460D46124B98420CD0CF
:100E9400A3F57843984208D003F58063984204D0C0
:100EA40040F2B7110C48FFF708FF012D05D855B1E2
:100EB400238843F04003238038BD4FF4DC71064897
:100EC400FFF7FBFEF3E723889BB223F040039BB2BA
:100ED4002380F1E7003001409852000838B50546F8
:100EE4000C464A4B98420BD0A3F57843984207D05E
:100EF40003F58063984203D0A3214548FFF7DDFE44
:100F0400238843B1B3F5806F05D0B3F5004F02D009
:100F1400B3F5404F4CD16388B3F5827F01D0002BE9
:100F24004BD1A388B3F5006F01D0002B4AD1E388DD
:100F34000BB1022B4BD12389012B4DD86389B3F517
:100F4400007F01D0002B4CD1A3896BB1082B0BD0AF
:100F5400102B09D0182B07D0202B05D0282B03D019
:100F6400302B01D0382B41D1E3890BB1802B42D1F6
:100F7400238A002B44D02B8803F4415223886188B0
:100F84000B43A1880B43E1880B4321890B436189FF
:100F94000B43A1890B43E1890B4313432B80AB8B98
:100FA4009BB223F400639BB2AB83238A2B8238BDAC
:100FB400A6211748FFF781FEADE7A7211448FFF7E4
:100FC4007CFEAEE7A8211248FFF777FEAFE7A92120
:100FD4000F48FFF772FEAEE7AA210D48FFF76DFE3A
:100FE400ACE7AB210A48FFF768FEADE7AC2108483F
:100FF400FFF763FEB8E7AD210548FFF75EFEB7E7EC
:10100400AE210348FFF759FEB5E700BF00300140A9
:101014009852000838B504460D460E4B184200D1CC
:1010240020B940F269410C48FFF747FE012D05D86D
:1010340055B10A4AD3691C43D46138BD40F26A41B0
:101044000548FFF73AFEF3E7044AD36923EA0404A8
:10105400D461F2E7003601815052000800100240CA
:1010640038B504460D460E4B034003B920B940F28F
:101074004A410C48FFF721FE012D05D855B10A4A13
:1010840093691C43946138BD40F24B410548FFF716
:1010940014FEF3E7044A936923EA04049461F2E733
:1010A4000200C0FF505200080010024008B501467B
:1010B4000120FFF7D5FF08BD38B504460D460D4B9A
:1010C400984206D00C4B9C4208D00C4B9C420BD04F
:1010D40038BD4FF40070FFF7C3FFF3E729464FF420
:1010E4008060FFF7BDFFF0E729464FF40040FFF7AB
:1010F400B7FFEDE70024014000280140003C014017
:1011040038B504460D46164B98420CD0154B9C42FC
:101114000ED0154B9C4211D0144B9C4214D0144B4E
:101124009C4217D038BD4FF48040FFF799FFEDE79C
:1011340029464FF40030FFF76DFFEAE729464FF4E4
:101144008020FFF767FFE7E729464FF40020FFF709
:1011540061FFE4E729464FF48010FFF75BFFE1E706
:10116400003801400044004000480040004C00406A
:101174000050004038B504460D460D4B984206D049
:101184000C4B9C4208D00C4B9C420BD038BD4FF406
:101194008050FFF765FFF3E729464FF48040FFF7DF
:1011A40039FFF0E729464FF40040FFF733FFEDE73E
:1011B4000030014000380040003C004038B504468F
:1011C4000D46184B98420FD0174B9C4210D0174B2A
:1011D4009C4212D0164B9C4214D0164B9C4216D003
:1011E400154B9C4218D038BD0420FFF739FFEBE7BC
:1011F40029460820FFF734FFE9E729461020FFF7C6
:101204002FFFE7E729462020FFF72AFFE5E72946D5
:101214004020FFF725FFE3E729468020FFF720FF62
:10122400E1E700BF00080140000C0140001001404C
:101234000014014000180140001C014038B5044668
:101244000D4620F4AA6323F0070303B920B940F242
:101254002B410B48FFF731FD012D05D855B1094A43
:1012640053691C43546138BD40F22C410448FFF7D4
:1012740024FDF3E7034A536923EA04045461F2E7C3
:10128400505200080010024038B504460D46164B73
:10129400984211D0143398420ED0143398420BD094
:1012A4001433984208D01433984205D0143398422A
:1012B40002D01433984203D129460120FFF7BEFF20
:1012C4000A4B9C420BD014339C4208D014339C42EA
:1012D40005D014339C4202D014339C4203D12946D6
:1012E4000220FFF7ABFF38BD0800024008040240AB
:1012F40010B4294B5B6803F00C03042B2BD0082B90
:101304002CD013B1254B036001E0244B0360224928
:101314004B68C3F30313224CE35CDAB20368D34093
:1013240043604A68C2F30222A25CD2B223FA02F2F8
:1013340082604A68C2F3C222A25CD2B2D340C360C4
:101344004A68C2F3813217498A5CD2B2B3FBF2F322
:10135400036110BC7047114B0360D8E70E4A536811
:101364005268C3F38343023312F4803F04D10E4A1C
:1013740002FB03F30360CAE7074A526812F4003F12
:1013840004D0094A02FB03F30360C0E7034A02FBEB
:1013940003F30360BBE700BF0010024000127A00B1
:1013A400180000200400002000093D0000B587B0AB
:1013B400FFF7F4FB01A8FFF79BFF019B0F4AA2FB79
:1013C40003239B09013BB3F1807F15D20C4A536080
:1013D4000C4BF02183F8231000219160072010604A
:1013E40083F82310084B1B68084AB3FBF2F3084A3E
:1013F400136007B05DF804FBFEE700BFD34D621035
:1014040010E000E000ED00E02800002040420F0062
:101414003C00002010B5044640B1B0F5804F05D023
:10142400B0F5004F02D0B0F5404F06D1064A5368DC
:1014340023F440431C43546010BD40F2023103487E
:10144400FFF73BFCF2E700BF0010024050520008D7
:1014540038B504460D46431E012B40F2898004280A
:1014640000F08680082800F08380644B98427FD087
:10147400203398427CD0624B984279D08033984292
:1014840076D0604B984273D003F5807398426FD046
:1014940003F5807398426BD05B4B984268D003F598
:1014A4008063984264D0B0F5805F61D0B0F5EA1FE4
:1014B4005ED0B0F5EB1F5BD0B0F5004F58D0534B66
:1014C400984255D00133984252D0023398424FD0BB
:1014D400043398424CD00833984249D0B0F1201FCD
:1014E40046D03033984243D0494B984240D003F51C
:1014F400807398423CD003F50073984238D0454B32
:10150400984235D003F57063984231D0B0F5011F8D
:101514002ED0414B98422BD00133984228D002332D
:10152400984225D00433984222D0083398421FD0E1
:10153400103398421CD02033984219D0403398423B
:1015440016D08033984213D003F5807398420FD09D
:1015540003F5007398420BD003F58063984207D0DB
:1015640003F50063984203D003F58053984218D1E1
:10157400012D1CD8002C20DB284B5B68C4F30340EE
:10158400A2B204F44011B1F5401F19D014F4801F25
:1015940027D0032101FA00F023EA000343F070632B
:1015A40015E040F22A211E48FFF787FBE0E740F2EE
:1015B4002B211B48FFF781FBDCE7184BDB69DDE7D8
:1015C40023F070631548416821F0706141601DB1DA
:1015D400610D09018A401343002C0BDB0F4A536051
:1015E40038BD610D090102FA01F123EA010343F058
:1015F4007063ECE7094AD361F2E700BF10001400FE
:10160400400016000001180000081A000100200024
:1016140000013000001120000100008000000140A2
:10162400C851000870B504460D4616462D4B984225
:101634001CD003F58063984218D003F58063984268
:1016440014D003F58063984210D003F58063984268
:101654000CD003F58063984208D003F58063984268
:1016640004D040F28D112048FFF727FB6B1E9BB27C
:10167400012B23D9042D21D0082D1FD0102D1DD0CE
:10168400202D1BD0402D19D0802D17D0B5F5807F8B
:1016940014D0B5F5007F11D0B5F5806F0ED0B5F537
:1016A400006F0BD0B5F5805F08D0B5F5005F05D0AD
:1016B400B5F5804F02D0B5F5004F04D1012E08D8FE
:1016C4006EB1256170BD4FF4C7710748FFF7F5FA95
:1016D400F4E740F28F110448FFF7EFFAF0E7656191
:1016E400F0E700BF00080140C851000838B50446BF
:1016F4000D462A4B98421CD003F58063984218D0BB
:1017040003F58063984214D003F58063984210D0A7
:1017140003F5806398420CD003F58063984208D0A7
:1017240003F58063984204D04FF4A2711C48FFF77C
:10173400C4FA6B1E9BB2012B23D9042D21D0082D92
:101744001FD0102D1DD0202D1BD0402D19D0802D41
:1017540017D0B5F5807F14D0B5F5007F11D0B5F55D
:10176400806F0ED0B5F5006F0BD0B5F5805F08D053
:10177400B5F5005F05D0B5F5804F02D0B5F5004F43
:1017840004D1E3681D4207D0012038BD40F2451161
:101794000348FFF792FAF4E70020F6E70008014057
:1017A400C8510008F8B505460C46494B98421BD071
:1017B40003F58063984217D003F58063984213D0F1
:1017C40003F5806398420FD003F5806398420BD0F1
:1017D40003F58063984207D003F58063984203D0F1
:1017E400B2213C48FFF769FAE3786BB1042B0BD0C4
:1017F400282B09D0482B07D0142B05D0102B03D04D
:101804001C2B01D0182B14D12388BBB1E37803F02F
:101814000F06304613F0100F06D0A378013BDBB25D
:10182400022B10D8A078304323785BB32E680023B2
:1018340010E0B3212748FFF740FAE5E7B421254833
:10184400FFF73BFAE2E7BB212248FFF736FAE9E764
:101854006A610133072B14D801229A40218832EAA5
:101864000101F6D199000F278F4026EA070600FAF6
:1018740001F10E43E1782829EAD04829E9D12A6107
:10188400E7E72E602388FF2B20D96E68002302E04F
:101894006A6115E00133072B17D803F1080101220F
:1018A4008A40218832EA0101F4D199000F278F4040
:1018B40026EA070600FA01F10E43E1782829E7D069
:1018C400E1784829E6D12A61E4E76E60F8BD00BFFB
:1018D40000080140C851000810B5044610F0704FCC
:1018E40002D0094B034003B924B940F20E21074842
:1018F400FFF7E3F914F0805F02D0054B5C6010BD84
:10190400044B5C60FBE700BF0000F0EF805100086F
:10191400000402400000024010B50446431E012B9F
:1019240040F29480042800F09180082800F08E8012
:10193400102800F08B80202800F08880402800F0D8
:101944008580802800F08280B0F5807F7ED0B0F55D
:10195400007F7BD0B0F5806F78D0B0F5006F75D084
:10196400B0F5805F72D0B0F5005F6FD0B0F5804FF6
:101974006CD0B0F5004F69D0B0F5803F66D0B0F5BB
:10198400003F63D0B0F5802F60D0B0F5002F5DD05C
:10199400B0F5801F5AD0B0F5001F57D0B0F5800FB6
:1019A40054D0B0F5000F51D0B0F1807F4ED0B0F1DB
:1019B400007F4BD0B0F1806F48D0B0F1006F45D0BC
:1019C4002C4B984242D0013398423FD00233984284
:1019D4003CD00433984239D00833984236D010337F
:1019E400984233D02033984230D0403398422DD09F
:1019F400803398422AD003F58073984226D003F5A9
:101A04000073984222D003F5806398421ED0B0F14F
:101A1400102F1BD003F5C053984217D003F5005381
:101A2400984213D003F5804398420FD003F5004346
:101A340098420BD003F58033984207D003F5003366
:101A4400984203D003F58023984208D114F0805FB4
:101A54000BD0094B1B6823420AD0012010BD40F271
:101A6400B7110648FFF729F9F0E7054B1B68F2E7C1
:101A74000020F3E701000010000402408051000838
:101A84000000024038B504460D46164B984226D055
:101A94001433984223D01433984220D014339842FC
:101AA4001DD0143398421AD01433984217D01433EB
:101AB400984214D003F56273984210D014339842BC
:101AC4000DD0143398420AD01433984207D01433FB
:101AD400984204D04FF4B2710348FFF7EEF8656002
:101AE40038BD00BF080002408051000870B50446AC
:101AF4000D461646224B984226D01433984223D0E2
:101B04001433984220D0143398421DD01433984291
:101B14001AD01433984217D01433984214D003F5D2
:101B24006273984210D0143398420DD01433984203
:101B34000AD01433984207D01433984204D040F2A8
:101B440049111048FFF7B9F835F00E0300D125B953
:101B54004FF4A5710B48FFF7B0F8012E04D84EB12D
:101B640023681D43256070BD40F24B110548FFF703
:101B7400A4F8F4E7236823EA05052560F3E700BF2A
:101B8400080002408051000838B504460D461F4B3A
:101B9400984226D01433984223D01433984220D04C
:101BA400143398421DD0143398421AD014339842F7
:101BB40017D01433984214D003F56273984210D0AE
:101BC400143398420DD0143398420AD014339842F7
:101BD40007D01433984204D040F229110C48FFF77F
:101BE4006CF8012D05D855B1236843F00103236037
:101BF40038BD4FF495710648FFF75FF8F3E72368A3
:101C040023F001031B041B0C2360F1E708000240CE
:101C14008051000808B54FF00060FFF77DFE40B129
:101C24004FF00060FFF758FE00210948FFF7ACFFB2
:101C340008BD4FF00070FFF76FFE0028F4D04FF09E
:101C44000070FFF749FE034B00229A70ECE700BFD7
:101C540080000240B400002008B54FF40020FFF7D4
:101C64005BFE40B14FF40020FFF736FE0021094827
:101C7400FFF78AFF08BD4FF40030FFF74DFE002840
:101C8400F4D04FF40030FFF727FE034B00225A70C4
:101C9400ECE700BF58000240B400002008B54FF440
:101CA4000060FFF739FE40B14FF40060FFF714FE07
:101CB40000210948FFF768FF08BD4FF40070FFF7E3
:101CC4002BFE0028F4D04FF40070FFF705FE034B01
:101CD40000221A70ECE700BF30000240B40000207C
:101CE40070B50546FF2814D02846FEF781FC04464B
:101CF40028B16E1EF6B21C4B9C5D64B900242046CC
:101D040070BD2046FFF7ECFF0134E4B2022CF8D991
:101D1400EAE70124FAE72846FEF7B6FC0028EDD1ED
:101D24002EB1012E1CD0022E1CD1104D00E0104DFE
:101D340000212846FFF728FF0E4B33F81610023116
:101D4400890089B22846FFF79DFE01212846FFF746
:101D54001BFF094B01229A55034B00229A55CEE7EB
:101D6400064DE5E70446CAE708010020800002406A
:101D740030000240D8000020B40000205800024087
:101D840038B505460C46574B984225D01433984233
:101D940022D0143398421FD0143398421CD01433E9
:101DA400984219D01433984216D01433984213D061
:101DB40003F5627398420FD0143398420CD0143355
:101DC400984209D01433984206D01433984203D071
:101DD400CF214548FEF771FFA368102B01D0002BDB
:101DE40053D1E368013B4FF6FE72934252D8236904
:101DF400402B01D0002B52D16369802B01D0002BE2
:101E040052D1A3692BB1B3F5807F02D0B3F5007F23
:101E14004FD1E3692BB1B3F5806F02D0B3F5006FF6
:101E24004CD1236A202B01D0002B4CD1636AB3F52B
:101E3400405F07D0B3F5005F04D0B3F5805F01D0F5
:101E4400002B45D1A36AB3F5804F01D0002B44D1B8
:101E54002A6822F4FF4222F07002A368216A0B432D
:101E640021690B4361690B43A1690B43E1690B438E
:101E7400616A0B43A16A0B4313432B60E3686B60F5
:101E84002368AB606368EB6038BDD0211648FEF769
:101E940014FFA6E7D1211448FEF70FFFA7E7D221CC
:101EA4001148FEF70AFFA7E7D3210F48FEF705FF05
:101EB400A7E7D4210C48FEF700FFAAE7D5210A487A
:101EC400FEF7FBFEADE7D6210748FEF7F6FEADE7C9
:101ED400D7210548FEF7F1FEB4E7D8210248FEF702
:101EE400ECFEB5E7080002408051000810B5044636
:101EF4004F4B984225D01433984222D01433984241
:101F04001FD0143398421CD01433984219D0143380
:101F1400984216D01433984213D003F56273984252
:101F24000FD0143398420CD01433984209D0143390
:101F3400984206D01433984203D06F213D48FEF7EF
:101F4400BCFE236823F001031B041B0C2360002345
:101F540023606360A360E360354B9C4226D0364B1C
:101F64009C4229D0354B9C422CD0354B9C422FD0DF
:101F7400344B9C4232D0344B9C4235D0334B9C4240
:101F840038D0334B9C423BD0324B9C423ED0324BF8
:101F94009C4241D0314B9C4244D0314B9C420AD1AB
:101FA400304A536843F47023536004E02E4A536864
:101FB40043F00F03536010BD2B4A536843F0F00302
:101FC4005360F8E7284A536843F470635360F2E7B8
:101FD400254A536843F470435360ECE7224A53683C
:101FE40043F470235360E6E71F4A536843F47003D5
:101FF4005360E0E71C4A536843F070635360DAE7C8
:10200400184A536843F00F035360D4E7154A5368E2
:1020140043F0F0035360CEE7124A536843F470630D
:102024005360C8E70F4A536843F470435360C2E7F0
:1020340008000240805100081C00024030000240A9
:1020440044000240580002406C00024080000240FC
:10205400080402401C0402403004024044040240CC
:1020640058040240000402400000024038B505460E
:102074000C460F4B98420CD003F58063984208D06D
:1020840003F5A053984204D040F20D510948FEF7DD
:1020940014FE24F4FC639BB203B924B940F20E513C
:1020A4000448FEF70AFE6FEA14242C6038BD00BF12
:1020B4000024014038510008F8B505460E46144680
:1020C4001F46374B98420CD003F58063984208D0E2
:1020D40003F5A053984204D04FF416713148FEF72B
:1020E400ECFD112E22D8631EDBB20F2B24D8072F50
:1020F40028D8092E2CD9EA68A6F10A0303EB430376
:102104000721994022EA01029F401743EF60062C01
:1021140029D8696B013C04EB84041F23A34021EA02
:10212400030106FA04F40C436C63F8BD40F2592130
:102134001C48FEF7C2FDD6E740F25A211948FEF7C3
:10214400BCFDD4E740F25B211648FEF7B6FDD0E7AC
:102154002B6906EB460107228A4023EA02038F40DB
:102164001F432F61D3E70C2C0CD8296B073C04EBDD
:1021740084041F23A34021EA030106FA04F40C4358
:102184002C63D2E7EB6AA4F10D0101EB81011F225C
:102194008A4023EA020306FA01F11943E962C4E71B
:1021A400002401403851000838B504460D46114B4F
:1021B40098420CD003F58063984208D003F5A053ED
:1021C400984204D04FF4E9710B48FEF776FD012DD7
:1021D40005D855B1A36843F4A003A36038BD40F209
:1021E400D3110548FEF769FDF3E7A36823F4A003C0
:1021F400A360F3E7002401403851000810B50446F9
:102204000B4B98420CD003F58063984208D003F539
:10221400A053984204D04FF4DC710648FEF74DFDFC
:10222400A36813F0040F01D0012010BD0020FCE7C7
:10223400002401403851000810B504460A4B984266
:102244000CD003F58063984208D003F5A05398425C
:1022540004D04FF4D5710548FEF72FFDA36843F071
:102264000403A36010BD00BF0024014038510008DE
:1022740010B504460B4B98420CD003F5806398428A
:1022840008D003F5A053984204D04FF4C97106480E
:10229400FEF713FDA36813F0080F01D0012010BD51
:1022A4000020FCE7002401403851000810B5044622
:1022B4000A4B98420CD003F58063984208D003F58A
:1022C400A053984204D04FF4C2710548FEF7F5FCC0
:1022D400A36843F00803A36010BD00BF00240140BD
:1022E4003851000870B505460C461646164B984200
:1022F4000CD003F58063984208D003F5A0539842AC
:1023040004D040F26B111148FEF7D7FC012E0FD810
:1023140024F4FC639BB203B924B940F26D110B4859
:10232400FEF7CBFCE4B24EB16B681C436C6070BD2D
:102334004FF4B6710548FEF7C0FCE9E76B6823EA81
:1023440004046C60F3E700BF002401403851000826
:1023540038B504460D460F4B984208D003F5C053D8
:10236400984204D040F24D110B48FEF7A6FC012D13
:1023740005D855B1A36843F48073A36038BD4FF406
:10238400A7710548FEF799FCF3E7A36823F480736B
:10239400A360F3E7002401403851000838B504462F
:1023A4000D46114B98420CD003F58063984208D037
:1023B40003F5A053984204D04FF49A710B48FEF7EA
:1023C4007CFC012D05D855B1A36843F00103A3603B
:1023D40038BD40F235110548FEF76FFCF3E7A368FA
:1023E40023F00103A360F3E70024014038510008FF
:1023F40038B505460C46484B98420BD003F580632C
:10240400984207D003F5A053984203D0E5214348EE
:10241400FEF753FC2368D3B1B3F5803F17D0B3F56F
:10242400003F14D0B3F5403F11D0B3F5802F0ED048
:10243400B3F5A02F0BD0B3F5C02F08D0B3F5E02F20
:1024440005D0B3F5002F02D0B3F5102F46D1237970
:10245400012B48D86379012B4AD8A368A3B1B3F5FB
:10246400003F11D0B3F5802F0ED0B3F5C02F0BD0A1
:10247400B3F5002F08D0B3F5202F05D0B3F5402FC6
:1024840002D0B3F5602F38D1E36813B1B3F5006F10
:1024940038D1237C013BDBB20F2B38D86A6822F495
:1024A400702222F480722368217943EA01231343C2
:1024B4006B60AB681A4A1A40E368A1680B43617900
:1024C40043EA41031343AB60EB6A23F47003227CB9
:1024D400013AD2B243EA0253EB6238BDE6210F4817
:1024E400FEF7EBFBB3E7E7210C48FEF7E6FBB1E7A9
:1024F400E8210A48FEF7E1FBAFE7E9210748FEF7C8
:10250400DCFBC1E7EA210548FEF7D7FBC1E7EB2175
:102514000248FEF7D2FBC1E700240140385100080D
:10252400FDF7F1FF10B50446C378012B26D8637874
:102534000F2B28D8A3780F2B2AD8E3786BB31C4B26
:10254400DA68D243C2F30222C2F104000F2323FA51
:1025540002F261788140A37813400B431B01227877
:10256400DBB214490A4482F80033237803F01F00D5
:102574005B090122824041F8232010BD75210E48D9
:10258400FEF79BFBD3E776210B48FEF796FBD1E7DA
:1025940077210948FEF791FBCFE7237803F01F0169
:1025A4005B0901228A402033024941F82320E4E7F1
:1025B40000ED00E000E100E01052000808B501461B
:1025C4000448FEF7D3FB40210248FEF779FB0028BC
:1025D400F9D008BD0038014010B5044694F9000054
:1025E40020B10134C0B2FFF7E9FFF7E710BD0000E6
:1025F4000130C0B20138072845D8DFE800F0040CE8
:10260400141C242C343C214B9868400A80F00100AF
:1026140000F0010070471D4B9868000A80F001002B
:1026240000F001007047194B9868C00980F0010060
:1026340000F001007047154B9868800980F0010094
:1026440000F001007047124B9868400B80F00100C5
:1026540000F0010070470E4B9868800B80F0010079
:1026640000F0010070470A4B9868C00B80F001002D
:1026740000F001007047054B9868800A80F0010063
:1026840000F0010070470020704700BF000C0140BB
:10269400001001400138034B03EBC003987800227B
:1026A4009A707047581E00200138034B03EBC00397
:1026B400D8780022DA707047581E0020042805D804
:1026C4000138034B03EBC00040787047002070478B
:1026D400581E002038B504460D46FFF7EFFF0346A9
:1026E400A8B10D4A1268AA4210D30B4A1268551BAE
:1026F400013C0A4A02EBC4025268954209D9064ACF
:102704001168064A02EBC404616000E00023184625
:1027140038BD0023FBE700BF781E0020581E0020B0
:102724002E4B1A682E4B1B689A4256D910B52B4B68
:102734001B6821332A4A136000240FE0294B13F845
:102744003430DBB1013B274A02F8343016E0254B24
:1027540003EBC202012353700134E4B2032C3BD8CF
:102764002046FFF745FF0028E8D01E4B13F834300D
:10277400022B03D801331B4A02F834302246194B8A
:1027840013F83430022B10D9164B03EBC4035B78D7
:10279400002BDCD1134B03EBC4030121D9700F4987
:1027A4000968596000219970D1E7002BD4D10D4BF1
:1027B40003EBC4035B784BB10A4B03EBC403002166
:1027C400D970012199704FF0FF315960054B03EB2B
:1027D400C20200235370BFE710BD7047781E00206B
:1027E4000C010020581E002030B583B0164C012186
:1027F4002046FEF7E3FC154D01212846FEF7DEFCDA
:1028040001212046FEF7DAFC48238DF80730022325
:102814008DF806304FF47073ADF8043001A92046EA
:10282400FEF7C0FF4FF40043ADF8043001A9284679
:10283400FEF7B8FF4FF48063ADF8043001A92046D9
:10284400FEF7B0FF03B030BD000C014000100140A2
:1028540010B50C4602280FD0FF2815D0012800D04F
:1028640010BD0A464FF400510B48FEF7DBFE0B483F
:102874002146FEF707FBF3E70A464FF4804106487A
:10288400FEF7D0FE0648F3E70120FFF7E1FF2146FB
:102894000220FFF7DDFFE3E70010014000300140B4
:1028A4000038004008B502280ED0FF2815D00128B2
:1028B40001D0002008BD4FF400510E48FEF716FF6A
:1028C400003018BF0120F5E74FF400510948FEF726
:1028D4000DFF003018BF0120ECE70120FFF7E2FFF5
:1028E40008B10120E6E70220FFF7DCFF0028E1D071
:1028F4000120DFE70010014008B502210348FEF77C
:10290400F5FE003018BF012008BD00BF000C0140D7
:1029140008B5024602210248FEF784FE08BD00BF46
:10292400000C014008B5FFF7E7FF80F00100C0B2DA
:10293400FFF7EEFF08BD000070B582B00120FEF77E
:10294400B5FB174E01213046FEF738FC154D012129
:102954002846FEF733FC10238DF8073002248DF847
:102964000640ADF8044001A93046FEF71BFF1423CE
:102974008DF807304FF4C043ADF8043001A9284660
:10298400FEF710FF0120FFF7C3FF01210846FFF700
:102994005FFF01212046FFF75BFF02B070BD00BF5F
:1029A400000C0140001001400138094B33F810308D
:1029B40040F6E44000FB03F0031344F6206000FB00
:1029C40003F0044BA3FB0030C0F34F30704700BF4B
:1029D400C00000205917B7D170B584B00E46154613
:1029E4000024ADF80E40FFF7DFFFADF80E0009E05C
:1029F400291900230093C82289B23046FDF758FFF5
:102A04000134E4B2042C10D8094B33F81420BDF877
:102A14000E309BB29A42EBD2291900220092C823AD
:102A240089B23046FDF744FFEAE704B070BD00BF49
:102A34004453000808B50023022B0BD8154A32F87A
:102A44001300154951F82320024441F8232001338F
:102A5400DBB2F1E7114A13780133DBB21370072BB1
:102A640011D9002313700CE00B4951F82320C2F351
:102A7400CF020B4820F81320002241F82320013311
:102A8400DBB2022BF0D94FF408710648FFF7EEFAD7
:102A940008BD00BFC0000020C80000200C110020A9
:102AA400B8000020002401402DE9F04393B04FF416
:102AB4008040FEF7AFFC494F01213846FEF7E4FBA6
:102AC400DFF8289101214846FEF778FB444D0121A7
:102AD4002846FEF7F1FA0124ADF844404FF002080D
:102AE4008DF8468000268DF8476011A94846FEF708
:102AF40059FE3846FFF7FAF93A4B00933A4B0193E3
:102B040002964FF00309CDF80C90049680230593A8
:102B14004FF4806307934FF4807306932023089344
:102B24004FF4005309930A9669463846FFF728F98B
:102B340021463846FFF728F80B968DF830408DF87B
:102B440031404FF460230D930E968DF83C900BA901
:102B54002846FFF74DFC21462846FFF7F9FB0723DB
:102B6400224631462846FFF7A7FA07234246214664
:102B74002846FFF7A1FA07234A4605212846FFF70E
:102B84009BFA12238DF840308DF841808DF8424035
:102B94008DF8434010A8FFF7C5FC22464FF4087196
:102BA4002846FFF79FFB21462846FFF7F7FB2846F8
:102BB400FFF77CFB0A48FFF75BFB0028FAD10848C3
:102BC400FFF73AFB0648FFF719FB0028FAD1012169
:102BD4000348FFF7E9FA13B0BDE8F08308000240A8
:102BE400002401404C240140C000002000080140A2
:102BF4002DE9F04F97B00138C6B2012E00F2E980FA
:102C04000D46B1F5FA7F01D94FF4FA7537467F4B7B
:102C140023F816504FF000087D4B03F806807D4BD7
:102C240003F80680DFF8F4914FF4FB6404FB069488
:102C34004FF4FA624146204602F04AF90422414622
:102C4400204602F045F9AA46681C4FF4FB7303FBC7
:102C540006000422FF2109EB800002F039F9012368
:102C64009D420BD34FF4FB7202FB07326A4908788A
:102C74006A4901F8220001339BB2F1E7CEB1012E7B
:102C840000F0AA80022E40F0A480654E0027DFF8F1
:102C9400B0813D464FF01109624B039303F5DE33D7
:102CA4007C3302934FF0140BA3F57843803B0193DC
:102CB40010E0182601274FF000085B4D4FF00D0976
:102CC4005A4B039303F55043243302934FF0280BDC
:102CD400574B019301210846FEF7C2F901210198DF
:102CE400FEF76CFA01210298FEF7CEFA1DB101211C
:102CF4002846FEF73FFAB8F1000F03D00121404601
:102D0400FEF7FEF9002F78D118238DF857300323EE
:102D14008DF85630ADF854B015A90198FEF742FD70
:102D2400029F3846FFF7E2F8039B0A930B941023A3
:102D34000C930AF102039B000D9300240E9480234C
:102D44000F931094119412944FF4405313931494CA
:102D54000AA9BA463846FFF713F88DF824904FF0C5
:102D640002088DF8258001278DF826708DF82770CC
:102D740009A8FFF7D7FB3A460A215046FEF7B6FEEC
:102D8400ADF810404FF48273ADF81230ADF8144032
:102D9400ADF81680ADF818704FF40073ADF81A3022
:102DA400ADF81C60ADF81E404FF6FF73ADF820304F
:102DB40004A92846FEF792F839462846FEF702F899
:102DC4003A4641462846FEF729F839462846FEF792
:102DD40059F817B0BDE8F08F18260027B846154DEE
:102DE4004FF00F09144B039303F5E4334C33029370
:102DF4004FF4204B0E4B01936CE701213846FEF74C
:102E040027FB01210D48FEF723FB7DE7D8000020B6
:102E140008010020B400002036000020200100201A
:102E2400882A110004440040003001400C30014065
:102E3400000C0140003800400C3800400002300013
:102E44000044004070B50546194B187868BB0C4621
:102E540016469DB100211748FEF796FE7CB1214627
:102E64001448FEF70FFE96B9124BDD600124104B97
:102E74001C7021460F48FEF787FE204670BD2B4686
:102E840013F9012B002AEAD00134A4B2F8E7012196
:102E9400204601F0F1FF084E30602246294602F038
:102EA40009F83268034BDA60E0E70020E6E700BF88
:102EB400B000002044000240AC00002008B56E4B76
:102EC4001B8813F0200F66D06B4B9B88DBB26B4AD8
:102ED40013706B4B1B78002B58D11378443B202B79
:102EE40059D8DFE803F03358583D582A5858495800
:102EF4005858215858581B585858585858585858C2
:102F040058585811585815005E48FFF765FB42E0C1
:102F1400002211465C48FFF795FF3CE00323584A22
:102F240013705A4A137036E00023584A1370544AF7
:102F340001211170564A13702DE00123534A137076
:102F44004F4A1370524B00221A7024E04F4B022256
:102F54001A704B4B01221A704D4B00221A701AE062
:102F64004A4B04221A70464B03221A70002211465F
:102F74004848FFF767FF0EE0444B05221A70404BA8
:102F840001221A70424B00221A7004E03C4B1B7859
:102F9400DBB2012B00D008BD3C4B1B78DBB2052B08
:102FA400F9D801A252F823F0C52F0008F32F000826
:102FB400213000089B2F00089B2F00084F30000889
:102FC400334B1B782D490A78D2B23348C2540A785D
:102FD400D2B20A2A01D00A782AB92F4A0021D15440
:102FE400274A032111700133294A1370D3E7284B70
:102FF4001B7822490A78D2B22748C2540A78D2B23E
:103004000A2A01D00A782AB9234A0021D1541C4A39
:103014000321117001331E4A1370BCE71C4B1B784B
:1030240016490A78D2B21C48C2540A78D2B20A2A83
:1030340001D00A782AB9184A0021D154104A032130
:1030440011700133124A1370A5E7114B1B780B4919
:103054000A78D2B21048C2540A78D2B20A2A01D0ED
:103064000A7822B900220C49CA5405490A7001336E
:10307400074A13708FE700BF003801407F1E00200D
:10308400941E0020E0520008E85200087D1E002033
:10309400E4000020981E0020801E00202DE9F0414D
:1030A40004460D46FDF7BEF9064600285FD0002D04
:1030B40000F0B180FF2C5DD0584F4FEAC408A8EB54
:1030C40004031801483038441C222946043001F016
:1030D400F1FEA8EB04084FEA08131F44012387F804
:1030E400483097F84C00FDF7D3F800284ED1C4EBD4
:1030F400C4031A01494B13449B79002B70D0E2009E
:10310400121B1101454B0B449A88B3F85610521AFE
:1031140092B20132A3F8562093F85820524283F811
:103124005820E200121B11013C4B0B44B3F856200B
:103134009B889A4262D9394A0A44A2F85630E2007E
:10314400121B1101354B0B44B3F85620DA87B3F840
:103154005C20A3F840203149E300181B02010A4413
:1031640092F9580082F83C00002382F84930304636
:10317400BDE8F08100242A4B1B78A342F7D92946E5
:103184002046FFF78BFF0134E4B2F4E7F86E01F058
:1031940089FEB7F85000B7F85A300221184401F0FC
:1031A4006BFEF8660023FB87B7F85C301D4AA2FB70
:1031B40003231B09B7F85A2003FB02F3B7F8502086
:1031C400B3FBF2F0934200D20120E200121B110182
:1031D400124B0B44A3F85C000122A3F84020BAE789
:1031E400E3001B1B19010D4A0A445388B2F8561018
:1031F4000B449BB2013BA2F8563092E7C4EBC403E4
:103204001901064B0B445B889A4298D2034A0A443C
:10321400A2F8563093E70026A9E700BF301100203A
:10322400DC000020CDCCCCCC10B5114B1B6813F4C2
:10323400004F0BD00E4B4FF400425A600D4B01224D
:103244001A7000210C48FEF79FFC10BD084B1B6848
:1032540013F4005FF5D0064B4FF400525A60074C4C
:10326400206801F01FFE00232360054A1370E8E77D
:10327400000002407E1E002044000240AC000020FA
:10328400B00000202DE9F04F83B082460C46FDF7D4
:10329400C9F80190002800F0D280002C00F0E580ED
:1032A400BAF1FF0F19D05646CAEBCA031801103001
:1032B4006F4B184418222146043001F0FBFD4FF0F7
:1032C400010842E021462846FFF7DCFF0135EDB254
:1032D400684B1B78AB42F5D8B1E00025F8E7002233
:1032E400FFB2B7FBF5FCC6EBC6034FEA031E604B07
:1032F400734483F80CC0BBF1000F0DD0BCF1000F78
:1033040009D005FB1C77322F06D9019A04E0019AF3
:10331400E6E7019AE4E7019AC0B2B0FBF5FCC6EB1C
:10332400C6031F01524B3B4483F80DC031B1BCF1BD
:10333400000F3BD005FB1C00322839D81AB108F124
:1033440001081FFA88F8002A34D0A56808EB88021F
:103354009300B5FBF3F520796378C01A01F088FD7A
:103364005FFA80F96079A378C01A01F081FD0746FD
:103374005FFA80FBA079E378C01A01F079FDC1B24D
:10338400B9FBF5FCC6EBC6031A01394B134483F8A9
:103394000BC0B9F1000FA2D0BCF1000FB7D005FBF0
:1033A4001C99B9F1320FB4D8002299E7019AC6E703
:1033B400019AC4E74FEACA02A2EB0A0211012C4B9C
:1033C4000B44A3F82080A3F8108094F90E30B3F1D5
:1033D400FF3F38D060784FEACA02A2EB0A0211011B
:1033E400234B0B441872A2785A72E2789A7294F9B9
:1033F4000E10CAEBCA031A011D4B134499732369B7
:1034040023B10022A3FB051535BB3AB3CAEBCA03AB
:103414001A01174B134400225A6215494FEACA0293
:10342400A2EB0A0003010B44586AD8620120987485
:10343400A2EB0A0A4FEA0A1319440023CB74019839
:1034440003B0BDE8F08F2079094B0B441872627900
:103454005A72A2799A72CAE70122D6E7CAEBCA0263
:103464001101034A0A445362D7E700230193E6E7B4
:1034740030110020DC0000202DE9F04784B0044620
:103484008DF80F00FCF7CEFF002800F0C681B54B85
:10349400E100081B0201104610321A44151D0344B2
:1034A40093F81AC0DF7D9E7C002E00F0B681AD4AF1
:1034B4000244537D107E834200F28A804FF000095B
:1034C400E100091B4FEA011EA64A7244917D527E17
:1034D40091427FD84FF00008BC457DD30027B9F155
:1034E400000F7BD0E200121B11019E4A02EB010A7D
:1034F4009AF80E104942009303469AF80B2049B2F9
:103504009AF80800FDF7AEFA8AF80800B8F1000F3F
:1035140076D0E3001B1B1A01924B03EB020A9AF8C4
:103524000E1049429AF8163000939AF819309AF816
:103534000C2049B29AF80900FDF794FA8AF80900B8
:10354400002F73D0E3001B1B1A01864B03EB020A06
:103554009AF80E1049429AF8173000939AF81A30E4
:103564009AF80D2049B29AF80A00FDF77BFA8AF816
:103574000A0047B1E200121B11017A4B0B449A7AFC
:103584009B7E9A4268D94FB9E200121B1101754B18
:103594000B449A7A9B7E9A4280F091804FB1E2006C
:1035A400121B11016F4B0B449A7ADB7D9A4280F017
:1035B4008980002F40F08980E200121B1101694BC1
:1035C4000B449A7ADB7D9A4240F28280394644E089
:1035D400B14675E7B0467FE7374680E7E200121B45
:1035E4001101604A02EB010A00909AF80B209AF943
:1035F4000E109AF80800FDF735FA8AF8080085E7F6
:10360400E3001B1B4FEA031A564B9A449AF81930ED
:1036140000939AF816309AF80C209AF90E109AF83A
:103624000900FDF71FFA8AF8090089E7E3001B1B6C
:103634004FEA031A4B4B9A449AF81A3000939AF8BB
:1036440017309AF80D209AF90E109AF80A00FDF72F
:1036540009FA8AF80A008CE70021B8F1000F08D0B3
:10366400E200121B10013F4B03445A7A5B7E9A42DC
:1036740031D9B8F1000F08D1E200121B1001394B07
:1036840003445A7A5B7E9A425DD2B8F1000F08D0A7
:10369400E200121B1001334B03445A7A9B7D9A4279
:1036A40054D2B8F1000F55D1E200121B10012D4B7A
:1036B40003445A7A9B7D9A4250D940460CE03946DD
:1036C4003746CAE731460027C7E700273946C4E72B
:1036D40031460027C1E70020B9F1000F09D0E2000C
:1036E400121B4FEA021C1F4B63441A7A1B7E9A4238
:1036F4003AD9B9F1000F0AD1E200121B4FEA021CB9
:10370400184B63441A7A1B7E9A4280F08980B9F17F
:10371400000F09D0E200121B4FEA021C114B634454
:103724001A7A5B7D9A427FD2B9F1000F7FD1E20011
:10373400121B4FEA021C0B4B63441A7A5B7D9A42BC
:1037440079D94E4611E04046B046C5E730464FF0C1
:103754000008C1E74FF000084046BDE730464FF08F
:103764000008B9E730110020002609B9002F54D011
:1037740010B9B8F1000F50D016B9B9F1000F4CD000
:1037840000238DF80E30C4EBC4031A01754B1344A7
:1037940093F829607EB1734B1344DB7C1BB9714BE6
:1037A40013440222DA7421463046FCF79DFD10B121
:1037B4006D4B01229A5516B16B4B9B5D6BB3C4EBF9
:1037C400C4031A01674B1344DB6A002B36D1C4EBE4
:1037D400C4031A01634B13441B7D012B40F29680F2
:1037E400022B07D1E200121B11015E4B0B449A7BA2
:1037F40052429A73C4EBC4031A015A4B1344002275
:10380400DA74C4EBC4042201564B134493F82940E0
:10381400554B1B5D002B40F09B8004B0BDE8F08746
:1038240033464E469946A0E74FF000099DE74FF016
:1038340000094E4699E74FF0000996E7C4EBC4022D
:1038440013012833474818440430FCF78FFD00283F
:10385400BDD0C4EBC4031A01424B134493F8303077
:10386400002B4BD03F4B1344002283F8302093F9B4
:103874002230012B21D0E3001B1B1A01394B1344C6
:1038840093F831201A7693F832205A7693F833203D
:103894009A76C4EBC4031A01324B13441B7D012BEB
:1038A4001AD9022B1ED1E3001B1B1A012D4B134402
:1038B4009A7B524283F8222014E0E3001B1B1A0176
:1038C400284B134493F831205A7593F832209A7593
:1038D40093F83320DA75DCE7224B134493F9342050
:1038E40083F82220E3001B1B1A011E4B13449A6B1E
:1038F4005A6229462046FFF7C5FC82E7C4EBC4039D
:103904001A01184B13440122DA747AE7C4EBC40396
:103914001A01144B134493F90E30B3F1FF3F0ED048
:10392400012B7FF467AFE3001B1B1A010D4B1344FB
:103934005A7D1A729A7D5A72DA7D9A725AE7094B45
:1039440013441A7E1A725A7E5A729A7E9A7251E7F8
:103954002046FCF7A5FC00283FF45FAF024B002291
:103964001A555AE7301100201011002070B586B0A6
:1039740005460C4616460846FCF754FD002838D088
:10398400FF2C38D018222946684601F093FA296999
:10399400E200121B10012D4B03449963012283F8AA
:1039A400302095F90E2083F834208EB36E782749A1
:1039B400E200101B03010B4483F83160A87883F8FC
:1039C4003200E87883F83300187A8DF801005B7AC6
:1039D4008DF80230131B1A0111448B7A8DF80330D1
:1039E40001238DF80E300123049369462046FFF726
:1039F40049FC06B070BD0024154B1B78A342F8D9CE
:103A0400324621462846FFF7B1FF0134E4B2F3E71A
:103A14002E790E49E200101B03010B4483F8316038
:103A2400687983F83200A87983F83300187A8DF81E
:103A340004005B7A8DF80530131B1A0111448B7A4C
:103A44008DF80630FF238DF80E30CCE730110020BE
:103A5400DC0000202DE9F041254D2D781D2D3ED8A8
:103A640091423ED8984616460D460446FCF7CCFDD6
:103A7400002839D031462046FCF7C6FD002835D051
:103A84001B490F781B48FB00DB1B1A018318845465
:103A94005D809E8083F806807B1C0B7007993846F6
:103AA400FFF7F0FB30B9C7EBC7031A01114B1344FE
:103AB40000229A740E4B187801380699C0B2FFF7A9
:103AC400EDFA38B9C7EBC70002010A4B13440022D0
:103AD40083F84820064B18780138C0B202E01F2052
:103AE40000E01F20BDE8F0811F20FBE71F20F9E75D
:103AF400DC0000203011002008B501F0A5FA08BD53
:103B040010B5044601F0C4FA013401386FF00043E3
:103B1400B3FBF4F3B0FBF3F010BD00002DE9F04F5C
:103B24008BB0054601238DF82730FCF77BFC10B9D8
:103B34000BB0BDE8F08F2C46C34AEB00581B0101C3
:103B4400083102EB010B00011118B1F80280B1F841
:103B54000490105C0790B1F85470B1F85200074417
:103B6400BFB2B1F850603744BFB2B1F85A100E4436
:103B7400B6B25B1B180140301044FCF7EBFB002885
:103B840050D0C5EBC5031A01AF4B134493F84C0056
:103B9400022811D048B3012852D0FCF779FB002841
:103BA400C6D0C5EBC5031A01A74B13449B7C002B5D
:103BB4006CD14FF0000A67E0A34B03EB020ABAF89A
:103BC4005A109AF93C000DF1270300934B464246E4
:103BD40000FB01F1BAF83E00FCF715FFAAF83E001D
:103BE4009DF827308AF83C3013E0EB005B1B1A0188
:103BF400954B03EB020ABAF85A109AF93C004B466B
:103C0400424600FB01F1BAF83E00FCF71DFFAAF89A
:103C14003E00EA00521B11018B4B0B44B3F85C20AD
:103C2400A3F84020C5EBC5031A01874B134493F84E
:103C34004C00FCF72DFB002840F008810025BDE175
:103C4400EB005B1B1A01804B1344D88FB3F85A2046
:103C540093F93C1089B201FB0202DA87D9E7E2004A
:103C6400121B1101784B0B44DA6E32F81A1093F8D8
:103C7400643001930022009213462846FCF786FD27
:103C84000AF1010A1FFA8AFAB245E8D3C5EBC50363
:103C94001A016D4B1344DB8FB34207D36A4B1344B1
:103CA40093F84C30042B0CD0052B17D0C5EBC5036F
:103CB4001A01654B1344DB8FB342AAD24FF0000ABA
:103CC40062E0614B03EB020A72000021DAF86C0037
:103CD40001F0FEF80023AAF83E30E7E7EB005B1B97
:103CE4001A01594B1344DE87012283F84920DDE78A
:103CF400A9EB0800FFF704FF80B2E200121B1101D8
:103D0400514B0B44DA6EDB8F013022F8130058E07C
:103D14004D4B13440122DA875DE0072B1BD0C5EB22
:103D2400C5031A01484B1344DE87C5EBC5031A01CA
:103D3400454B134493F84C30072B6ED0EB005B1BC0
:103D44001A01414B1344002283F8682083F8692048
:103D540083F86A205DE7721EEB005B1B19013A4B86
:103D64000B44DA87FF2283F83C20DEE743B9C4EB37
:103D7400C4031A01344B134493F84C30072B46D038
:103D84000AF1010A1FFA8AFAC4EBC4031A012E4B82
:103D94001344B3F85A305345C7D9C4EBC4031A01CA
:103DA400294B134493F93C30B3F1FF3FA0D1E20017
:103DB400121B1101244B0B44DA6EDB8F002122F815
:103DC4001310C4EBC4031A011F4B1344DB6B23F41D
:103DD4007F43FF2B9CD0E3001B1B19011A4A0A44A2
:103DE400D38F92F93C1089B20B449BB2D387B34270
:103DF400BCD3C4EBC4031A01134B134493F84C30E3
:103E0400062B8AD1104B13440022DA87B8E70E4BF5
:103E14001344012283F83C20B2E70B4B134493F97B
:103E24003C30B3F1FF3F89D1074B134493F84D2045
:103E340083F8682093F84E2083F8692093F84F2084
:103E440083F86A20E5E600BF30110020EB005B1B1D
:103E54001A019D4F174497F93C8097F84D20B7F805
:103E64005C900092002392FBF9F2414697F86800B7
:103E7400FCF7F8FD87F8680097F84E2000920023BD
:103E840092FBF9F2414697F86900FCF7EBFD87F8DD
:103E9400690097F84F200092002392FBF9F2414603
:103EA40097F86A00FCF7DEFD87F86A00FF8FBE42D0
:103EB4002BD84FF000084CE0771EBFB2E3001B1B69
:103EC4001901814A0A44D36E33F8171092F86A3004
:103ED40092F864000190009392F8693092F8682097
:103EE4002846FCF753FC08F101081FFA88F8C4EBD4
:103EF400C4031A01744B1344B3F85A304345D8D958
:103F0400002FD9D0013FBFB2D8E74FF00008EEE749
:103F1400771EBFB2C4EBC4031A016B4B1344DB6EB0
:103F240033F8171000293FF403AE1046664A0244E2
:103F340092F84F3092F864000190009392F84E305A
:103F440092F84D202846FCF721FC08F101081FFADD
:103F540088F8C4EBC4031A015B4B1344B3F8503024
:103F640043457FF6E5AD002FD2D0013FBFB2D1E784
:103F74005548104490F93C1001FB05F100230093CF
:103F84004B4642464942C08FFCF73DFD06B20FE066
:103F9400E3001B1B1A014C48104490F93C1001FB30
:103FA40005F14B4642464942C08FFCF74DFD06B22F
:103FB400464501DB4E455FDD0135ADB2BD42BFF480
:103FC400B7ADC4EBC4031A013F4B134493F84C3010
:103FD400022BCDD0002BDBD0012B7FF4A9ADE20066
:103FE400121B1101384B0B44DE8F93F93C3003FB59
:103FF400156636B27A1E9542DADB012B1FD0B3F177
:10400400FF3FD5D14645D3DA2F48E300191B0A01F7
:104014000244A2F83E900A01403210440430FCF7F6
:10402400A5F90028C4D0E3001B1B1A01264B134436
:10403400012283F84920002283F84820B8E74E453E
:10404400DDDD2148E300191B0A010244A2F83E8089
:104054000A01403210440430FCF788F90028A7D044
:10406400E3001B1B1A01184B1344012283F8492057
:10407400002283F848209BE705F1010A1FFA8AFA17
:10408400012251465846FCF77CF90590022251461C
:104094005846FCF776F90690032251465846FCF739
:1040A40070F901230293C4EBC4031A01064B1344B1
:1040B40093F8643001930090069B059AB1B2079877
:1040C400FCF700FB78E700BF301100202DE9F04138
:1040D40086B0002305930493414B1A68414B1B6837
:1040E4009A4202D806B0BDE8F081FF20FCF7CCFA72
:1040F4000028F7D13C4A137801331370384B1B68FE
:104104000533384A1360394B1B78394A157805EB67
:104114009305EDB20135EDB231E01046103008449C
:10412400FCF718F990B9E200121B1101314B0B4452
:104134005A7A997A93F828000290019100921B7A96
:104144003A4631464046FCF7E7FB31E0284B187805
:10415400FFF792F9E200121B1101264B0B441A8C53
:104164001A82E0E7224B1878FFF7D8FCFCF78EFCA4
:10417400059BC01A04901E4A1378013313701C4B1C
:104184001C782046FCF74EF9E0B1AC421AD2FCF799
:104194007DFC0590164B1C781649E3001B1B1A0185
:1041A4008B185E889F8811F802809B7C002BB4D109
:1041B400C4EBC40422010F4B134493F84830002B82
:1041C400D4D0CFE7084B1B78032B8BD9FF20FDF706
:1041D40087FD0023044A1370054A137082E700BF69
:1041E400781E002014010020D4000020DC000020F0
:1041F400DD0000203011002010B582B00C460023F1
:104204008DF800308DF801308DF8023008281FD069
:1042140000EB40001D4B184402888378ADF8002061
:104224008DF8023014BB009BADF804301B0C8DF8E4
:10423400063000209DF8043063F307009DF8053034
:1042440063F30F209DF8063063F3174002B010BDEE
:104254000620FFF755FC00EB40000C4B1844028885
:104264008378ADF800208DF80230DBE721466846FC
:10427400FCF791FB8DF80400C0F307238DF805309B
:10428400C0F307408DF80600D3E700BF645300086D
:1042940030B583B00D4614461946FFF7ADFF8DF8CF
:1042A4000400C0F307238DF80530C0F307408DF8F0
:1042B40006009DF818102846FFF79EFF9DF804306D
:1042C400637020719DF80530A370C0F307236371F8
:1042D4009DF80630E370C0F30740A07103B030BD11
:1042E40010B582B00C461146FFF786FF6070C0F32C
:1042F4000723A370C0F30740E07002B010BD2DE99E
:10430400F04383B00C46174698460021FFF774FF2C
:10431400C0F30729C0F30746C5B24246FF21284629
:10432400FCF734FB20713A46FF212846FCF72EFBAC
:1043340060705FFA89F94246FF214846FCF726FB84
:1043440060713A46FF214846FCF720FBA070F6B2A4
:104354004246FF213046FCF719FBA0713A46FF2183
:104364003046FCF713FBE07003B0BDE8F08370B592
:1043740086B0044615461E461822684600F09AFD8B
:104384000A2C06D1324629466846FFF7EFFA06B0F2
:1043940070BD9DF82C309DF8282069462046FFF713
:1043A400AEFFEFE72DE9F04385B004460F4615460E
:1043B400224E02EB4200FF213044FCF7ECFA8DF868
:1043C4000C00C0F307238DF80D30C0F307408DF8BF
:1043D4000E0005212846FCF711FBC5B205EB45008C
:1043E400FF213044FCF7D7FA8146C0F30728C0F315
:1043F400074605212846FCF701FBC5B29DF80C30A1
:1044040063709DF80D30A3709DF80E30E37084F84E
:10441400049084F80580A6710123A373236123709B
:10442400FF230193002300933A4621460A20FFF715
:104434009EFF284605B0BDE8F08300BF5053000836
:10444400164B1A68164B1B689A4207D3134B1B680A
:104454003733134A1360134B1B7803B9704710B5F5
:10446400114B1878FCF758F800B910BD0F4C22789E
:104474000D4B19780E48FFF795FF20700D4B1B6804
:10448400002BF2D0022B05D800230A4A1360054AF8
:104494001370EAE7023B074A1360E6E7781E002040
:1044A40010010020D4100020D6100020D5100020C8
:1044B400D8100020D010002070B506460C460C4DD4
:1044C40018220146284600F0F5FC336903EB430348
:1044D4005A00084B1A60002221462846FFF762FF63
:1044E400054B1870054B1C70054B01221A7070BDEA
:1044F400D8100020D0100020D5100020D6100020A5
:10450400D41000202DE9F04182B0B04B1B7893B158
:104514000120FEF7BFF8002800F08A81AC4B01228D
:104524001A70AC4B1B780D3B042B4DD8DFE803F01D
:1045340045704C747900A84CFF2221460020FFF7F7
:10454400CFFE0026666126810523E3809622A280A1
:10455400072222704FF4FA622282E3810127277333
:10456400678126769D4DC823642229460320FFF7E0
:10457400C6FE2E614FF0020885F80080FF23AB735E
:104584004FF42F73AB602E7501950094334640F2BF
:10459400811239463846FFF75DFA914B1870019540
:1045A400009433464FF4AF7239464046FFF752FA4F
:1045B4008C4B1870854B1F70AAE7874B02221A8216
:1045C400864B4FF42F729A60824A13780133DBB220
:1045D4001370112B02D9134600221A707D4B1B78DD
:1045E400122B00F21381DFE813F02400340044009E
:1045F40054006400740084009200A000AE00C20065
:10460400DA000601FF00AF011101BA01CD01E0019A
:104614000020FCF7B5F9D7E70121FF20FEF718F9D0
:10462400D2E76D4B02221A826C4B4FF42F729A60C0
:10463400CAE7C8230193322300930123FF22674969
:104644000220FFF794FEFF2263490520FFF748FE8E
:10465400E0E0C8230193322300930123FF225F4942
:104664000420FFF784FEFF225B490520FFF738FE94
:10467400D0E0C8230193322300930123FF2257493A
:104684000020FFF774FEFF2253490520FFF728FEA0
:10469400C0E0C8230193322300930123FF224F4932
:1046A4000520FFF764FEFF224B490320FFF718FEA5
:1046B400B0E0C8230193322300930123FF2247492A
:1046C4000520FFF754FEFF2243490120FFF708FEAF
:1046D400A0E0C8230193322300930123FF223F4922
:1046E4001846FFF744FEFF223B490320FFF7F8FD7D
:1046F40090E0C8230193322300930123FF2237491A
:104704000420FFF734FE324B00221A7082E0C823E3
:104714000193322300930123FF2230490520FFF740
:1047240026FE2B4B00221A7074E0C8230193322317
:1047340000930123FF2229490020FFF718FE244B90
:1047440000221A7066E0254DC82300932A460021F2
:104754000220FFF79DFD0024019400942346FF22CC
:1047640029460A20FFF703FE194B1C7052E01B4C2C
:10477400C8230093224600210220FFF789FD00236D
:1047840001930093FF2221460A20FFF7F0FD012048
:104794000F4B1870FF221049FFF7A2FD3AE00F4DAE
:1047A400C82300932A4600210420FFF771FD4FF42B
:1047B400AF63AB600024019400942346FF22294692
:1047C4000A20FFF7D4FD024B1C7023E0501E00208A
:1047D4003800002039000020F0100020E8000020FC
:1047E4002E1100202F110020B54B01221A82B54B47
:1047F4004FF496729A60FA239622B2490820FFF782
:104804007EFDFF22AE490820FFF76AFDAD49FF2077
:10481400FEF738FDAA49FF20FEF740FCAA4B1978A1
:10482400FF20FBF7C1FEA94B1B780F2B00F0C180C2
:1048340041F288310120FDF74DFF20B3A44B1B78D2
:10484400002B00F0C6809E4B07221A7000225A618A
:104854001A810521D980962098804FF4FA60188235
:10486400D981012119735981994B1A709549FF20F7
:10487400FEF708FD9249FF20FEF710FC924B1978D1
:10488400FF20FBF791FE0220FDF70EFFD8B18F4BFE
:104894001B78112B00F0AF80102B00F0B4808D4BEF
:1048A4001878800000F0FC00FBF7A6FF01221146F7
:1048B400FF20FBF7C5FD01221146FF20FBF7C0FDD9
:1048C400FF20FDF70DFA0220FDF7E4FE002840F07A
:1048D4009D800320FDF7DEFEA0B17F4B1B78002BEB
:1048E40000F09E800021FF20FBF73CFE0021FF200A
:1048F400FBF75AFE784B00221A70744B1B78102B6E
:1049040000F089804FF47A710320FDF7E3FE68B16B
:10491400704A13780133DBB213700F2B02D913469C
:1049240000221A706B4B1878FBF766FF674B1B78F5
:10493400102B00F0B380112B00F0DC800D2B00F065
:10494400858002B0BDE8F0815E484FF42F73836028
:10495400FF21FFF7B1FD5C4B00221A705AE7594959
:1049640000234B700B718B704B71CB708B71544A5D
:1049740053709370D37001930093FF220A20FFF7C2
:10498400F6FC47E7554B01221A704E4900240C618E
:10499400FF228A73C82301936423009323460520CE
:1049A400FFF7E5FC484B1C7034E7484B00221A70B3
:1049B4002CE74B4C00212078FBF7F6FD00212078F2
:1049C400FBF7D0FD474B1A8821780120FEF704F845
:1049D4002EE73B4B01221A70002159610A211981EB
:1049E400D980142199801A820321D9811A735A819A
:1049F400374B1A703AE7394A1378013313703A4B3C
:104A040000221A705FE7FDF78DFF5CE7314B1878E1
:104A1400FBF7F2FE5DE70121FF20FDF719FF71E7C7
:104A24000121FF20FBF79EFD274B1978FF20FBF7A0
:104A3400BBFD294B01221A70244B1B78102B7FF4E9
:104A440061AF0021FF20FDF703FF5BE7274B1A68E6
:104A5400274B1B689A427FF674AF244B1B6803F5FF
:104A64009673234A1360174DFA2396222946082089
:104A7400FFF745FC124CFA2221460820FFF730FCD0
:104A84002946FF20FEF7FEFB2146FF20FEF706FB2A
:104A94000D4B1978FF20FBF787FD52E7FF20FBF74A
:104AA4003BFD00283FF44DAFFF20FDF7FBFE00283F
:104AB4003FF447AF0021FF20FDF7CAFE41E700BFE6
:104AC400F0100020E8000020380000203900002009
:104AD40000010020370000201C010020521E00208D
:104AE4002F11002034000020511E0020781E0020C9
:104AF400180100209A4B1B78013B072B00F22981F7
:104B040001A252F823F000BF474900082D4B0008CA
:104B1400954B0008E54B0008214C0008414C000867
:104B2400AB4C0008FD4C00088E4B1B786BB18E4BD0
:104B34001A688E4B1B689A427FF603AF884B032298
:104B44001A70884B00221A70FBE6874B1B6803F629
:104B5400B833864A1360864CC82221460620FFF7E4
:104B6400BFFB06232370012525734FF47A63238248
:104B7400C823A3800A23E3817E4E21463078FEF7C2
:104B84008DFA29463078FBF70FFD764B1D70CEE782
:104B9400744B1B78002B7FF4D4AE734B1B6803F665
:104BA400B833724A1360724CC82221460620FFF7BC
:104BB40097FB062323700125257340F6B83323821F
:104BC400C823A3800A23E3816B4E21463078FEF785
:104BD40065FA29463078FBF7E7FC624B1D70B0E6B6
:104BE400604B1B78002B7FF4ACAE614CFF23237326
:104BF400604D21462878FEF751FA01212878FBF709
:104C0400D3FC5D4D21462878FEF748FA0121287827
:104C1400FBF7CAFC534B01221A7092E6514B1B78E6
:104C2400002B7FF48EAE554B18780230C0B218704A
:104C3400FBF7E2FD4B4B01221A7082E6494B1B78CD
:104C44006BB1494B1A68494B1B689A427FF679AE9F
:104C5400434B07221A70434B00221A7071E6424BF1
:104C64001B6803F6B833414A1360414CC8222146FD
:104C74000620FFF735FB06232370012525734FF427
:104C84007A6323824FF49673A3800A23E381394E17
:104C940021463078FEF702FA29463078FBF784FC87
:104CA400304B1D70CDE72F4B1B78002B7FF449AEA2
:104CB4002D4B1B6803F6B8332C4A13602C4CC822C6
:104CC40021460620FFF70CFB0623237001252573DC
:104CD40040F6B83323824FF49673A3800A23E3810A
:104CE400254E21463078FEF7D9F929463078FBF76E
:104CF4005BFC1C4B1D7024E61A4B1B78C3B11A4B8A
:104D04001A681A4B1B689A427FF61BAE1B4B1B7822
:104D14000E2B3FF616AE144A126802F57A72134946
:104D24000A600133D8B2154B1870FBF765FD08E62D
:104D34000D4B1B6803F57A730C4A13600F4B1878FC
:104D44000130C0B21870FBF757FD064B01221A70F0
:104D5400D5E7034B00221A70084B06221A70F0E5BF
:104D6400521E0020511E0020781E0020541E0020D8
:104D7400F01000202E1100202F11002037000020F9
:104D840008B5154B1B7823BB134B01221A70134B28
:104D94001B78032B05D8DFE803F002131619FFF77D
:104DA40095F90E4A13780133DBB21370032B02D941
:104DB400134600221A70084B00221A70012008BD05
:104DC400FDF7AEFCEDE7FFF79DFBEAE7FFF738FBE5
:104DD400E7E70020F3E700BF010100207C1E00206C
:104DE40008B5FBF7DBFEFCF7E1FAFDF7FDFCFDF788
:104DF400A3FDFDF759FE0C4B1878FBF7FDFC4FF4AF
:104E0400FA710120FDF7F4FE4FF4FA710220FDF768
:104E1400EFFEFF20FCF764FF0120FDF7C5FDFEF760
:104E24006BFEFFF7ADFFFCE73700002008B5034633
:104E34000C4A12685AB10B4A1068033323F0030377
:104E44000344094A934206D8064A136008BD054A3A
:104E540006491160EFE700F017F80C2303604FF0E8
:104E6400FF30F3E7E0000020004C0020E81E0020A3
:104E74000028B8BF40427047024B0A4601461868F2
:104E840000F02EB840000020014B1868704700BFA6
:104E940040000020024B0146186800F07BB800BFB8
:104EA40040000020024B0146186800F027B800BFFC
:104EB400400000200A44914200F1FF3300D17047C2
:104EC40010B511F8014B914203F8014FF9D110BD0F
:104ED40003460244934200D1704703F8011BF9E7EB
:104EE40038B502FB01F4214600F054F8054618B128
:104EF40022460021FFF7ECFF284638BD38B50546A9
:104F0400002943D051F8043C0C1F002BB8BFE4180F
:104F140000F002F91E4A1368104633B96360146046
:104F24002846BDE8384000F0FDB8A3420BD92168FB
:104F34006218934201BF1A685B685218226063606A
:104F44000460EDE713465A680AB1A242FAD9196817
:104F54005818A0420BD120680144581882421960A5
:104F6400DED110685268014419605A60D8E702D94A
:104F74000C232B60D4E7206821188A4201BF1168F2
:104F840052680918216062605C60C9E738BD00BFDF
:104F9400CC1E0020F8B5CD1C25F0030508350C2DDA
:104FA40038BF0C25002D064601DBA94203D90C238A
:104FB40033600020F8BD00F0AFF821490A681446B8
:104FC4009CB9204F3B6823B92146304600F094F841
:104FD40038602946304600F08FF8431C23D10C2357
:104FE4003046336000F09EF8E3E723685B1B17D478
:104FF4000B2B03D923601C44256004E06368A242A0
:105004000CBF0B605360304600F08CF804F10B00C9
:10501400231D20F00700C21ACCD01B1AA350C9E7E5
:1050240022466468CCE7C41C24F00304A042E3D005
:10503400211A304600F060F80130DDD1CFE700BF1F
:10504400CC1E0020D01E002038B50D4B05461C6830
:10505400A36B7BB91820FFF71DFF0A4A0A4BA06314
:10506400C0E90023094B012283600B2383810023C1
:10507400C0E904230022A36B1D615A6138BD00BF3F
:10508400400000200E33CDAB34126DE6ECDE05009B
:10509400134B10B51C68A36B7BB91820FFF7FAFEFD
:1050A400104A114BA063C0E90023104B0122836016
:1050B4000B2383810023C0E90423A16B0C480A69F4
:1050C4004B6950430B4C04FB0300A2FB04345A1CF1
:1050D400044444F10000C1E9042020F0004010BD64
:1050E400400000200E33CDAB34126DE6ECDE05003B
:1050F4002DF451582D7F954C38B50023054C0546A9
:1051040008462360FFF792FE431C02D1236803B1D3
:105114002B6038BDD41E0020014800F009B800BF40
:10512400DC1E0020014800F004B800BFDC1E002093
:10513400704770472E2E2F6C65645365676D656EDE
:10514400742F73746D33327574696C732F73797340
:1051540074656D2F7372632F73746D333266312DE2
:105164007374647065726970682F73746D3332661A
:105174003130785F6164632E630000002E2E2F6C43
:1051840065645365676D656E742F73746D33327522
:1051940074696C732F73797374656D2F7372632FD5
:1051A40073746D333266312D737464706572697013
:1051B400682F73746D3332663130785F646D612E9D
:1051C400630000002E2E2F6C65645365676D656E59
:1051D400742F73746D33327574696C732F737973B0
:1051E40074656D2F7372632F73746D333266312D52
:1051F4007374647065726970682F73746D3332668A
:105204003130785F6770696F2E6300002E2E2F6C2B
:1052140065645365676D656E742F73746D33327591
:1052240074696C732F73797374656D2F7372632F44
:1052340073746D333266312D737464706572697082
:10524400682F6D6973632E63000000002E2E2F6C8F
:1052540065645365676D656E742F73746D33327551
:1052640074696C732F73797374656D2F7372632F04
:1052740073746D333266312D737464706572697042
:10528400682F73746D3332663130785F7263632EC6
:10529400630000002E2E2F6C65645365676D656E88
:1052A400742F73746D33327574696C732F737973DF
:1052B40074656D2F7372632F73746D333266312D81
:1052C4007374647065726970682F73746D333266B9
:1052D4003130785F7370692E6300000048656C6C30
:1052E4006F210A00444D4120746573742074726107
:1052F4006E736665720A00002E2E2F6C656453650A
:10530400676D656E742F73746D33327574696C7365
:105314002F73797374656D2F7372632F73746D3388
:105324003266312D7374647065726970682F73749A
:105334006D3332663130785F75736172742E630039
:10534400E40CAC0D740E3C0F04100000E70000FFE9
:105354006000FFEF0000FF200020FF7600790000CE
:10536400FF000000FF000000FFFF00FF00FFFFFF41
:05537400FF00FFFFFF38
:10537C0078563412020406080000000000000000F9
:10538C0001020304060708090000000001020304DF
:10539C00010203040607080900A24A0404010020C4
:1053AC00000000009700FF06010CFFFF4800000002
:1053BC00440000200000000000000000000000007D
:1053CC0000000000000000000000000000000000D1
:1053DC0000000000000000000000000000000000C1
:1053EC0000000000000000000000000000000000B1
:1053FC0000000000000000000000000000000000A1
:10540C000000000000000000000000000000000090
:08541C000000000032547698F4
:040000050800016D81
:00000001FF
