:020000040800F2
:1000000000500020590200085D0100084901000865
:1000100045010008310100081D0100080000000032
:1000200000000000000000000000000019010008AE
:10003000150100080000000011010008550D00081E
:100040000D0100080D0100080D0100080D01000858
:100050000D0100080D0100080D0100080D01000848
:100060000D0100080D0100080D0100080D01000838
:100070000D0100087D2A0008AD460008392A000855
:100080000D010008F52900087D3900080D01000860
:100090000D0100080D0100080D0100080D01000808
:1000A0000D0100080D0100080D0100080D010008F8
:1000B0000D0100080D0100080D0100080D010008E8
:1000C0000D0100080D0100080D0100080D010008D8
:1000D0000D010008814700080D0100080D0100080E
:1000E0000D0100080D0100080D01000800000000CE
:1000F0000000000000000000000000000000000000
:1001000000000000000000005FF808F100BEFEE7FC
:1001100000BEFEE700BEFEE700BEFEE71EF0040FD5
:100120000CBFEFF30880EFF3098071464C4A10478B
:100130001EF0040F0CBFEFF30880EFF30980714647
:10014000484A104700BEFEE71EF0040F0CBFEFF355
:100150000880EFF309807146434A104700BEFEE76E
:1001600000BEFEE700BEFEE700BEFEE700B583B0BE
:1001700000F0D4FE284B294A1360294A1360294B0A
:10018000294A03E052F8041B43F8041B27498B4219
:10019000F8D3224B1A68264B9A4200D0FEE7204B38
:1001A0001A68244B9A42F9D11B4B234A1360234A05
:1001B0001360234B02E0002243F8042B214A9342B0
:1001C000F9D31D4B1B6813B91C4B1B6803B1FEE729
:1001D00000F0A0FE694601A800F0ACFE1A4C1B4BD3
:1001E000E41AA410002504E0184B53F82530984772
:1001F0000135AC42F8DC164C164BE41AA41000256D
:1002000004E0144B53F8253098470135AC42F8DC34
:100210000099019804F034F8BABADECA0000002050
:10022000A0000020000000207C4F0008A400002057
:100230007856341232547698A400002050230020BF
:10024000A400002054230020940200089402000817
:10025000940200089402000808B5FFF787FF000029
:0C02600061010008650100086901000848
:10026C007C4F000800000020A40000207C4F0008F8
:10027C000000000000000000A40000205423002017
:08028C0000000000000000006A
:1002940003882BB1013B9BB223B10380002070473C
:1002A4000020704701207047036823B1013B04D04C
:1002B400036000207047002070470120704770B42D
:1002C400458C8D4205D2038C2B44994214DC0124C5
:1002D40000E00024022A14D0032A15D0012A0DD0EC
:1002E40000221346012C04D066B286B1022C17D02A
:1002F4000023184670BC70470224EBE7437F027862
:10030400F0E7837F4278EDE7C37F8278EAE79B1AC0
:1003140003FB01F393FBF5F3DBB21344DBB2E8E731
:10032400491B048C091B01399A1A02FB01F2818CC6
:1003340092FBF1F2D2B29B1ADBB2DAE7034B1B78E1
:10034400834201D80020704701207047DA00002062
:1003540070B504460E461546FFF7F0FF034648B352
:10036400B6B12149582202FB041292F94E20012A07
:1003740022D01D49582202FB041292F84210117235
:1003840092F84410517292F846109172FF219173C1
:1003940085B1154A582303FB042393F93030012B0C
:1003A40019D0114B582202FB0434A3882382FF2363
:1003B400E3732B46184670BD582202FB041292F8D0
:1003C4004110117292F84310517292F845109172D3
:1003D40001219173DCE7582303FB042463882382FF
:1003E4000123E3732B46E5E78418002038B504465F
:1003F4000D46FFF7A3FF034628B1044A582101FB29
:10040400042484F82050184638BD00BF8418002006
:1004140038B504460D46FFF791FF034628B1044A58
:10042400582101FB042484F82150184638BD00BF2C
:1004340084180020FF2805D00138C0B2022803D850
:1004440001207047012070470020704738B50446EA
:100454000D46FFF7EFFF034630B1013C054A32F881
:100464001420AA4202D31DB1184638BD0023FBE76D
:100474000023F9E7D4000020F8B504460D461646DB
:100484001F46FFF7E3FFE0B10146013CE4B24FF43D
:10049400FB7303FB04520C4B03EB8203DB78B34284
:1004A40010D1094B03EB82039B78BB420AD1064D62
:1004B40005EB820462789DF818309A4202D100213B
:1004C40000E001210846F8BDF8000020FF280BD009
:1004D40010B50446FFF7AEFF024618B1601E094B83
:1004E4001A5CD2B2104610BD0023022B07D8054A6D
:1004F400D15C01F0FF0219B90133DBB2F5E7002248
:1005040010467047B00000202DE9F04383B08146C7
:100514000D4690461F469DF828609DF82C409DF896
:10052400303023B900963B46FFF7A6FFF8B909F12E
:10053400FF30C0B24FF4FB7303FB00520D4B03EBCF
:10054400820383F803809F705E70631EDBB21E2BF0
:1005540001D9094B1C784FF4FB7303FB005564F07D
:100564001F04044B03F82540044B01221A5403B022
:10057400BDE8F083F800002036000020E8000020E9
:1005840060F01F00014B1870704700BF3600002058
:100594002DE9F04182B00446884617461E469DF870
:1005A40020509DF8243023B900953346FFF764FFAB
:1005B40090B9601EC0B20A4A4FF4FB7101FB00817E
:1005C40002EB8103DF709E705D70064B1B7802F8AE
:1005D4002130054B01221A5402B0BDE8F08100BF5E
:1005E400F800002036000020E80000202DE9F0414A
:1005F40082B006460D4617469846FFF79FFE04460E
:1006040000B3F5B1114B582202FB0632938852888D
:100614009B1A01339D4201DD002413E0511989B274
:100624000139582303FB06F6012301939DF820307A
:10063400009343463A4689B20448805DFFF7A8FF19
:1006440000E00024204602B0BDE8F08184180020B8
:100654002DE9F04784B082460C46174698469DF82B
:1006640030909DF834609DF83850FFF7EFFE20B1CC
:1006740039465046FFF7EAFE80B904B0BDE8F0877A
:1006840001230293019500964B464246214650466B
:10069400FFF73AFF0134A4B2A742EED36B1EDBB2DC
:1006A4001E2BEDD90123019300964B464246214669
:1006B4005046FFF76DFFEDE7002801DB012070478E
:1006C4004FF0FF3070472DE9F04180460C46164646
:1006D4001D46069F0846FFF7EFFF444407E0AC427F
:1006E40003DDC4EB45044FF0FF30B44208DBAC42F9
:1006F400F5DCB442F3DB07B138702046BDE8F08185
:10070400C4EB46040120F2E710B49C1A084490425A
:1007140003DA20440130FAE7001B5A1C8242FBDB57
:1007240010BC70472DE9F04F8BB0044601238DF8BF
:100734002730FFF703FE10B90BB0BDE8F08F274652
:100744007D48582303FB04F303F1080200EB020B7A
:10075400C218B2F80280B2F80490C15C0791968D79
:10076400518D0E44B6B2128D1644B6B210331844ED
:100774000230FFF78DFDE0B16F4A582303FB0423D9
:1007840093F82430022B16D053B3012BD4D16A4AE8
:10079400582303FB0423188A5A8E93F90F1089B245
:1007A40001FB02021A82644B582202FB0434A38E1A
:1007B400638200244AE0582505FB0425698E95F9D7
:1007C4000F000DF1270300934B46424600FB01F155
:1007D400288AFFF778FF28829DF82730EB73E2E739
:1007E400554B582505FB0435698E95F90F004B468A
:1007F400424600FB01F1288AFFF786FF2882D2E7F0
:10080400582000FB072090F90F1001FB04F100238E
:1008140000934B4642464942008AFFF754FF05B213
:100824000EE0454B582000FB073090F90F1001FBF8
:1008340004F14B4642464942008AFFF765FF05B280
:10084400454501DB4D4551DD0134A4B2B442BFF44A
:1008540073AF394A582303FB072393F82430022B40
:10086400CED0002BDDD0012B7FF466AF324A582363
:1008740003FB07231D8A93F90F3003FB14552DB294
:10088400721E9442DCDB012B19D0B3F1FF3FD7D1A8
:100894004545D5DA2848582303FB07F3C218A2F8C4
:1008A400109018331844FFF7FFFC0028C8D0224AE0
:1008B400582303FB0723002283F82120C0E74D457A
:1008C400E3DD1D48582303FB07F3C218A2F8108088
:1008D40018331844FFF7E8FC0028B1D0164A58230F
:1008E40003FB0723002283F82120A9E704F1010A6E
:1008F4001FFA8AFA012251465846FFF7E0FC059098
:10090400022251465846FFF7DAFC0690032251466C
:100914005846FFF7D4FC01230293074A582303FBEC
:10092400072393F83C3001930090069B059AA9B2E3
:100934000798FFF7E9FD87E784180020904202D268
:10094400B1F1FF3F07D002FB0100009A904204D8A6
:10095400984204D3704700207047009870471846A7
:10096400704700002DE9F04383B00446FFF7E6FC2E
:10097400002800F09880C94A582303FB042393F805
:10098400461093F84520914200F090800326C34816
:10099400582303FB040393F82030002B00F08380DA
:1009A400582303FB040393F84770002F00F0CC8016
:1009B4000346582000FB043090F8413090F842C0C0
:1009C400634500F281800025DFF8D0E2582000FB67
:1009D40004E090F843E090F84400864576D84FF060
:1009E4000008914200D30027002D71D0AB4A4FF08C
:1009F400580909FB042999F80E10494200936346EB
:100A040099F80B2049B299F80800FFF797FF89F885
:100A14000800B8F1000F6DD0A04B4FF0580909FB46
:100A2400043999F80E10494299F84330009399F823
:100A3400443099F80C2049B299F80900FFF77EFF79
:100A440089F80900002F6AD0944B4FF0580909FB2C
:100A5400043999F80E10494299F84530009399F8F1
:100A6400463099F80D2049B299F80A00FFF766FF5D
:100A740089F80A00894A582303FB042393F8403079
:100A8400022B00F08B80582000FB04F01830834BBD
:100A940018440430FFF708FC28B1804B582202FBAD
:100AA40004340023E36103B0BDE8F0837B4858239A
:100AB40003FB040393F8440093F84330984201D0B5
:100AC400022664E7012662E73D467DE7B84688E7EB
:100AD400724A4FF0580909FB0429CDF800C099F86F
:100AE4000B2099F90E1099F80800FFF727FF89F8F1
:100AF40008008EE7694B4FF0580909FB043999F84F
:100B04004430009399F8433099F80C2099F90E1069
:100B140099F80900FFF712FF89F8090092E75F4B83
:100B24004FF0580909FB043999F84630009399F8B5
:100B3400453099F80D2099F90E1099F80A00FFF73D
:100B4400FDFE89F80A0095E7544B582505FB04354A
:100B540095F90E8095F84230009395F84130EA7A81
:100B64004146287AFFF7EAFE287295F8443000934C
:100B740095F843302A7B4146687AFFF7DFFE6872B6
:100B840095F84630009395F845306A7B4146A87A3B
:100B9400FFF7D4FEA872B8463D466BE7032E26D075
:100BA400022E5CD03D4A582303FB042393F84220D1
:100BB40093F841309A423FF466AF35B13748582133
:100BC40001FB0401097A8A420AD2002D40F089808F
:100BD4003248582101FB0401097A8A4200F28180DB
:100BE4002E4A582303FB0423FF229A734BE73FB199
:100BF400582303FB04239A7A93F846309A4209D97E
:100C04007FB9264A582303FB04239A7A93F8463083
:100C14009A4206D3214A582303FB0423FF229A73E2
:100C240031E747B11D4A582303FB04239A7A93F80A
:100C340045309A420CD2002F7FF425AF174A58232F
:100C440003FB04239A7A93F845309A423FF61BAF8C
:100C5400124A582303FB042301229A7313E7B8F1C1
:100C6400000F08D00D4A582303FB04235A7A93F843
:100C740044309A420BD9B8F1000F11D1074A5823D6
:100C840003FB04235A7A93F844309A4208D3034A64
:100C9400582303FB0423FF229A73F4E684180020EC
:100CA400B8F1000F08D01C4A582303FB04235A7AD6
:100CB40093F843309A420DD2B8F1000F7FF4E3AEBB
:100CC400154A582303FB04235A7A93F843309A4273
:100CD4003FF6D9AE104A582303FB042301229A732A
:100CE400D1E635B10C49582202FB0412127A934220
:100CF4000AD9002D7FF4C7AE0749582202FB04121B
:100D0400127A9342FFF4BFAE034A582303FB042331
:100D140001229A73B7E600BF8418002010B472B69B
:100D2400084B9C68084B186862B64FF47A72074BFC
:100D3400196802FB01F31B1BB3FBF1F302FB003048
:100D440010BC704710E000E0E422002038000020CE
:100D5400024A136801331360704700BFE422002085
:100D640082B00023019300932C4A136843F4803328
:100D740013602A4B1B6803F400330093019B013377
:100D84000193009B1BB9019BB3F5A06FF1D1234BD9
:100D94001B6813F4003F06D001230093009B012B32
:100DA40004D002B0704700230093F7E71C4B1A6885
:100DB40042F010021A601A6822F003021A601A68DC
:100DC40042F002021A60A3F580535A685A605A68C6
:100DD4005A605A6842F480625A605A6822F47C125B
:100DE4005A605A6842F4E8125A601A6842F08072F3
:100DF4001A600A4B1B6813F0007FFAD0074B5A683D
:100E040022F003025A605A6842F002025A60034B0D
:100E14005B6803F00C03082BF9D1C2E70010024011
:100E24000020024008B5FFF79BFF08BD1F4B5B681D
:100E340003F00C03042B15D0082B17D01BB11C4B4B
:100E44001C4A1A6002E01A4B1A4A1A60174B5B6874
:100E5400C3F30313184AD35CDAB215490B68D340C1
:100E64000B607047124B134A1A60EFE70F4A53683E
:100E74005268C3F38343023312F4803F05D10F4A0F
:100E840002FB03F30A4A1360E0E7084A526812F4CB
:100E9400003F05D0094A02FB03F3054A1360D5E776
:100EA400044A02FB03F3024A1360CFE70010024036
:100EB4002800002000127A000800002000093D00EC
:100EC40008B5104B1A6842F001021A6059680E4ABC
:100ED4000A405A601A6822F0847222F480321A603E
:100EE4001A6822F480221A605A6822F4FE025A60B8
:100EF4004FF41F029A60FFF795FF044B4FF0006216
:100F04009A6008BD001002400000FFF800ED00E008
:100F140008B5FFF78BFF08BD08B5FFF7D1FF024AFC
:100F2400024B9A6008BD00BF0000000800ED00E01D
:100F340001230360014B0B60704700BF2C000020AD
:100F4400FEE708B50120FFF7FBFF08B5FFF7F9FF3F
:100F540038B505460C46274B984214D0A3F5744384
:100F6400984210D003F5806398420CD003F5806357
:100F7400984208D003F58063984204D040F2863149
:100F84001D48FFF7E2FF012C13D0802C11D0402C18
:100F94000FD0202C0DD0102C0BD0B4F5807F08D0AE
:100FA400B4F5007F05D0082C03D0042C01D0022C0A
:100FB40007D1B4F5007F0AD02B881C4218D0012039
:100FC40038BD40F287310C48FFF7BFFFF1E7094B0A
:100FD4009D42F1D0A3F574439D42EDD003F58063A7
:100FE4009D42E9D040F28B310348FFF7AEFFE3E7BF
:100FF4000020E5E7003801402C4E000838B50546CE
:101004000C46124B984214D0A3F57443984210D066
:1010140003F5806398420CD003F58063984208D0AE
:1010240003F58063984204D040F25F210848FFF73B
:101034008CFFB4F5007F03D2C4F30804AC8038BD40
:101044004FF418710248FFF780FFF5E700380140BC
:101054002C4E000870B504460D461646194B9842AE
:1010640014D0A3F57443984210D003F580639842DA
:101074000CD003F58063984208D003F5806398424E
:1010840004D040F2C3111048FFF75FFF25F0C003FE
:101094009BB203B925B94FF4E2710B48FFF755FF32
:1010A400012E04D84EB1A38A1D43A58270BD40F21F
:1010B400C5110548FFF749FFF4E7A38A23EA0505AC
:1010C400A582F3E7003801402C4E000838B50446E9
:1010D4000D46164B984214D0A3F57443984210D091
:1010E40003F5806398420CD003F58063984208D0DE
:1010F40003F58063984204D04FF4B1710C48FFF7B4
:1011040024FF012D05D855B1A38943F40053A381CD
:1011140038BD40F263110648FFF717FFF3E7A389D0
:101124009BB223F400539BB2A381F1E70038014042
:101134002C4E000870B505460C46254B98420CD041
:10114400A3F57443984208D003F58063984204D011
:101154004FF499711F48FFF7F8FE238813B1B3F5D4
:10116400006F1CD1638813B1B3F5806F1DD1A388C0
:1011740013B1B3F5007F1ED1E38813B1B3F5807FBB
:101184001FD12A8A92B220886688A188E3883043D6
:1011940001430B4322F4706213432B8270BD40F26F
:1011A40033110C48FFF7D1FEDCE74FF49A7109487C
:1011B400FFF7CBFEDBE740F235110648FFF7C5FE2B
:1011C400DAE74FF49B710348FFF7BFFED9E700BF8E
:1011D400003801402C4E000838B504460D462E4B0D
:1011E400984243D0B0F1804F40D0A3F59433984255
:1011F4003CD003F58063984238D003F5806398426D
:1012040034D003F58063984230D003F5806398426C
:101214002CD003F59033984228D003F5C05398425C
:1012240024D003F58063984220D003F5806398426C
:101234001CD0A3F59E33984218D003F580639842DE
:1012440014D003F58063984210D003F5903398428C
:101254000CD003F58063984208D003F5806398426C
:1012640004D040F229310D48FFF76FFE012D05D857
:1012740055B1238843F00103238038BD40F22A315D
:101284000648FFF762FEF3E723889BB223F00103CD
:101294009BB22380F1E700BF002C0140C84D000839
:1012A4000023038043808380C3800381438183813F
:1012B400C38170472DE9F04104460D463F4B9842E7
:1012C40017D0B0F1804F14D0A3F59433984210D0C6
:1012D40003F5806398420CD003F58063984208D0EC
:1012E40003F59433984204D04FF404713448FFF763
:1012F4002CFE2B884BB1102B07D0202B05D0302B84
:1013040003D0602B01D0702B40D16B88012B43D8C4
:101314002B890BB1022B45D1238C9BB223F4805330
:101324009BB22384268CB6B2B4F804801FFA88F8E2
:10133400A78BBFB227F4E6472B881B029BB21F433F
:1013440026F400562B891B039BB233436E88360365
:10135400B6B21E43194B9C4203D003F500639C4272
:101364000BD1AB89B3F5807F00D00BBB28F4804848
:10137400AB899B019BB248EA0308A4F80480A783C5
:10138400EB88A4F840302684BDE8F08140F21121B6
:101394000B48FFF7DAFDB8E740F212210848FFF7DF
:1013A400D4FDB5E740F213210548FFF7CEFDB3E7BE
:1013B4004FF40C710248FFF7C8FDD7E7002C014039
:1013C400C84D00082DE9F04104460E46574B98429B
:1013D40017D0B0F1804F14D0A3F59433984210D0B5
:1013E40003F5806398420CD003F58063984208D0DB
:1013F40003F59433984204D040F2C1114C48FFF7EE
:10140400A4FD33884BB1102B07D0202B05D0302BF3
:1014140003D0602B01D0702B5DD17388012B60D871
:1014240033890BB1022B62D1238C9BB223F48073DA
:101434009BB22384258CADB2B4F804801FFA88F8DB
:10144400A78BBFB227F0730733881F4325F40075B9
:1014540033891B029BB22B4375882D02ADB21D4309
:10146400324B9C4203D003F500639C422BD1B388DA
:101474000BB1042B41D173890BB1082B43D1F389F0
:10148400B3F5007F01D0002B43D1B389B3F5807F3E
:1014940001D0002B43D125F4006573891B029BB254
:1014A4001D4325F48065B3881B029BB21D4328F4B9
:1014B4004058B3891B019BB248EA0308F3891B0116
:1014C4009BB243EA0808A4F80480A783F388A3879F
:1014D4002584BDE8F0814FF4E1711548FFF735FD2F
:1014E4009BE740F2C3111248FFF72FFD98E74FF432
:1014F400E2710F48FFF729FD96E74FF4F0710C48AD
:10150400FFF723FDB7E740F2E1110948FFF71DFD9E
:10151400B5E74FF4F1710648FFF717FDB5E740F260
:10152400E3110348FFF711FDB5E700BF002C0140AC
:10153400C84D00082DE9F04104460E465E4B984222
:1015440023D0B0F1804F20D0A3F5943398421CD01F
:1015540003F58063984218D003F58063984214D051
:1015640003F59433984210D003F5C05398420CD03D
:10157400A3F59A33984208D003F59433984204D0E3
:1015840040F26F114D48FFF7E0FC33884BB1102B4C
:1015940007D0202B05D0302B03D0602B01D0702B2B
:1015A4005FD17388012B62D833890BB1022B64D1CC
:1015B400238C9BB223F010039BB22384258CADB201
:1015C400B4F804801FFA88F8278BBFB227F4E647E3
:1015D40033881B029BB21F4325F0200533891B016E
:1015E4009BB22B4375882D01ADB21D43324B9C42F7
:1015F40003D003F500639C422BD1B3880BB1042BB9
:1016040041D173890BB1082B43D1F389B3F5007F22
:1016140001D0002B43D1B389B3F5807F01D0002BD7
:1016240043D125F0800573891B019BB21D4325F02E
:101634004005B3881B019BB21D4328F44068B3895D
:101644009B009BB248EA0308F3899B009BB243EAE0
:101654000808A4F804802783F38823872584BDE839
:10166400F0814FF4B8711548FFF76FFC99E740F229
:1016740071111248FFF769FC96E74FF4B9710F48EE
:10168400FFF763FC94E740F28F110C48FFF75DFC11
:10169400B7E74FF4C8710948FFF757FCB5E740F2C4
:1016A40091110648FFF751FCB5E74FF4C97103489F
:1016B400FFF74BFCB5E700BF002C0140C84D000804
:1016C4002DE9F04104460D46684B98423BD0B0F1F9
:1016D400804F38D0A3F59433984234D003F5806317
:1016E400984230D003F5806398422CD003F59433AC
:1016F400984228D003F5C053984224D003F5806360
:10170400984220D003F5806398421CD0A3F59E3301
:10171400984218D003F58063984214D003F580638F
:10172400984210D003F5903398420CD003F58063AF
:10173400984208D003F58063984204D04FF48E7128
:101744004B48FFF702FC2B884BB1102B07D0202B02
:1017540005D0302B03D0602B01D0702B5CD16B886B
:10176400012B5FD82B890BB1022B61D1238C9BB247
:1017740023F001039BB22384268CB6B2A788BFB2A0
:10178400B4F818801FFA88F828F073082B8848EA00
:10179400030826F002062B8933436E881E43334B1D
:1017A4009C420FD003F500639C420BD003F54063C9
:1017B4009C4207D003F580639C4203D003F5806309
:1017C4009C4221D1AB880BB1042B37D16B890BB16F
:1017D400082B39D1EB89B3F5007F01D0002B39D127
:1017E400AB89B3F5807F01D0002B39D126F00806F0
:1017F4006B891E4326F00406AB881E4327F440770A
:10180400AB891F43EB891F43A780A4F81880EB889A
:10181400A3862684BDE8F08140F21D111448FFF729
:1018240094FB9CE74FF48F711148FFF78EFB99E707
:1018340040F21F110E48FFF788FB97E74FF49E71A3
:101844000B48FFF782FBC1E740F23D110848FFF760
:101854007CFBBFE74FF49F710548FFF776FBBFE7BA
:1018640040F23F110248FFF770FBBFE7002C014034
:10187400C84D000808B50139032906D8DFE801F08E
:1018840002060A0E1146FFF71BFF08BD1146FFF7BB
:1018940051FEFAE71146FFF795FDF6E71146FFF70B
:1018A40009FDF2E738B504460D46534B984242D041
:1018B400B0F1804F3FD0A3F5943398423BD003F569
:1018C4008063984237D003F58063984233D003F5A0
:1018D400806398422FD003F5806398422BD003F5A0
:1018E4009033984227D003F5C053984223D003F590
:1018F400806398421FD003F5806398421BD0A3F500
:101904009E33984217D003F58063984213D003F5B1
:10191400806398420FD003F5903398420BD003F5BF
:101924008063984207D003F58063984203D0E7218F
:101934003248FFF70AFB6B883BB1102B05D0202BF4
:1019440003D0402B01D0602B4CD1EB882BB1B3F5E5
:10195400807F02D0B3F5007F49D123889BB2264A09
:10196400944212D002F5006294420ED0B4F1804F3A
:101974000BD0A2F59832944207D002F580629442CB
:1019840003D002F58062944203D123F070036A8885
:1019940013431B4A944208D002F58062944204D057
:1019A40023F440739BB2EA8813432380AB88A38556
:1019B4002B882385104B9C420FD003F500639C4277
:1019C4000BD003F540639C4207D003F580639C422F
:1019D40003D003F580639C4201D12B7A2386012333
:1019E400A38238BDE8210548FFF7AFFAADE7E92146
:1019F4000248FFF7AAFAB0E7002C0140C84D0008DE
:101A04000010004038B504460D46124B98420CD0E5
:101A1400A3F57843984208D003F58063984204D034
:101A24004FF41D710C48FFF790FA012D05D855B1FC
:101A3400A38843F00403A38038BD40F2752106480F
:101A4400FFF783FAF3E7A3889BB223F004039BB266
:101A5400A380F1E700300140804D000870B50446D2
:101A64000D461646154B98420CD0A3F57843984280
:101A740008D003F58063984204D04FF408711048ED
:101A8400FFF763FA012E0ED825F003039BB203B9C6
:101A940025B940F222210A48FFF757FA4EB1A3882C
:101AA4001D43A58070BD40F221210548FFF74DFA82
:101AB400EAE7A38823EA0505A580F3E7003001409F
:101AC400804D000838B504460D46124B98420CD0A0
:101AD400A3F57843984208D003F58063984204D074
:101AE40040F2B7110C48FFF730FA012D05D855B173
:101AF400238843F04003238038BD4FF4DC7106484B
:101B0400FFF723FAF3E723889BB223F040039BB249
:101B14002380F1E700300140804D000838B50546C8
:101B24000C464A4B98420BD0A3F57843984207D011
:101B340003F58063984203D0A3214548FFF705FAD3
:101B4400238843B1B3F5806F05D0B3F5004F02D0BD
:101B5400B3F5404F4CD16388B3F5827F01D0002B9D
:101B64004BD1A388B3F5006F01D0002B4AD1E38891
:101B74000BB1022B4BD12389012B4DD86389B3F5CB
:101B8400007F01D0002B4CD1A3896BB1082B0BD063
:101B9400102B09D0182B07D0202B05D0282B03D0CD
:101BA400302B01D0382B41D1E3890BB1802B42D1AA
:101BB400238A002B44D02B8803F441522388618864
:101BC4000B43A1880B43E1880B4321890B436189B3
:101BD4000B43A1890B43E1890B4313432B80AB8B4C
:101BE4009BB223F400639BB2AB83238A2B8238BD60
:101BF400A6211748FFF7A9F9ADE7A7211448FFF775
:101C0400A4F9AEE7A8211248FFF79FF9AFE7A9218D
:101C14000F48FFF79AF9AEE7AA210D48FFF795F9A7
:101C2400ACE7AB210A48FFF790F9ADE7AC210848CF
:101C3400FFF78BF9B8E7AD210548FFF786F9B7E759
:101C4400AE210348FFF781F9B5E700BF003001403A
:101C5400804D000838B504460D460E4B184200D19D
:101C640020B940F269410C48FFF76FF9012D05D8FE
:101C740055B10A4AD3691C43D46138BD40F26A4164
:101C84000548FFF762F9F3E7044AD36923EA040439
:101C9400D461F2E700360181384D0008001002409B
:101CA40038B504460D460E4B034003B920B940F243
:101CB4004A410C48FFF749F9012D05D855B10A4AA4
:101CC40093691C43946138BD40F24B410548FFF7CA
:101CD4003CF9F3E7044A936923EA04049461F2E7C4
:101CE4000200C0FF384D00080010024008B501464C
:101CF4000120FFF7D5FF08BD38B504460D46484B13
:101D0400984230D0B4F1804F32D0464B9C4234D00C
:101D1400454B9C4236D0454B9C4238D0444B9C4268
:101D24003AD0444B9C423CD0434B9C423ED0434B24
:101D34009C4241D0424B9C4244D0424B9C4247D0AF
:101D4400414B9C424AD0414B9C424CD0404B9C421C
:101D54004ED0404B9C4251D03F4B9C4254D03F4BC1
:101D64009C4257D038BD4FF40060FFF799FFC9E794
:101D740029460120FFF76EFFC7E729460220FFF737
:101D840069FFC5E729460420FFF764FFC3E7294636
:101D94000820FFF75FFFC1E729461020FFF75AFF2D
:101DA400BFE729462020FFF755FFBDE729464FF43A
:101DB4000050FFF775FFBAE729464FF40020FFF7FC
:101DC4006FFFB7E729464FF48010FFF769FFB4E7C8
:101DD40029464FF40010FFF763FFB1E7294640207E
:101DE400FFF738FFAFE729468020FFF733FFADE761
:101DF40029464FF48070FFF72DFFAAE729464FF4D8
:101E04008030FFF74DFFA7E729464FF40030FFF776
:101E140047FFA4E729464FF48020FFF741FFA1E7DD
:101E2400002C01400004004000080040000C004069
:101E3400001000400014004000340140004C0140F8
:101E4400005001400054014000180040001C0040B4
:101E5400002000400040014000440140004801408F
:101E640038B504460D460D4B984206D00C4B9C42A7
:101E740008D00C4B9C420BD038BD4FF40070FFF7D8
:101E84000FFFF3E729464FF48060FFF709FFF0E7FF
:101E940029464FF40040FFF703FFEDE7002401401B
:101EA40000280140003C014038B504460D46164B5D
:101EB40098420CD0154B9C420ED0154B9C4211D02D
:101EC400144B9C4214D0144B9C4217D038BD4FF491
:101ED4008040FFF7E5FEEDE729464FF40030FFF7B9
:101EE400B9FEEAE729464FF48020FFF7B3FEE7E79F
:101EF40029464FF40020FFF7ADFEE4E729464FF4EE
:101F04008010FFF7A7FEE1E70038014000440040DD
:101F140000480040004C00400050004038B50446E2
:101F24000D460D4B984206D00C4B9C4208D00C4BEE
:101F34009C420BD038BD4FF48050FFF7B1FEF3E75D
:101F440029464FF48040FFF785FEF0E729464FF419
:101F54000040FFF77FFEEDE700300140003800400D
:101F6400003C004038B504460D46184B98420FD04B
:101F7400174B9C4210D0174B9C4212D0164B9C42DC
:101F840014D0164B9C4216D0154B9C4218D038BD29
:101F94000420FFF785FEEBE729460820FFF780FEC3
:101FA400E9E729461020FFF77BFEE7E729462020D2
:101FB400FFF776FEE5E729464020FFF771FEE3E7E9
:101FC40029468020FFF76CFEE1E700BF00080140CE
:101FD400000C0140001001400014014000180140B1
:101FE400001C014038B504460D4620F4AA6323F0D2
:101FF400070303B920B940F22B410B48FEF7A5FFB4
:10200400012D05D855B1094A53691C43546138BDA3
:1020140040F22C410448FEF798FFF3E7034A536962
:1020240023EA04045461F2E7384D0008001002402A
:1020340038B504460D46164B984211D014339842D5
:102044000ED0143398420BD01433984208D0143372
:10205400984205D01433984202D01433984203D1E5
:1020640029460120FFF7BEFF0A4B9C420BD01433D4
:102074009C4208D014339C4205D014339C4202D0B5
:1020840014339C4203D129460220FFF7ABFF38BD2D
:10209400080002400804024010B4294B5B6803F0B6
:1020A4000C03042B2BD0082B2CD013B1254B03602D
:1020B40001E0244B036022494B68C3F30313224C11
:1020C400E35CDAB20368D34043604A68C2F3022295
:1020D400A25CD2B223FA02F282604A68C2F3C2223C
:1020E400A25CD2B2D340C3604A68C2F381321749BA
:1020F4008A5CD2B2B3FBF2F3036110BC7047114B9C
:102104000360D8E70E4A53685268C3F3834302332B
:1021140012F4803F04D10E4A02FB03F30360CAE7C2
:10212400074A526812F4003F04D0094A02FB03F341
:102134000360C0E7034A02FB03F30360BBE700BF8D
:102144000010024000127A00180000200400002051
:1021540000093D0000B587B0FEF768FE01A8FFF74F
:102164009BFF019B0F4AA2FB03239B09013BB3F195
:10217400807F15D20C4A53600C4BF02183F8231056
:10218400002191600720106083F82310084B1B681E
:10219400084AB3FBF2F3084A136007B05DF804FB86
:1021A400FEE700BFD34D621010E000E000ED00E058
:1021B4002800002040420F003800002030B587B0CE
:1021C40004460D46664B984213D0A3F574439842D7
:1021D4000FD003F5806398420BD003F580639842D7
:1021E40007D003F58063984203D0B8215D48FEF719
:1021F400ACFE2B68013B5C4A934200F28480AB88BE
:102204001BB1B3F5805F40F08380EB8843B1B3F535
:10221400805F05D0B3F5005F02D0B3F5405F7CD199
:102224002B892BB1B3F5806F02D0B3F5C06F79D190
:102234006A8922F00C039BB203B91AB9BD2149483B
:10224400FEF783FEAB8943B1B3F5807F05D0B3F5C8
:10225400007F02D0B3F5407F69D1AB8973B1404BA5
:102264009C420BD0A3F574439C4207D003F58063D2
:102274009C4203D0C2213B48FEF767FE238A9BB2EF
:10228400EA8823F4405313432382A28992B2AB8891
:1022940029890B4369890B4322F4B05222F00C02C2
:1022A4001343A381A38A9BB2AA8923F440731343E3
:1022B400A38201A8FFF7F0FE294B9C423CD003986F
:1022C400A38913F4004F39D1192303FB00F32868C1
:1022D4008000B3FBF0F0254BA3FB002359090D014B
:1022E400642301FB1303A28912F4004F2ED11B01B6
:1022F40032336422B3FBF2F303F00F032B439BB29C
:10230400238107B030BDB9211648FEF71EFE76E7DB
:10231400BA211448FEF719FE77E7BB211148FEF7EE
:1023240014FE7DE7BC210F48FEF70FFE80E7BE21B7
:102334000C48FEF70AFE90E70498C1E7192303FB53
:1023440000F328684000B3FBF0F0C4E7DA0032324F
:102354006423B2FBF3F202F0070242EA0503CEE77C
:10236400003801402C4E00081FAA44001F85EB5181
:1023740010B5044640B1B0F5804F05D0B0F5004F1C
:1023840002D0B0F5404F06D1064A536823F44043C7
:102394001C43546010BD40F202310348FEF7D5FDE2
:1023A400F2E700BF00100240384D000838B504467B
:1023B4000D46431E012B40F28980042800F08680DC
:1023C400082800F08380644B98427FD020339842E1
:1023D4007CD0624B984279D08033984276D0604B5F
:1023E400984273D003F5807398426FD003F58073DD
:1023F40098426BD05B4B984268D003F58063984257
:1024040064D0B0F5805F61D0B0F5EA1F5ED0B0F55E
:10241400EB1F5BD0B0F5004F58D0534B984255D0CA
:102424000133984252D0023398424FD00433984239
:102434004CD00833984249D0B0F1201F46D03033F5
:10244400984243D0494B984240D003F58073984258
:102454003CD003F50073984238D0454B984235D0B0
:1024640003F57063984231D0B0F5011F2ED0414B73
:1024740098422BD00133984228D00233984225D079
:102484000433984222D0083398421FD01033984224
:102494001CD02033984219D04033984216D0803350
:1024A400984213D003F5807398420FD003F500735C
:1024B40098420BD003F58063984207D003F500637C
:1024C400984203D003F58053984218D1012D1CD8AB
:1024D400002C20DB284B5B68C4F30340A2B204F455
:1024E4004011B1F5401F19D014F4801F27D00321E7
:1024F40001FA00F023EA000343F0706315E040F2B0
:102504002A211E48FEF721FDE0E740F22B211B485B
:10251400FEF71BFDDCE7184BDB69DDE723F0706396
:102524001548416821F0706141601DB1610D0901D8
:102534008A401343002C0BDB0F4A536038BD610DF6
:10254400090102FA01F123EA010343F07063ECE7A5
:10255400094AD361F2E700BF1000140040001600DE
:102564000001180000081A000100200000013000DA
:10257400001120000100008000000140B04C000860
:10258400F8B505460C46494B98421BD003F58063C9
:10259400984217D003F58063984213D003F5806303
:1025A40098420FD003F5806398420BD003F5806303
:1025B400984207D003F58063984203D0B2213C4887
:1025C400FEF7C3FCE3786BB1042B0BD0282B09D0A6
:1025D400482B07D0142B05D0102B03D01C2B01D073
:1025E400182B14D12388BBB1E37803F00F063046CF
:1025F40013F0100F06D0A378013BDBB2022B10D8E6
:10260400A078304323785BB32E68002310E0B32115
:102614002748FEF79AFCE5E7B4212548FEF795FC28
:10262400E2E7BB212248FEF790FCE9E76A61013347
:10263400072B14D801229A40218832EA0101F6D1ED
:1026440099000F278F4026EA070600FA01F10E438E
:10265400E1782829EAD04829E9D12A61E7E72E6000
:102664002388FF2B20D96E68002302E06A6115E0FD
:102674000133072B17D803F1080101228A4021886E
:1026840032EA0101F4D199000F278F4026EA0706A8
:1026940000FA01F10E43E1782829E7D0E1784829CE
:1026A400E6D12A61E4E76E60F8BD00BF000801408E
:1026B400B04C000810B5044610F0704F02D0094B1E
:1026C400034003B924B940F20E210748FEF73DFC4C
:1026D40014F0805F02D0054B5C6010BD044B5C605D
:1026E400FBE700BF0000F0EF684C00080004024064
:1026F4000000024010B50446431E012B40F29480B2
:10270400042800F09180082800F08E80102800F042
:102714008B80202800F08880402800F08580802865
:1027240000F08280B0F5807F7ED0B0F5007F7BD052
:10273400B0F5806F78D0B0F5006F75D0B0F5805FDC
:1027440072D0B0F5005F6FD0B0F5804F6CD0B0F5AB
:10275400004F69D0B0F5803F66D0B0F5003F63D03C
:10276400B0F5802F60D0B0F5002F5DD0B0F5801F9C
:102774005AD0B0F5001F57D0B0F5800F54D0B0F543
:10278400000F51D0B0F1807F4ED0B0F1007F4BD01C
:10279400B0F1806F48D0B0F1006F45D02C4B984217
:1027A40042D0013398423FD0023398423CD00433A4
:1027B400984239D00833984236D01033984233D0F7
:1027C4002033984230D0403398422DD08033984201
:1027D4002AD003F58073984226D003F500739842FB
:1027E40022D003F5806398421ED0B0F1102F1BD085
:1027F40003F5C053984217D003F50053984213D001
:1028040003F5804398420FD003F5004398420BD060
:1028140003F58033984207D003F50033984203D080
:1028240003F58023984208D114F0805F0BD0094B44
:102834001B6823420AD0012010BD40F2B71106489C
:10284400FEF783FBF0E7054B1B68F2E70020F3E794
:102854000100001000040240684C0008000002401F
:1028640038B504460D46164B984226D01433984288
:1028740023D01433984220D0143398421DD01433FB
:1028840098421AD01433984217D01433984214D073
:1028940003F56273984210D0143398420DD0143368
:1028A40098420AD01433984207D01433984204D083
:1028B4004FF4B2710348FEF748FB656038BD00BFB2
:1028C40008000240684C000870B504460D461646E0
:1028D400224B984226D01433984223D01433984282
:1028E40020D0143398421DD0143398421AD0143394
:1028F400984217D01433984214D003F56273984267
:1029040010D0143398420DD0143398420AD01433A3
:10291400984207D01433984204D040F24911104829
:10292400FEF713FB35F00E0300D125B94FF4A57162
:102934000B48FEF70AFB012E04D84EB123681D4351
:10294400256070BD40F24B110548FEF7FEFAF4E72E
:10295400236823EA05052560F3E700BF0800024069
:10296400684C000838B504460D461F4B984226D0E3
:102974001433984223D01433984220D0143398420D
:102984001DD0143398421AD01433984217D01433FC
:10299400984214D003F56273984210D014339842CD
:1029A4000DD0143398420AD01433984207D014330C
:1029B400984204D040F229110C48FEF7C6FA012DC2
:1029C40005D855B1236843F00103236038BD4FF4A3
:1029D40095710648FEF7B9FAF3E7236823F001037B
:1029E4001B041B0C2360F1E708000240684C00083C
:1029F40008B54FF00060FFF77DFE40B14FF0006076
:102A0400FFF758FE00210948FFF7ACFF08BD4FF05F
:102A14000070FFF76FFE0028F4D04FF00070FFF74E
:102A240049FE034B00229A70ECE700BF800002408D
:102A3400B000002008B54FF40020FFF75BFE40B162
:102A44004FF40020FFF736FE00210948FFF78AFF04
:102A540008BD4FF40030FFF74DFE0028F4D04FF4CA
:102A64000030FFF727FE034B00225A70ECE700BF4B
:102A740058000240B000002008B54FF40060FFF792
:102A840039FE40B14FF40060FFF714FE00210948FD
:102A9400FFF768FF08BD4FF40070FFF72BFE002816
:102AA400F4D04FF40070FFF705FE034B00221A70B8
:102AB400ECE700BF30000240B000002070B50546CE
:102AC400FF280CD02846FDF7B5FC044628B16E1E3D
:102AD400F6B21C4B9C5D5CB90024204670BD0124F9
:102AE400032CEFD82046FFF7E9FF0134E4B2F7E7FF
:102AF4002846FDF7EBFC0028EED12EB1012E1CD0A8
:102B0400022E1CD1104D00E0104D00212846FFF785
:102B140029FF0F4B33F816100231890089B2284679
:102B2400FFF79EFE01212846FFF71CFF094B0122F7
:102B34009A55044B00229A55CFE7074DE5E7044622
:102B4400CBE700BFE80000208000024030000240D4
:102B5400D4000020B0000020580002402DE9F041CC
:102B640086B0002305930493414B1A68414B1B68BC
:102B74009A4202D806B0BDE8F081FF20FDF7A6FC1A
:102B84000028F7D13A4B1B6806333A4A13603A4B94
:102B94001B783A4A157805EB9305EDB20135EDB291
:102BA40033E0582000FB04F0103008440430FDF7F3
:102BB4006FFB88B9324A582303FB04235A7A997A63
:102BC40093F854000290019100921B7A3A463146E0
:102BD4004046FDF73DFD32E0284B1878FDF7C2FE74
:102BE400274A582303FB0423B3F84C209A82E1E7D5
:102BF400224B1878FDF796FDFEF790F8059BC01A56
:102C040004901E4A1378013313701C4B1C78204621
:102C1400FDF794FBE0B1AC421AD2FEF77FF80590C1
:102C2400164B1C781649582303FB04F3CA1856881C
:102C3400978811F8038092F82030002BB1D1104B03
:102C4400582202FB043494F82130002BD4D0CFE76F
:102C54000C4A13780133DBB21370032B8AD9FF209B
:102C6400FFF72CFF0023074A1370044A137081E70F
:102C7400E4220020F0000020DA000020DB00002025
:102C840084180020D000002038B505460C46574B68
:102C9400984225D01433984222D0143398421FD03E
:102CA400143398421CD01433984219D014339842E8
:102CB40016D01433984213D003F5627398420FD0A0
:102CC400143398420CD01433984209D014339842E8
:102CD40006D01433984203D0CF214548FEF735F986
:102CE400A368102B01D0002B53D1E368013B4FF6AE
:102CF400FE72934252D82369402B01D0002B52D14B
:102D04006369802B01D0002B52D1A3692BB1B3F599
:102D1400807F02D0B3F5007F4FD1E3692BB1B3F5C7
:102D2400806F02D0B3F5006F4CD1236A202B01D001
:102D3400002B4CD1636AB3F5405F07D0B3F5005F55
:102D440004D0B3F5805F01D0002B45D1A36AB3F55D
:102D5400804F01D0002B44D12A6822F4FF4222F094
:102D64007002A368216A0B4321690B4361690B4319
:102D7400A1690B43E1690B43616A0B43A16A0B43ED
:102D840013432B60E3686B602368AB606368EB609C
:102D940038BDD0211648FEF7D8F8A6E7D12114484B
:102DA400FEF7D3F8A7E7D2211148FEF7CEF8A7E73C
:102DB400D3210F48FEF7C9F8A7E7D4210C48FEF742
:102DC400C4F8AAE7D5210A48FEF7BFF8ADE7D62133
:102DD4000748FEF7BAF8ADE7D7210548FEF7B5F87E
:102DE400B4E7D8210248FEF7B0F8B5E7080002407E
:102DF400684C000810B504464F4B984225D0143354
:102E0400984222D0143398421FD0143398421CD0D5
:102E14001433984219D01433984216D0143398427C
:102E240013D003F5627398420FD0143398420CD038
:102E34001433984209D01433984206D0143398427C
:102E440003D06F213D48FEF780F8236823F0010387
:102E54001B041B0C2360002323606360A360E360F6
:102E6400354B9C4226D0364B9C4229D0354B9C4254
:102E74002CD0354B9C422FD0344B9C4232D0344B17
:102E84009C4235D0334B9C4238D0334B9C423BD090
:102E9400324B9C423ED0324B9C4241D0314B9C42FF
:102EA40044D0314B9C420AD1304A536843F47023D6
:102EB400536004E02E4A536843F00F03536010BD7F
:102EC4002B4A536843F0F0035360F8E7284A5368E9
:102ED40043F470635360F2E7254A536843F4704344
:102EE4005360ECE7224A536843F470235360E6E7E7
:102EF4001F4A536843F470035360E0E71C4A536865
:102F040043F070635360DAE7184A536843F00F03E1
:102F14005360D4E7154A536843F0F0035360CEE797
:102F2400124A536843F470635360C8E70F4A536806
:102F340043F470435360C2E708000240684C000841
:102F44001C0002403000024044000240580002408D
:102F54006C00024080000240080402401C0402404D
:102F64003004024044040240580402400004024079
:102F74000000024038B505460C460F4B98420CD071
:102F840003F58063984208D003F5A053984204D017
:102F940040F20D510948FDF7D8FF24F4FC639BB2BD
:102FA40003B924B940F20E510448FDF7CEFF6FEA8D
:102FB40014242C6038BD00BF00240140204C0008BC
:102FC400F8B505460E4614461F46374B98420CD0BA
:102FD40003F58063984208D003F5A053984204D0C7
:102FE4004FF416713148FDF7B0FF112E22D8631E3D
:102FF400DBB20F2B24D8072F28D8092E2CD9EA6846
:10300400A6F10A0303EB43030721994022EA0102D4
:103014009F401743EF60062C29D8696B013C04EBF1
:1030240084041F23A34021EA030106FA04F40C4399
:103034006C63F8BD40F259211C48FDF786FFD6E7C2
:1030440040F25A211948FDF780FFD4E740F25B2192
:103054001648FDF77AFFD0E72B6906EB46010722F5
:103064008A4023EA02038F401F432F61D3E70C2CCD
:103074000CD8296B073C04EB84041F23A34021EAEA
:10308400030106FA04F40C432C63D2E7EB6AA4F1BF
:103094000D0101EB81011F228A4023EA020306FA93
:1030A40001F11943E962C4E700240140204C0008FF
:1030B40038B504460D46114B98420CD003F5806395
:1030C400984208D003F5A053984204D04FF4E97114
:1030D4000B48FDF73AFF012D05D855B1A36843F419
:1030E400A003A36038BD40F2D3110548FDF72DFFBE
:1030F400F3E7A36823F4A003A360F3E700240140EB
:10310400204C000810B504460B4B98420CD003F534
:103114008063984208D003F5A053984204D04FF43A
:10312400DC710648FDF711FFA36813F0040F01D00A
:10313400012010BD0020FCE700240140204C0008C1
:1031440010B504460A4B98420CD003F580639842AC
:1031540008D003F5A053984204D04FF4D571054824
:10316400FDF7F3FEA36843F00403A36010BD00BFA2
:1031740000240140204C000810B504460B4B984233
:103184000CD003F58063984208D003F5A05398420D
:1031940004D04FF4C9710648FDF7D7FEA36813F0B5
:1031A400080F01D0012010BD0020FCE700240140DD
:1031B400204C000810B504460A4B98420CD003F585
:1031C4008063984208D003F5A053984204D04FF48A
:1031D400C2710548FDF7B9FEA36843F00803A36074
:1031E40010BD00BF00240140204C000870B5054606
:1031F4000C461646164B98420CD003F58063984251
:1032040008D003F5A053984204D040F26B11114842
:10321400FDF79BFE012E0FD824F4FC639BB203B987
:1032240024B940F26D110B48FDF78FFEE4B24EB1A4
:103234006B681C436C6070BD4FF4B6710548FDF7B4
:1032440084FEE9E76B6823EA04046C60F3E700BFDB
:1032540000240140204C000838B504460D460F4BAD
:10326400984208D003F5C053984204D040F24D115F
:103274000B48FDF76AFE012D05D855B1A36843F448
:103284008073A36038BD4FF4A7710548FDF75DFE58
:10329400F3E7A36823F48073A360F3E700240140F9
:1032A400204C000838B504460D46114B98420CD00A
:1032B40003F58063984208D003F5A053984204D0E4
:1032C4004FF49A710B48FDF740FE012D05D855B116
:1032D400A36843F00103A36038BD40F235110548EB
:1032E400FDF733FEF3E7A36823F00103A360F3E7DC
:1032F40000240140204C000838B505460C46484BD4
:1033040098420BD003F58063984207D003F5A0538D
:10331400984203D0E5214348FDF717FE2368D3B153
:10332400B3F5803F17D0B3F5003F14D0B3F5403F59
:1033340011D0B3F5802F0ED0B3F5A02F0BD0B3F579
:10334400C02F08D0B3F5E02F05D0B3F5002F02D07D
:10335400B3F5102F46D12379012B48D86379012B7B
:103364004AD8A368A3B1B3F5003F11D0B3F5802FB9
:103374000ED0B3F5C02F0BD0B3F5002F08D0B3F5A2
:10338400202F05D0B3F5402F02D0B3F5602F38D1EC
:10339400E36813B1B3F5006F38D1237C013BDBB292
:1033A4000F2B38D86A6822F4702222F480722368C2
:1033B400217943EA012313436B60AB681A4A1A402C
:1033C400E368A1680B43617943EA41031343AB60AB
:1033D400EB6A23F47003227C013AD2B243EA02532B
:1033E400EB6238BDE6210F48FDF7AFFDB3E7E721F7
:1033F4000C48FDF7AAFDB1E7E8210A48FDF7A5FD51
:10340400AFE7E9210748FDF7A0FDC1E7EA21054838
:10341400FDF79BFDC1E7EB210248FDF796FDC1E7EF
:1034240000240140204C0008FDF7F1FF10B50446CC
:10343400C378012B26D863780F2B28D8A3780F2BB9
:103444002AD8E3786BB31C4BDA68D243C2F3022266
:10345400C2F104000F2323FA02F261788140A378B9
:1034640013400B431B012278DBB214490A4482F84F
:103474000033237803F01F005B090122824041F8E6
:10348400232010BD75210E48FDF75FFDD3E776219B
:103494000B48FDF75AFDD1E777210948FDF755FDA3
:1034A400CFE7237803F01F015B0901228A40203310
:1034B400024941F82320E4E700ED00E000E100E0E8
:1034C400F84C000808B501460448FDF797FD402173
:1034D4000248FDF73DFD0028F9D008BD0038014041
:1034E40010B5044694F9000020B10134C0B2FFF7CE
:1034F400E9FFF7E710BD00000130C0B2013807282A
:1035040045D8DFE800F0040C141C242C343C214B77
:103514009868400A80F0010000F0010070471D4BDC
:103524009868000A80F0010000F001007047194B10
:103534009868C00980F0010000F001007047154B45
:103544009868800980F0010000F001007047124B78
:103554009868400B80F0010000F0010070470E4BAA
:103564009868800B80F0010000F0010070470A4B5E
:103574009868C00B80F0010000F001007047054B13
:103584009868800A80F0010000F001007047002074
:10359400704700BF000C0140001001400138034B8C
:1035A40003EB8003987800229A707047D42200209D
:1035B4000138034B03EB8003D8780022DA7070479C
:1035C400D4220020042805D80138034B03EB8000E3
:1035D4004078704700207047D42200202B4B1A6893
:1035E4002B4B1B689A4250D910B5284B1B682133CA
:1035F400274A136000240FE0264B13F82430DBB174
:10360400013B244A02F8243016E0224B03EB8202E9
:10361400012353700134E4B2032C35D82046FFF75C
:103624006BFF0028E8D01B4B13F82430022B03D87F
:103634000133184A02F824302246164B13F824307A
:10364400022B0DD9134B03EB84035B78002BDCD1E5
:10365400104B03EB84030121D97000219970D4E746
:10366400002BD7D10B4B03EB84035B7833B1094BAD
:1036740003EB84030021D97001219970054B03EBFE
:10368400820200235370C5E710BD7047E422002076
:10369400EC000020D422002030B583B0164C012168
:1036A4002046FEF75FFC154D01212846FEF75AFC23
:1036B40001212046FEF756FC48238DF807300223EB
:1036C4008DF806304FF47073ADF8043001A920462C
:1036D400FEF756FF4FF46043ADF8043001A92846C5
:1036E400FEF74EFF4FF48063ADF8043001A9204685
:1036F400FEF746FF03B030BD000C0140001001404E
:1037040010B582B00A4C01212046FEF72BFC102391
:103714008DF8073003238DF806304FF40053ADF8CD
:10372400043001A92046FEF72BFF02B010BD00BFF4
:1037340000100140084B1A68084B1B689A4209D9CB
:10374400054B1B68FA33054A1360054AD36883F4B2
:103754000053D360704700BFE4220020F40000202F
:103764000010014008B5144B1B7813BB124B012207
:103774001A70124B1B78934215D05AB282B1022BA5
:1037840014D00E4A13780133DBB21370022B02D922
:10379400134600221A70084B00221A70012008BD3B
:1037A400FFF7DCF9EDE7FFF719FFEAE7FFF7C2FFE0
:1037B400E7E70020F3E700BFE1000020E822002053
:1037C4002DE9F04188B0FDF731FB434B1D68434BB5
:1037D400A3FB0535AD0C013DADB20120FEF786FA21
:1037E400DFF8048101214046FEF7BCFB3C4F012178
:1037F4003846FEF7B7FB01213846FEF7B3FB394CD8
:1038040001212046FEF778FA01212046FEF774FADA
:1038140001212046FEF770FA18238DF81F30012687
:103824008DF81E608023ADF81C3007A94046FEF7D2
:10383400A7FEADF81C6007A93846FEF7A1FE4FF0BD
:103844000208ADF81C8007A93846FEF799FE4FF42C
:103854007A77ADF81470ADF810500025ADF8165015
:10386400ADF8125004A92046FEF71CF8ADF8147008
:1038740004A92046FEF716F8ADF8147004A92046F2
:10388400FEF710F86846FDF70BFD6023ADF8003035
:10389400ADF80260ADF80850ADF806506A464146EE
:1038A4002046FDF7E7FF6A4603212046FDF7E2FFC5
:1038B4006A4604212046FDF7DDFF31462046FDF728
:1038C4008BFC31462046FDF787FC31462046FDF748
:1038D40083FC08B0BDE8F0812800002083DE1B4390
:1038E400000C014000040040000801400138094B6D
:1038F40033F8103040F6E44000FB03F0031344F6C1
:10390400206000FB03F0044BA3FB0030C0F34F30F6
:10391400704700BFBC0000205917B7D170B584B000
:103924000E4615460024ADF80E40FFF7DFFFADF854
:103934000E0009E0291900230093C82289B23046F9
:10394400FCF754FE0134E4B2042C10D8094B33F8CC
:103954001420BDF80E309BB29A42EBD229190022F2
:103964000092C82389B23046FCF740FEEAE704B06F
:1039740070BD00BF744E000808B50023022B0BD89D
:10398400154A32F81300154951F82320024441F82E
:1039940023200133DBB2F1E7114A13780133DBB2A0
:1039A4001370072B11D9002313700CE00B4951F845
:1039B4002320C2F3CF020B4820F81320002241F841
:1039C40023200133DBB2022BF0D94FF408710648EF
:1039D400FFF7D0FA08BD00BFBC000020C4000020DF
:1039E40080180020B4000020002401402DE9F04399
:1039F40093B04FF48040FEF7BBFC494F0121384699
:103A0400FEF716FBDFF8289101214846FEF7AAFAD3
:103A1400444D01212846FEF723FA0124ADF8444021
:103A24004FF002088DF8468000268DF8476011A9F2
:103A34004846FEF7A5FD3846FFF7DCF93A4B0093FC
:103A44003A4B019302964FF00309CDF80C9004967B
:103A5400802305934FF4806307934FF48073069398
:103A6400202308934FF4005309930A966946384675
:103A7400FFF70AF921463846FEF774FF0B968DF8D6
:103A840030408DF831404FF460230D930E968DF83D
:103A94003C900BA92846FFF72FFC21462846FFF748
:103AA400DBFB0723224631462846FFF789FA072322
:103AB400424621462846FFF783FA07234A46052152
:103AC4002846FFF77DFA12238DF840308DF84180A7
:103AD4008DF842408DF8434010A8FFF7A7FC22461A
:103AE4004FF408712846FFF781FB21462846FFF76B
:103AF400D9FB2846FFF75EFB0A48FFF73DFB002889
:103B0400FAD10848FFF71CFB0648FFF7FBFA002828
:103B1400FAD101210348FFF7CBFA13B0BDE8F083D3
:103B240008000240002401404C240140BC00002055
:103B3400000801402DE9F04104460D46FCF7FEFB68
:103B4400804610B385B31A4E582303FB04F707F1DC
:103B5400200030441C222946043000F043FF95F92C
:103B64000C20F319DA736A891A829B889A420FD956
:103B7400582202FB046213820D4B582202FB0434C8
:103B8400012384F821302B8A63824046BDE8F0810A
:103B94000749582303FB04135B889A42ECD258224A
:103BA40002FB04121382E7E74FF00008EDE700BFC1
:103BB4008418002070B506460D46FCF7BFFB04468A
:103BC40008B9204670BD58231A46034903FB061161
:103BD400284600F007FFF4E78418002010B596B0DB
:103BE4000446FCF7ABFB034610B9184616B010BDEB
:103BF40069462046FFF7DEFF00238DF825308DF857
:103C040026308DF8273009A92046FFF793FF034695
:103C1400EBE700002DE9F04782460C46FCF78EFBEB
:103C24008146002800F08A80002C00F0A080D04655
:103C3400582303FB0AF34033182221464D48184405
:103C440000F0D0FE03262DE0002700E000272079B5
:103C5400E378C01A00F0A4FEB0FBF5F0C0B2454A08
:103C6400582303FB0823187320B92279E3789A4276
:103C740000D04F46A0796379C01A00F091FEB0FBE2
:103C8400F5F0C0B23B4A582303FB0823587328B904
:103C9400A27963799A4201D04F4600E00FB1013610
:103CA400B6B2DFB1A56806EB860303EB8303B5FB6D
:103CB400F3F5A0786378C01A00F072FEB0FBF5F05B
:103CC400C0B22C4A582303FB0823D8720028BDD164
:103CD400A27863789A42B7D04F46B8E7254A58236A
:103CE40003FB0A23A3F84C609E8294F90E30B3F1CF
:103CF400FF3F26D062781F49582303FB0A131A7228
:103D0400E2785A7262799A7294F90E20194958230A
:103D140003FB0A139A73DB690022A3FB0513DBB9C7
:103D2400E2B1144A582303FB0A230022DA61114B3F
:103D3400582202FB0A3A01238AF820304846BDE89B
:103D4400F087A2780B49582303FB0A131A722279CD
:103D54005A72A2799A72D7E70122E1E7236905FB37
:103D640003F5044A582303FB0A23DD61DFE74FF020
:103D74000009E3E78418002010B596B00446FCF768
:103D8400DDFA034610B9184616B010BD6946204640
:103D9400FFF710FF00238DF841308DF842308DF885
:103DA40043308DF844308DF845308DF8463010A9F5
:103DB4002046FFF72FFF0346E5E700002DE9F04119
:103DC400254D2D781D2D3DD891423DD81F461646D0
:103DD4000D460446FCF73AFB002838D0314620460D
:103DE400FCF734FB002834D01B4A92F800801B48AF
:103DF400582303FB08F3C118C4544D808E8008F186
:103E04000103137006994046FFF704FF30B9134AC3
:103E1400582303FB0823002283F820200E4B187834
:103E240001383946C0B2FFF785FE30B90B4B582232
:103E340002FB0838002388F82130074B1878013832
:103E4400C0B202E01F2000E01F20BDE8F0811F2067
:103E5400FBE71F20F9E700BFDA00002084180020E8
:103E64002DE9F04F99B00138C4B2022C00F2C6809B
:103E74000E46B1F5FA7F01D94FF4FA7627469C4BEA
:103E840023F814604FF000089A4B03F804809A4B0F
:103E940003F80480DFF868924FF4FB6505FB049592
:103EA4004FF4FA624146284600F0AAFD0422414636
:103EB400284600F0A5FDB246701C4FF4FB7303FBCB
:103EC40004000422FF2109EB800000F099FD012386
:103ED4009E420BD34FF4FB7202FB073287490878EA
:103EE400874901F8220001339BB2F1E7D4B1012CD8
:103EF40000F08780022C40F08180824B03934FF0C6
:103F04000009DFF820824F4611267F4B029303F508
:103F1400DE337C3301934FF0140BA3F57843803BDD
:103F2400009311E0182303934FF001094FF00008A8
:103F3400764F0D26764B029303F5504324330193B9
:103F44004FF0280B734B009301210846FDF7A8FEA0
:103F540001210098FEF706F801210198FEF768F8A0
:103F64001FB101213846FDF7D9FFB8F1000F03D086
:103F740001214046FDF798FFB9F1000F53D11823F2
:103F84008DF85F3003238DF85E30ADF85CB017A96F
:103F94000098FEF7F5FADDF804904846FEF72AFF8C
:103FA400029B0C930D9510230E930AF102039B00C0
:103FB4000F9300231093802211921293139314935E
:103FC4004FF44052159216930CA94846FEF75CFE36
:103FD4008DF82C6002238DF82D3001258DF82E509C
:103FE4008DF82F500BA8FFF721FA2A460A214846DC
:103FF400FEF76AFCAC421FD9022C4BD019B0BDE8C5
:10400400F08F182303934FF00009C846424F0F2640
:10401400424B029303F5E4334C3301934FF4204BAA
:104024003C4B009390E701214846FEF7BFF901217C
:104034003B48FEF7BBF9A2E70023ADF818304FF474
:104044008272ADF81A20ADF81C300225ADF81E506E
:104054000124ADF820404FF40072ADF82220039AF9
:10406400ADF82420ADF826304FF6FF73ADF82830B4
:1040740006A93846FDF752FD21463846FDF7C2FC35
:10408400224629463846FDF7E9FC21463846FDF725
:1040940019FDB3E7039B06930024ADF81C404FF4CD
:1040A4008053ADF81E30ADF82040ADF8244008230D
:1040B400ADF8223006A94046FEF780F84FF40063BD
:1040C400ADF810304FF48073ADF81630ADF81440ED
:1040D400ADF8124004A94046FDF72CF801228021D6
:1040E4004046FCF7B7FF01214046FCF7EFFF85E7A8
:1040F400D4000020E8000020B0000020360000209A
:10410400F8000020882A11000444004000300140D7
:104114000C300140000C0140003800400C380040D5
:10412400000230000044004010B5044600F024FDB5
:10413400013401386FF00043B3FBF4F3B0FBF3F048
:1041440010BD000070B58AB00D46072810D00828AD
:104154001ED0062820D800EBC000830001AE144C0A
:104164001C440FCC0FC60FCC0FC62368336013E07A
:104174000620FFF7D9FF00EBC000830001AE0C4C12
:104184001C440FCC0FC60FCC0FC62368336003E06A
:104194000023029304930693029B9B086B70049B79
:1041A4009B08AB70069B9B08EB700AB070BD00BF08
:1041B400804E000870B58AB00C46072810D0082835
:1041C4001ED0062820D800EBC000830001AE194D94
:1041D4001D440FCD0FC60FCD0FC62B68336013E0FF
:1041E4000620FFF7A1FF00EBC000830001AE114DD4
:1041F4001D440FCD0FC60FCD0FC62B68336003E0EF
:104204000023029304930693029BC3F38703A370D2
:104214009B086370049BC3F3870323719B08E370BB
:10422400069BC3F38703A3719B0863710023E371A7
:104234000AB070BD804E000830B58DB00D461446EE
:1042440006A9FFF7B7FF69462846FFF7B3FF9DF8B5
:104254001A3063709DF80230A3709DF81C30E3702F
:104264009DF8043023719DF81E3063719DF806306B
:10427400A3710123E3710DB030BD000080B590B08F
:10428400FCF7D4FDFDF766FFFFF706FAFFF798FA8F
:10429400FFF736FAFFF7AAFB0820FCF771F94FF491
:1042A400FA710120FFF7DCFD4FF4FA710220FFF7E9
:1042B400D7FDFF20FEF702FC09A90220FFF742FF09
:1042C40000250E950524ADF82C40ADF82A4019239D
:1042D400ADF828304FF001088DF824800227ADF89E
:1042E4003470ADF832408DF83080ADF82E808DF802
:1042F4003C5003AE31460620FFF75CFF07958DF86E
:104304000C70FF238DF81A304FF42F7305938DF83A
:104314002050009609ABB92241464046FFF74EFDB6
:10432400C04B1870009609ABB92241463846FFF7D6
:1043340045FDBD4B187000952B462246414640462C
:10434400FFF73CFDA9462E464746072468E00223B2
:10435400ADF834304FF42F7305936BE0012709E077
:10436400002403A90620FFF725FF09A90220FFF76F
:10437400E9FE0127AB4D03A92878FFF74BFC09A9F7
:104384002878FFF7D7FB39462878FCF741F8A64D83
:1043940003A92878FFF73EFC09A92878FFF7CAFB90
:1043A40039462878FCF734F80D2C00F0EA80002513
:1043B4000220FFF7FDF8002840F0F3800220FFF709
:1043C400EDF8002840F005810220FFF7FBF8824653
:1043D40020B1964B1B68B34200F2FF800320FFF725
:1043E400DDF88246C8B1B8F1000F00F00081DFF8B3
:1043F400348298F80000FFF7BFFC98F80000FFF73C
:10440400EDFBDFF8248298F80000FFF7B5FC98F87C
:104414000000FFF7E3FB4FF000080C2C00F00A81CA
:10442400FFF7A0F90120FFF7B9F808B9002DBFD0B4
:104434000C2C8CD00134E4B20E2C91D80F2C8DD8D6
:1044440001A353F824F000BF674300088D4400081B
:10445400B5440008C9440008A1440008DD4400082C
:10446400E9440008F5440008014500081545000822
:104474002345000843450008374500086143000808
:10448400574500088145000803A90120FFF792FE63
:1044940009A90220FFF756FE01276BE703A90220B2
:1044A400FFF788FE09A90520FFF74CFE012761E705
:1044B40003A90420FFF77EFE09A90220FFF742FEAC
:1044C400012757E703A90220FFF774FE09A900207A
:1044D400FFF738FE01274DE703A90120FFF76AFE25
:1044E400002747E703A90220FFF764FE002741E7FE
:1044F40003A90420FFF75EFE00273BE703AA05217A
:104504000220FFF799FE4FF4AF630593002731E7CC
:1045140003AA00210120FFF78FFE00272AE703AA40
:1045240004210120FFF788FE4FF4AF6305930027B1
:1045340020E70123ADF834304FF49673059303A9B3
:104544000720FFF737FE09A90720FFF7FBFD012726
:1045540010E700238DF80D308DF80E308DF80F30F4
:104564008DF810308DF811308DF812308DF825301B
:104574008DF826308DF827300127FBE6012700242B
:10458400F8E600212878FBF743FF00212878FBF7A1
:104594002DFF274B1A8829780120FFF7BFF9002542
:1045A40006E71F20FBF7ECFF012211461D4B18788C
:1045B400FBF7CEFE012211461B4B1878FBF7C8FE11
:1045C400FF20FEF77BFA194B1E6806F51C561036C1
:1045D400F4E60820FBF7D4FFF6E60820FBF7D0FF4B
:1045E400124B1E6806F51C5610365546F6E6DFF8E3
:1045F400348003A998F80000FFF70CFB09A998F888
:104604000000FFF797FADFF8208003A998F800006C
:10461400FFF700FB09A998F80000FFF78BFAD046D2
:10462400FBE600BF8218002081180020E42200204D
:1046340034000020194B1B684B457FF6F1AE174B35
:104644001B6803F5967903A90720FFF7B3FD09A9B1
:104654000720FFF777FDDFF848A003A99AF80000C8
:10466400FFF7D8FA09A99AF80000FFF763FA394668
:104674009AF80000FBF7CCFEDFF828A003A99AF80B
:104684000000FFF7C7FA09A99AF80000FFF752FAE9
:1046940039469AF80000FBF7BBFEC1E6E42200208D
:1046A400821800208118002010B5114B1B6813F4E8
:1046B400004F0BD00E4B4FF400425A600D4B0122B9
:1046C4001A7000210C48FEF74DF910BD084B1B6809
:1046D40013F4005FF5D0064B4FF400525A60074CB8
:1046E400206800F077F900232360054A1370E8E797
:1046F40000000240EA22002044000240A8000020FA
:10470400AC00002070B50546194B187868BB0C4600
:1047140016469DB100211748FEF724F97CB12146C5
:104724001448FEF79DF896B9124BDD600124104B36
:104734001C7021460F48FEF715F9204670BD2B4624
:1047440013F9012B002AEAD00134A4B2F8E70121BD
:10475400204600F029F9084E30602246294600F030
:1047640041F93268034BDA60E0E70020E6E700BF76
:10477400AC00002044000240A800002008B56E4BA5
:104784001B8813F0200F66D06B4B9B88DBB26B4AFF
:1047940013706B4B1B78002B58D11378443B202BA0
:1047A40059D8DFE803F03358583D582A5858495827
:1047B4005858215858581B585858585858585858E9
:1047C40058585811585815005E48FEF789FE42E0C3
:1047D400002211465C48FFF795FF3CE00323584A4A
:1047E40013705A4A137036E00023584A1370544A1F
:1047F40001211170564A13702DE00123534A13709E
:104804004F4A1370524B00221A7024E04F4B02227D
:104814001A704B4B01221A704D4B00221A701AE089
:104824004A4B04221A70464B03221A700022114686
:104834004848FFF767FF0EE0444B05221A70404BCF
:1048440001221A70424B00221A7004E03C4B1B7880
:10485400DBB2012B00D008BD3C4B1B78DBB2052B2F
:10486400F9D801A252F823F085480008B34800089B
:10487400E14800085B4800085B4800080F4900084D
:10488400334B1B782D490A78D2B23348C2540A7884
:10489400D2B20A2A01D00A782AB92F4A0021D15467
:1048A400274A032111700133294A1370D3E7284B97
:1048B4001B7822490A78D2B22748C2540A78D2B265
:1048C4000A2A01D00A782AB9234A0021D1541C4A61
:1048D4000321117001331E4A1370BCE71C4B1B7873
:1048E40016490A78D2B21C48C2540A78D2B20A2AAB
:1048F40001D00A782AB9184A0021D154104A032158
:1049040011700133124A1370A5E7114B1B780B4940
:104914000A78D2B21048C2540A78D2B20A2A01D014
:104924000A7822B900220C49CA5405490A70013395
:10493400074A13708FE700BF00380140EB220020C4
:1049440000230020104E0008184E0008E922002021
:10495400E000002004230020EC22002008B50346D8
:104964000C4A12685AB10B4A1068033323F003034C
:104974000344094A934206D8064A136008BD054A0F
:1049840006491160EFE700F017F80C2303604FF0BD
:10499400FF30F3E7DC000020004C0020542300200B
:1049A4000028B8BF40427047024B0A4601461868C7
:1049B40000F02EB83C000020014B1868704700BF7F
:1049C4003C000020024B0146186800F07BB800BF91
:1049D4003C000020024B0146186800F027B800BFD5
:1049E4003C0000200A44914200F1FF3300D170479B
:1049F40010B511F8014B914203F8014FF9D110BDE4
:104A040003460244934200D1704703F8011BF9E7BF
:104A140038B502FB01F4214600F054F8054618B1FC
:104A240022460021FFF7ECFF284638BD38B505467D
:104A3400002943D051F8043C0C1F002BB8BFE418E4
:104A440000F0DEF81E4A1368104633B96360146040
:104A54002846BDE8384000F0D9B8A3420BD92168F4
:104A64006218934201BF1A685B685218226063603F
:104A74000460EDE713465A680AB1A242FAD91968EC
:104A84005818A0420BD1206801445818824219607A
:104A9400DED110685268014419605A60D8E702D91F
:104AA4000C232B60D4E7206821188A4201BF1168C7
:104AB40052680918216062605C60C9E738BD00BFB4
:104AC40038230020F8B5CD1C25F0030508350C2D3E
:104AD40038BF0C25002D064601DBA94203D90C235F
:104AE40033600020F8BD00F08BF821490A681446B1
:104AF4009CB9204F3B6823B92146304600F070F83A
:104B040038602946304600F06BF8431C23D10C234F
:104B14003046336000F07AF8E3E723685B1B17D470
:104B24000B2B03D923601C44256004E06368A24274
:104B34000CBF0B605360304600F068F804F10B00C2
:104B4400231D20F00700C21ACCD01B1AA350C9E7BA
:104B540022466468CCE7C41C24F00304A042E3D0DA
:104B6400211A304600F03CF80130DDD1CFE700BF18
:104B7400382300203C230020134B10B51C68A36B82
:104B84007BB91820FFF71EFF104A114BA063C0E940
:104B94000023104B012283600B2383810023C0E98F
:104BA4000423A16B0C480A694B6950430B4C04FB6A
:104BB4000300A2FB04345A1C044444F10000C1E97C
:104BC400042020F0004010BD3C0000200E33CDAB8B
:104BD40034126DE6ECDE05002DF451582D7F954C12
:104BE40038B50023054C054608462360FFF7B6FE9A
:104BF400431C02D1236803B12B6038BD402300203D
:104C0400014800F009B800BF48230020014800F023
:104C140004B800BF48230020704770472E2E2F6C25
:104C240065645365676D656E742F73746D33327587
:104C340074696C732F73797374656D2F7372632F3A
:104C440073746D333266312D737464706572697078
:104C5400682F73746D3332663130785F6164632E0C
:104C6400630000002E2E2F6C65645365676D656EBE
:104C7400742F73746D33327574696C732F73797315
:104C840074656D2F7372632F73746D333266312DB7
:104C94007374647065726970682F73746D333266EF
:104CA4003130785F646D612E630000002E2E2F6C0E
:104CB40065645365676D656E742F73746D333275F7
:104CC40074696C732F73797374656D2F7372632FAA
:104CD40073746D333266312D7374647065726970E8
:104CE400682F73746D3332663130785F6770696F23
:104CF4002E6300002E2E2F6C65645365676D656E00
:104D0400742F73746D33327574696C732F73797384
:104D140074656D2F7372632F73746D333266312D26
:104D24007374647065726970682F6D6973632E6340
:104D3400000000002E2E2F6C65645365676D656E50
:104D4400742F73746D33327574696C732F73797344
:104D540074656D2F7372632F73746D333266312DE6
:104D64007374647065726970682F73746D3332661E
:104D74003130785F7263632E630000002E2E2F6C37
:104D840065645365676D656E742F73746D33327526
:104D940074696C732F73797374656D2F7372632FD9
:104DA40073746D333266312D737464706572697017
:104DB400682F73746D3332663130785F7370692E87
:104DC400630000002E2E2F6C65645365676D656E5D
:104DD400742F73746D33327574696C732F737973B4
:104DE40074656D2F7372632F73746D333266312D56
:104DF4007374647065726970682F73746D3332668E
:104E04003130785F74696D2E6300000048656C6C06
:104E14006F210A00444D41207465737420747261DB
:104E24006E736665720A00002E2E2F6C65645365DE
:104E3400676D656E742F73746D33327574696C733A
:104E44002F73797374656D2F7372632F73746D335D
:104E54003266312D7374647065726970682F73746F
:104E64006D3332663130785F75736172742E63000E
:104E7400E40CAC0D740E3C0F0410000000000000A4
:104E8400F401000000000000000000000000000029
:104E9400F4010000E803000000000000010000002D
:104EA400000000000000000000000000F401000009
:104EB40000000000F4010000E8030000000000000E
:104EC4000100000000000000580200000000000083
:104ED400900100000000000000000000E803000052
:104EE400000000000100000000000000F4010000C8
:104EF40000000000F401000000000000F4010000C4
:104F0400E8030000000000000100000000000000B1
:104F1400F401000000000000000000000000000098
:104F240000000000E8030000000000000100000091
:104F3400000000000000000000000000F401000078
:104F44000000000000000000E80300000000000072
:104F5400010000000000000000000000000000004C
:104F64000000000000000000F4010000E80300005D
:084F7400000000000100000034
:104F7C0078563412020406080000000000000000FD
:104F8C0001020304060708090000000001020304E3
:104F9C00010203040607080900A24A04E4000020E9
:104FAC00000000009700FFFF4800000040000020B8
:104FBC0000000000000000000000000000000000E5
:104FCC0000000000000000000000000000000000D5
:104FDC0000000000000000000000000000000000C5
:104FEC0000000000000000000000000000000000B5
:104FFC0000000000000000000000000000000000A5
:10500C000000000000000000000000000000000094
:04501C0032547698FC
:040000050800016D81
:00000001FF
