:020000040800F2
:1000000000500020590200085D0100084901000865
:1000100045010008310100081D0100080000000032
:1000200000000000000000000000000019010008AE
:10003000150100080000000011010008E509000892
:100040000D0100080D0100080D0100080D01000858
:100050000D0100080D0100080D0100080D01000848
:100060000D0100080D0100080D0100080D01000838
:100070000D01000839200008F5330008F51F0008BD
:100080000D010008B11F00088D2C00080D010008AB
:100090000D0100080D0100080D0100080D01000808
:1000A0000D0100080D0100080D0100080D010008F8
:1000B0000D0100080D0100080D010008F9290008D4
:1000C0000D0100080D0100080D0100080D010008D8
:1000D0000D010008C93400080D0100080D010008D9
:1000E0000D0100080D0100080D01000800000000CE
:1000F0000000000000000000000000000000000000
:1001000000000000000000005FF808F100BEFEE7FC
:1001100000BEFEE700BEFEE700BEFEE71EF0040FD5
:100120000CBFEFF30880EFF3098071464C4A10478B
:100130001EF0040F0CBFEFF30880EFF30980714647
:10014000484A104700BEFEE71EF0040F0CBFEFF355
:100150000880EFF309807146434A104700BEFEE76E
:1001600000BEFEE700BEFEE700BEFEE700B583B0BE
:1001700000F01CFD284B294A1360294A1360294BC3
:10018000294A03E052F8041B43F8041B27498B4219
:10019000F8D3224B1A68264B9A4200D0FEE7204B38
:1001A0001A68244B9A42F9D11B4B234A1360234A05
:1001B0001360234B02E0002243F8042B214A9342B0
:1001C000F9D31D4B1B6813B91C4B1B6803B1FEE729
:1001D00000F0E8FC694601A800F0F4FC1A4C1B4B47
:1001E000E41AA410002504E0184B53F82530984772
:1001F0000135AC42F8DC164C164BE41AA41000256D
:1002000004E0144B53F8253098470135AC42F8DC34
:100210000099019803F09AF8BABADECA00000020EB
:10022000A000002000000020B03C0008A400002036
:100230007856341232547698A400002078150020A5
:10024000A40000207C1500209402000894020008FD
:10025000940200089402000808B5FFF787FF000029
:0C02600061010008650100086901000848
:10026C00B03C000800000020A4000020B03C0008B6
:10027C000000000000000000A40000207C150020FD
:08028C0000000000000000006A
:1002940003882BB1013B9BB223B10380002070473C
:1002A4000020704701207047036823B1013B04D04C
:1002B400036000207047002070470120704770B42D
:1002C400458C8D4205D2038C2B44994214DC0124C5
:1002D40000E00024022A14D0032A15D0012A0DD0EC
:1002E40000221346012C04D066B286B1022C17D02A
:1002F4000023184670BC70470224EBE7437F027862
:10030400F0E7837F4278EDE7C37F8278EAE79B1AC0
:1003140003FB01F393FBF5F3DBB21344DBB2E8E731
:10032400491B048C091B01399A1A02FB01F2818CC6
:1003340092FBF1F2D2B29B1ADBB2DAE7034B1B78E1
:10034400834201D800207047012070470601002035
:10035400FF2805D00138C0B2022803D80120704715
:10036400012070470020704738B504460D46FFF75A
:10037400EFFF034630B1013C054A32F81420AA428B
:1003840002D31DB1184638BD0023FBE70023F9E76B
:1003940000010020F8B504460D4616461F46FFF737
:1003A400E3FFD8B10146013CE4B2CA2303FB045283
:1003B4000C4B03EB8203DB78B34210D1094B03EB04
:1003C40082039B78BB420AD1064D05EB8204627816
:1003D4009DF818309A4202D1002100E0012108461C
:1003E400F8BD00BF2C010020FF280BD010B5044637
:1003F400FFF7AEFF024618B1601E094B1A5CD2B279
:10040400104610BD0023022B07D8054AD15C01F029
:10041400FF0219B90133DBB2F5E700221046704739
:10042400B00000202DE9F04182B00446884617460A
:100434001E469DF820509DF8283023B90095334678
:10044400FFF7A8FF98B9601EC0B20A4ACA2101FB8F
:10045400008102EB8103DF709E705D709DF8243093
:1004640063F01F0302F82130034B01221A5402B037
:10047400BDE8F0812C0100201401002060F01F0071
:10048400014B1870704700BF340000202DE9F04183
:1004940082B00446884617461E469DF820509DF8B3
:1004A400243023B900953346FFF774FF88B9601EE2
:1004B400C0B2094ACA2101FB008102EB8103DF704B
:1004C4009E705D70054B1B7802F82130044B0122AD
:1004D4001A5402B0BDE8F0812C0100203400002041
:1004E400140100202DE9F04784B082460C461746DB
:1004F40098469DF830909DF834609DF83850FFF789
:1005040033FF20B139465046FFF72EFF80B904B0BF
:10051400BDE8F08701230293019500964B464246BD
:1005240021465046FFF77EFF0134A4B2A742EED322
:100534001F2DEFD90123019300964B4642462146D5
:100544005046FFF7A3FFEFE7013903290FD8DFE88F
:1005540001F00205080B92B28286704792B20287BC
:10056400704792B28287704792B2A0F840207047D9
:10057400002801DB012070474FF0FF3070472DE960
:10058400F04180460C4616461D46069F0846FFF776
:10059400EFFF444407E0AC4203DDC4EB45044FF0F5
:1005A400FF30B44208DBAC42F5DCB442F3DB07B104
:1005B40038702046BDE8F081C4EB46040120F2E720
:1005C40010B49C1A0844904203DA20440130FAE73C
:1005D400001B5A1C8242FBDB10BC70472DE9F04F14
:1005E4008BB0044601238DF82730FFF7A7FE10B91E
:1005F4000BB0BDE8F08F27467D48582303FB04F376
:1006040003F1080200EB020BC218B2F80280B2F840
:100614000490C15C0791968D518D0E44B6B2128D33
:100624001644B6B2103318440230FFF731FEE0B17D
:100634006F4A582303FB042393F82430022B16D06B
:1006440053B3012BD4D16A4A582303FB0423188AD9
:100654005A8E93F90F1089B201FB02021A82644B7D
:10066400582202FB0434A38E638200244AE05825F6
:1006740005FB0425698E95F90F000DF127030093FE
:100684004B46424600FB01F1288AFFF778FF288297
:100694009DF82730EB73E2E7554B582505FB0435ED
:1006A400698E95F90F004B46424600FB01F1288AFA
:1006B400FFF786FF2882D2E7582000FB072090F935
:1006C4000F1001FB04F1002300934B4642464942BC
:1006D400008AFFF754FF05B20EE0454B582000FB9B
:1006E400073090F90F1001FB04F14B464246494292
:1006F400008AFFF765FF05B2454501DB4D4551DD35
:100704000134A4B2B442BFF473AF394A582303FB93
:10071400072393F82430022BCED0002BDDD0012BFD
:100724007FF466AF324A582303FB07231D8A93F9EB
:100734000F3003FB14552DB2721E9442DCDB012BE7
:1007440019D0B3F1FF3FD7D14545D5DA284858230E
:1007540003FB07F3C218A2F8109018331844FFF7EC
:10076400A3FD0028C8D0224A582303FB07230022F4
:1007740083F82120C0E74D45E3DD1D48582303FBE2
:1007840007F3C218A2F8108018331844FFF78CFD41
:100794000028B1D0164A582303FB0723002283F80C
:1007A4002120A9E704F1010A1FFA8AFA012251461D
:1007B4005846FFF784FD0590022251465846FFF73C
:1007C4007EFD0690032251465846FFF778FD01232B
:1007D4000293074A582303FB072393F83C30019301
:1007E4000090069B059AA9B20798FFF71BFE87E7BE
:1007F400A80A0020904202D2B1F1FF3F07D002FBC9
:100804000100009A904204D8984204D37047002013
:10081400704700987047184670470000F0B583B0E1
:100824000546FFF78BFD88B15F4A582303FB052378
:1008340093F8462093F845309A4209D003265A4A41
:10084400582303FB052393F820307BB903B0F0BD94
:10085400554A582303FB052393F8442093F8433067
:100864009A4201D00226EAE70126E8E7582404FB6D
:10087400052494F90E7094F84230009394F84130B2
:10088400E27A3946207AFFF7B5FF207294F84430B3
:10089400009394F84330227B3946607AFFF7AAFF2D
:1008A400607294F84630009394F84530627B394680
:1008B400A07AFFF79FFFC0B2A07294F84030022BD9
:1008C40011D0582000FB05F01830374B1844043081
:1008D400FFF7EAFC0028B9D0334B582202FB053558
:1008E4000023EB61B2E7032E16D0022E2BD02E4A42
:1008F400582303FB052393F84230002BE1D0114623
:10090400582202FB0512127A93423FD8582303FB64
:100914000513FF229A73D4E794F84630002BE4D0F1
:10092400984202D3FF22A273CBE71F4A582303FB4A
:10093400052393F845309842C3D8582303FB052375
:1009440001229A73BDE7184A582303FB052393F841
:100954004430002BCBD01146582202FB0512527AA8
:10096400934205D8582303FB0513FF229A73A8E783
:100974000D49582303FB051393F843309A42A0D83A
:10098400582303FB051301229A739AE70649582357
:1009940003FB051393F841309A4292D8582303FB82
:1009A400051301229A738CE7A80A002010B472B6CA
:1009B400084B9C68084B186862B64FF47A72074B70
:1009C400196802FB01F31B1BB3FBF1F302FB0030BC
:1009D40010BC704710E000E00C1500203800002027
:1009E400024A136801331360704700BF0C150020DE
:1009F40082B00023019300932C4A136843F480339C
:100A040013602A4B1B6803F400330093019B0133EA
:100A14000193009B1BB9019BB3F5A06FF1D1234B4C
:100A24001B6813F4003F06D001230093009B012BA5
:100A340004D002B0704700230093F7E71C4B1A68F8
:100A440042F010021A601A6822F003021A601A684F
:100A540042F002021A60A3F580535A685A605A6839
:100A64005A605A6842F480625A605A6822F47C12CE
:100A74005A605A6842F4E8125A601A6842F0807266
:100A84001A600A4B1B6813F0007FFAD0074B5A68B0
:100A940022F003025A605A6842F002025A60034B81
:100AA4005B6803F00C03082BF9D1C2E70010024085
:100AB4000020024008B5FFF79BFF08BD1F4B5B6891
:100AC40003F00C03042B15D0082B17D01BB11C4BBF
:100AD4001C4A1A6002E01A4B1A4A1A60174B5B68E8
:100AE400C3F30313184AD35CDAB215490B68D34035
:100AF4000B607047124B134A1A60EFE70F4A5368B2
:100B04005268C3F38343023312F4803F05D10F4A82
:100B140002FB03F30A4A1360E0E7084A526812F43E
:100B2400003F05D0094A02FB03F3054A1360D5E7E9
:100B3400044A02FB03F3024A1360CFE700100240A9
:100B44002800002000127A000800002000093D005F
:100B540008B5104B1A6842F001021A6059680E4A2F
:100B64000A405A601A6822F0847222F480321A60B1
:100B74001A6822F480221A605A6822F4FE025A602B
:100B84004FF41F029A60FFF795FF044B4FF0006289
:100B94009A6008BD001002400000FFF800ED00E07C
:100BA40008B5FFF78BFF08BD08B5FFF7D1FF024A70
:100BB400024B9A6008BD00BF0000000800ED00E091
:100BC40001230360014B0B60704700BF2C00002021
:100BD400FEE708B50120FFF7FBFF08B5FFF7F9FFB3
:100BE40038B505460C46274B984214D0A3F57443F8
:100BF400984210D003F5806398420CD003F58063CB
:100C0400984208D003F58063984204D040F28631BC
:100C14001D48FFF7E2FF012C13D0802C11D0402C8B
:100C24000FD0202C0DD0102C0BD0B4F5807F08D021
:100C3400B4F5007F05D0082C03D0042C01D0022C7D
:100C440007D1B4F5007F0AD02B881C4218D00120AC
:100C540038BD40F287310C48FFF7BFFFF1E7094B7D
:100C64009D42F1D0A3F574439D42EDD003F580631A
:100C74009D42E9D040F28B310348FFF7AEFFE3E732
:100C84000020E5E7003801406C3B000838B5054614
:100C94000C46124B984214D0A3F57443984210D0DA
:100CA40003F5806398420CD003F58063984208D022
:100CB40003F58063984204D040F25F210848FFF7AF
:100CC4008CFFB4F5007F03D2C4F30804AC8038BDB4
:100CD4004FF418710248FFF780FFF5E70038014030
:100CE4006C3B000870B504460D461646194B9842F5
:100CF40014D0A3F57443984210D003F5806398424E
:100D04000CD003F58063984208D003F580639842C1
:100D140004D040F2C3111048FFF75FFF25F0C00371
:100D24009BB203B925B94FF4E2710B48FFF755FFA5
:100D3400012E04D84EB1A38A1D43A58270BD40F292
:100D4400C5110548FFF749FFF4E7A38A23EA05051F
:100D5400A582F3E7003801406C3B000838B504462F
:100D64000D46164B984214D0A3F57443984210D004
:100D740003F5806398420CD003F58063984208D051
:100D840003F58063984204D04FF4B1710C48FFF727
:100D940024FF012D05D855B1A38943F40053A38141
:100DA40038BD40F263110648FFF717FFF3E7A38944
:100DB4009BB223F400539BB2A381F1E700380140B6
:100DC4006C3B000870B505460C46254B98420CD088
:100DD400A3F57443984208D003F58063984204D085
:100DE4004FF499711F48FFF7F8FE238813B1B3F548
:100DF400006F1CD1638813B1B3F5806F1DD1A38834
:100E040013B1B3F5007F1ED1E38813B1B3F5807F2E
:100E14001FD12A8A92B220886688A188E388304349
:100E240001430B4322F4706213432B8270BD40F2E2
:100E340033110C48FFF7D1FEDCE74FF49A710948EF
:100E4400FFF7CBFEDBE740F235110648FFF7C5FE9E
:100E5400DAE74FF49B710348FFF7BFFED9E700BF01
:100E6400003801406C3B000838B504460D46124B6F
:100E740098420CD0A3F57843984208D003F58063D8
:100E8400984204D04FF41D710C48FFF7A6FE012DC3
:100E940005D855B1A38843F00403A38038BD40F2BC
:100EA40075210648FFF799FEF3E7A3889BB223F068
:100EB40004039BB2A380F1E700300140083B000823
:100EC40070B504460D461646154B98420CD0A3F552
:100ED4007843984208D003F58063984204D04FF4D5
:100EE40008711048FFF779FE012E0ED825F0030390
:100EF4009BB203B925B940F222210A48FFF76DFEDF
:100F04004EB1A3881D43A58070BD40F22121054840
:100F1400FFF763FEEAE7A38823EA0505A580F3E764
:100F240000300140083B000838B504460D46124B1A
:100F340098420CD0A3F57843984208D003F5806317
:100F4400984204D040F2B7110C48FFF746FE012D39
:100F540005D855B1238843F04003238038BD4FF4AE
:100F6400DC710648FFF739FEF3E723889BB223F0D0
:100F740040039BB22380F1E700300140083B0008A6
:100F840038B505460C464A4B98420BD0A3F5784336
:100F9400984207D003F58063984203D0A3214548C3
:100FA400FFF71BFE238843B1B3F5806F05D0B3F57B
:100FB400004F02D0B3F5404F4CD16388B3F5827F24
:100FC40001D0002B4BD1A388B3F5006F01D0002BC7
:100FD4004AD1E3880BB1022B4BD12389012B4DD885
:100FE4006389B3F5007F01D0002B4CD1A3896BB189
:100FF400082B0BD0102B09D0182B07D0202B05D091
:10100400282B03D0302B01D0382B41D1E3890BB1ED
:10101400802B42D1238A002B44D02B8803F44152E5
:10102400238861880B43A1880B43E1880B43218902
:101034000B4361890B43A1890B43E1890B431343A0
:101044002B80AB8B9BB223F400639BB2AB83238ACC
:101054002B8238BDA6211748FFF7BFFDADE7A721B6
:101064001448FFF7BAFDAEE7A8211248FFF7B5FD13
:10107400AFE7A9210F48FFF7B0FDAEE7AA210D485D
:10108400FFF7ABFDACE7AB210A48FFF7A6FDADE7E0
:10109400AC210848FFF7A1FDB8E7AD210548FFF7EB
:1010A4009CFDB7E7AE210348FFF797FDB5E700BF06
:1010B40000300140083B000838B504460D460E4B8D
:1010C400184200D120B940F2C3410C48FFF785FD16
:1010D400012D05D855B10A4A13691C43146138BD62
:1010E40040F2C4410548FFF778FDF3E7044A136969
:1010F40023EA04041461F2E700360181C03A0008CF
:101104000010024038B504460D460E4B184200D17B
:1011140020B940F269410C48FFF75FFD012D05D865
:1011240055B10A4AD3691C43D46138BD40F26A41BF
:101134000548FFF752FDF3E7044AD36923EA0404A0
:10114400D461F2E700360181C03A00080010024081
:1011540038B504460D460E4B034003B920B940F29E
:101164004A410C48FFF739FD012D05D855B10A4A0B
:1011740093691C43946138BD40F24B410548FFF725
:101184002CFDF3E7044A936923EA04049461F2E72B
:101194000200C0FFC03A00080010024038B50446FF
:1011A4000D46164B98420CD0154B9C420ED0154B55
:1011B4009C4211D0144B9C4214D0144B9C4217D027
:1011C40038BD4FF48040FFF7C3FFEDE729464FF4E5
:1011D4000030FFF797FFEAE729464FF48020FFF736
:1011E40091FFE7E729464FF40020FFF78BFFE4E780
:1011F40029464FF48010FFF785FFE1E700380140EE
:101204000044004000480040004C004000500040B2
:1012140038B504460D460D4B984206D00C4B9C4203
:1012240008D00C4B9C420BD038BD4FF48050FFF7D4
:101234008FFFF3E729464FF48040FFF763FFF0E7A1
:1012440029464FF40040FFF75DFFEDE70030014011
:1012540000380040003C004038B504460D46184BA9
:1012640098420FD0174B9C4210D0174B9C4212D07F
:10127400164B9C4214D0164B9C4216D0154B9C42E4
:1012840018D038BD0420FFF763FFEBE72946082098
:10129400FFF75EFFE9E729461020FFF759FFE7E76C
:1012A40029462020FFF754FFE5E729464020FFF7B1
:1012B4004FFFE3E729468020FFF74AFFE1E700BF3D
:1012C40000080140000C01400010014000140140DE
:1012D40000180140001C014038B504460D4620F4B6
:1012E400AA6323F0070303B920B940F22B410B484A
:1012F400FFF773FC012D05D855B1094A53691C4306
:10130400546138BD40F22C410448FFF766FCF3E712
:10131400034A536923EA04045461F2E7C03A00081B
:101324000010024038B504460D46164B984211D0C1
:10133400143398420ED0143398420BD0143398428D
:1013440008D01433984205D01433984202D0143391
:10135400984203D129460120FFF7BEFF0A4B9C4265
:101364000BD014339C4208D014339C4205D0143360
:101374009C4202D014339C4203D129460220FFF739
:10138400ABFF38BD080002400804024010B4294BEA
:101394005B6803F00C03042B2BD0082B2CD013B167
:1013A400254B036001E0244B036022494B68C3F3DF
:1013B4000313224CE35CDAB20368D34043604A6807
:1013C400C2F30222A25CD2B223FA02F282604A6819
:1013D400C2F3C222A25CD2B2D340C3604A68C2F351
:1013E400813217498A5CD2B2B3FBF2F3036110BCB9
:1013F4007047114B0360D8E70E4A53685268C3F331
:101404008343023312F4803F04D10E4A02FB03F3F8
:101414000360CAE7074A526812F4003F04D0094A3D
:1014240002FB03F30360C0E7034A02FB03F3036018
:10143400BBE700BF0010024000127A001800002031
:101444000400002000093D0000B587B0FFF736FB1B
:1014540001A8FFF79BFF019B0F4AA2FB03239B09F3
:10146400013BB3F1807F15D20C4A53600C4BF02141
:1014740083F82310002191600720106083F8231063
:10148400084B1B68084AB3FBF2F3084A136007B021
:101494005DF804FBFEE700BFD34D621010E000E0EE
:1014A40000ED00E02800002040420F00380000203A
:1014B40030B587B004460D46664B984213D0A3F569
:1014C400744398420FD003F5806398420BD003F520
:1014D4008063984207D003F58063984203D0B82113
:1014E4005D48FFF77AFB2B68013B5C4A934200F2AC
:1014F4008480AB881BB1B3F5805F40F08380EB88B8
:1015040043B1B3F5805F05D0B3F5005F02D0B3F506
:10151400405F7CD12B892BB1B3F5806F02D0B3F53A
:10152400C06F79D16A8922F00C039BB203B91AB94E
:10153400BD214948FFF751FBAB8943B1B3F5807F27
:1015440005D0B3F5007F02D0B3F5407F69D1AB89F4
:1015540073B1404B9C420BD0A3F574439C4207D01B
:1015640003F580639C4203D0C2213B48FFF735FB5F
:10157400238A9BB2EA8823F4405313432382A2892B
:1015840092B2AB8829890B4369890B4322F4B05288
:1015940022F00C021343A381A38A9BB2AA8923F4E9
:1015A40040731343A38201A8FFF7F0FE294B9C422A
:1015B4003CD00398A38913F4004F39D1192303FBBA
:1015C40000F328688000B3FBF0F0254BA3FB002355
:1015D40059090D01642301FB1303A28912F4004F7E
:1015E4002ED11B0132336422B3FBF2F303F00F0359
:1015F4002B439BB2238107B030BDB9211648FFF7B6
:10160400ECFA76E7BA211448FFF7E7FA77E7BB214B
:101614001148FFF7E2FA7DE7BC210F48FFF7DDFA36
:1016240080E7BE210C48FFF7D8FA90E70498C1E799
:10163400192303FB00F328684000B3FBF0F0C4E770
:10164400DA0032326423B2FBF3F202F0070242EA18
:101654000503CEE7003801406C3B00081FAA440094
:101664001F85EB5138B505460C460E4B984208D001
:1016740003F58063984204D040F24A510A48FFF7C8
:10168400ACFA42F2FF031C4200D124B940F24B51A0
:101694000548FFF7A2FA24F07F44E443A4B2AC82E5
:1016A40038BD00BF00540040383A000838B505463C
:1016B4000C462F4B984208D003F58063984204D01F
:1016C4004FF487612B48FFF788FA2B4B9C423BD0A1
:1016D400B4F1021F38D0294B9C4235D0B4F5020F27
:1016E40032D0B4F5901F2FD0254B9C422CD003F55B
:1016F40000039C4228D0A3F5E0039C4224D0214B54
:101704009C4221D003F500039C421DD0A3F5E003C5
:101714009C4219D0102C17D01B4B9C4214D01B4B4D
:101724009C4211D01A4B9C420ED03E339C420BD0AB
:10173400184B9C4208D0043B9C4205D0164B9C425B
:1017440002D0B4F5806F0AD1AB8A2A8B43EA0243F4
:1017540023F07F4334EA030307D0002038BD40F26E
:1017640039410448FFF739FAEEE70120F6E700BFF4
:1017740000540040383A00088200060080008600C9
:1017840040000200840006000100030082000700FC
:1017940002000300840007000800030010B504469B
:1017A400074B984208D003F58063984204D040F276
:1017B40062210448FFF711FA208AC0B210BD00BFAD
:1017C40000540040383A000838B505460C46074B2B
:1017D400984208D003F58063984204D040F2552122
:1017E4000348FFF7FAF9A4B22C8238BD0054004034
:1017F400383A000870B504460D461646134B984215
:1018040008D003F58063984204D04FF40F71104858
:10181400FFF7E3F9012E0ED825F4E0639BB203B978
:1018240025B940F23E210A48FFF7D7F94EB1A38803
:101834001D43A58070BD40F23D210548FFF7CDF959
:10184400EAE7A38823EA0505A580F3E700540040EE
:10185400383A000838B504460D46104B984208D073
:1018640003F58063984204D04FF4E5710C48FFF708
:10187400B4F9012D05D855B1238843F4806323803E
:1018840038BD40F2CB110648FFF7A7F9F3E72388E8
:101894009BB223F480639BB22380F1E700540040A1
:1018A400383A000838B504460D46104B984208D023
:1018B40003F58063984204D04FF4D9710C48FFF7C4
:1018C4008CF9012D05D855B1238843F40073238086
:1018D40038BD40F2B3110648FFF77FF9F3E72388D8
:1018E4009BB223F400739BB22380F1E700540040C1
:1018F400383A000838B504460D46104B984208D0D3
:1019040003F58063984204D04FF4CD710C48FFF77F
:1019140064F9012D05D855B1238843F480732380DD
:1019240038BD40F29B110648FFF757F9F3E72388C7
:101934009BB223F480739BB22380F1E700540040F0
:10194400383A000838B504460D46104B984208D082
:1019540003F58063984204D04FF4A9710C48FFF753
:101964003CF9012D05D855B1238843F001032380A8
:1019740038BD40F253110648FFF72FF9F3E72388E7
:101984009BB223F001039BB22380F1E70054004093
:10199400383A000841F288330360002383804BF611
:1019A400FF72C280038143814FF480438381704777
:1019B400F0B587B004460D46564B984207D003F560
:1019C4008063984203D0C6215348FFF706F92B6879
:1019D400013B524A934257D8AB881BB1022B01D02A
:1019E4000A2B56D1EB88B3F5804F03D04BF6FF7228
:1019F400934253D12B89B3F5806F54D26B89B3F5DD
:101A0400806F01D0002B53D1AB89B3F5804F02D046
:101A1400B3F5404F51D1A688B6B226F03F06B6B210
:101A240001A8FFF7B3FC03983D4AA2FB0032920CD5
:101A340097B23E43A680218889B221F0010189B280
:101A440021802B6837498B423CD85B00B0FBF3F311
:101A54009BB2032B00D8042301372784A383238854
:101A640043F00103238023889BB223F4816323F092
:101A74000203AA8869890A4313432380AB892A890C
:101A84001343238107B0F0BDC7212348FFF7A5F80E
:101A9400A2E7C8212048FFF7A0F8A3E7C9211E4800
:101AA400FFF79BF8A6E7CA211B48FFF796F8A5E7BE
:101AB400CB211948FFF791F8A6E7CC211648FFF788
:101AC4008CF8A8E7EE884BF6FF718E421BD003EB2F
:101AD400830303EB8303B0FBF3F39BB243F4804330
:101AE400C3F30B0109B943F0010343F400434FF47A
:101AF400967102FB01F20C4981FB02129211013230
:101B040092B22284AAE703EB4303B0FBF3F39BB244
:101B1400E6E700BF00540040383A00087F1A060088
:101B240083DE1B43A0860100D34D62104FF6FF7382
:101B34000380022383700423C3707047F8B50546FD
:101B44000C46494B98421BD003F58063984217D04A
:101B540003F58063984213D003F5806398420FD055
:101B640003F5806398420BD003F58063984207D055
:101B740003F58063984203D0B2213C48FFF72DF867
:101B8400E3786BB1042B0BD0282B09D0482B07D05A
:101B9400142B05D0102B03D01C2B01D0182B14D1DF
:101BA4002388BBB1E37803F00F06304613F0100F1F
:101BB40006D0A378013BDBB2022B10D8A0783043C7
:101BC40023785BB32E68002310E0B3212748FFF786
:101BD40004F8E5E7B4212548FEF7FFFFE2E7BB215F
:101BE4002248FEF7FAFFE9E76A610133072B14D8AC
:101BF40001229A40218832EA0101F6D199000F2787
:101C04008F4026EA070600FA01F10E43E1782829FD
:101C1400EAD04829E9D12A61E7E72E602388FF2B1F
:101C240020D96E68002302E06A6115E00133072BB6
:101C340017D803F1080101228A40218832EA010100
:101C4400F4D199000F278F4026EA070600FA01F124
:101C54000E43E1782829E7D0E1784829E6D12A61C2
:101C6400E4E76E60F8BD00BF00080140F0390008E9
:101C740010B5044610F0704F02D0094B034003B96D
:101C840024B940F20E210748FEF7A7FF14F0805F45
:101C940002D0054B5C6010BD044B5C60FBE700BFE9
:101CA4000000F0EFA83900080004024000000240E0
:101CB40010B50446431E012B40F29480042800F022
:101CC4009180082800F08E80102800F08B80202856
:101CD40000F08880402800F08580802800F0828011
:101CE400B0F5807F7ED0B0F5007F7BD0B0F5806FFB
:101CF40078D0B0F5006F75D0B0F5805F72D0B0F5D4
:101D0400005F6FD0B0F5804F6CD0B0F5004F69D054
:101D1400B0F5803F66D0B0F5003F63D0B0F5802FBA
:101D240060D0B0F5002F5DD0B0F5801F5AD0B0F56B
:101D3400001F57D0B0F5800F54D0B0F5000F51D02C
:101D4400B0F1807F4ED0B0F1007F4BD0B0F1806F06
:101D540048D0B0F1006F45D02C4B984242D00133AB
:101D640098423FD0023398423CD00433984239D051
:101D74000833984236D01033984233D020339842F7
:101D840030D0403398422DD0803398422AD003F586
:101D94008073984226D003F50073984222D003F54D
:101DA400806398421ED0B0F1102F1BD003F5C053AE
:101DB400984217D003F50053984213D003F580439B
:101DC40098420FD003F5004398420BD003F58033BB
:101DD400984207D003F50033984203D003F58023DB
:101DE400984208D114F0805F0BD0094B1B68234242
:101DF4000AD0012010BD40F2B7110648FEF7EDFEEF
:101E0400F0E7054B1B68F2E70020F3E70100001040
:101E140000040240A83900080000024038B5044616
:101E24000D46164B984226D01433984223D01433CF
:101E3400984220D0143398421DD0143398421AD0BB
:101E44001433984217D01433984214D003F56273B4
:101E5400984210D0143398420DD0143398420AD0CB
:101E64001433984207D01433984204D04FF4B2711B
:101E74000348FEF7B2FE656038BD00BF08000240AB
:101E8400A839000870B504460D461646224B984200
:101E940026D01433984223D01433984220D01433DC
:101EA40098421DD0143398421AD01433984217D054
:101EB4001433984214D003F56273984210D014334B
:101EC40098420DD0143398420AD01433984207D064
:101ED4001433984204D040F249111048FEF77DFEB5
:101EE40035F00E0300D125B94FF4A5710B48FEF768
:101EF40074FE012E04D84EB123681D43256070BDC5
:101F040040F24B110548FEF768FEF4E7236823EA24
:101F140005052560F3E700BF08000240A839000862
:101F240038B504460D461F4B984226D014339842C8
:101F340023D01433984220D0143398421DD0143344
:101F440098421AD01433984217D01433984214D0BC
:101F540003F56273984210D0143398420DD01433B1
:101F640098420AD01433984207D01433984204D0CC
:101F740040F229110C48FEF730FE012D05D855B169
:101F8400236843F00103236038BD4FF4957106487C
:101F9400FEF723FEF3E7236823F001031B041B0C65
:101FA4002360F1E708000240A839000808B54FF0A3
:101FB4000060FFF77DFE40B14FF00060FFF758FE70
:101FC40000210948FFF7ACFF08BD4FF00070FFF790
:101FD4006FFE0028F4D04FF00070FFF749FE034B6A
:101FE40000229A70ECE700BF80000240B00000209D
:101FF40008B54FF40020FFF75BFE40B14FF400201A
:10200400FFF736FE00210948FFF78AFF08BD4FF4A9
:102014000030FFF74DFE0028F4D04FF40030FFF7F6
:1020240027FE034B00225A70ECE700BF5800024021
:10203400B000002008B54FF40060FFF739FE40B14E
:102044004FF40060FFF714FE00210948FFF768FF12
:1020540008BD4FF40070FFF72BFE0028F4D04FF4B6
:102064000070FFF705FE034B00221A70ECE700BF77
:1020740030000240B000002070B50546FF280CD0A7
:102084002846FEF765F9044628B16E1EF6B21C4BCD
:102094009C5D5CB90024204670BD0124032CEFD85C
:1020A4002046FFF7E9FF0134E4B2F7E72846FEF7DC
:1020B4009BF90028EED12EB1012E1CD0022E1CD18A
:1020C400104D00E0104D00212846FFF729FF0F4B6B
:1020D40033F816100231890089B22846FFF79EFEB4
:1020E40001212846FFF71CFF094B01229A55044B96
:1020F40000229A55CFE7074DE5E70446CBE700BF3A
:102104001401002080000240300002400001002041
:10211400B0000020580002402DE9F04186B00023B1
:1021240005930493414B1A68414B1B689A4202D8A9
:1021340006B0BDE8F081FF20FEF756F90028F7D17C
:102144003A4B1B6806333A4A13603A4B1B783A4AB7
:10215400157805EB9305EDB20135EDB233E0582067
:1021640000FB04F0103008440430FEF791F888B9FD
:10217400324A582303FB04235A7A997A93F8540079
:102184000290019100921B7A3A4631464046FEF78E
:10219400A9F932E0284B1878FEF740FB274A582368
:1021A40003FB0423B3F84C209A82E1E7224B18780E
:1021B400FEF714FAFEF7FAFB059BC01A04901E4AB8
:1021C4001378013313701C4B1C782046FEF7B6F8C5
:1021D400E0B1AC421AD2FEF7E9FB0590164B1C782D
:1021E4001649582303FB04F3CA185688978811F834
:1021F400038092F82030002BB1D1104B582202FBFF
:10220400043494F82130002BD4D0CFE70C4A13784F
:102214000133DBB21370032B8AD9FF20FFF72CFFA5
:102224000023074A1370044A137081E70C15002039
:10223400200100200601002007010020A80A002038
:10224400FC00002038B505460C46574B984225D073
:102254001433984222D0143398421FD01433984236
:102264001CD01433984219D01433984216D0143326
:10227400984213D003F5627398420FD014339842F6
:102284000CD01433984209D01433984206D0143336
:10229400984203D0CF214548FEF79FFCA368102B3A
:1022A40001D0002B53D1E368013B4FF6FE729342F9
:1022B40052D82369402B01D0002B52D16369802B63
:1022C40001D0002B52D1A3692BB1B3F5807F02D08A
:1022D400B3F5007F4FD1E3692BB1B3F5806F02D022
:1022E400B3F5006F4CD1236A202B01D0002B4CD1C5
:1022F400636AB3F5405F07D0B3F5005F04D0B3F56C
:10230400805F01D0002B45D1A36AB3F5804F01D083
:10231400002B44D12A6822F4FF4222F07002A36801
:10232400216A0B4321690B4361690B43A1690B4388
:10233400E1690B43616A0B43A16A0B4313432B60AE
:10234400E3686B602368AB606368EB6038BDD021E1
:102354001648FEF742FCA6E7D1211448FEF73DFCDF
:10236400A7E7D2211148FEF738FCA7E7D3210F488D
:10237400FEF733FCA7E7D4210C48FEF72EFCAAE7AE
:10238400D5210A48FEF729FCADE7D6210748FEF718
:1023940024FCADE7D7210548FEF71FFCB4E7D8219C
:1023A4000248FEF71AFCB5E708000240A839000805
:1023B40010B504464F4B984225D01433984222D08E
:1023C400143398421FD0143398421CD014339842CB
:1023D40019D01433984216D01433984213D003F50D
:1023E400627398420FD0143398420CD0143398423D
:1023F40009D01433984206D01433984203D06F2185
:102404003D48FEF7EAFB236823F001031B041B0C81
:102414002360002323606360A360E360354B9C4228
:1024240026D0364B9C4229D0354B9C422CD0354B80
:102434009C422FD0344B9C4232D0344B9C4235D0FA
:10244400334B9C4238D0334B9C423BD0324B9C4262
:102454003ED0324B9C4241D0314B9C4244D0314B14
:102464009C420AD1304A536843F47023536004E019
:102474002E4A536843F00F03536010BD2B4A536830
:1024840043F0F0035360F8E7284A536843F4706359
:102494005360F2E7254A536843F470435360ECE712
:1024A400224A536843F470235360E6E71F4A536893
:1024B40043F470035360E0E71C4A536843F07063CD
:1024C4005360DAE7184A536843F00F035360D4E7C4
:1024D400154A536843F0F0035360CEE7124A536839
:1024E40043F470635360C8E70F4A536843F470437E
:1024F4005360C2E708000240A83900081C000240EB
:102504003000024044000240580002406C00024087
:1025140080000240080402401C04024030040240CF
:1025240044040240580402400004024000000240F7
:1025340038B505460C460F4B98420CD003F5806322
:10254400984208D003F5A053984204D040F20D51AC
:102554000948FEF742FB24F4FC639BB203B924B997
:1025640040F20E510448FEF738FB6FEA14242C6045
:1025740038BD00BF002401406039000810B504468E
:10258400C378012B26D863780F2B28D8A3780F2B78
:102594002AD8E3786BB31C4BDA68D243C2F3022225
:1025A400C2F104000F2323FA02F261788140A37878
:1025B40013400B431B012278DBB214490A4482F80E
:1025C4000033237803F01F005B090122824041F8A5
:1025D400232010BD75210E48FEF7FFFAD3E77621BC
:1025E4000B48FEF7FAFAD1E777210948FEF7F5FA26
:1025F400CFE7237803F01F015B0901228A402033CF
:10260400024941F82320E4E700ED00E000E100E0A6
:10261400803A000808B501460448FEF737FB40211C
:102624000248FEF7DDFA0028F9D008BD0038014061
:1026340010B5044694F9000020B10134C0B2FFF78C
:10264400E9FFF7E710BD00000130C0B201380728E8
:1026540045D8DFE800F0040C141C242C343C214B36
:102664009868800980F0010000F0010070471D4B5C
:102674009868C00980F0010000F001007047194B10
:102684009868000A80F0010000F001007047154BC3
:102694009868400A80F0010000F001007047124B76
:1026A4009868400B80F0010000F0010070470E4B69
:1026B4009868800B80F0010000F0010070470A4B1D
:1026C4009868C00B80F0010000F001007047054BD2
:1026D4009868800A80F0010000F001007047002033
:1026E400704700BF000C0140001001402B4B1A68DA
:1026F4002B4B1B689A4250D910B5284B1B682133C9
:10270400274A136000240FE0264B13F82430DBB172
:10271400013B244A02F8243016E0224B03EB8202E8
:10272400012353700134E4B2032C35D82046FFF75B
:102734008BFF0028E8D01B4B13F82430022B03D85E
:102744000133184A02F824302246164B13F8243079
:10275400022B0DD9134B03EB84035B78002BDCD1E4
:10276400104B03EB84030121D97000219970D4E745
:10277400002BD7D10B4B03EB84035B7833B1094BAC
:1027840003EB84030021D97001219970054B03EBFD
:10279400820200235370C5E710BD70470C1500205A
:1027A4001C010020FC14002030B583B0164C01211C
:1027B4002046FEF751FD154D01212846FEF74CFD3C
:1027C40001212046FEF748FD48238DF807300223F7
:1027D4008DF806304FF47073ADF8043001A920462B
:1027E400FFF7ACF94FF46043ADF8043001A9284673
:1027F400FFF7A4F94FF48063ADF8043001A9204633
:10280400FFF79CF903B030BD000C014000100140FB
:1028140000B583B002AB03E90300BDF80020042136
:102824004FF08040FDF790FEBDF8022003214FF0E9
:102834008040FDF789FEBDF8042002214FF080405E
:10284400FDF782FE03B05DF804FB000010B586B00E
:1028540000214FF40010FEF755FC01214FF4001045
:10286400FEF750FC01214FF40010FEF725FC002177
:102874004FF40010FEF720FC01210820FEF768FC4D
:1028840005A8FFF753F91C238DF81730C023ADF8C2
:10289400143003238DF8163005A91748FFF74EF9B5
:1028A40001A8FFF777F84FF48063ADF80E300023EA
:1028B400ADF80830114B0193114C01A92046FFF7E4
:1028C40077F801224FF4C0612046FEF793FF0121FF
:1028D4002046FFF737F801238DF803301F238DF8C6
:1028E400003005238DF801308DF802306846FFF77B
:1028F40045FE06B010BD00BF000C0140801A060062
:102904000054004010B5074C00224FF4C06120462B
:10291400FEF770FF00212046FFF714F8FFF796FF3B
:1029240010BD00BF0054004008B50D4B1A680D4B94
:102934001B689A4210D20B4B1B682D33084A136054
:10294400094B1B7843B1094B1B7833B90121074B61
:1029540019700748FEF7CEFF08BDFFF7D3FFF5E770
:10296400240100200C1500200D010020CC000020C3
:10297400005400401C4B1A78120212B259780A43D0
:102984001A490A809A78120212B2D87802434A800D
:102994001A79120212B2587902438A801A7A120200
:1029A40012B2587A0243CA809A7A120212B2D87AC0
:1029B40002430A811A7B120212B25B7B13434B81DE
:1029C400002301E00133DBB2052B0BD8084A32F9AE
:1029D4001320002AF6D1054A32F81310044A22F8CB
:1029E4001310EFE7704700BFD0000020C0000020A4
:1029F400B400002070B5554B1C78631E122B00F2F6
:102A04009680DFE803F00A313F4D5B6969696969C3
:102A1400696969696969696969004D494D48FEF7E1
:102A240045FE80B9494B1B78A34200F08480494C91
:102A34004FF400712046FEF715FE4FF480612046E6
:102A4400FEF710FE70BD434DD0212846FEF7BCFEB4
:102A540000212846FEF726FF00212846FEF74AFFFC
:102A64003A4B02221A70DDE73B493A48FEF71EFE54
:102A74000028D7D03B213748FEF7A6FE334B03226C
:102A84001A70CFE735493348FEF710FE0028C9D045
:102A940001213048FEF72EFF2C4B04221A70C1E7A7
:102AA4002B492C48FEF702FE0028BBD0D12129482F
:102AB400FEF78AFE254B05221A70B3E728492548FC
:102AC400FEF7F4FD0028ADD001212248FEF7C2FE36
:102AD4001E4B06221A70A5E722491E48FEF7E6FDA2
:102AE40000289FD0194D2E78063E1A48FEF756FE50
:102AF4001D4B98552B780133DBB22B70132B0CD064
:102B0400124B1B78142B8DD1FFF734FF0F4B01228E
:102B14001A70164B00221A7084E70E4D00212846C5
:102B2400FEF798FE01212846FEF7BCFEE8E7074BB6
:102B340001221A7076E706490648FEF7B7FD002819
:102B44003FF475AF014B01221A7070E73500002085
:102B540001000300005400408200070084000700C5
:102B64000200030040000300D0000020CC0000203D
:102B740000B583B04FF4FA73ADF800300023ADF81C
:102B84000230ADF80430254B1A68254B1B689A4275
:102B940022D9224B1B68FA33214A1360214B1B783C
:102BA400032B0AD8DFE803F0021B252F0023ADF81E
:102BB4000030ADF80230ADF8043002AB13E9030085
:102BC400FFF726FE174A13780133DBB21370032B89
:102BD40002D9134600221A7003B05DF804FB4FF4C7
:102BE400FA73ADF800300023ADF80230ADF80430CC
:102BF400E3E70023ADF800304FF4FA72ADF8022099
:102C0400ADF80430D9E70023ADF80030ADF8023058
:102C14004FF4FA73ADF80430CFE700BF0C15002071
:102C240028010020F814002008B5154B1B7823BB9D
:102C3400134B01221A70134B1B78032B05D8DFE8C2
:102C440003F002131619FFF767FA0E4A13780133DB
:102C5400DBB21370032B02D9134600221A70084BFF
:102C640000221A70012008BDFFF740FDEDE7FFF7D1
:102C74007FFFEAE7FFF758FEE7E70020F3E700BF2E
:102C84000E0100201015002008B50023022B0BD8DC
:102C9400154A32F81300154951F82320024441F82B
:102CA40023200133DBB2F1E7114A13780133DBB29D
:102CB4001370072B11D9002313700CE00B4951F842
:102CC4002320C2F3CF020B4820F81320002241F83E
:102CD40023200133DBB2022BF0D94FF408710648EC
:102CE400FFF726FC08BD00BFE8000020F00000202C
:102CF400A40A0020E0000020002401402DE9F04156
:102D040006460C46FDF71AFB074670B3002C3BD071
:102D14001E4D582303FB06F808F1200028441C220A
:102D24002146043000F0FEFC94F90C2005EB080366
:102D3400DA7362891A829B889A4219D9582202FB53
:102D440006521382114A582303FB0623012283F8F7
:102D54002120228A5A8293F83C3033B90B4B5822F3
:102D640002FB0636202386F83C303846BDE8F08165
:102D74000649582303FB06135B889A42E2D2582281
:102D840002FB06121382DDE70027EEE7A80A002003
:102D94002DE9F04106460C46FDF7D0FA804600289E
:102DA40000F09380002C00F0A8803546582303FBE4
:102DB40006F34033182221465148184400F0B2FC6F
:102DC400032129E00020237994F803C0A3EB0C032A
:102DD400B3FBF2F3DBB24A4F4FF0580C0CFB057C0B
:102DE4008CF80C3013B9237903B14046A37994F8D5
:102DF40005C0A3EB0C03B3FBF2F3DBB2404F4FF07F
:102E0400580C0CFB057C8CF80D300BB9A379EBB98D
:102E140008B1013189B2D8B1A26801EB810303EB97
:102E24008303B2FBF3F2A37860781B1AB3FBF2F3CB
:102E3400DBB2334F582000FB0570C372002BC1D1A5
:102E4400A3780BB90020BEE74046BCE74046E0E764
:102E54002B48582303FB0603A3F84C10998294F9DA
:102E64000E30B3F1FF3F33D061782548582303FB7C
:102E740006031972E17859726179997294F90E1006
:102E84001F48582303FB06039973DB690021A3FB46
:102E940002033BBB41B31A4A582303FB0623002217
:102EA400DA61174A582303FB062393F854302BB9ED
:102EB400582303FB0623202283F85420104B582266
:102EC40002FB0636012386F820304046BDE8F08137
:102ED400A178582303FB0603197221795972A17949
:102EE4009972CBE70121D5E7236902FB03F2044978
:102EF400582303FB0613DA61D3E74FF00008E4E735
:102F0400A80A00202DE9F041254D2D781D2D3DD82E
:102F140091423DD81F4616460D460446FDF724FA55
:102F2400002838D031462046FDF71EFA002834D058
:102F34001B4A92F800801B48582303FB08F3C1186E
:102F4400C4544D808E8008F10103137006994046E5
:102F5400FFF71EFF30B9134A582303FB082300224E
:102F640083F820200E4B187801383946C0B2FFF799
:102F7400C5FE30B90B4B582202FB0838002388F8F1
:102F84002130074B18780138C0B202E01F2000E05E
:102F94001F20BDE8F0811F20FBE71F20F9E700BFD9
:102FA40006010020A80A00202DE9F04F97B001384F
:102FB400C4B2022C00F2B2800E46C82900D9C82639
:102FC40027468B4B23F814604FF00008894B03F815
:102FD4000480894B03F80480DFF824924FF44A7587
:102FE40005FB04954FF448724146284600F0A8FBBF
:102FF40004224146284600F0A3FBB246701CCA23B3
:1030040003FB04000422FF2109EB800000F098FB7D
:1030140001239E420AD3CA2202FB07327749087869
:10302400774901F8220001339BB2F2E794B1012CF5
:1030340077D0022C72D1DFF8F48100274FF0110908
:10304400704E714B01934FF0140BA3F57843803B02
:1030540000930DE04FF000086C4F4FF00D096C4EDB
:103064006C4B01934FF0A00BA3F57843303B0093D6
:1030740001210846FEF76CF801210098FEF7ECF8F0
:1030840001210198FEF74EF91FB101213846FEF7E0
:10309400BFF8B8F1000F03D001214046FEF77EF8D7
:1030A40018238DF8573003238DF85630ADF854B0FB
:1030B40015A90098FEF742FDDDF804B05846FFF765
:1030C40077F90A960B9510230C930AF102039B00DF
:1030D4000D9300230E9380220F9210931193129359
:1030E4004FF44052139214930AA95846FFF7AAF8D2
:1030F4008DF8249002238DF8253001258DF8265073
:103104008DF8275009A8FFF739FA2A460A215846AC
:10311400FEF7B8FEAC4211D9022C3DD017B0BDE881
:10312400F08F4FF000083C4F4FF00F093B4E3C4BE3
:1031340001934FF4204B3B4B009399E70023ADF8E8
:1031440010304FF48272ADF81220ADF8143002251D
:10315400ADF816500124ADF818404FF40072ADF8E4
:103164001A201822ADF81C20ADF81E304FF6FF735C
:10317400ADF8203004A93846FDF702FF2146384651
:10318400FDF772FE224629463846FDF799FE214690
:103194003846FDF7C9FEC1E7234B04930024ADF87C
:1031A4001440ADF81640ADF81840ADF81C400823A3
:1031B400ADF81A3004A94046FEF77AF94FF40063DB
:1031C400ADF808304FF48073ADF80E30ADF80C4014
:1031D400ADF80A4002A94046FDF7F4FD0122802122
:1031E4004046FDF77FFD01214046FDF7B7FD95E719
:1031F4000001002014010020B00000203400002051
:103204002C010020044400408000024000300140B2
:103214000C30014030000240003800400C380040BF
:1032240058000240000C014080841E00004400400D
:1032340010B5044600F040FB013401386FF0004340
:10324400B3FBF4F3B0FBF3F010BD000070B58AB02B
:103254000D4607280FD008281CD006281ED801AE1A
:10326400144C242303FB00440FCC0FC60FCC0FC611
:103274002368336012E00620FFF7DAFF01AE0D4B3E
:10328400242404FB00340FCC0FC60FCC0FC62368D4
:10329400336003E00023029304930693029B9B088C
:1032A4006B70049B9B08AB70069B9B08EB700AB089
:1032B40070BD00BFB43B000870B58AB00C46072847
:1032C4000FD008281CD006281ED801AE1C4D24237C
:1032D40003FB00550FCD0FC60FCD0FC62B6833600F
:1032E40012E00620FFF7A4FF01AE154B242505FBD1
:1032F40000350FCD0FC60FCD0FC62B68336003E02A
:103304000023029304930693029AC2F38702A270E5
:103314000C49A1FB023252086270049AC2F387027C
:103324002271A1FB02325208E270069BC3F38703A9
:10333400A371A1FB03235B0863710AB070BD00BFD6
:10334400B43B0008ABAAAAAA80B590B0FDF7B6FBBF
:10335400FEF77AF8FFF728FA05210120FFF724FE8B
:103364000620FDF78BF8FF20FEF786FE09A9022050
:10337400FFF76CFF00270E970124ADF82C40ADF841
:103384002A400226ADF828608DF824400A23ADF8BF
:103394003430ADF832408DF83040ADF82E4003ADF6
:1033A40029460620FFF788FF07978DF80C60FF2356
:1033B4008DF81A304FF42F730593009509AB05224D
:1033C40021462046FFF79EFDFFF72EFC064B1A68A8
:1033D400064B1B689A42F7D9034B1B6803F5967397
:1033E400024A1360F0E700BF0C150020180100200A
:1033F40010B5114B1B6813F4004F0BD00E4B4FF458
:1034040000425A600D4B01221A7000210C48FEF74D
:1034140087FD10BD084B1B6813F4005FF5D0064B05
:103424004FF400525A60074C206800F073F90023EF
:103434002360054A1370E8E70000024012150020DB
:1034440044000240A8000020AC00002070B50546EE
:10345400194B187868BB0C4616469DB100211748D5
:10346400FEF75EFD7CB121461448FEF7D7FC96B901
:10347400124BDD600124104B1C7021460F48FEF7EF
:103484004FFD204670BD2B4613F9012B002AEAD0CC
:103494000134A4B2F8E70121204600F025F9084ED2
:1034A40030602246294600F03DF93268034BDA6069
:1034B400E0E70020E6E700BFAC0000204400024043
:1034C400A800002008B56E4B1B8813F0200F66D0AF
:1034D4006B4B9B88DBB26B4A13706B4B1B78002BD6
:1034E40058D11378443B202B59D8DFE803F03358E4
:1034F400583D582A585849585858215858581B5814
:103504005858585858585858585858115858150019
:103514005E48FFF78DF842E0002211465C48FFF751
:1035240095FF3CE00323584A13705A4A137036E05F
:103534000023584A1370544A01211170564A1370DB
:103544002DE00123534A13704F4A1370524B00224B
:103554001A7024E04F4B02221A704B4B01221A704E
:103564004D4B00221A701AE04A4B04221A70464B43
:1035740003221A70002211464848FFF767FF0EE045
:10358400444B05221A70404B01221A70424B002210
:103594001A7004E03C4B1B78DBB2012B00D008BD51
:1035A4003C4B1B78DBB2052BF9D801A252F823F06F
:1035B400CD350008FB35000829360008A33500087E
:1035C400A335000857360008334B1B782D490A7879
:1035D400D2B23348C2540A78D2B20A2A01D00A7845
:1035E4002AB92F4A0021D154274A032111700133EB
:1035F400294A1370D3E7284B1B7822490A78D2B2A0
:103604002748C2540A78D2B20A2A01D00A782AB9C1
:10361400234A0021D1541C4A0321117001331E4A4C
:103624001370BCE71C4B1B7816490A78D2B21C48AD
:10363400C2540A78D2B20A2A01D00A782AB9184A9E
:103644000021D154104A032111700133124A13701E
:10365400A5E7114B1B780B490A78D2B21048C25423
:103664000A78D2B20A2A01D00A7822B900220C4977
:10367400CA5405490A700133074A13708FE700BF23
:10368400003801401315002028150020503B000885
:10369400583B0008111500200C0100202C150020B7
:1036A4001415002008B503460C4A12685AB10B4A97
:1036B4001068033323F003030344094A934206D8F2
:1036C400064A136008BD054A06491160EFE700F099
:1036D40013F80C2303604FF0FF30F3E708010020D8
:1036E400004C00207C150020024B0A460146186855
:1036F40000F02EB83C000020014B1868704700BF52
:103704003C000020024B0146186800F07BB800BF63
:103714003C000020024B0146186800F027B800BFA7
:103724003C0000200A44914200F1FF3300D170476D
:1037340010B511F8014B914203F8014FF9D110BDB6
:1037440003460244934200D1704703F8011BF9E792
:1037540038B502FB01F4214600F054F8054618B1CF
:1037640022460021FFF7ECFF284638BD38B5054650
:10377400002943D051F8043C0C1F002BB8BFE418B7
:1037840000F0DEF81E4A1368104633B96360146013
:103794002846BDE8384000F0D9B8A3420BD92168C7
:1037A4006218934201BF1A685B6852182260636012
:1037B4000460EDE713465A680AB1A242FAD91968BF
:1037C4005818A0420BD1206801445818824219604D
:1037D400DED110685268014419605A60D8E702D9F2
:1037E4000C232B60D4E7206821188A4201BF11689A
:1037F40052680918216062605C60C9E738BD00BF87
:1038040060150020F8B5CD1C25F0030508350C2DF6
:1038140038BF0C25002D064601DBA94203D90C2331
:1038240033600020F8BD00F08BF821490A68144683
:103834009CB9204F3B6823B92146304600F070F80C
:1038440038602946304600F06BF8431C23D10C2322
:103854003046336000F07AF8E3E723685B1B17D443
:103864000B2B03D923601C44256004E06368A24247
:103874000CBF0B605360304600F068F804F10B0095
:10388400231D20F00700C21ACCD01B1AA350C9E78D
:1038940022466468CCE7C41C24F00304A042E3D0AD
:1038A400211A304600F03CF80130DDD1CFE700BFEB
:1038B4006015002064150020134B10B51C68A36B21
:1038C4007BB91820FFF71EFF104A114BA063C0E913
:1038D4000023104B012283600B2383810023C0E962
:1038E4000423A16B0C480A694B6950430B4C04FB3D
:1038F4000300A2FB04345A1C044444F10000C1E94F
:10390400042020F0004010BD3C0000200E33CDAB5D
:1039140034126DE6ECDE05002DF451582D7F954CE4
:1039240038B50023054C054608462360FFF7BAFE68
:10393400431C02D1236803B12B6038BD68150020F5
:10394400014800F009B800BF70150020014800F0DC
:1039540004B800BF70150020704770472E2E2F6CDE
:1039640065645365676D656E742F73746D3332755A
:1039740074696C732F73797374656D2F7372632F0D
:1039840073746D333266312D73746470657269704B
:10399400682F73746D3332663130785F6164632EDF
:1039A400630000002E2E2F6C65645365676D656E91
:1039B400742F73746D33327574696C732F737973E8
:1039C40074656D2F7372632F73746D333266312D8A
:1039D4007374647065726970682F73746D333266C2
:1039E4003130785F646D612E630000002E2E2F6CE1
:1039F40065645365676D656E742F73746D333275CA
:103A040074696C732F73797374656D2F7372632F7C
:103A140073746D333266312D7374647065726970BA
:103A2400682F73746D3332663130785F6770696FF5
:103A34002E6300002E2E2F6C65645365676D656ED2
:103A4400742F73746D33327574696C732F73797357
:103A540074656D2F7372632F73746D333266312DF9
:103A64007374647065726970682F73746D33326631
:103A74003130785F6932632E630000002E2E2F6C84
:103A840065645365676D656E742F73746D33327539
:103A940074696C732F73797374656D2F7372632FEC
:103AA40073746D333266312D73746470657269702A
:103AB400682F6D6973632E63000000002E2E2F6C37
:103AC40065645365676D656E742F73746D333275F9
:103AD40074696C732F73797374656D2F7372632FAC
:103AE40073746D333266312D7374647065726970EA
:103AF400682F73746D3332663130785F7263632E6E
:103B0400630000002E2E2F6C65645365676D656E2F
:103B1400742F73746D33327574696C732F73797386
:103B240074656D2F7372632F73746D333266312D28
:103B34007374647065726970682F73746D33326660
:103B44003130785F7370692E6300000048656C6CD7
:103B54006F210A00444D41207465737420747261AE
:103B64006E736665720A00002E2E2F6C65645365B1
:103B7400676D656E742F73746D33327574696C730D
:103B84002F73797374656D2F7372632F73746D3330
:103B94003266312D7374647065726970682F737442
:103BA4006D3332663130785F75736172742E6300E1
:103BB40000000000F401000000000000000000000C
:103BC40000000000F4010000E80300000000000011
:103BD40001000000000000000000000000000000E0
:103BE400F401000000000000F4010000E8030000FC
:103BF4000000000001000000000000005802000066
:103C0400000000009001000000000000000000001F
:103C1400E8030000000000000100000000000000B4
:103C2400F401000000000000F401000000000000A6
:103C3400F4010000E803000000000000010000009F
:103C440000000000F401000000000000000000007B
:103C54000000000000000000E80300000000000075
:103C6400010000000000000000000000000000004F
:103C7400F40100000000000000000000E803000060
:103C8400000000000100000000000000000000002F
:103C9400000000000000000000000000F40100002B
:0C3CA400E8030000000000000100000028
:103CB00078563412020406080000000000000000DC
:103CC00001020304060708090000000001020304C2
:103CD000010203040607080900A24A04100100209B
:103CE00000000000FF01FFFF48000000400000202E
:103CF00000000000000000000000000000000000C4
:103D000000000000000000000000000000000000B3
:103D100000000000000000000000000000000000A3
:103D20000000000000000000000000000000000093
:103D30000000000000000000000000000000000083
:103D40000000000000000000000000000000000073
:043D500032547698DB
:040000050800016D81
:00000001FF
